{
	"src/KipuBankV2.sol": {
		"KipuBankV2": {
			"abi": [
				{
					"inputs": [
						{
							"internalType": "address",
							"name": "_priceFeed",
							"type": "address"
						},
						{
							"internalType": "uint256",
							"name": "_bankCapUSD",
							"type": "uint256"
						}
					],
					"stateMutability": "nonpayable",
					"type": "constructor"
				},
				{
					"inputs": [],
					"name": "AccessControlBadConfirmation",
					"type": "error"
				},
				{
					"inputs": [
						{
							"internalType": "address",
							"name": "account",
							"type": "address"
						},
						{
							"internalType": "bytes32",
							"name": "neededRole",
							"type": "bytes32"
						}
					],
					"name": "AccessControlUnauthorizedAccount",
					"type": "error"
				},
				{
					"inputs": [],
					"name": "ReentrancyGuardReentrantCall",
					"type": "error"
				},
				{
					"anonymous": false,
					"inputs": [
						{
							"indexed": true,
							"internalType": "address",
							"name": "user",
							"type": "address"
						}
					],
					"name": "AccountCreated",
					"type": "event"
				},
				{
					"anonymous": false,
					"inputs": [
						{
							"indexed": true,
							"internalType": "address",
							"name": "user",
							"type": "address"
						},
						{
							"indexed": false,
							"internalType": "uint256",
							"name": "amount",
							"type": "uint256"
						}
					],
					"name": "DepositMade",
					"type": "event"
				},
				{
					"anonymous": false,
					"inputs": [
						{
							"indexed": true,
							"internalType": "bytes32",
							"name": "role",
							"type": "bytes32"
						},
						{
							"indexed": true,
							"internalType": "bytes32",
							"name": "previousAdminRole",
							"type": "bytes32"
						},
						{
							"indexed": true,
							"internalType": "bytes32",
							"name": "newAdminRole",
							"type": "bytes32"
						}
					],
					"name": "RoleAdminChanged",
					"type": "event"
				},
				{
					"anonymous": false,
					"inputs": [
						{
							"indexed": true,
							"internalType": "bytes32",
							"name": "role",
							"type": "bytes32"
						},
						{
							"indexed": true,
							"internalType": "address",
							"name": "account",
							"type": "address"
						},
						{
							"indexed": true,
							"internalType": "address",
							"name": "sender",
							"type": "address"
						}
					],
					"name": "RoleGranted",
					"type": "event"
				},
				{
					"anonymous": false,
					"inputs": [
						{
							"indexed": true,
							"internalType": "bytes32",
							"name": "role",
							"type": "bytes32"
						},
						{
							"indexed": true,
							"internalType": "address",
							"name": "account",
							"type": "address"
						},
						{
							"indexed": true,
							"internalType": "address",
							"name": "sender",
							"type": "address"
						}
					],
					"name": "RoleRevoked",
					"type": "event"
				},
				{
					"anonymous": false,
					"inputs": [
						{
							"indexed": true,
							"internalType": "address",
							"name": "user",
							"type": "address"
						},
						{
							"indexed": true,
							"internalType": "address",
							"name": "token",
							"type": "address"
						},
						{
							"indexed": false,
							"internalType": "uint256",
							"name": "amount",
							"type": "uint256"
						}
					],
					"name": "TokenDeposit",
					"type": "event"
				},
				{
					"anonymous": false,
					"inputs": [
						{
							"indexed": true,
							"internalType": "address",
							"name": "user",
							"type": "address"
						},
						{
							"indexed": true,
							"internalType": "address",
							"name": "token",
							"type": "address"
						},
						{
							"indexed": false,
							"internalType": "uint256",
							"name": "amount",
							"type": "uint256"
						}
					],
					"name": "TokenWithdrawal",
					"type": "event"
				},
				{
					"anonymous": false,
					"inputs": [
						{
							"indexed": true,
							"internalType": "address",
							"name": "from",
							"type": "address"
						},
						{
							"indexed": true,
							"internalType": "address",
							"name": "to",
							"type": "address"
						},
						{
							"indexed": false,
							"internalType": "uint256",
							"name": "amount",
							"type": "uint256"
						}
					],
					"name": "TransferMade",
					"type": "event"
				},
				{
					"anonymous": false,
					"inputs": [
						{
							"indexed": true,
							"internalType": "address",
							"name": "user",
							"type": "address"
						},
						{
							"indexed": false,
							"internalType": "uint256",
							"name": "amount",
							"type": "uint256"
						}
					],
					"name": "WithdrawalMade",
					"type": "event"
				},
				{
					"stateMutability": "payable",
					"type": "fallback"
				},
				{
					"inputs": [],
					"name": "ADMIN_ROLE",
					"outputs": [
						{
							"internalType": "bytes32",
							"name": "",
							"type": "bytes32"
						}
					],
					"stateMutability": "view",
					"type": "function"
				},
				{
					"inputs": [],
					"name": "CLIENT_ROLE",
					"outputs": [
						{
							"internalType": "bytes32",
							"name": "",
							"type": "bytes32"
						}
					],
					"stateMutability": "view",
					"type": "function"
				},
				{
					"inputs": [],
					"name": "DEFAULT_ADMIN_ROLE",
					"outputs": [
						{
							"internalType": "bytes32",
							"name": "",
							"type": "bytes32"
						}
					],
					"stateMutability": "view",
					"type": "function"
				},
				{
					"inputs": [],
					"name": "MANAGER_ROLE",
					"outputs": [
						{
							"internalType": "bytes32",
							"name": "",
							"type": "bytes32"
						}
					],
					"stateMutability": "view",
					"type": "function"
				},
				{
					"inputs": [
						{
							"internalType": "address",
							"name": "token",
							"type": "address"
						}
					],
					"name": "allowToken",
					"outputs": [],
					"stateMutability": "nonpayable",
					"type": "function"
				},
				{
					"inputs": [
						{
							"internalType": "address",
							"name": "",
							"type": "address"
						}
					],
					"name": "allowedTokens",
					"outputs": [
						{
							"internalType": "bool",
							"name": "",
							"type": "bool"
						}
					],
					"stateMutability": "view",
					"type": "function"
				},
				{
					"inputs": [],
					"name": "bankCapUSD",
					"outputs": [
						{
							"internalType": "uint256",
							"name": "",
							"type": "uint256"
						}
					],
					"stateMutability": "view",
					"type": "function"
				},
				{
					"inputs": [
						{
							"internalType": "uint256",
							"name": "weiAmount",
							"type": "uint256"
						}
					],
					"name": "convertETHtoUSD",
					"outputs": [
						{
							"internalType": "uint256",
							"name": "",
							"type": "uint256"
						}
					],
					"stateMutability": "view",
					"type": "function"
				},
				{
					"inputs": [
						{
							"internalType": "address",
							"name": "user",
							"type": "address"
						}
					],
					"name": "createAccount",
					"outputs": [],
					"stateMutability": "nonpayable",
					"type": "function"
				},
				{
					"inputs": [],
					"name": "deposit",
					"outputs": [],
					"stateMutability": "payable",
					"type": "function"
				},
				{
					"inputs": [
						{
							"internalType": "address",
							"name": "token",
							"type": "address"
						},
						{
							"internalType": "uint256",
							"name": "amount",
							"type": "uint256"
						}
					],
					"name": "depositERC20",
					"outputs": [],
					"stateMutability": "nonpayable",
					"type": "function"
				},
				{
					"inputs": [],
					"name": "depositsPaused",
					"outputs": [
						{
							"internalType": "bool",
							"name": "",
							"type": "bool"
						}
					],
					"stateMutability": "view",
					"type": "function"
				},
				{
					"inputs": [
						{
							"internalType": "address",
							"name": "token",
							"type": "address"
						}
					],
					"name": "disallowToken",
					"outputs": [],
					"stateMutability": "nonpayable",
					"type": "function"
				},
				{
					"inputs": [],
					"name": "getBalance",
					"outputs": [
						{
							"internalType": "uint256",
							"name": "",
							"type": "uint256"
						}
					],
					"stateMutability": "view",
					"type": "function"
				},
				{
					"inputs": [],
					"name": "getLatestETHPrice",
					"outputs": [
						{
							"internalType": "int256",
							"name": "",
							"type": "int256"
						}
					],
					"stateMutability": "view",
					"type": "function"
				},
				{
					"inputs": [
						{
							"internalType": "bytes32",
							"name": "role",
							"type": "bytes32"
						}
					],
					"name": "getRoleAdmin",
					"outputs": [
						{
							"internalType": "bytes32",
							"name": "",
							"type": "bytes32"
						}
					],
					"stateMutability": "view",
					"type": "function"
				},
				{
					"inputs": [
						{
							"internalType": "address",
							"name": "token",
							"type": "address"
						}
					],
					"name": "getTokenBalance",
					"outputs": [
						{
							"internalType": "uint256",
							"name": "",
							"type": "uint256"
						}
					],
					"stateMutability": "view",
					"type": "function"
				},
				{
					"inputs": [
						{
							"internalType": "address",
							"name": "user",
							"type": "address"
						}
					],
					"name": "grantManagerRole",
					"outputs": [],
					"stateMutability": "nonpayable",
					"type": "function"
				},
				{
					"inputs": [
						{
							"internalType": "bytes32",
							"name": "role",
							"type": "bytes32"
						},
						{
							"internalType": "address",
							"name": "account",
							"type": "address"
						}
					],
					"name": "grantRole",
					"outputs": [],
					"stateMutability": "nonpayable",
					"type": "function"
				},
				{
					"inputs": [
						{
							"internalType": "bytes32",
							"name": "role",
							"type": "bytes32"
						},
						{
							"internalType": "address",
							"name": "account",
							"type": "address"
						}
					],
					"name": "hasRole",
					"outputs": [
						{
							"internalType": "bool",
							"name": "",
							"type": "bool"
						}
					],
					"stateMutability": "view",
					"type": "function"
				},
				{
					"inputs": [
						{
							"internalType": "uint256",
							"name": "newCapUSD",
							"type": "uint256"
						}
					],
					"name": "increaseBankCap",
					"outputs": [],
					"stateMutability": "nonpayable",
					"type": "function"
				},
				{
					"inputs": [],
					"name": "pauseDeposits",
					"outputs": [],
					"stateMutability": "nonpayable",
					"type": "function"
				},
				{
					"inputs": [],
					"name": "priceFeed",
					"outputs": [
						{
							"internalType": "contract AggregatorV3Interface",
							"name": "",
							"type": "address"
						}
					],
					"stateMutability": "view",
					"type": "function"
				},
				{
					"inputs": [
						{
							"internalType": "bytes32",
							"name": "role",
							"type": "bytes32"
						},
						{
							"internalType": "address",
							"name": "callerConfirmation",
							"type": "address"
						}
					],
					"name": "renounceRole",
					"outputs": [],
					"stateMutability": "nonpayable",
					"type": "function"
				},
				{
					"inputs": [
						{
							"internalType": "bytes32",
							"name": "role",
							"type": "bytes32"
						},
						{
							"internalType": "address",
							"name": "user",
							"type": "address"
						}
					],
					"name": "revokeAnyRole",
					"outputs": [],
					"stateMutability": "nonpayable",
					"type": "function"
				},
				{
					"inputs": [
						{
							"internalType": "address",
							"name": "user",
							"type": "address"
						}
					],
					"name": "revokeManagerRole",
					"outputs": [],
					"stateMutability": "nonpayable",
					"type": "function"
				},
				{
					"inputs": [
						{
							"internalType": "bytes32",
							"name": "role",
							"type": "bytes32"
						},
						{
							"internalType": "address",
							"name": "account",
							"type": "address"
						}
					],
					"name": "revokeRole",
					"outputs": [],
					"stateMutability": "nonpayable",
					"type": "function"
				},
				{
					"inputs": [
						{
							"internalType": "bytes4",
							"name": "interfaceId",
							"type": "bytes4"
						}
					],
					"name": "supportsInterface",
					"outputs": [
						{
							"internalType": "bool",
							"name": "",
							"type": "bool"
						}
					],
					"stateMutability": "view",
					"type": "function"
				},
				{
					"inputs": [],
					"name": "totalDepositedUSD",
					"outputs": [
						{
							"internalType": "uint256",
							"name": "",
							"type": "uint256"
						}
					],
					"stateMutability": "view",
					"type": "function"
				},
				{
					"inputs": [
						{
							"internalType": "address",
							"name": "to",
							"type": "address"
						},
						{
							"internalType": "uint256",
							"name": "amount",
							"type": "uint256"
						}
					],
					"name": "transferTo",
					"outputs": [],
					"stateMutability": "nonpayable",
					"type": "function"
				},
				{
					"inputs": [],
					"name": "unpauseDeposits",
					"outputs": [],
					"stateMutability": "nonpayable",
					"type": "function"
				},
				{
					"inputs": [
						{
							"internalType": "address",
							"name": "client",
							"type": "address"
						}
					],
					"name": "viewBalanceAsManager",
					"outputs": [
						{
							"internalType": "uint256",
							"name": "",
							"type": "uint256"
						}
					],
					"stateMutability": "view",
					"type": "function"
				},
				{
					"inputs": [
						{
							"internalType": "address",
							"name": "client",
							"type": "address"
						},
						{
							"internalType": "address",
							"name": "token",
							"type": "address"
						}
					],
					"name": "viewTokenBalanceAsManager",
					"outputs": [
						{
							"internalType": "uint256",
							"name": "",
							"type": "uint256"
						}
					],
					"stateMutability": "view",
					"type": "function"
				},
				{
					"inputs": [
						{
							"internalType": "uint256",
							"name": "amount",
							"type": "uint256"
						}
					],
					"name": "withdraw",
					"outputs": [],
					"stateMutability": "nonpayable",
					"type": "function"
				},
				{
					"inputs": [
						{
							"internalType": "address",
							"name": "token",
							"type": "address"
						},
						{
							"internalType": "uint256",
							"name": "amount",
							"type": "uint256"
						}
					],
					"name": "withdrawERC20",
					"outputs": [],
					"stateMutability": "nonpayable",
					"type": "function"
				},
				{
					"stateMutability": "payable",
					"type": "receive"
				}
			],
			"devdoc": {
				"author": "Maria Eduarda",
				"details": "This contract will evolve step-by-step throughout your project.",
				"errors": {
					"AccessControlBadConfirmation()": [
						{
							"details": "The caller of a function is not the expected one. NOTE: Don't confuse with {AccessControlUnauthorizedAccount}."
						}
					],
					"AccessControlUnauthorizedAccount(address,bytes32)": [
						{
							"details": "The `account` is missing a role."
						}
					],
					"ReentrancyGuardReentrantCall()": [
						{
							"details": "Unauthorized reentrant call."
						}
					]
				},
				"events": {
					"RoleAdminChanged(bytes32,bytes32,bytes32)": {
						"details": "Emitted when `newAdminRole` is set as ``role``'s admin role, replacing `previousAdminRole` `DEFAULT_ADMIN_ROLE` is the starting admin for all roles, despite {RoleAdminChanged} not being emitted to signal this."
					},
					"RoleGranted(bytes32,address,address)": {
						"details": "Emitted when `account` is granted `role`. `sender` is the account that originated the contract call. This account bears the admin role (for the granted role). Expected in cases where the role was granted using the internal {AccessControl-_grantRole}."
					},
					"RoleRevoked(bytes32,address,address)": {
						"details": "Emitted when `account` is revoked `role`. `sender` is the account that originated the contract call:   - if using `revokeRole`, it is the admin role bearer   - if using `renounceRole`, it is the role bearer (i.e. `account`)"
					}
				},
				"kind": "dev",
				"methods": {
					"getRoleAdmin(bytes32)": {
						"details": "Returns the admin role that controls `role`. See {grantRole} and {revokeRole}. To change a role's admin, use {_setRoleAdmin}."
					},
					"grantRole(bytes32,address)": {
						"details": "Grants `role` to `account`. If `account` had not been already granted `role`, emits a {RoleGranted} event. Requirements: - the caller must have ``role``'s admin role. May emit a {RoleGranted} event."
					},
					"hasRole(bytes32,address)": {
						"details": "Returns `true` if `account` has been granted `role`."
					},
					"renounceRole(bytes32,address)": {
						"details": "Revokes `role` from the calling account. Roles are often managed via {grantRole} and {revokeRole}: this function's purpose is to provide a mechanism for accounts to lose their privileges if they are compromised (such as when a trusted device is misplaced). If the calling account had been revoked `role`, emits a {RoleRevoked} event. Requirements: - the caller must be `callerConfirmation`. May emit a {RoleRevoked} event."
					},
					"revokeRole(bytes32,address)": {
						"details": "Revokes `role` from `account`. If `account` had been granted `role`, emits a {RoleRevoked} event. Requirements: - the caller must have ``role``'s admin role. May emit a {RoleRevoked} event."
					},
					"supportsInterface(bytes4)": {
						"details": "Returns true if this contract implements the interface defined by `interfaceId`. See the corresponding https://eips.ethereum.org/EIPS/eip-165#how-interfaces-are-identified[ERC section] to learn more about how these ids are created. This function call must use less than 30 000 gas."
					}
				},
				"title": "KipuBankV2 - Enhanced multi-asset vault with access control and oracle support",
				"version": 1
			},
			"evm": {
				"assembly": "    /* \"src/KipuBankV2.sol\":646:9335  contract KipuBankV2 is AccessControl, ReentrancyGuard {... */\n  mstore(0x40, 0x80)\n    /* \"src/KipuBankV2.sol\":1301:1306  false */\n  0x00\n    /* \"src/KipuBankV2.sol\":1272:1306  bool public depositsPaused = false */\n  0x04\n  exp(0x0100, 0x00)\n  dup2\n  sload\n  dup2\n  0xff\n  mul\n  not\n  and\n  swap1\n  dup4\n  iszero\n  iszero\n  mul\n  or\n  swap1\n  sstore\n  pop\n    /* \"src/KipuBankV2.sol\":2238:2625  constructor(address _priceFeed, uint256 _bankCapUSD) {... */\n  callvalue\n  dup1\n  iszero\n  tag_1\n  jumpi\n  revert(0x00, 0x00)\ntag_1:\n  pop\n  mload(0x40)\n  sub(codesize, bytecodeSize)\n  dup1\n  bytecodeSize\n  dup4\n  codecopy\n  dup2\n  dup2\n  add\n  0x40\n  mstore\n  dup2\n  add\n  swap1\n  tag_2\n  swap2\n  swap1\n  tag_3\n  jump\t// in\ntag_2:\n    /* \"@openzeppelin/contracts/utils/ReentrancyGuard.sol\":2365:2366  1 */\n  0x01\n    /* \"@openzeppelin/contracts/utils/ReentrancyGuard.sol\":2539:2585  _reentrancyGuardStorageSlot().getUint256Slot() */\n  tag_7\n    /* \"@openzeppelin/contracts/utils/ReentrancyGuard.sol\":2539:2568  _reentrancyGuardStorageSlot() */\n  tag_8\n    /* \"@openzeppelin/contracts/utils/ReentrancyGuard.sol\":2539:2566  _reentrancyGuardStorageSlot */\n  shl(0x20, tag_9)\n    /* \"@openzeppelin/contracts/utils/ReentrancyGuard.sol\":2539:2568  _reentrancyGuardStorageSlot() */\n  0x20\n  shr\n  jump\t// in\ntag_8:\n    /* \"@openzeppelin/contracts/utils/ReentrancyGuard.sol\":2539:2583  _reentrancyGuardStorageSlot().getUint256Slot */\n  shl(0x20, tag_10)\n    /* \"@openzeppelin/contracts/utils/ReentrancyGuard.sol\":2539:2585  _reentrancyGuardStorageSlot().getUint256Slot() */\n  0x20\n  shr\n  jump\t// in\ntag_7:\n    /* \"@openzeppelin/contracts/utils/ReentrancyGuard.sol\":2539:2591  _reentrancyGuardStorageSlot().getUint256Slot().value */\n  0x00\n  add\n    /* \"@openzeppelin/contracts/utils/ReentrancyGuard.sol\":2539:2605  _reentrancyGuardStorageSlot().getUint256Slot().value = NOT_ENTERED */\n  dup2\n  swap1\n  sstore\n  pop\n    /* \"src/KipuBankV2.sol\":2332:2333  0 */\n  0x00\n    /* \"src/KipuBankV2.sol\":2310:2334  _priceFeed != address(0) */\n  0xffffffffffffffffffffffffffffffffffffffff\n  and\n    /* \"src/KipuBankV2.sol\":2310:2320  _priceFeed */\n  dup3\n    /* \"src/KipuBankV2.sol\":2310:2334  _priceFeed != address(0) */\n  0xffffffffffffffffffffffffffffffffffffffff\n  and\n  sub\n    /* \"src/KipuBankV2.sol\":2302:2365  require(_priceFeed != address(0), \"Invalid price feed address\") */\n  tag_12\n  jumpi\n  mload(0x40)\n  0x08c379a000000000000000000000000000000000000000000000000000000000\n  dup2\n  mstore\n  0x04\n  add\n  tag_13\n  swap1\n  tag_14\n  jump\t// in\ntag_13:\n  mload(0x40)\n  dup1\n  swap2\n  sub\n  swap1\n  revert\ntag_12:\n    /* \"src/KipuBankV2.sol\":2398:2399  0 */\n  0x00\n    /* \"src/KipuBankV2.sol\":2384:2395  _bankCapUSD */\n  dup2\n    /* \"src/KipuBankV2.sol\":2384:2399  _bankCapUSD > 0 */\n  gt\n    /* \"src/KipuBankV2.sol\":2376:2424  require(_bankCapUSD > 0, \"Bank cap must be > 0\") */\n  tag_15\n  jumpi\n  mload(0x40)\n  0x08c379a000000000000000000000000000000000000000000000000000000000\n  dup2\n  mstore\n  0x04\n  add\n  tag_16\n  swap1\n  tag_17\n  jump\t// in\ntag_16:\n  mload(0x40)\n  dup1\n  swap2\n  sub\n  swap1\n  revert\ntag_15:\n    /* \"src/KipuBankV2.sol\":2437:2479  _grantRole(DEFAULT_ADMIN_ROLE, msg.sender) */\n  tag_18\n    /* \"@openzeppelin/contracts/access/AccessControl.sol\":2241:2245  0x00 */\n  0x00\n    /* \"src/KipuBankV2.sol\":2448:2466  DEFAULT_ADMIN_ROLE */\n  0x00\n  shl\n    /* \"src/KipuBankV2.sol\":2468:2478  msg.sender */\n  caller\n    /* \"src/KipuBankV2.sol\":2437:2447  _grantRole */\n  shl(0x20, tag_19)\n    /* \"src/KipuBankV2.sol\":2437:2479  _grantRole(DEFAULT_ADMIN_ROLE, msg.sender) */\n  0x20\n  shr\n  jump\t// in\ntag_18:\n  pop\n    /* \"src/KipuBankV2.sol\":2490:2524  _grantRole(ADMIN_ROLE, msg.sender) */\n  tag_20\n    /* \"src/KipuBankV2.sol\":761:784  keccak256(\"ADMIN_ROLE\") */\n  0xa49807205ce4d355092ef5a8a18f56e8913cf4a201fbe287825b095693c21775\n    /* \"src/KipuBankV2.sol\":2513:2523  msg.sender */\n  caller\n    /* \"src/KipuBankV2.sol\":2490:2500  _grantRole */\n  shl(0x20, tag_19)\n    /* \"src/KipuBankV2.sol\":2490:2524  _grantRole(ADMIN_ROLE, msg.sender) */\n  0x20\n  shr\n  jump\t// in\ntag_20:\n  pop\n    /* \"src/KipuBankV2.sol\":2571:2581  _priceFeed */\n  dup2\n    /* \"src/KipuBankV2.sol\":2537:2546  priceFeed */\n  0x01\n  0x00\n    /* \"src/KipuBankV2.sol\":2537:2582  priceFeed = AggregatorV3Interface(_priceFeed) */\n  0x0100\n  exp\n  dup2\n  sload\n  dup2\n  0xffffffffffffffffffffffffffffffffffffffff\n  mul\n  not\n  and\n  swap1\n  dup4\n  0xffffffffffffffffffffffffffffffffffffffff\n  and\n  mul\n  or\n  swap1\n  sstore\n  pop\n    /* \"src/KipuBankV2.sol\":2606:2617  _bankCapUSD */\n  dup1\n    /* \"src/KipuBankV2.sol\":2593:2603  bankCapUSD */\n  0x02\n    /* \"src/KipuBankV2.sol\":2593:2617  bankCapUSD = _bankCapUSD */\n  dup2\n  swap1\n  sstore\n  pop\n    /* \"src/KipuBankV2.sol\":2238:2625  constructor(address _priceFeed, uint256 _bankCapUSD) {... */\n  pop\n  pop\n    /* \"src/KipuBankV2.sol\":646:9335  contract KipuBankV2 is AccessControl, ReentrancyGuard {... */\n  jump(tag_21)\n    /* \"@openzeppelin/contracts/utils/ReentrancyGuard.sol\":4636:4763  function _reentrancyGuardStorageSlot() internal pure virtual returns (bytes32) {... */\ntag_9:\n    /* \"@openzeppelin/contracts/utils/ReentrancyGuard.sol\":4706:4713  bytes32 */\n  0x00\n    /* \"@openzeppelin/contracts/utils/ReentrancyGuard.sol\":1505:1571  0x9b779b17422d0df92223018b32b4d1fa46e071723d6817e2486d003becc55f00 */\n  0x9b779b17422d0df92223018b32b4d1fa46e071723d6817e2486d003becc55f00\n    /* \"@openzeppelin/contracts/utils/ReentrancyGuard.sol\":4732:4756  REENTRANCY_GUARD_STORAGE */\n  0x00\n  shl\n    /* \"@openzeppelin/contracts/utils/ReentrancyGuard.sol\":4725:4756  return REENTRANCY_GUARD_STORAGE */\n  swap1\n  pop\n    /* \"@openzeppelin/contracts/utils/ReentrancyGuard.sol\":4636:4763  function _reentrancyGuardStorageSlot() internal pure virtual returns (bytes32) {... */\n  swap1\n  jump\t// out\n    /* \"@openzeppelin/contracts/utils/StorageSlot.sol\":2679:2842  function getUint256Slot(bytes32 slot) internal pure returns (Uint256Slot storage r) {... */\ntag_10:\n    /* \"@openzeppelin/contracts/utils/StorageSlot.sol\":2740:2761  Uint256Slot storage r */\n  0x00\n    /* \"@openzeppelin/contracts/utils/StorageSlot.sol\":2822:2826  slot */\n  dup2\n    /* \"@openzeppelin/contracts/utils/StorageSlot.sol\":2812:2826  r.slot := slot */\n  swap1\n  pop\n    /* \"@openzeppelin/contracts/utils/StorageSlot.sol\":2679:2842  function getUint256Slot(bytes32 slot) internal pure returns (Uint256Slot storage r) {... */\n  swap2\n  swap1\n  pop\n  jump\t// out\n    /* \"@openzeppelin/contracts/access/AccessControl.sol\":6155:6471  function _grantRole(bytes32 role, address account) internal virtual returns (bool) {... */\ntag_19:\n    /* \"@openzeppelin/contracts/access/AccessControl.sol\":6232:6236  bool */\n  0x00\n    /* \"@openzeppelin/contracts/access/AccessControl.sol\":6253:6275  hasRole(role, account) */\n  tag_25\n    /* \"@openzeppelin/contracts/access/AccessControl.sol\":6261:6265  role */\n  dup4\n    /* \"@openzeppelin/contracts/access/AccessControl.sol\":6267:6274  account */\n  dup4\n    /* \"@openzeppelin/contracts/access/AccessControl.sol\":6253:6260  hasRole */\n  shl(0x20, tag_26)\n    /* \"@openzeppelin/contracts/access/AccessControl.sol\":6253:6275  hasRole(role, account) */\n  0x20\n  shr\n  jump\t// in\ntag_25:\n    /* \"@openzeppelin/contracts/access/AccessControl.sol\":6248:6465  if (!hasRole(role, account)) {... */\n  tag_27\n  jumpi\n    /* \"@openzeppelin/contracts/access/AccessControl.sol\":6323:6327  true */\n  0x01\n    /* \"@openzeppelin/contracts/access/AccessControl.sol\":6291:6297  _roles */\n  0x00\n    /* \"@openzeppelin/contracts/access/AccessControl.sol\":6291:6303  _roles[role] */\n  0x00\n    /* \"@openzeppelin/contracts/access/AccessControl.sol\":6298:6302  role */\n  dup6\n    /* \"@openzeppelin/contracts/access/AccessControl.sol\":6291:6303  _roles[role] */\n  dup2\n  mstore\n  0x20\n  add\n  swap1\n  dup2\n  mstore\n  0x20\n  add\n  0x00\n  keccak256\n    /* \"@openzeppelin/contracts/access/AccessControl.sol\":6291:6311  _roles[role].hasRole */\n  0x00\n  add\n    /* \"@openzeppelin/contracts/access/AccessControl.sol\":6291:6320  _roles[role].hasRole[account] */\n  0x00\n    /* \"@openzeppelin/contracts/access/AccessControl.sol\":6312:6319  account */\n  dup5\n    /* \"@openzeppelin/contracts/access/AccessControl.sol\":6291:6320  _roles[role].hasRole[account] */\n  0xffffffffffffffffffffffffffffffffffffffff\n  and\n  0xffffffffffffffffffffffffffffffffffffffff\n  and\n  dup2\n  mstore\n  0x20\n  add\n  swap1\n  dup2\n  mstore\n  0x20\n  add\n  0x00\n  keccak256\n  0x00\n    /* \"@openzeppelin/contracts/access/AccessControl.sol\":6291:6327  _roles[role].hasRole[account] = true */\n  0x0100\n  exp\n  dup2\n  sload\n  dup2\n  0xff\n  mul\n  not\n  and\n  swap1\n  dup4\n  iszero\n  iszero\n  mul\n  or\n  swap1\n  sstore\n  pop\n    /* \"@openzeppelin/contracts/access/AccessControl.sol\":6373:6385  _msgSender() */\n  tag_28\n    /* \"@openzeppelin/contracts/access/AccessControl.sol\":6373:6383  _msgSender */\n  shl(0x20, tag_29)\n    /* \"@openzeppelin/contracts/access/AccessControl.sol\":6373:6385  _msgSender() */\n  0x20\n  shr\n  jump\t// in\ntag_28:\n    /* \"@openzeppelin/contracts/access/AccessControl.sol\":6346:6386  RoleGranted(role, account, _msgSender()) */\n  0xffffffffffffffffffffffffffffffffffffffff\n  and\n    /* \"@openzeppelin/contracts/access/AccessControl.sol\":6364:6371  account */\n  dup3\n    /* \"@openzeppelin/contracts/access/AccessControl.sol\":6346:6386  RoleGranted(role, account, _msgSender()) */\n  0xffffffffffffffffffffffffffffffffffffffff\n  and\n    /* \"@openzeppelin/contracts/access/AccessControl.sol\":6358:6362  role */\n  dup5\n    /* \"@openzeppelin/contracts/access/AccessControl.sol\":6346:6386  RoleGranted(role, account, _msgSender()) */\n  0x2f8788117e7eff1d82e926ec794901d17c78024a50270940304540a733656f0d\n  mload(0x40)\n  mload(0x40)\n  dup1\n  swap2\n  sub\n  swap1\n  log4\n    /* \"@openzeppelin/contracts/access/AccessControl.sol\":6407:6411  true */\n  0x01\n    /* \"@openzeppelin/contracts/access/AccessControl.sol\":6400:6411  return true */\n  swap1\n  pop\n  jump(tag_24)\n    /* \"@openzeppelin/contracts/access/AccessControl.sol\":6248:6465  if (!hasRole(role, account)) {... */\ntag_27:\n    /* \"@openzeppelin/contracts/access/AccessControl.sol\":6449:6454  false */\n  0x00\n    /* \"@openzeppelin/contracts/access/AccessControl.sol\":6442:6454  return false */\n  swap1\n  pop\n    /* \"@openzeppelin/contracts/access/AccessControl.sol\":6155:6471  function _grantRole(bytes32 role, address account) internal virtual returns (bool) {... */\ntag_24:\n  swap3\n  swap2\n  pop\n  pop\n  jump\t// out\n    /* \"@openzeppelin/contracts/access/AccessControl.sol\":2830:2966  function hasRole(bytes32 role, address account) public view virtual returns (bool) {... */\ntag_26:\n    /* \"@openzeppelin/contracts/access/AccessControl.sol\":2907:2911  bool */\n  0x00\n    /* \"@openzeppelin/contracts/access/AccessControl.sol\":2930:2936  _roles */\n  0x00\n    /* \"@openzeppelin/contracts/access/AccessControl.sol\":2930:2942  _roles[role] */\n  0x00\n    /* \"@openzeppelin/contracts/access/AccessControl.sol\":2937:2941  role */\n  dup5\n    /* \"@openzeppelin/contracts/access/AccessControl.sol\":2930:2942  _roles[role] */\n  dup2\n  mstore\n  0x20\n  add\n  swap1\n  dup2\n  mstore\n  0x20\n  add\n  0x00\n  keccak256\n    /* \"@openzeppelin/contracts/access/AccessControl.sol\":2930:2950  _roles[role].hasRole */\n  0x00\n  add\n    /* \"@openzeppelin/contracts/access/AccessControl.sol\":2930:2959  _roles[role].hasRole[account] */\n  0x00\n    /* \"@openzeppelin/contracts/access/AccessControl.sol\":2951:2958  account */\n  dup4\n    /* \"@openzeppelin/contracts/access/AccessControl.sol\":2930:2959  _roles[role].hasRole[account] */\n  0xffffffffffffffffffffffffffffffffffffffff\n  and\n  0xffffffffffffffffffffffffffffffffffffffff\n  and\n  dup2\n  mstore\n  0x20\n  add\n  swap1\n  dup2\n  mstore\n  0x20\n  add\n  0x00\n  keccak256\n  0x00\n  swap1\n  sload\n  swap1\n  0x0100\n  exp\n  swap1\n  div\n  0xff\n  and\n    /* \"@openzeppelin/contracts/access/AccessControl.sol\":2923:2959  return _roles[role].hasRole[account] */\n  swap1\n  pop\n    /* \"@openzeppelin/contracts/access/AccessControl.sol\":2830:2966  function hasRole(bytes32 role, address account) public view virtual returns (bool) {... */\n  swap3\n  swap2\n  pop\n  pop\n  jump\t// out\n    /* \"@openzeppelin/contracts/utils/Context.sol\":656:752  function _msgSender() internal view virtual returns (address) {... */\ntag_29:\n    /* \"@openzeppelin/contracts/utils/Context.sol\":709:716  address */\n  0x00\n    /* \"@openzeppelin/contracts/utils/Context.sol\":735:745  msg.sender */\n  caller\n    /* \"@openzeppelin/contracts/utils/Context.sol\":728:745  return msg.sender */\n  swap1\n  pop\n    /* \"@openzeppelin/contracts/utils/Context.sol\":656:752  function _msgSender() internal view virtual returns (address) {... */\n  swap1\n  jump\t// out\n    /* \"#utility.yul\":88:205   */\ntag_34:\n    /* \"#utility.yul\":197:198   */\n  0x00\n    /* \"#utility.yul\":194:195   */\n  0x00\n    /* \"#utility.yul\":187:199   */\n  revert\n    /* \"#utility.yul\":334:460   */\ntag_36:\n    /* \"#utility.yul\":371:378   */\n  0x00\n    /* \"#utility.yul\":411:453   */\n  0xffffffffffffffffffffffffffffffffffffffff\n    /* \"#utility.yul\":404:409   */\n  dup3\n    /* \"#utility.yul\":400:454   */\n  and\n    /* \"#utility.yul\":389:454   */\n  swap1\n  pop\n    /* \"#utility.yul\":334:460   */\n  swap2\n  swap1\n  pop\n  jump\t// out\n    /* \"#utility.yul\":466:562   */\ntag_37:\n    /* \"#utility.yul\":503:510   */\n  0x00\n    /* \"#utility.yul\":532:556   */\n  tag_54\n    /* \"#utility.yul\":550:555   */\n  dup3\n    /* \"#utility.yul\":532:556   */\n  tag_36\n  jump\t// in\ntag_54:\n    /* \"#utility.yul\":521:556   */\n  swap1\n  pop\n    /* \"#utility.yul\":466:562   */\n  swap2\n  swap1\n  pop\n  jump\t// out\n    /* \"#utility.yul\":568:690   */\ntag_38:\n    /* \"#utility.yul\":641:665   */\n  tag_56\n    /* \"#utility.yul\":659:664   */\n  dup2\n    /* \"#utility.yul\":641:665   */\n  tag_37\n  jump\t// in\ntag_56:\n    /* \"#utility.yul\":634:639   */\n  dup2\n    /* \"#utility.yul\":631:666   */\n  eq\n    /* \"#utility.yul\":621:684   */\n  tag_57\n  jumpi\n    /* \"#utility.yul\":680:681   */\n  0x00\n    /* \"#utility.yul\":677:678   */\n  0x00\n    /* \"#utility.yul\":670:682   */\n  revert\n    /* \"#utility.yul\":621:684   */\ntag_57:\n    /* \"#utility.yul\":568:690   */\n  pop\n  jump\t// out\n    /* \"#utility.yul\":696:839   */\ntag_39:\n    /* \"#utility.yul\":753:758   */\n  0x00\n    /* \"#utility.yul\":784:790   */\n  dup2\n    /* \"#utility.yul\":778:791   */\n  mload\n    /* \"#utility.yul\":769:791   */\n  swap1\n  pop\n    /* \"#utility.yul\":800:833   */\n  tag_59\n    /* \"#utility.yul\":827:832   */\n  dup2\n    /* \"#utility.yul\":800:833   */\n  tag_38\n  jump\t// in\ntag_59:\n    /* \"#utility.yul\":696:839   */\n  swap3\n  swap2\n  pop\n  pop\n  jump\t// out\n    /* \"#utility.yul\":845:922   */\ntag_40:\n    /* \"#utility.yul\":882:889   */\n  0x00\n    /* \"#utility.yul\":911:916   */\n  dup2\n    /* \"#utility.yul\":900:916   */\n  swap1\n  pop\n    /* \"#utility.yul\":845:922   */\n  swap2\n  swap1\n  pop\n  jump\t// out\n    /* \"#utility.yul\":928:1050   */\ntag_41:\n    /* \"#utility.yul\":1001:1025   */\n  tag_62\n    /* \"#utility.yul\":1019:1024   */\n  dup2\n    /* \"#utility.yul\":1001:1025   */\n  tag_40\n  jump\t// in\ntag_62:\n    /* \"#utility.yul\":994:999   */\n  dup2\n    /* \"#utility.yul\":991:1026   */\n  eq\n    /* \"#utility.yul\":981:1044   */\n  tag_63\n  jumpi\n    /* \"#utility.yul\":1040:1041   */\n  0x00\n    /* \"#utility.yul\":1037:1038   */\n  0x00\n    /* \"#utility.yul\":1030:1042   */\n  revert\n    /* \"#utility.yul\":981:1044   */\ntag_63:\n    /* \"#utility.yul\":928:1050   */\n  pop\n  jump\t// out\n    /* \"#utility.yul\":1056:1199   */\ntag_42:\n    /* \"#utility.yul\":1113:1118   */\n  0x00\n    /* \"#utility.yul\":1144:1150   */\n  dup2\n    /* \"#utility.yul\":1138:1151   */\n  mload\n    /* \"#utility.yul\":1129:1151   */\n  swap1\n  pop\n    /* \"#utility.yul\":1160:1193   */\n  tag_65\n    /* \"#utility.yul\":1187:1192   */\n  dup2\n    /* \"#utility.yul\":1160:1193   */\n  tag_41\n  jump\t// in\ntag_65:\n    /* \"#utility.yul\":1056:1199   */\n  swap3\n  swap2\n  pop\n  pop\n  jump\t// out\n    /* \"#utility.yul\":1205:1712   */\ntag_3:\n    /* \"#utility.yul\":1284:1290   */\n  0x00\n    /* \"#utility.yul\":1292:1298   */\n  0x00\n    /* \"#utility.yul\":1341:1343   */\n  0x40\n    /* \"#utility.yul\":1329:1338   */\n  dup4\n    /* \"#utility.yul\":1320:1327   */\n  dup6\n    /* \"#utility.yul\":1316:1339   */\n  sub\n    /* \"#utility.yul\":1312:1344   */\n  slt\n    /* \"#utility.yul\":1309:1428   */\n  iszero\n  tag_67\n  jumpi\n    /* \"#utility.yul\":1347:1426   */\n  tag_68\n  tag_34\n  jump\t// in\ntag_68:\n    /* \"#utility.yul\":1309:1428   */\ntag_67:\n    /* \"#utility.yul\":1467:1468   */\n  0x00\n    /* \"#utility.yul\":1492:1556   */\n  tag_69\n    /* \"#utility.yul\":1548:1555   */\n  dup6\n    /* \"#utility.yul\":1539:1545   */\n  dup3\n    /* \"#utility.yul\":1528:1537   */\n  dup7\n    /* \"#utility.yul\":1524:1546   */\n  add\n    /* \"#utility.yul\":1492:1556   */\n  tag_39\n  jump\t// in\ntag_69:\n    /* \"#utility.yul\":1482:1556   */\n  swap3\n  pop\n    /* \"#utility.yul\":1438:1566   */\n  pop\n    /* \"#utility.yul\":1605:1607   */\n  0x20\n    /* \"#utility.yul\":1631:1695   */\n  tag_70\n    /* \"#utility.yul\":1687:1694   */\n  dup6\n    /* \"#utility.yul\":1678:1684   */\n  dup3\n    /* \"#utility.yul\":1667:1676   */\n  dup7\n    /* \"#utility.yul\":1663:1685   */\n  add\n    /* \"#utility.yul\":1631:1695   */\n  tag_42\n  jump\t// in\ntag_70:\n    /* \"#utility.yul\":1621:1695   */\n  swap2\n  pop\n    /* \"#utility.yul\":1576:1705   */\n  pop\n    /* \"#utility.yul\":1205:1712   */\n  swap3\n  pop\n  swap3\n  swap1\n  pop\n  jump\t// out\n    /* \"#utility.yul\":1718:1887   */\ntag_43:\n    /* \"#utility.yul\":1802:1813   */\n  0x00\n    /* \"#utility.yul\":1836:1842   */\n  dup3\n    /* \"#utility.yul\":1831:1834   */\n  dup3\n    /* \"#utility.yul\":1824:1843   */\n  mstore\n    /* \"#utility.yul\":1876:1880   */\n  0x20\n    /* \"#utility.yul\":1871:1874   */\n  dup3\n    /* \"#utility.yul\":1867:1881   */\n  add\n    /* \"#utility.yul\":1852:1881   */\n  swap1\n  pop\n    /* \"#utility.yul\":1718:1887   */\n  swap3\n  swap2\n  pop\n  pop\n  jump\t// out\n    /* \"#utility.yul\":1893:2069   */\ntag_44:\n    /* \"#utility.yul\":2033:2061   */\n  0x496e76616c696420707269636520666565642061646472657373000000000000\n    /* \"#utility.yul\":2029:2030   */\n  0x00\n    /* \"#utility.yul\":2021:2027   */\n  dup3\n    /* \"#utility.yul\":2017:2031   */\n  add\n    /* \"#utility.yul\":2010:2062   */\n  mstore\n    /* \"#utility.yul\":1893:2069   */\n  pop\n  jump\t// out\n    /* \"#utility.yul\":2075:2441   */\ntag_45:\n    /* \"#utility.yul\":2217:2220   */\n  0x00\n    /* \"#utility.yul\":2238:2305   */\n  tag_74\n    /* \"#utility.yul\":2302:2304   */\n  0x1a\n    /* \"#utility.yul\":2297:2300   */\n  dup4\n    /* \"#utility.yul\":2238:2305   */\n  tag_43\n  jump\t// in\ntag_74:\n    /* \"#utility.yul\":2231:2305   */\n  swap2\n  pop\n    /* \"#utility.yul\":2314:2407   */\n  tag_75\n    /* \"#utility.yul\":2403:2406   */\n  dup3\n    /* \"#utility.yul\":2314:2407   */\n  tag_44\n  jump\t// in\ntag_75:\n    /* \"#utility.yul\":2432:2434   */\n  0x20\n    /* \"#utility.yul\":2427:2430   */\n  dup3\n    /* \"#utility.yul\":2423:2435   */\n  add\n    /* \"#utility.yul\":2416:2435   */\n  swap1\n  pop\n    /* \"#utility.yul\":2075:2441   */\n  swap2\n  swap1\n  pop\n  jump\t// out\n    /* \"#utility.yul\":2447:2866   */\ntag_14:\n    /* \"#utility.yul\":2613:2617   */\n  0x00\n    /* \"#utility.yul\":2651:2653   */\n  0x20\n    /* \"#utility.yul\":2640:2649   */\n  dup3\n    /* \"#utility.yul\":2636:2654   */\n  add\n    /* \"#utility.yul\":2628:2654   */\n  swap1\n  pop\n    /* \"#utility.yul\":2700:2709   */\n  dup2\n    /* \"#utility.yul\":2694:2698   */\n  dup2\n    /* \"#utility.yul\":2690:2710   */\n  sub\n    /* \"#utility.yul\":2686:2687   */\n  0x00\n    /* \"#utility.yul\":2675:2684   */\n  dup4\n    /* \"#utility.yul\":2671:2688   */\n  add\n    /* \"#utility.yul\":2664:2711   */\n  mstore\n    /* \"#utility.yul\":2728:2859   */\n  tag_77\n    /* \"#utility.yul\":2854:2858   */\n  dup2\n    /* \"#utility.yul\":2728:2859   */\n  tag_45\n  jump\t// in\ntag_77:\n    /* \"#utility.yul\":2720:2859   */\n  swap1\n  pop\n    /* \"#utility.yul\":2447:2866   */\n  swap2\n  swap1\n  pop\n  jump\t// out\n    /* \"#utility.yul\":2872:3042   */\ntag_46:\n    /* \"#utility.yul\":3012:3034   */\n  0x42616e6b20636170206d757374206265203e2030000000000000000000000000\n    /* \"#utility.yul\":3008:3009   */\n  0x00\n    /* \"#utility.yul\":3000:3006   */\n  dup3\n    /* \"#utility.yul\":2996:3010   */\n  add\n    /* \"#utility.yul\":2989:3035   */\n  mstore\n    /* \"#utility.yul\":2872:3042   */\n  pop\n  jump\t// out\n    /* \"#utility.yul\":3048:3414   */\ntag_47:\n    /* \"#utility.yul\":3190:3193   */\n  0x00\n    /* \"#utility.yul\":3211:3278   */\n  tag_80\n    /* \"#utility.yul\":3275:3277   */\n  0x14\n    /* \"#utility.yul\":3270:3273   */\n  dup4\n    /* \"#utility.yul\":3211:3278   */\n  tag_43\n  jump\t// in\ntag_80:\n    /* \"#utility.yul\":3204:3278   */\n  swap2\n  pop\n    /* \"#utility.yul\":3287:3380   */\n  tag_81\n    /* \"#utility.yul\":3376:3379   */\n  dup3\n    /* \"#utility.yul\":3287:3380   */\n  tag_46\n  jump\t// in\ntag_81:\n    /* \"#utility.yul\":3405:3407   */\n  0x20\n    /* \"#utility.yul\":3400:3403   */\n  dup3\n    /* \"#utility.yul\":3396:3408   */\n  add\n    /* \"#utility.yul\":3389:3408   */\n  swap1\n  pop\n    /* \"#utility.yul\":3048:3414   */\n  swap2\n  swap1\n  pop\n  jump\t// out\n    /* \"#utility.yul\":3420:3839   */\ntag_17:\n    /* \"#utility.yul\":3586:3590   */\n  0x00\n    /* \"#utility.yul\":3624:3626   */\n  0x20\n    /* \"#utility.yul\":3613:3622   */\n  dup3\n    /* \"#utility.yul\":3609:3627   */\n  add\n    /* \"#utility.yul\":3601:3627   */\n  swap1\n  pop\n    /* \"#utility.yul\":3673:3682   */\n  dup2\n    /* \"#utility.yul\":3667:3671   */\n  dup2\n    /* \"#utility.yul\":3663:3683   */\n  sub\n    /* \"#utility.yul\":3659:3660   */\n  0x00\n    /* \"#utility.yul\":3648:3657   */\n  dup4\n    /* \"#utility.yul\":3644:3661   */\n  add\n    /* \"#utility.yul\":3637:3684   */\n  mstore\n    /* \"#utility.yul\":3701:3832   */\n  tag_83\n    /* \"#utility.yul\":3827:3831   */\n  dup2\n    /* \"#utility.yul\":3701:3832   */\n  tag_47\n  jump\t// in\ntag_83:\n    /* \"#utility.yul\":3693:3832   */\n  swap1\n  pop\n    /* \"#utility.yul\":3420:3839   */\n  swap2\n  swap1\n  pop\n  jump\t// out\n    /* \"src/KipuBankV2.sol\":646:9335  contract KipuBankV2 is AccessControl, ReentrancyGuard {... */\ntag_21:\n  dataSize(sub_0)\n  dup1\n  dataOffset(sub_0)\n  0x00\n  codecopy\n  0x00\n  return\nstop\n\nsub_0: assembly {\n        /* \"src/KipuBankV2.sol\":646:9335  contract KipuBankV2 is AccessControl, ReentrancyGuard {... */\n      mstore(0x40, 0x80)\n      jumpi(tag_1, lt(calldatasize, 0x04))\n      shr(0xe0, calldataload(0x00))\n      dup1\n      0x777e0d86\n      gt\n      tag_38\n      jumpi\n      dup1\n      0xbe4dc94f\n      gt\n      tag_39\n      jumpi\n      dup1\n      0xe79767af\n      gt\n      tag_40\n      jumpi\n      dup1\n      0xe79767af\n      eq\n      tag_33\n      jumpi\n      dup1\n      0xeae6f652\n      eq\n      tag_34\n      jumpi\n      dup1\n      0xec87621c\n      eq\n      tag_35\n      jumpi\n      dup1\n      0xeea88c51\n      eq\n      tag_36\n      jumpi\n      dup1\n      0xf01cab3c\n      eq\n      tag_37\n      jumpi\n      jump(tag_2)\n    tag_40:\n      dup1\n      0xbe4dc94f\n      eq\n      tag_29\n      jumpi\n      dup1\n      0xd0e30db0\n      eq\n      tag_30\n      jumpi\n      dup1\n      0xd547741f\n      eq\n      tag_31\n      jumpi\n      dup1\n      0xe744092e\n      eq\n      tag_32\n      jumpi\n      jump(tag_2)\n    tag_39:\n      dup1\n      0x9859387b\n      gt\n      tag_41\n      jumpi\n      dup1\n      0x9859387b\n      eq\n      tag_24\n      jumpi\n      dup1\n      0xa1db9782\n      eq\n      tag_25\n      jumpi\n      dup1\n      0xa217fddf\n      eq\n      tag_26\n      jumpi\n      dup1\n      0xb53472ef\n      eq\n      tag_27\n      jumpi\n      dup1\n      0xb71129c3\n      eq\n      tag_28\n      jumpi\n      jump(tag_2)\n    tag_41:\n      dup1\n      0x777e0d86\n      eq\n      tag_20\n      jumpi\n      dup1\n      0x91d14854\n      eq\n      tag_21\n      jumpi\n      dup1\n      0x951bc75a\n      eq\n      tag_22\n      jumpi\n      dup1\n      0x97feb926\n      eq\n      tag_23\n      jumpi\n      jump(tag_2)\n    tag_38:\n      dup1\n      0x2ccb1b30\n      gt\n      tag_42\n      jumpi\n      dup1\n      0x3aecd0e3\n      gt\n      tag_43\n      jumpi\n      dup1\n      0x3aecd0e3\n      eq\n      tag_15\n      jumpi\n      dup1\n      0x60da3e83\n      eq\n      tag_16\n      jumpi\n      dup1\n      0x63d8882a\n      eq\n      tag_17\n      jumpi\n      dup1\n      0x741bef1a\n      eq\n      tag_18\n      jumpi\n      dup1\n      0x75b238fc\n      eq\n      tag_19\n      jumpi\n      jump(tag_2)\n    tag_43:\n      dup1\n      0x2ccb1b30\n      eq\n      tag_11\n      jumpi\n      dup1\n      0x2e1a7d4d\n      eq\n      tag_12\n      jumpi\n      dup1\n      0x2f2ff15d\n      eq\n      tag_13\n      jumpi\n      dup1\n      0x36568abe\n      eq\n      tag_14\n      jumpi\n      jump(tag_2)\n    tag_42:\n      dup1\n      0x18c8cfbe\n      gt\n      tag_44\n      jumpi\n      dup1\n      0x18c8cfbe\n      eq\n      tag_7\n      jumpi\n      dup1\n      0x20aa9a26\n      eq\n      tag_8\n      jumpi\n      dup1\n      0x248a9ca3\n      eq\n      tag_9\n      jumpi\n      dup1\n      0x26e885e3\n      eq\n      tag_10\n      jumpi\n      jump(tag_2)\n    tag_44:\n      dup1\n      0x69ea28\n      eq\n      tag_3\n      jumpi\n      dup1\n      0x01ffc9a7\n      eq\n      tag_4\n      jumpi\n      dup1\n      0x02191980\n      eq\n      tag_5\n      jumpi\n      dup1\n      0x12065fe0\n      eq\n      tag_6\n      jumpi\n      jump(tag_2)\n    tag_1:\n      jumpi(tag_2, calldatasize)\n        /* \"src/KipuBankV2.sol\":2749:2798  revert(\"Direct deposits disabled; use deposit()\") */\n      mload(0x40)\n      0x08c379a000000000000000000000000000000000000000000000000000000000\n      dup2\n      mstore\n      0x04\n      add\n      tag_47\n      swap1\n      tag_48\n      jump\t// in\n    tag_47:\n      mload(0x40)\n      dup1\n      swap2\n      sub\n      swap1\n      revert\n        /* \"src/KipuBankV2.sol\":646:9335  contract KipuBankV2 is AccessControl, ReentrancyGuard {... */\n    tag_2:\n        /* \"src/KipuBankV2.sol\":2851:2884  revert(\"Fallback: use deposit()\") */\n      mload(0x40)\n      0x08c379a000000000000000000000000000000000000000000000000000000000\n      dup2\n      mstore\n      0x04\n      add\n      tag_51\n      swap1\n      tag_52\n      jump\t// in\n    tag_51:\n      mload(0x40)\n      dup1\n      swap2\n      sub\n      swap1\n      revert\n        /* \"src/KipuBankV2.sol\":8422:8605  function increaseBankCap(uint256 newCapUSD) public onlyRole(MANAGER_ROLE) {... */\n    tag_3:\n      callvalue\n      dup1\n      iszero\n      tag_53\n      jumpi\n      revert(0x00, 0x00)\n    tag_53:\n      pop\n      tag_54\n      0x04\n      dup1\n      calldatasize\n      sub\n      dup2\n      add\n      swap1\n      tag_55\n      swap2\n      swap1\n      tag_56\n      jump\t// in\n    tag_55:\n      tag_57\n      jump\t// in\n    tag_54:\n      stop\n        /* \"@openzeppelin/contracts/access/AccessControl.sol\":2541:2743  function supportsInterface(bytes4 interfaceId) public view virtual override returns (bool) {... */\n    tag_4:\n      callvalue\n      dup1\n      iszero\n      tag_58\n      jumpi\n      revert(0x00, 0x00)\n    tag_58:\n      pop\n      tag_59\n      0x04\n      dup1\n      calldatasize\n      sub\n      dup2\n      add\n      swap1\n      tag_60\n      swap2\n      swap1\n      tag_61\n      jump\t// in\n    tag_60:\n      tag_62\n      jump\t// in\n    tag_59:\n      mload(0x40)\n      tag_63\n      swap2\n      swap1\n      tag_64\n      jump\t// in\n    tag_63:\n      mload(0x40)\n      dup1\n      swap2\n      sub\n      swap1\n      return\n        /* \"src/KipuBankV2.sol\":8675:8770  function pauseDeposits() public onlyRole(MANAGER_ROLE) {... */\n    tag_5:\n      callvalue\n      dup1\n      iszero\n      tag_65\n      jumpi\n      revert(0x00, 0x00)\n    tag_65:\n      pop\n      tag_66\n      tag_67\n      jump\t// in\n    tag_66:\n      stop\n        /* \"src/KipuBankV2.sol\":4021:4149  function getBalance() public view onlyRole(CLIENT_ROLE) returns (uint256) {... */\n    tag_6:\n      callvalue\n      dup1\n      iszero\n      tag_68\n      jumpi\n      revert(0x00, 0x00)\n    tag_68:\n      pop\n      tag_69\n      tag_70\n      jump\t// in\n    tag_69:\n      mload(0x40)\n      tag_71\n      swap2\n      swap1\n      tag_72\n      jump\t// in\n    tag_71:\n      mload(0x40)\n      dup1\n      swap2\n      sub\n      swap1\n      return\n        /* \"src/KipuBankV2.sol\":1128:1153  uint256 public bankCapUSD */\n    tag_7:\n      callvalue\n      dup1\n      iszero\n      tag_73\n      jumpi\n      revert(0x00, 0x00)\n    tag_73:\n      pop\n      tag_74\n      tag_75\n      jump\t// in\n    tag_74:\n      mload(0x40)\n      tag_76\n      swap2\n      swap1\n      tag_72\n      jump\t// in\n    tag_76:\n      mload(0x40)\n      dup1\n      swap2\n      sub\n      swap1\n      return\n        /* \"src/KipuBankV2.sol\":8110:8347  function viewTokenBalanceAsManager(address client, address token) public view onlyRole(MANAGER_ROLE) returns (uint256) {... */\n    tag_8:\n      callvalue\n      dup1\n      iszero\n      tag_77\n      jumpi\n      revert(0x00, 0x00)\n    tag_77:\n      pop\n      tag_78\n      0x04\n      dup1\n      calldatasize\n      sub\n      dup2\n      add\n      swap1\n      tag_79\n      swap2\n      swap1\n      tag_80\n      jump\t// in\n    tag_79:\n      tag_81\n      jump\t// in\n    tag_78:\n      mload(0x40)\n      tag_82\n      swap2\n      swap1\n      tag_72\n      jump\t// in\n    tag_82:\n      mload(0x40)\n      dup1\n      swap2\n      sub\n      swap1\n      return\n        /* \"@openzeppelin/contracts/access/AccessControl.sol\":3786:3906  function getRoleAdmin(bytes32 role) public view virtual returns (bytes32) {... */\n    tag_9:\n      callvalue\n      dup1\n      iszero\n      tag_83\n      jumpi\n      revert(0x00, 0x00)\n    tag_83:\n      pop\n      tag_84\n      0x04\n      dup1\n      calldatasize\n      sub\n      dup2\n      add\n      swap1\n      tag_85\n      swap2\n      swap1\n      tag_86\n      jump\t// in\n    tag_85:\n      tag_87\n      jump\t// in\n    tag_84:\n      mload(0x40)\n      tag_88\n      swap2\n      swap1\n      tag_89\n      jump\t// in\n    tag_88:\n      mload(0x40)\n      dup1\n      swap2\n      sub\n      swap1\n      return\n        /* \"src/KipuBankV2.sol\":8959:9076  function grantManagerRole(address user) public onlyRole(ADMIN_ROLE) {... */\n    tag_10:\n      callvalue\n      dup1\n      iszero\n      tag_90\n      jumpi\n      revert(0x00, 0x00)\n    tag_90:\n      pop\n      tag_91\n      0x04\n      dup1\n      calldatasize\n      sub\n      dup2\n      add\n      swap1\n      tag_92\n      swap2\n      swap1\n      tag_93\n      jump\t// in\n    tag_92:\n      tag_94\n      jump\t// in\n    tag_91:\n      stop\n        /* \"src/KipuBankV2.sol\":6596:7235  function transferTo(address to, uint256 amount) public nonReentrant onlyRole(CLIENT_ROLE) {... */\n    tag_11:\n      callvalue\n      dup1\n      iszero\n      tag_95\n      jumpi\n      revert(0x00, 0x00)\n    tag_95:\n      pop\n      tag_96\n      0x04\n      dup1\n      calldatasize\n      sub\n      dup2\n      add\n      swap1\n      tag_97\n      swap2\n      swap1\n      tag_98\n      jump\t// in\n    tag_97:\n      tag_99\n      jump\t// in\n    tag_96:\n      stop\n        /* \"src/KipuBankV2.sol\":4658:5216  function withdraw(uint256 amount) public nonReentrant onlyRole(CLIENT_ROLE) {... */\n    tag_12:\n      callvalue\n      dup1\n      iszero\n      tag_100\n      jumpi\n      revert(0x00, 0x00)\n    tag_100:\n      pop\n      tag_101\n      0x04\n      dup1\n      calldatasize\n      sub\n      dup2\n      add\n      swap1\n      tag_102\n      swap2\n      swap1\n      tag_56\n      jump\t// in\n    tag_102:\n      tag_103\n      jump\t// in\n    tag_101:\n      stop\n        /* \"@openzeppelin/contracts/access/AccessControl.sol\":4202:4338  function grantRole(bytes32 role, address account) public virtual onlyRole(getRoleAdmin(role)) {... */\n    tag_13:\n      callvalue\n      dup1\n      iszero\n      tag_104\n      jumpi\n      revert(0x00, 0x00)\n    tag_104:\n      pop\n      tag_105\n      0x04\n      dup1\n      calldatasize\n      sub\n      dup2\n      add\n      swap1\n      tag_106\n      swap2\n      swap1\n      tag_107\n      jump\t// in\n    tag_106:\n      tag_108\n      jump\t// in\n    tag_105:\n      stop\n        /* \"@openzeppelin/contracts/access/AccessControl.sol\":5304:5549  function renounceRole(bytes32 role, address callerConfirmation) public virtual {... */\n    tag_14:\n      callvalue\n      dup1\n      iszero\n      tag_109\n      jumpi\n      revert(0x00, 0x00)\n    tag_109:\n      pop\n      tag_110\n      0x04\n      dup1\n      calldatasize\n      sub\n      dup2\n      add\n      swap1\n      tag_111\n      swap2\n      swap1\n      tag_107\n      jump\t// in\n    tag_111:\n      tag_112\n      jump\t// in\n    tag_110:\n      stop\n        /* \"src/KipuBankV2.sol\":6399:6549  function getTokenBalance(address token) public view onlyRole(CLIENT_ROLE) returns (uint256) {... */\n    tag_15:\n      callvalue\n      dup1\n      iszero\n      tag_113\n      jumpi\n      revert(0x00, 0x00)\n    tag_113:\n      pop\n      tag_114\n      0x04\n      dup1\n      calldatasize\n      sub\n      dup2\n      add\n      swap1\n      tag_115\n      swap2\n      swap1\n      tag_93\n      jump\t// in\n    tag_115:\n      tag_116\n      jump\t// in\n    tag_114:\n      mload(0x40)\n      tag_117\n      swap2\n      swap1\n      tag_72\n      jump\t// in\n    tag_117:\n      mload(0x40)\n      dup1\n      swap2\n      sub\n      swap1\n      return\n        /* \"src/KipuBankV2.sol\":1272:1306  bool public depositsPaused = false */\n    tag_16:\n      callvalue\n      dup1\n      iszero\n      tag_118\n      jumpi\n      revert(0x00, 0x00)\n    tag_118:\n      pop\n      tag_119\n      tag_120\n      jump\t// in\n    tag_119:\n      mload(0x40)\n      tag_121\n      swap2\n      swap1\n      tag_64\n      jump\t// in\n    tag_121:\n      mload(0x40)\n      dup1\n      swap2\n      sub\n      swap1\n      return\n        /* \"src/KipuBankV2.sol\":8824:8922  function unpauseDeposits() public onlyRole(MANAGER_ROLE) {... */\n    tag_17:\n      callvalue\n      dup1\n      iszero\n      tag_122\n      jumpi\n      revert(0x00, 0x00)\n    tag_122:\n      pop\n      tag_123\n      tag_124\n      jump\t// in\n    tag_123:\n      stop\n        /* \"src/KipuBankV2.sol\":1004:1042  AggregatorV3Interface public priceFeed */\n    tag_18:\n      callvalue\n      dup1\n      iszero\n      tag_125\n      jumpi\n      revert(0x00, 0x00)\n    tag_125:\n      pop\n      tag_126\n      tag_127\n      jump\t// in\n    tag_126:\n      mload(0x40)\n      tag_128\n      swap2\n      swap1\n      tag_129\n      jump\t// in\n    tag_128:\n      mload(0x40)\n      dup1\n      swap2\n      sub\n      swap1\n      return\n        /* \"src/KipuBankV2.sol\":722:784  bytes32 public constant ADMIN_ROLE   = keccak256(\"ADMIN_ROLE\") */\n    tag_19:\n      callvalue\n      dup1\n      iszero\n      tag_130\n      jumpi\n      revert(0x00, 0x00)\n    tag_130:\n      pop\n      tag_131\n      tag_132\n      jump\t// in\n    tag_131:\n      mload(0x40)\n      tag_133\n      swap2\n      swap1\n      tag_89\n      jump\t// in\n    tag_133:\n      mload(0x40)\n      dup1\n      swap2\n      sub\n      swap1\n      return\n        /* \"src/KipuBankV2.sol\":3161:3310  function getLatestETHPrice() public view returns (int256) {... */\n    tag_20:\n      callvalue\n      dup1\n      iszero\n      tag_134\n      jumpi\n      revert(0x00, 0x00)\n    tag_134:\n      pop\n      tag_135\n      tag_136\n      jump\t// in\n    tag_135:\n      mload(0x40)\n      tag_137\n      swap2\n      swap1\n      tag_138\n      jump\t// in\n    tag_137:\n      mload(0x40)\n      dup1\n      swap2\n      sub\n      swap1\n      return\n        /* \"@openzeppelin/contracts/access/AccessControl.sol\":2830:2966  function hasRole(bytes32 role, address account) public view virtual returns (bool) {... */\n    tag_21:\n      callvalue\n      dup1\n      iszero\n      tag_139\n      jumpi\n      revert(0x00, 0x00)\n    tag_139:\n      pop\n      tag_140\n      0x04\n      dup1\n      calldatasize\n      sub\n      dup2\n      add\n      swap1\n      tag_141\n      swap2\n      swap1\n      tag_107\n      jump\t// in\n    tag_141:\n      tag_142\n      jump\t// in\n    tag_140:\n      mload(0x40)\n      tag_143\n      swap2\n      swap1\n      tag_64\n      jump\t// in\n    tag_143:\n      mload(0x40)\n      dup1\n      swap2\n      sub\n      swap1\n      return\n        /* \"src/KipuBankV2.sol\":3372:3631  function convertETHtoUSD(uint256 weiAmount) public view returns (uint256) {... */\n    tag_22:\n      callvalue\n      dup1\n      iszero\n      tag_144\n      jumpi\n      revert(0x00, 0x00)\n    tag_144:\n      pop\n      tag_145\n      0x04\n      dup1\n      calldatasize\n      sub\n      dup2\n      add\n      swap1\n      tag_146\n      swap2\n      swap1\n      tag_56\n      jump\t// in\n    tag_146:\n      tag_147\n      jump\t// in\n    tag_145:\n      mload(0x40)\n      tag_148\n      swap2\n      swap1\n      tag_72\n      jump\t// in\n    tag_148:\n      mload(0x40)\n      dup1\n      swap2\n      sub\n      swap1\n      return\n        /* \"src/KipuBankV2.sol\":5258:5835  function depositERC20(address token, uint256 amount) public onlyRole(CLIENT_ROLE) {... */\n    tag_23:\n      callvalue\n      dup1\n      iszero\n      tag_149\n      jumpi\n      revert(0x00, 0x00)\n    tag_149:\n      pop\n      tag_150\n      0x04\n      dup1\n      calldatasize\n      sub\n      dup2\n      add\n      swap1\n      tag_151\n      swap2\n      swap1\n      tag_98\n      jump\t// in\n    tag_151:\n      tag_152\n      jump\t// in\n    tag_150:\n      stop\n        /* \"src/KipuBankV2.sol\":3667:4013  function createAccount(address user) public onlyRole(ADMIN_ROLE) {... */\n    tag_24:\n      callvalue\n      dup1\n      iszero\n      tag_153\n      jumpi\n      revert(0x00, 0x00)\n    tag_153:\n      pop\n      tag_154\n      0x04\n      dup1\n      calldatasize\n      sub\n      dup2\n      add\n      swap1\n      tag_155\n      swap2\n      swap1\n      tag_93\n      jump\t// in\n    tag_155:\n      tag_156\n      jump\t// in\n    tag_154:\n      stop\n        /* \"src/KipuBankV2.sol\":5843:6391  function withdrawERC20(address token, uint256 amount) public nonReentrant onlyRole(CLIENT_ROLE) {... */\n    tag_25:\n      callvalue\n      dup1\n      iszero\n      tag_157\n      jumpi\n      revert(0x00, 0x00)\n    tag_157:\n      pop\n      tag_158\n      0x04\n      dup1\n      calldatasize\n      sub\n      dup2\n      add\n      swap1\n      tag_159\n      swap2\n      swap1\n      tag_98\n      jump\t// in\n    tag_159:\n      tag_160\n      jump\t// in\n    tag_158:\n      stop\n        /* \"@openzeppelin/contracts/access/AccessControl.sol\":2196:2245  bytes32 public constant DEFAULT_ADMIN_ROLE = 0x00 */\n    tag_26:\n      callvalue\n      dup1\n      iszero\n      tag_161\n      jumpi\n      revert(0x00, 0x00)\n    tag_161:\n      pop\n      tag_162\n      tag_163\n      jump\t// in\n    tag_162:\n      mload(0x40)\n      tag_164\n      swap2\n      swap1\n      tag_89\n      jump\t// in\n    tag_164:\n      mload(0x40)\n      dup1\n      swap2\n      sub\n      swap1\n      return\n        /* \"src/KipuBankV2.sol\":7300:7467  function allowToken(address token) public onlyRole(MANAGER_ROLE) {... */\n    tag_27:\n      callvalue\n      dup1\n      iszero\n      tag_165\n      jumpi\n      revert(0x00, 0x00)\n    tag_165:\n      pop\n      tag_166\n      0x04\n      dup1\n      calldatasize\n      sub\n      dup2\n      add\n      swap1\n      tag_167\n      swap2\n      swap1\n      tag_93\n      jump\t// in\n    tag_167:\n      tag_168\n      jump\t// in\n    tag_166:\n      stop\n        /* \"src/KipuBankV2.sol\":9211:9332  function revokeAnyRole(bytes32 role, address user) public onlyRole(ADMIN_ROLE) {... */\n    tag_28:\n      callvalue\n      dup1\n      iszero\n      tag_169\n      jumpi\n      revert(0x00, 0x00)\n    tag_169:\n      pop\n      tag_170\n      0x04\n      dup1\n      calldatasize\n      sub\n      dup2\n      add\n      swap1\n      tag_171\n      swap2\n      swap1\n      tag_107\n      jump\t// in\n    tag_171:\n      tag_172\n      jump\t// in\n    tag_170:\n      stop\n        /* \"src/KipuBankV2.sol\":9084:9203  function revokeManagerRole(address user) public onlyRole(ADMIN_ROLE) {... */\n    tag_29:\n      callvalue\n      dup1\n      iszero\n      tag_173\n      jumpi\n      revert(0x00, 0x00)\n    tag_173:\n      pop\n      tag_174\n      0x04\n      dup1\n      calldatasize\n      sub\n      dup2\n      add\n      swap1\n      tag_175\n      swap2\n      swap1\n      tag_93\n      jump\t// in\n    tag_175:\n      tag_176\n      jump\t// in\n    tag_174:\n      stop\n        /* \"src/KipuBankV2.sol\":4189:4650  function deposit() public payable onlyRole(CLIENT_ROLE) respectsBankCap(convertETHtoUSD(msg.value)) {... */\n    tag_30:\n      tag_177\n      tag_178\n      jump\t// in\n    tag_177:\n      stop\n        /* \"@openzeppelin/contracts/access/AccessControl.sol\":4618:4756  function revokeRole(bytes32 role, address account) public virtual onlyRole(getRoleAdmin(role)) {... */\n    tag_31:\n      callvalue\n      dup1\n      iszero\n      tag_179\n      jumpi\n      revert(0x00, 0x00)\n    tag_179:\n      pop\n      tag_180\n      0x04\n      dup1\n      calldatasize\n      sub\n      dup2\n      add\n      swap1\n      tag_181\n      swap2\n      swap1\n      tag_107\n      jump\t// in\n    tag_181:\n      tag_182\n      jump\t// in\n    tag_180:\n      stop\n        /* \"src/KipuBankV2.sol\":2163:2208  mapping(address => bool) public allowedTokens */\n    tag_32:\n      callvalue\n      dup1\n      iszero\n      tag_183\n      jumpi\n      revert(0x00, 0x00)\n    tag_183:\n      pop\n      tag_184\n      0x04\n      dup1\n      calldatasize\n      sub\n      dup2\n      add\n      swap1\n      tag_185\n      swap2\n      swap1\n      tag_93\n      jump\t// in\n    tag_185:\n      tag_186\n      jump\t// in\n    tag_184:\n      mload(0x40)\n      tag_187\n      swap2\n      swap1\n      tag_64\n      jump\t// in\n    tag_187:\n      mload(0x40)\n      dup1\n      swap2\n      sub\n      swap1\n      return\n        /* \"src/KipuBankV2.sol\":7583:7759  function disallowToken(address token) public onlyRole(MANAGER_ROLE) {... */\n    tag_33:\n      callvalue\n      dup1\n      iszero\n      tag_188\n      jumpi\n      revert(0x00, 0x00)\n    tag_188:\n      pop\n      tag_189\n      0x04\n      dup1\n      calldatasize\n      sub\n      dup2\n      add\n      swap1\n      tag_190\n      swap2\n      swap1\n      tag_93\n      jump\t// in\n    tag_190:\n      tag_191\n      jump\t// in\n    tag_189:\n      stop\n        /* \"src/KipuBankV2.sol\":862:925  bytes32 public constant CLIENT_ROLE  = keccak256(\"CLIENT_ROLE\") */\n    tag_34:\n      callvalue\n      dup1\n      iszero\n      tag_192\n      jumpi\n      revert(0x00, 0x00)\n    tag_192:\n      pop\n      tag_193\n      tag_194\n      jump\t// in\n    tag_193:\n      mload(0x40)\n      tag_195\n      swap2\n      swap1\n      tag_89\n      jump\t// in\n    tag_195:\n      mload(0x40)\n      dup1\n      swap2\n      sub\n      swap1\n      return\n        /* \"src/KipuBankV2.sol\":791:855  bytes32 public constant MANAGER_ROLE = keccak256(\"MANAGER_ROLE\") */\n    tag_35:\n      callvalue\n      dup1\n      iszero\n      tag_196\n      jumpi\n      revert(0x00, 0x00)\n    tag_196:\n      pop\n      tag_197\n      tag_198\n      jump\t// in\n    tag_197:\n      mload(0x40)\n      tag_199\n      swap2\n      swap1\n      tag_89\n      jump\t// in\n    tag_199:\n      mload(0x40)\n      dup1\n      swap2\n      sub\n      swap1\n      return\n        /* \"src/KipuBankV2.sol\":1233:1265  uint256 public totalDepositedUSD */\n    tag_36:\n      callvalue\n      dup1\n      iszero\n      tag_200\n      jumpi\n      revert(0x00, 0x00)\n    tag_200:\n      pop\n      tag_201\n      tag_202\n      jump\t// in\n    tag_201:\n      mload(0x40)\n      tag_203\n      swap2\n      swap1\n      tag_72\n      jump\t// in\n    tag_203:\n      mload(0x40)\n      dup1\n      swap2\n      sub\n      swap1\n      return\n        /* \"src/KipuBankV2.sol\":7827:8040  function viewBalanceAsManager(address client) public view onlyRole(MANAGER_ROLE) returns (uint256) {... */\n    tag_37:\n      callvalue\n      dup1\n      iszero\n      tag_204\n      jumpi\n      revert(0x00, 0x00)\n    tag_204:\n      pop\n      tag_205\n      0x04\n      dup1\n      calldatasize\n      sub\n      dup2\n      add\n      swap1\n      tag_206\n      swap2\n      swap1\n      tag_93\n      jump\t// in\n    tag_206:\n      tag_207\n      jump\t// in\n    tag_205:\n      mload(0x40)\n      tag_208\n      swap2\n      swap1\n      tag_72\n      jump\t// in\n    tag_208:\n      mload(0x40)\n      dup1\n      swap2\n      sub\n      swap1\n      return\n        /* \"src/KipuBankV2.sol\":8422:8605  function increaseBankCap(uint256 newCapUSD) public onlyRole(MANAGER_ROLE) {... */\n    tag_57:\n        /* \"src/KipuBankV2.sol\":830:855  keccak256(\"MANAGER_ROLE\") */\n      0x241ecf16d79d0f8dbfb92cbc07fe17840425976cf0667f022fe9877caa831b08\n        /* \"@openzeppelin/contracts/access/AccessControl.sol\":2473:2489  _checkRole(role) */\n      tag_210\n        /* \"@openzeppelin/contracts/access/AccessControl.sol\":2484:2488  role */\n      dup2\n        /* \"@openzeppelin/contracts/access/AccessControl.sol\":2473:2483  _checkRole */\n      tag_211\n        /* \"@openzeppelin/contracts/access/AccessControl.sol\":2473:2489  _checkRole(role) */\n      jump\t// in\n    tag_210:\n        /* \"src/KipuBankV2.sol\":8527:8537  bankCapUSD */\n      sload(0x02)\n        /* \"src/KipuBankV2.sol\":8515:8524  newCapUSD */\n      dup3\n        /* \"src/KipuBankV2.sol\":8515:8537  newCapUSD > bankCapUSD */\n      gt\n        /* \"src/KipuBankV2.sol\":8507:8564  require(newCapUSD > bankCapUSD, \"New cap must be higher\") */\n      tag_213\n      jumpi\n      mload(0x40)\n      0x08c379a000000000000000000000000000000000000000000000000000000000\n      dup2\n      mstore\n      0x04\n      add\n      tag_214\n      swap1\n      tag_215\n      jump\t// in\n    tag_214:\n      mload(0x40)\n      dup1\n      swap2\n      sub\n      swap1\n      revert\n    tag_213:\n        /* \"src/KipuBankV2.sol\":8588:8597  newCapUSD */\n      dup2\n        /* \"src/KipuBankV2.sol\":8575:8585  bankCapUSD */\n      0x02\n        /* \"src/KipuBankV2.sol\":8575:8597  bankCapUSD = newCapUSD */\n      dup2\n      swap1\n      sstore\n      pop\n        /* \"src/KipuBankV2.sol\":8422:8605  function increaseBankCap(uint256 newCapUSD) public onlyRole(MANAGER_ROLE) {... */\n      pop\n      pop\n      jump\t// out\n        /* \"@openzeppelin/contracts/access/AccessControl.sol\":2541:2743  function supportsInterface(bytes4 interfaceId) public view virtual override returns (bool) {... */\n    tag_62:\n        /* \"@openzeppelin/contracts/access/AccessControl.sol\":2626:2630  bool */\n      0x00\n        /* \"@openzeppelin/contracts/access/AccessControl.sol\":2664:2696  type(IAccessControl).interfaceId */\n      0x7965db0b00000000000000000000000000000000000000000000000000000000\n        /* \"@openzeppelin/contracts/access/AccessControl.sol\":2649:2696  interfaceId == type(IAccessControl).interfaceId */\n      not(0xffffffffffffffffffffffffffffffffffffffffffffffffffffffff)\n      and\n        /* \"@openzeppelin/contracts/access/AccessControl.sol\":2649:2660  interfaceId */\n      dup3\n        /* \"@openzeppelin/contracts/access/AccessControl.sol\":2649:2696  interfaceId == type(IAccessControl).interfaceId */\n      not(0xffffffffffffffffffffffffffffffffffffffffffffffffffffffff)\n      and\n      eq\n        /* \"@openzeppelin/contracts/access/AccessControl.sol\":2649:2736  interfaceId == type(IAccessControl).interfaceId || super.supportsInterface(interfaceId) */\n      dup1\n      tag_217\n      jumpi\n      pop\n        /* \"@openzeppelin/contracts/access/AccessControl.sol\":2700:2736  super.supportsInterface(interfaceId) */\n      tag_218\n        /* \"@openzeppelin/contracts/access/AccessControl.sol\":2724:2735  interfaceId */\n      dup3\n        /* \"@openzeppelin/contracts/access/AccessControl.sol\":2700:2723  super.supportsInterface */\n      tag_219\n        /* \"@openzeppelin/contracts/access/AccessControl.sol\":2700:2736  super.supportsInterface(interfaceId) */\n      jump\t// in\n    tag_218:\n        /* \"@openzeppelin/contracts/access/AccessControl.sol\":2649:2736  interfaceId == type(IAccessControl).interfaceId || super.supportsInterface(interfaceId) */\n    tag_217:\n        /* \"@openzeppelin/contracts/access/AccessControl.sol\":2642:2736  return interfaceId == type(IAccessControl).interfaceId || super.supportsInterface(interfaceId) */\n      swap1\n      pop\n        /* \"@openzeppelin/contracts/access/AccessControl.sol\":2541:2743  function supportsInterface(bytes4 interfaceId) public view virtual override returns (bool) {... */\n      swap2\n      swap1\n      pop\n      jump\t// out\n        /* \"src/KipuBankV2.sol\":8675:8770  function pauseDeposits() public onlyRole(MANAGER_ROLE) {... */\n    tag_67:\n        /* \"src/KipuBankV2.sol\":830:855  keccak256(\"MANAGER_ROLE\") */\n      0x241ecf16d79d0f8dbfb92cbc07fe17840425976cf0667f022fe9877caa831b08\n        /* \"@openzeppelin/contracts/access/AccessControl.sol\":2473:2489  _checkRole(role) */\n      tag_221\n        /* \"@openzeppelin/contracts/access/AccessControl.sol\":2484:2488  role */\n      dup2\n        /* \"@openzeppelin/contracts/access/AccessControl.sol\":2473:2483  _checkRole */\n      tag_211\n        /* \"@openzeppelin/contracts/access/AccessControl.sol\":2473:2489  _checkRole(role) */\n      jump\t// in\n    tag_221:\n        /* \"src/KipuBankV2.sol\":8758:8762  true */\n      0x01\n        /* \"src/KipuBankV2.sol\":8741:8755  depositsPaused */\n      0x04\n      0x00\n        /* \"src/KipuBankV2.sol\":8741:8762  depositsPaused = true */\n      0x0100\n      exp\n      dup2\n      sload\n      dup2\n      0xff\n      mul\n      not\n      and\n      swap1\n      dup4\n      iszero\n      iszero\n      mul\n      or\n      swap1\n      sstore\n      pop\n        /* \"src/KipuBankV2.sol\":8675:8770  function pauseDeposits() public onlyRole(MANAGER_ROLE) {... */\n      pop\n      jump\t// out\n        /* \"src/KipuBankV2.sol\":4021:4149  function getBalance() public view onlyRole(CLIENT_ROLE) returns (uint256) {... */\n    tag_70:\n        /* \"src/KipuBankV2.sol\":4086:4093  uint256 */\n      0x00\n        /* \"src/KipuBankV2.sol\":901:925  keccak256(\"CLIENT_ROLE\") */\n      0xa5ff3ec7a96cdbba4d2d5172d66bbc73c6db3885f29b21be5da9fa7a7c025232\n        /* \"@openzeppelin/contracts/access/AccessControl.sol\":2473:2489  _checkRole(role) */\n      tag_224\n        /* \"@openzeppelin/contracts/access/AccessControl.sol\":2484:2488  role */\n      dup2\n        /* \"@openzeppelin/contracts/access/AccessControl.sol\":2473:2483  _checkRole */\n      tag_211\n        /* \"@openzeppelin/contracts/access/AccessControl.sol\":2473:2489  _checkRole(role) */\n      jump\t// in\n    tag_224:\n        /* \"src/KipuBankV2.sol\":4113:4121  accounts */\n      0x05\n        /* \"src/KipuBankV2.sol\":4113:4133  accounts[msg.sender] */\n      0x00\n        /* \"src/KipuBankV2.sol\":4122:4132  msg.sender */\n      caller\n        /* \"src/KipuBankV2.sol\":4113:4133  accounts[msg.sender] */\n      0xffffffffffffffffffffffffffffffffffffffff\n      and\n      0xffffffffffffffffffffffffffffffffffffffff\n      and\n      dup2\n      mstore\n      0x20\n      add\n      swap1\n      dup2\n      mstore\n      0x20\n      add\n      0x00\n      keccak256\n        /* \"src/KipuBankV2.sol\":4113:4141  accounts[msg.sender].balance */\n      0x00\n      add\n      sload\n        /* \"src/KipuBankV2.sol\":4106:4141  return accounts[msg.sender].balance */\n      swap2\n      pop\n        /* \"src/KipuBankV2.sol\":4021:4149  function getBalance() public view onlyRole(CLIENT_ROLE) returns (uint256) {... */\n      pop\n      swap1\n      jump\t// out\n        /* \"src/KipuBankV2.sol\":1128:1153  uint256 public bankCapUSD */\n    tag_75:\n      sload(0x02)\n      dup2\n      jump\t// out\n        /* \"src/KipuBankV2.sol\":8110:8347  function viewTokenBalanceAsManager(address client, address token) public view onlyRole(MANAGER_ROLE) returns (uint256) {... */\n    tag_81:\n        /* \"src/KipuBankV2.sol\":8220:8227  uint256 */\n      0x00\n        /* \"src/KipuBankV2.sol\":830:855  keccak256(\"MANAGER_ROLE\") */\n      0x241ecf16d79d0f8dbfb92cbc07fe17840425976cf0667f022fe9877caa831b08\n        /* \"@openzeppelin/contracts/access/AccessControl.sol\":2473:2489  _checkRole(role) */\n      tag_227\n        /* \"@openzeppelin/contracts/access/AccessControl.sol\":2484:2488  role */\n      dup2\n        /* \"@openzeppelin/contracts/access/AccessControl.sol\":2473:2483  _checkRole */\n      tag_211\n        /* \"@openzeppelin/contracts/access/AccessControl.sol\":2473:2489  _checkRole(role) */\n      jump\t// in\n    tag_227:\n        /* \"src/KipuBankV2.sol\":8248:8256  accounts */\n      0x05\n        /* \"src/KipuBankV2.sol\":8248:8264  accounts[client] */\n      0x00\n        /* \"src/KipuBankV2.sol\":8257:8263  client */\n      dup6\n        /* \"src/KipuBankV2.sol\":8248:8264  accounts[client] */\n      0xffffffffffffffffffffffffffffffffffffffff\n      and\n      0xffffffffffffffffffffffffffffffffffffffff\n      and\n      dup2\n      mstore\n      0x20\n      add\n      swap1\n      dup2\n      mstore\n      0x20\n      add\n      0x00\n      keccak256\n        /* \"src/KipuBankV2.sol\":8248:8271  accounts[client].exists */\n      0x01\n      add\n      0x00\n      swap1\n      sload\n      swap1\n      0x0100\n      exp\n      swap1\n      div\n      0xff\n      and\n        /* \"src/KipuBankV2.sol\":8240:8293  require(accounts[client].exists, \"Account not found\") */\n      tag_229\n      jumpi\n      mload(0x40)\n      0x08c379a000000000000000000000000000000000000000000000000000000000\n      dup2\n      mstore\n      0x04\n      add\n      tag_230\n      swap1\n      tag_231\n      jump\t// in\n    tag_230:\n      mload(0x40)\n      dup1\n      swap2\n      sub\n      swap1\n      revert\n    tag_229:\n        /* \"src/KipuBankV2.sol\":8311:8324  tokenBalances */\n      0x06\n        /* \"src/KipuBankV2.sol\":8311:8332  tokenBalances[client] */\n      0x00\n        /* \"src/KipuBankV2.sol\":8325:8331  client */\n      dup6\n        /* \"src/KipuBankV2.sol\":8311:8332  tokenBalances[client] */\n      0xffffffffffffffffffffffffffffffffffffffff\n      and\n      0xffffffffffffffffffffffffffffffffffffffff\n      and\n      dup2\n      mstore\n      0x20\n      add\n      swap1\n      dup2\n      mstore\n      0x20\n      add\n      0x00\n      keccak256\n        /* \"src/KipuBankV2.sol\":8311:8339  tokenBalances[client][token] */\n      0x00\n        /* \"src/KipuBankV2.sol\":8333:8338  token */\n      dup5\n        /* \"src/KipuBankV2.sol\":8311:8339  tokenBalances[client][token] */\n      0xffffffffffffffffffffffffffffffffffffffff\n      and\n      0xffffffffffffffffffffffffffffffffffffffff\n      and\n      dup2\n      mstore\n      0x20\n      add\n      swap1\n      dup2\n      mstore\n      0x20\n      add\n      0x00\n      keccak256\n      sload\n        /* \"src/KipuBankV2.sol\":8304:8339  return tokenBalances[client][token] */\n      swap2\n      pop\n        /* \"src/KipuBankV2.sol\":8110:8347  function viewTokenBalanceAsManager(address client, address token) public view onlyRole(MANAGER_ROLE) returns (uint256) {... */\n      pop\n      swap3\n      swap2\n      pop\n      pop\n      jump\t// out\n        /* \"@openzeppelin/contracts/access/AccessControl.sol\":3786:3906  function getRoleAdmin(bytes32 role) public view virtual returns (bytes32) {... */\n    tag_87:\n        /* \"@openzeppelin/contracts/access/AccessControl.sol\":3851:3858  bytes32 */\n      0x00\n        /* \"@openzeppelin/contracts/access/AccessControl.sol\":3877:3883  _roles */\n      0x00\n        /* \"@openzeppelin/contracts/access/AccessControl.sol\":3877:3889  _roles[role] */\n      0x00\n        /* \"@openzeppelin/contracts/access/AccessControl.sol\":3884:3888  role */\n      dup4\n        /* \"@openzeppelin/contracts/access/AccessControl.sol\":3877:3889  _roles[role] */\n      dup2\n      mstore\n      0x20\n      add\n      swap1\n      dup2\n      mstore\n      0x20\n      add\n      0x00\n      keccak256\n        /* \"@openzeppelin/contracts/access/AccessControl.sol\":3877:3899  _roles[role].adminRole */\n      0x01\n      add\n      sload\n        /* \"@openzeppelin/contracts/access/AccessControl.sol\":3870:3899  return _roles[role].adminRole */\n      swap1\n      pop\n        /* \"@openzeppelin/contracts/access/AccessControl.sol\":3786:3906  function getRoleAdmin(bytes32 role) public view virtual returns (bytes32) {... */\n      swap2\n      swap1\n      pop\n      jump\t// out\n        /* \"src/KipuBankV2.sol\":8959:9076  function grantManagerRole(address user) public onlyRole(ADMIN_ROLE) {... */\n    tag_94:\n        /* \"src/KipuBankV2.sol\":761:784  keccak256(\"ADMIN_ROLE\") */\n      0xa49807205ce4d355092ef5a8a18f56e8913cf4a201fbe287825b095693c21775\n        /* \"@openzeppelin/contracts/access/AccessControl.sol\":2473:2489  _checkRole(role) */\n      tag_234\n        /* \"@openzeppelin/contracts/access/AccessControl.sol\":2484:2488  role */\n      dup2\n        /* \"@openzeppelin/contracts/access/AccessControl.sol\":2473:2483  _checkRole */\n      tag_211\n        /* \"@openzeppelin/contracts/access/AccessControl.sol\":2473:2489  _checkRole(role) */\n      jump\t// in\n    tag_234:\n        /* \"src/KipuBankV2.sol\":9038:9068  _grantRole(MANAGER_ROLE, user) */\n      tag_236\n        /* \"src/KipuBankV2.sol\":830:855  keccak256(\"MANAGER_ROLE\") */\n      0x241ecf16d79d0f8dbfb92cbc07fe17840425976cf0667f022fe9877caa831b08\n        /* \"src/KipuBankV2.sol\":9063:9067  user */\n      dup4\n        /* \"src/KipuBankV2.sol\":9038:9048  _grantRole */\n      tag_237\n        /* \"src/KipuBankV2.sol\":9038:9068  _grantRole(MANAGER_ROLE, user) */\n      jump\t// in\n    tag_236:\n      pop\n        /* \"src/KipuBankV2.sol\":8959:9076  function grantManagerRole(address user) public onlyRole(ADMIN_ROLE) {... */\n      pop\n      pop\n      jump\t// out\n        /* \"src/KipuBankV2.sol\":6596:7235  function transferTo(address to, uint256 amount) public nonReentrant onlyRole(CLIENT_ROLE) {... */\n    tag_99:\n        /* \"@openzeppelin/contracts/utils/ReentrancyGuard.sol\":3023:3044  _nonReentrantBefore() */\n      tag_239\n        /* \"@openzeppelin/contracts/utils/ReentrancyGuard.sol\":3023:3042  _nonReentrantBefore */\n      tag_240\n        /* \"@openzeppelin/contracts/utils/ReentrancyGuard.sol\":3023:3044  _nonReentrantBefore() */\n      jump\t// in\n    tag_239:\n        /* \"src/KipuBankV2.sol\":901:925  keccak256(\"CLIENT_ROLE\") */\n      0xa5ff3ec7a96cdbba4d2d5172d66bbc73c6db3885f29b21be5da9fa7a7c025232\n        /* \"@openzeppelin/contracts/access/AccessControl.sol\":2473:2489  _checkRole(role) */\n      tag_242\n        /* \"@openzeppelin/contracts/access/AccessControl.sol\":2484:2488  role */\n      dup2\n        /* \"@openzeppelin/contracts/access/AccessControl.sol\":2473:2483  _checkRole */\n      tag_211\n        /* \"@openzeppelin/contracts/access/AccessControl.sol\":2473:2489  _checkRole(role) */\n      jump\t// in\n    tag_242:\n        /* \"src/KipuBankV2.sol\":6719:6720  0 */\n      0x00\n        /* \"src/KipuBankV2.sol\":6705:6721  to != address(0) */\n      0xffffffffffffffffffffffffffffffffffffffff\n      and\n        /* \"src/KipuBankV2.sol\":6705:6707  to */\n      dup4\n        /* \"src/KipuBankV2.sol\":6705:6721  to != address(0) */\n      0xffffffffffffffffffffffffffffffffffffffff\n      and\n      sub\n        /* \"src/KipuBankV2.sol\":6697:6743  require(to != address(0), \"Invalid recipient\") */\n      tag_244\n      jumpi\n      mload(0x40)\n      0x08c379a000000000000000000000000000000000000000000000000000000000\n      dup2\n      mstore\n      0x04\n      add\n      tag_245\n      swap1\n      tag_246\n      jump\t// in\n    tag_245:\n      mload(0x40)\n      dup1\n      swap2\n      sub\n      swap1\n      revert\n    tag_244:\n        /* \"src/KipuBankV2.sol\":6768:6778  msg.sender */\n      caller\n        /* \"src/KipuBankV2.sol\":6762:6778  to != msg.sender */\n      0xffffffffffffffffffffffffffffffffffffffff\n      and\n        /* \"src/KipuBankV2.sol\":6762:6764  to */\n      dup4\n        /* \"src/KipuBankV2.sol\":6762:6778  to != msg.sender */\n      0xffffffffffffffffffffffffffffffffffffffff\n      and\n      sub\n        /* \"src/KipuBankV2.sol\":6754:6810  require(to != msg.sender, \"Cannot transfer to yourself\") */\n      tag_247\n      jumpi\n      mload(0x40)\n      0x08c379a000000000000000000000000000000000000000000000000000000000\n      dup2\n      mstore\n      0x04\n      add\n      tag_248\n      swap1\n      tag_249\n      jump\t// in\n    tag_248:\n      mload(0x40)\n      dup1\n      swap2\n      sub\n      swap1\n      revert\n    tag_247:\n        /* \"src/KipuBankV2.sol\":6829:6837  accounts */\n      0x05\n        /* \"src/KipuBankV2.sol\":6829:6849  accounts[msg.sender] */\n      0x00\n        /* \"src/KipuBankV2.sol\":6838:6848  msg.sender */\n      caller\n        /* \"src/KipuBankV2.sol\":6829:6849  accounts[msg.sender] */\n      0xffffffffffffffffffffffffffffffffffffffff\n      and\n      0xffffffffffffffffffffffffffffffffffffffff\n      and\n      dup2\n      mstore\n      0x20\n      add\n      swap1\n      dup2\n      mstore\n      0x20\n      add\n      0x00\n      keccak256\n        /* \"src/KipuBankV2.sol\":6829:6856  accounts[msg.sender].exists */\n      0x01\n      add\n      0x00\n      swap1\n      sload\n      swap1\n      0x0100\n      exp\n      swap1\n      div\n      0xff\n      and\n        /* \"src/KipuBankV2.sol\":6821:6882  require(accounts[msg.sender].exists, \"Sender has no account\") */\n      tag_250\n      jumpi\n      mload(0x40)\n      0x08c379a000000000000000000000000000000000000000000000000000000000\n      dup2\n      mstore\n      0x04\n      add\n      tag_251\n      swap1\n      tag_252\n      jump\t// in\n    tag_251:\n      mload(0x40)\n      dup1\n      swap2\n      sub\n      swap1\n      revert\n    tag_250:\n        /* \"src/KipuBankV2.sol\":6901:6909  accounts */\n      0x05\n        /* \"src/KipuBankV2.sol\":6901:6913  accounts[to] */\n      0x00\n        /* \"src/KipuBankV2.sol\":6910:6912  to */\n      dup5\n        /* \"src/KipuBankV2.sol\":6901:6913  accounts[to] */\n      0xffffffffffffffffffffffffffffffffffffffff\n      and\n      0xffffffffffffffffffffffffffffffffffffffff\n      and\n      dup2\n      mstore\n      0x20\n      add\n      swap1\n      dup2\n      mstore\n      0x20\n      add\n      0x00\n      keccak256\n        /* \"src/KipuBankV2.sol\":6901:6920  accounts[to].exists */\n      0x01\n      add\n      0x00\n      swap1\n      sload\n      swap1\n      0x0100\n      exp\n      swap1\n      div\n      0xff\n      and\n        /* \"src/KipuBankV2.sol\":6893:6949  require(accounts[to].exists, \"Recipient has no account\") */\n      tag_253\n      jumpi\n      mload(0x40)\n      0x08c379a000000000000000000000000000000000000000000000000000000000\n      dup2\n      mstore\n      0x04\n      add\n      tag_254\n      swap1\n      tag_255\n      jump\t// in\n    tag_254:\n      mload(0x40)\n      dup1\n      swap2\n      sub\n      swap1\n      revert\n    tag_253:\n        /* \"src/KipuBankV2.sol\":6977:6978  0 */\n      0x00\n        /* \"src/KipuBankV2.sol\":6968:6974  amount */\n      dup3\n        /* \"src/KipuBankV2.sol\":6968:6978  amount > 0 */\n      gt\n        /* \"src/KipuBankV2.sol\":6960:7001  require(amount > 0, \"Amount must be > 0\") */\n      tag_256\n      jumpi\n      mload(0x40)\n      0x08c379a000000000000000000000000000000000000000000000000000000000\n      dup2\n      mstore\n      0x04\n      add\n      tag_257\n      swap1\n      tag_258\n      jump\t// in\n    tag_257:\n      mload(0x40)\n      dup1\n      swap2\n      sub\n      swap1\n      revert\n    tag_256:\n        /* \"src/KipuBankV2.sol\":7052:7058  amount */\n      dup2\n        /* \"src/KipuBankV2.sol\":7020:7028  accounts */\n      0x05\n        /* \"src/KipuBankV2.sol\":7020:7040  accounts[msg.sender] */\n      0x00\n        /* \"src/KipuBankV2.sol\":7029:7039  msg.sender */\n      caller\n        /* \"src/KipuBankV2.sol\":7020:7040  accounts[msg.sender] */\n      0xffffffffffffffffffffffffffffffffffffffff\n      and\n      0xffffffffffffffffffffffffffffffffffffffff\n      and\n      dup2\n      mstore\n      0x20\n      add\n      swap1\n      dup2\n      mstore\n      0x20\n      add\n      0x00\n      keccak256\n        /* \"src/KipuBankV2.sol\":7020:7048  accounts[msg.sender].balance */\n      0x00\n      add\n      sload\n        /* \"src/KipuBankV2.sol\":7020:7058  accounts[msg.sender].balance >= amount */\n      lt\n      iszero\n        /* \"src/KipuBankV2.sol\":7012:7081  require(accounts[msg.sender].balance >= amount, \"Insufficient funds\") */\n      tag_259\n      jumpi\n      mload(0x40)\n      0x08c379a000000000000000000000000000000000000000000000000000000000\n      dup2\n      mstore\n      0x04\n      add\n      tag_260\n      swap1\n      tag_261\n      jump\t// in\n    tag_260:\n      mload(0x40)\n      dup1\n      swap2\n      sub\n      swap1\n      revert\n    tag_259:\n        /* \"src/KipuBankV2.sol\":7126:7132  amount */\n      dup2\n        /* \"src/KipuBankV2.sol\":7094:7102  accounts */\n      0x05\n        /* \"src/KipuBankV2.sol\":7094:7114  accounts[msg.sender] */\n      0x00\n        /* \"src/KipuBankV2.sol\":7103:7113  msg.sender */\n      caller\n        /* \"src/KipuBankV2.sol\":7094:7114  accounts[msg.sender] */\n      0xffffffffffffffffffffffffffffffffffffffff\n      and\n      0xffffffffffffffffffffffffffffffffffffffff\n      and\n      dup2\n      mstore\n      0x20\n      add\n      swap1\n      dup2\n      mstore\n      0x20\n      add\n      0x00\n      keccak256\n        /* \"src/KipuBankV2.sol\":7094:7122  accounts[msg.sender].balance */\n      0x00\n      add\n      0x00\n        /* \"src/KipuBankV2.sol\":7094:7132  accounts[msg.sender].balance -= amount */\n      dup3\n      dup3\n      sload\n      tag_262\n      swap2\n      swap1\n      tag_263\n      jump\t// in\n    tag_262:\n      swap3\n      pop\n      pop\n      dup2\n      swap1\n      sstore\n      pop\n        /* \"src/KipuBankV2.sol\":7167:7173  amount */\n      dup2\n        /* \"src/KipuBankV2.sol\":7143:7151  accounts */\n      0x05\n        /* \"src/KipuBankV2.sol\":7143:7155  accounts[to] */\n      0x00\n        /* \"src/KipuBankV2.sol\":7152:7154  to */\n      dup6\n        /* \"src/KipuBankV2.sol\":7143:7155  accounts[to] */\n      0xffffffffffffffffffffffffffffffffffffffff\n      and\n      0xffffffffffffffffffffffffffffffffffffffff\n      and\n      dup2\n      mstore\n      0x20\n      add\n      swap1\n      dup2\n      mstore\n      0x20\n      add\n      0x00\n      keccak256\n        /* \"src/KipuBankV2.sol\":7143:7163  accounts[to].balance */\n      0x00\n      add\n      0x00\n        /* \"src/KipuBankV2.sol\":7143:7173  accounts[to].balance += amount */\n      dup3\n      dup3\n      sload\n      tag_264\n      swap2\n      swap1\n      tag_265\n      jump\t// in\n    tag_264:\n      swap3\n      pop\n      pop\n      dup2\n      swap1\n      sstore\n      pop\n        /* \"src/KipuBankV2.sol\":7216:7218  to */\n      dup3\n        /* \"src/KipuBankV2.sol\":7191:7227  TransferMade(msg.sender, to, amount) */\n      0xffffffffffffffffffffffffffffffffffffffff\n      and\n        /* \"src/KipuBankV2.sol\":7204:7214  msg.sender */\n      caller\n        /* \"src/KipuBankV2.sol\":7191:7227  TransferMade(msg.sender, to, amount) */\n      0xffffffffffffffffffffffffffffffffffffffff\n      and\n      0x422971e1d1a7c8b68372f65fe1426aef054f0c6290124a929c843c5c019521d6\n        /* \"src/KipuBankV2.sol\":7220:7226  amount */\n      dup5\n        /* \"src/KipuBankV2.sol\":7191:7227  TransferMade(msg.sender, to, amount) */\n      mload(0x40)\n      tag_266\n      swap2\n      swap1\n      tag_72\n      jump\t// in\n    tag_266:\n      mload(0x40)\n      dup1\n      swap2\n      sub\n      swap1\n      log3\n        /* \"@openzeppelin/contracts/utils/ReentrancyGuard.sol\":3054:3055  _ */\n      pop\n        /* \"@openzeppelin/contracts/utils/ReentrancyGuard.sol\":3065:3085  _nonReentrantAfter() */\n      tag_267\n        /* \"@openzeppelin/contracts/utils/ReentrancyGuard.sol\":3065:3083  _nonReentrantAfter */\n      tag_268\n        /* \"@openzeppelin/contracts/utils/ReentrancyGuard.sol\":3065:3085  _nonReentrantAfter() */\n      jump\t// in\n    tag_267:\n        /* \"src/KipuBankV2.sol\":6596:7235  function transferTo(address to, uint256 amount) public nonReentrant onlyRole(CLIENT_ROLE) {... */\n      pop\n      pop\n      jump\t// out\n        /* \"src/KipuBankV2.sol\":4658:5216  function withdraw(uint256 amount) public nonReentrant onlyRole(CLIENT_ROLE) {... */\n    tag_103:\n        /* \"@openzeppelin/contracts/utils/ReentrancyGuard.sol\":3023:3044  _nonReentrantBefore() */\n      tag_270\n        /* \"@openzeppelin/contracts/utils/ReentrancyGuard.sol\":3023:3042  _nonReentrantBefore */\n      tag_240\n        /* \"@openzeppelin/contracts/utils/ReentrancyGuard.sol\":3023:3044  _nonReentrantBefore() */\n      jump\t// in\n    tag_270:\n        /* \"src/KipuBankV2.sol\":901:925  keccak256(\"CLIENT_ROLE\") */\n      0xa5ff3ec7a96cdbba4d2d5172d66bbc73c6db3885f29b21be5da9fa7a7c025232\n        /* \"@openzeppelin/contracts/access/AccessControl.sol\":2473:2489  _checkRole(role) */\n      tag_272\n        /* \"@openzeppelin/contracts/access/AccessControl.sol\":2484:2488  role */\n      dup2\n        /* \"@openzeppelin/contracts/access/AccessControl.sol\":2473:2483  _checkRole */\n      tag_211\n        /* \"@openzeppelin/contracts/access/AccessControl.sol\":2473:2489  _checkRole(role) */\n      jump\t// in\n    tag_272:\n        /* \"src/KipuBankV2.sol\":4753:4761  accounts */\n      0x05\n        /* \"src/KipuBankV2.sol\":4753:4773  accounts[msg.sender] */\n      0x00\n        /* \"src/KipuBankV2.sol\":4762:4772  msg.sender */\n      caller\n        /* \"src/KipuBankV2.sol\":4753:4773  accounts[msg.sender] */\n      0xffffffffffffffffffffffffffffffffffffffff\n      and\n      0xffffffffffffffffffffffffffffffffffffffff\n      and\n      dup2\n      mstore\n      0x20\n      add\n      swap1\n      dup2\n      mstore\n      0x20\n      add\n      0x00\n      keccak256\n        /* \"src/KipuBankV2.sol\":4753:4780  accounts[msg.sender].exists */\n      0x01\n      add\n      0x00\n      swap1\n      sload\n      swap1\n      0x0100\n      exp\n      swap1\n      div\n      0xff\n      and\n        /* \"src/KipuBankV2.sol\":4745:4807  require(accounts[msg.sender].exists, \"Account does not exist\") */\n      tag_274\n      jumpi\n      mload(0x40)\n      0x08c379a000000000000000000000000000000000000000000000000000000000\n      dup2\n      mstore\n      0x04\n      add\n      tag_275\n      swap1\n      tag_276\n      jump\t// in\n    tag_275:\n      mload(0x40)\n      dup1\n      swap2\n      sub\n      swap1\n      revert\n    tag_274:\n        /* \"src/KipuBankV2.sol\":4835:4836  0 */\n      0x00\n        /* \"src/KipuBankV2.sol\":4826:4832  amount */\n      dup3\n        /* \"src/KipuBankV2.sol\":4826:4836  amount > 0 */\n      gt\n        /* \"src/KipuBankV2.sol\":4818:4859  require(amount > 0, \"Amount must be > 0\") */\n      tag_277\n      jumpi\n      mload(0x40)\n      0x08c379a000000000000000000000000000000000000000000000000000000000\n      dup2\n      mstore\n      0x04\n      add\n      tag_278\n      swap1\n      tag_258\n      jump\t// in\n    tag_278:\n      mload(0x40)\n      dup1\n      swap2\n      sub\n      swap1\n      revert\n    tag_277:\n        /* \"src/KipuBankV2.sol\":4910:4916  amount */\n      dup2\n        /* \"src/KipuBankV2.sol\":4878:4886  accounts */\n      0x05\n        /* \"src/KipuBankV2.sol\":4878:4898  accounts[msg.sender] */\n      0x00\n        /* \"src/KipuBankV2.sol\":4887:4897  msg.sender */\n      caller\n        /* \"src/KipuBankV2.sol\":4878:4898  accounts[msg.sender] */\n      0xffffffffffffffffffffffffffffffffffffffff\n      and\n      0xffffffffffffffffffffffffffffffffffffffff\n      and\n      dup2\n      mstore\n      0x20\n      add\n      swap1\n      dup2\n      mstore\n      0x20\n      add\n      0x00\n      keccak256\n        /* \"src/KipuBankV2.sol\":4878:4906  accounts[msg.sender].balance */\n      0x00\n      add\n      sload\n        /* \"src/KipuBankV2.sol\":4878:4916  accounts[msg.sender].balance >= amount */\n      lt\n      iszero\n        /* \"src/KipuBankV2.sol\":4870:4939  require(accounts[msg.sender].balance >= amount, \"Insufficient funds\") */\n      tag_279\n      jumpi\n      mload(0x40)\n      0x08c379a000000000000000000000000000000000000000000000000000000000\n      dup2\n      mstore\n      0x04\n      add\n      tag_280\n      swap1\n      tag_261\n      jump\t// in\n    tag_280:\n      mload(0x40)\n      dup1\n      swap2\n      sub\n      swap1\n      revert\n    tag_279:\n        /* \"src/KipuBankV2.sol\":4984:4990  amount */\n      dup2\n        /* \"src/KipuBankV2.sol\":4952:4960  accounts */\n      0x05\n        /* \"src/KipuBankV2.sol\":4952:4972  accounts[msg.sender] */\n      0x00\n        /* \"src/KipuBankV2.sol\":4961:4971  msg.sender */\n      caller\n        /* \"src/KipuBankV2.sol\":4952:4972  accounts[msg.sender] */\n      0xffffffffffffffffffffffffffffffffffffffff\n      and\n      0xffffffffffffffffffffffffffffffffffffffff\n      and\n      dup2\n      mstore\n      0x20\n      add\n      swap1\n      dup2\n      mstore\n      0x20\n      add\n      0x00\n      keccak256\n        /* \"src/KipuBankV2.sol\":4952:4980  accounts[msg.sender].balance */\n      0x00\n      add\n      0x00\n        /* \"src/KipuBankV2.sol\":4952:4990  accounts[msg.sender].balance -= amount */\n      dup3\n      dup3\n      sload\n      tag_281\n      swap2\n      swap1\n      tag_263\n      jump\t// in\n    tag_281:\n      swap3\n      pop\n      pop\n      dup2\n      swap1\n      sstore\n      pop\n        /* \"src/KipuBankV2.sol\":5022:5045  convertETHtoUSD(amount) */\n      tag_282\n        /* \"src/KipuBankV2.sol\":5038:5044  amount */\n      dup3\n        /* \"src/KipuBankV2.sol\":5022:5037  convertETHtoUSD */\n      tag_147\n        /* \"src/KipuBankV2.sol\":5022:5045  convertETHtoUSD(amount) */\n      jump\t// in\n    tag_282:\n        /* \"src/KipuBankV2.sol\":5001:5018  totalDepositedUSD */\n      0x03\n      0x00\n        /* \"src/KipuBankV2.sol\":5001:5045  totalDepositedUSD -= convertETHtoUSD(amount) */\n      dup3\n      dup3\n      sload\n      tag_283\n      swap2\n      swap1\n      tag_263\n      jump\t// in\n    tag_283:\n      swap3\n      pop\n      pop\n      dup2\n      swap1\n      sstore\n      pop\n        /* \"src/KipuBankV2.sol\":5059:5068  bool sent */\n      0x00\n        /* \"src/KipuBankV2.sol\":5073:5083  msg.sender */\n      caller\n        /* \"src/KipuBankV2.sol\":5073:5088  msg.sender.call */\n      0xffffffffffffffffffffffffffffffffffffffff\n      and\n        /* \"src/KipuBankV2.sol\":5096:5102  amount */\n      dup4\n        /* \"src/KipuBankV2.sol\":5073:5107  msg.sender.call{value: amount}(\"\") */\n      mload(0x40)\n      tag_284\n      swap1\n      tag_285\n      jump\t// in\n    tag_284:\n      0x00\n      mload(0x40)\n      dup1\n      dup4\n      sub\n      dup2\n      dup6\n      dup8\n      gas\n      call\n      swap3\n      pop\n      pop\n      pop\n      returndatasize\n      dup1\n      0x00\n      dup2\n      eq\n      tag_288\n      jumpi\n      mload(0x40)\n      swap2\n      pop\n      and(add(returndatasize, 0x3f), not(0x1f))\n      dup3\n      add\n      0x40\n      mstore\n      returndatasize\n      dup3\n      mstore\n      returndatasize\n      0x00\n      0x20\n      dup5\n      add\n      returndatacopy\n      jump(tag_287)\n    tag_288:\n      0x60\n      swap2\n      pop\n    tag_287:\n      pop\n        /* \"src/KipuBankV2.sol\":5058:5107  (bool sent,) = msg.sender.call{value: amount}(\"\") */\n      pop\n      swap1\n      pop\n        /* \"src/KipuBankV2.sol\":5126:5130  sent */\n      dup1\n        /* \"src/KipuBankV2.sol\":5118:5156  require(sent, \"ETH withdrawal failed\") */\n      tag_289\n      jumpi\n      mload(0x40)\n      0x08c379a000000000000000000000000000000000000000000000000000000000\n      dup2\n      mstore\n      0x04\n      add\n      tag_290\n      swap1\n      tag_291\n      jump\t// in\n    tag_290:\n      mload(0x40)\n      dup1\n      swap2\n      sub\n      swap1\n      revert\n    tag_289:\n        /* \"src/KipuBankV2.sol\":5189:5199  msg.sender */\n      caller\n        /* \"src/KipuBankV2.sol\":5174:5208  WithdrawalMade(msg.sender, amount) */\n      0xffffffffffffffffffffffffffffffffffffffff\n      and\n      0xbc158bb64f05d6383aea69bbb0b20c1bbf4b7a18f63359c5649b7c39e29d3884\n        /* \"src/KipuBankV2.sol\":5201:5207  amount */\n      dup5\n        /* \"src/KipuBankV2.sol\":5174:5208  WithdrawalMade(msg.sender, amount) */\n      mload(0x40)\n      tag_292\n      swap2\n      swap1\n      tag_72\n      jump\t// in\n    tag_292:\n      mload(0x40)\n      dup1\n      swap2\n      sub\n      swap1\n      log2\n        /* \"src/KipuBankV2.sol\":4734:5216  {... */\n      pop\n        /* \"@openzeppelin/contracts/utils/ReentrancyGuard.sol\":3054:3055  _ */\n      pop\n        /* \"@openzeppelin/contracts/utils/ReentrancyGuard.sol\":3065:3085  _nonReentrantAfter() */\n      tag_293\n        /* \"@openzeppelin/contracts/utils/ReentrancyGuard.sol\":3065:3083  _nonReentrantAfter */\n      tag_268\n        /* \"@openzeppelin/contracts/utils/ReentrancyGuard.sol\":3065:3085  _nonReentrantAfter() */\n      jump\t// in\n    tag_293:\n        /* \"src/KipuBankV2.sol\":4658:5216  function withdraw(uint256 amount) public nonReentrant onlyRole(CLIENT_ROLE) {... */\n      pop\n      jump\t// out\n        /* \"@openzeppelin/contracts/access/AccessControl.sol\":4202:4338  function grantRole(bytes32 role, address account) public virtual onlyRole(getRoleAdmin(role)) {... */\n    tag_108:\n        /* \"@openzeppelin/contracts/access/AccessControl.sol\":4276:4294  getRoleAdmin(role) */\n      tag_294\n        /* \"@openzeppelin/contracts/access/AccessControl.sol\":4289:4293  role */\n      dup3\n        /* \"@openzeppelin/contracts/access/AccessControl.sol\":4276:4288  getRoleAdmin */\n      tag_87\n        /* \"@openzeppelin/contracts/access/AccessControl.sol\":4276:4294  getRoleAdmin(role) */\n      jump\t// in\n    tag_294:\n        /* \"@openzeppelin/contracts/access/AccessControl.sol\":2473:2489  _checkRole(role) */\n      tag_296\n        /* \"@openzeppelin/contracts/access/AccessControl.sol\":2484:2488  role */\n      dup2\n        /* \"@openzeppelin/contracts/access/AccessControl.sol\":2473:2483  _checkRole */\n      tag_211\n        /* \"@openzeppelin/contracts/access/AccessControl.sol\":2473:2489  _checkRole(role) */\n      jump\t// in\n    tag_296:\n        /* \"@openzeppelin/contracts/access/AccessControl.sol\":4306:4331  _grantRole(role, account) */\n      tag_298\n        /* \"@openzeppelin/contracts/access/AccessControl.sol\":4317:4321  role */\n      dup4\n        /* \"@openzeppelin/contracts/access/AccessControl.sol\":4323:4330  account */\n      dup4\n        /* \"@openzeppelin/contracts/access/AccessControl.sol\":4306:4316  _grantRole */\n      tag_237\n        /* \"@openzeppelin/contracts/access/AccessControl.sol\":4306:4331  _grantRole(role, account) */\n      jump\t// in\n    tag_298:\n      pop\n        /* \"@openzeppelin/contracts/access/AccessControl.sol\":4202:4338  function grantRole(bytes32 role, address account) public virtual onlyRole(getRoleAdmin(role)) {... */\n      pop\n      pop\n      pop\n      jump\t// out\n        /* \"@openzeppelin/contracts/access/AccessControl.sol\":5304:5549  function renounceRole(bytes32 role, address callerConfirmation) public virtual {... */\n    tag_112:\n        /* \"@openzeppelin/contracts/access/AccessControl.sol\":5419:5431  _msgSender() */\n      tag_300\n        /* \"@openzeppelin/contracts/access/AccessControl.sol\":5419:5429  _msgSender */\n      tag_301\n        /* \"@openzeppelin/contracts/access/AccessControl.sol\":5419:5431  _msgSender() */\n      jump\t// in\n    tag_300:\n        /* \"@openzeppelin/contracts/access/AccessControl.sol\":5397:5431  callerConfirmation != _msgSender() */\n      0xffffffffffffffffffffffffffffffffffffffff\n      and\n        /* \"@openzeppelin/contracts/access/AccessControl.sol\":5397:5415  callerConfirmation */\n      dup2\n        /* \"@openzeppelin/contracts/access/AccessControl.sol\":5397:5431  callerConfirmation != _msgSender() */\n      0xffffffffffffffffffffffffffffffffffffffff\n      and\n      eq\n        /* \"@openzeppelin/contracts/access/AccessControl.sol\":5393:5495  if (callerConfirmation != _msgSender()) {... */\n      tag_302\n      jumpi\n        /* \"@openzeppelin/contracts/access/AccessControl.sol\":5454:5484  AccessControlBadConfirmation() */\n      mload(0x40)\n      0x6697b23200000000000000000000000000000000000000000000000000000000\n      dup2\n      mstore\n      0x04\n      add\n      mload(0x40)\n      dup1\n      swap2\n      sub\n      swap1\n      revert\n        /* \"@openzeppelin/contracts/access/AccessControl.sol\":5393:5495  if (callerConfirmation != _msgSender()) {... */\n    tag_302:\n        /* \"@openzeppelin/contracts/access/AccessControl.sol\":5505:5542  _revokeRole(role, callerConfirmation) */\n      tag_303\n        /* \"@openzeppelin/contracts/access/AccessControl.sol\":5517:5521  role */\n      dup3\n        /* \"@openzeppelin/contracts/access/AccessControl.sol\":5523:5541  callerConfirmation */\n      dup3\n        /* \"@openzeppelin/contracts/access/AccessControl.sol\":5505:5516  _revokeRole */\n      tag_304\n        /* \"@openzeppelin/contracts/access/AccessControl.sol\":5505:5542  _revokeRole(role, callerConfirmation) */\n      jump\t// in\n    tag_303:\n      pop\n        /* \"@openzeppelin/contracts/access/AccessControl.sol\":5304:5549  function renounceRole(bytes32 role, address callerConfirmation) public virtual {... */\n      pop\n      pop\n      jump\t// out\n        /* \"src/KipuBankV2.sol\":6399:6549  function getTokenBalance(address token) public view onlyRole(CLIENT_ROLE) returns (uint256) {... */\n    tag_116:\n        /* \"src/KipuBankV2.sol\":6482:6489  uint256 */\n      0x00\n        /* \"src/KipuBankV2.sol\":901:925  keccak256(\"CLIENT_ROLE\") */\n      0xa5ff3ec7a96cdbba4d2d5172d66bbc73c6db3885f29b21be5da9fa7a7c025232\n        /* \"@openzeppelin/contracts/access/AccessControl.sol\":2473:2489  _checkRole(role) */\n      tag_306\n        /* \"@openzeppelin/contracts/access/AccessControl.sol\":2484:2488  role */\n      dup2\n        /* \"@openzeppelin/contracts/access/AccessControl.sol\":2473:2483  _checkRole */\n      tag_211\n        /* \"@openzeppelin/contracts/access/AccessControl.sol\":2473:2489  _checkRole(role) */\n      jump\t// in\n    tag_306:\n        /* \"src/KipuBankV2.sol\":6509:6522  tokenBalances */\n      0x06\n        /* \"src/KipuBankV2.sol\":6509:6534  tokenBalances[msg.sender] */\n      0x00\n        /* \"src/KipuBankV2.sol\":6523:6533  msg.sender */\n      caller\n        /* \"src/KipuBankV2.sol\":6509:6534  tokenBalances[msg.sender] */\n      0xffffffffffffffffffffffffffffffffffffffff\n      and\n      0xffffffffffffffffffffffffffffffffffffffff\n      and\n      dup2\n      mstore\n      0x20\n      add\n      swap1\n      dup2\n      mstore\n      0x20\n      add\n      0x00\n      keccak256\n        /* \"src/KipuBankV2.sol\":6509:6541  tokenBalances[msg.sender][token] */\n      0x00\n        /* \"src/KipuBankV2.sol\":6535:6540  token */\n      dup5\n        /* \"src/KipuBankV2.sol\":6509:6541  tokenBalances[msg.sender][token] */\n      0xffffffffffffffffffffffffffffffffffffffff\n      and\n      0xffffffffffffffffffffffffffffffffffffffff\n      and\n      dup2\n      mstore\n      0x20\n      add\n      swap1\n      dup2\n      mstore\n      0x20\n      add\n      0x00\n      keccak256\n      sload\n        /* \"src/KipuBankV2.sol\":6502:6541  return tokenBalances[msg.sender][token] */\n      swap2\n      pop\n        /* \"src/KipuBankV2.sol\":6399:6549  function getTokenBalance(address token) public view onlyRole(CLIENT_ROLE) returns (uint256) {... */\n      pop\n      swap2\n      swap1\n      pop\n      jump\t// out\n        /* \"src/KipuBankV2.sol\":1272:1306  bool public depositsPaused = false */\n    tag_120:\n      0x04\n      0x00\n      swap1\n      sload\n      swap1\n      0x0100\n      exp\n      swap1\n      div\n      0xff\n      and\n      dup2\n      jump\t// out\n        /* \"src/KipuBankV2.sol\":8824:8922  function unpauseDeposits() public onlyRole(MANAGER_ROLE) {... */\n    tag_124:\n        /* \"src/KipuBankV2.sol\":830:855  keccak256(\"MANAGER_ROLE\") */\n      0x241ecf16d79d0f8dbfb92cbc07fe17840425976cf0667f022fe9877caa831b08\n        /* \"@openzeppelin/contracts/access/AccessControl.sol\":2473:2489  _checkRole(role) */\n      tag_309\n        /* \"@openzeppelin/contracts/access/AccessControl.sol\":2484:2488  role */\n      dup2\n        /* \"@openzeppelin/contracts/access/AccessControl.sol\":2473:2483  _checkRole */\n      tag_211\n        /* \"@openzeppelin/contracts/access/AccessControl.sol\":2473:2489  _checkRole(role) */\n      jump\t// in\n    tag_309:\n        /* \"src/KipuBankV2.sol\":8909:8914  false */\n      0x00\n        /* \"src/KipuBankV2.sol\":8892:8906  depositsPaused */\n      0x04\n      0x00\n        /* \"src/KipuBankV2.sol\":8892:8914  depositsPaused = false */\n      0x0100\n      exp\n      dup2\n      sload\n      dup2\n      0xff\n      mul\n      not\n      and\n      swap1\n      dup4\n      iszero\n      iszero\n      mul\n      or\n      swap1\n      sstore\n      pop\n        /* \"src/KipuBankV2.sol\":8824:8922  function unpauseDeposits() public onlyRole(MANAGER_ROLE) {... */\n      pop\n      jump\t// out\n        /* \"src/KipuBankV2.sol\":1004:1042  AggregatorV3Interface public priceFeed */\n    tag_127:\n      0x01\n      0x00\n      swap1\n      sload\n      swap1\n      0x0100\n      exp\n      swap1\n      div\n      0xffffffffffffffffffffffffffffffffffffffff\n      and\n      dup2\n      jump\t// out\n        /* \"src/KipuBankV2.sol\":722:784  bytes32 public constant ADMIN_ROLE   = keccak256(\"ADMIN_ROLE\") */\n    tag_132:\n        /* \"src/KipuBankV2.sol\":761:784  keccak256(\"ADMIN_ROLE\") */\n      0xa49807205ce4d355092ef5a8a18f56e8913cf4a201fbe287825b095693c21775\n        /* \"src/KipuBankV2.sol\":722:784  bytes32 public constant ADMIN_ROLE   = keccak256(\"ADMIN_ROLE\") */\n      dup2\n      jump\t// out\n        /* \"src/KipuBankV2.sol\":3161:3310  function getLatestETHPrice() public view returns (int256) {... */\n    tag_136:\n        /* \"src/KipuBankV2.sol\":3211:3217  int256 */\n      0x00\n        /* \"src/KipuBankV2.sol\":3233:3245  int256 price */\n      0x00\n        /* \"src/KipuBankV2.sol\":3252:3261  priceFeed */\n      0x01\n      0x00\n      swap1\n      sload\n      swap1\n      0x0100\n      exp\n      swap1\n      div\n      0xffffffffffffffffffffffffffffffffffffffff\n      and\n        /* \"src/KipuBankV2.sol\":3252:3277  priceFeed.latestRoundData */\n      0xffffffffffffffffffffffffffffffffffffffff\n      and\n      0xfeaf968c\n        /* \"src/KipuBankV2.sol\":3252:3279  priceFeed.latestRoundData() */\n      mload(0x40)\n      dup2\n      0xffffffff\n      and\n      0xe0\n      shl\n      dup2\n      mstore\n      0x04\n      add\n      0xa0\n      mload(0x40)\n      dup1\n      dup4\n      sub\n      dup2\n      dup7\n      gas\n      staticcall\n      iszero\n      dup1\n      iszero\n      tag_313\n      jumpi\n      returndatacopy(0x00, 0x00, returndatasize)\n      revert(0x00, returndatasize)\n    tag_313:\n      pop\n      pop\n      pop\n      pop\n      mload(0x40)\n      returndatasize\n      not(0x1f)\n      0x1f\n      dup3\n      add\n      and\n      dup3\n      add\n      dup1\n      0x40\n      mstore\n      pop\n      dup2\n      add\n      swap1\n      tag_314\n      swap2\n      swap1\n      tag_315\n      jump\t// in\n    tag_314:\n        /* \"src/KipuBankV2.sol\":3230:3279  (, int256 price,,,) = priceFeed.latestRoundData() */\n      pop\n      pop\n      pop\n      swap2\n      pop\n      pop\n        /* \"src/KipuBankV2.sol\":3297:3302  price */\n      dup1\n        /* \"src/KipuBankV2.sol\":3290:3302  return price */\n      swap2\n      pop\n      pop\n        /* \"src/KipuBankV2.sol\":3161:3310  function getLatestETHPrice() public view returns (int256) {... */\n      swap1\n      jump\t// out\n        /* \"@openzeppelin/contracts/access/AccessControl.sol\":2830:2966  function hasRole(bytes32 role, address account) public view virtual returns (bool) {... */\n    tag_142:\n        /* \"@openzeppelin/contracts/access/AccessControl.sol\":2907:2911  bool */\n      0x00\n        /* \"@openzeppelin/contracts/access/AccessControl.sol\":2930:2936  _roles */\n      0x00\n        /* \"@openzeppelin/contracts/access/AccessControl.sol\":2930:2942  _roles[role] */\n      0x00\n        /* \"@openzeppelin/contracts/access/AccessControl.sol\":2937:2941  role */\n      dup5\n        /* \"@openzeppelin/contracts/access/AccessControl.sol\":2930:2942  _roles[role] */\n      dup2\n      mstore\n      0x20\n      add\n      swap1\n      dup2\n      mstore\n      0x20\n      add\n      0x00\n      keccak256\n        /* \"@openzeppelin/contracts/access/AccessControl.sol\":2930:2950  _roles[role].hasRole */\n      0x00\n      add\n        /* \"@openzeppelin/contracts/access/AccessControl.sol\":2930:2959  _roles[role].hasRole[account] */\n      0x00\n        /* \"@openzeppelin/contracts/access/AccessControl.sol\":2951:2958  account */\n      dup4\n        /* \"@openzeppelin/contracts/access/AccessControl.sol\":2930:2959  _roles[role].hasRole[account] */\n      0xffffffffffffffffffffffffffffffffffffffff\n      and\n      0xffffffffffffffffffffffffffffffffffffffff\n      and\n      dup2\n      mstore\n      0x20\n      add\n      swap1\n      dup2\n      mstore\n      0x20\n      add\n      0x00\n      keccak256\n      0x00\n      swap1\n      sload\n      swap1\n      0x0100\n      exp\n      swap1\n      div\n      0xff\n      and\n        /* \"@openzeppelin/contracts/access/AccessControl.sol\":2923:2959  return _roles[role].hasRole[account] */\n      swap1\n      pop\n        /* \"@openzeppelin/contracts/access/AccessControl.sol\":2830:2966  function hasRole(bytes32 role, address account) public view virtual returns (bool) {... */\n      swap3\n      swap2\n      pop\n      pop\n      jump\t// out\n        /* \"src/KipuBankV2.sol\":3372:3631  function convertETHtoUSD(uint256 weiAmount) public view returns (uint256) {... */\n    tag_147:\n        /* \"src/KipuBankV2.sol\":3437:3444  uint256 */\n      0x00\n        /* \"src/KipuBankV2.sol\":3457:3469  int256 price */\n      0x00\n        /* \"src/KipuBankV2.sol\":3472:3491  getLatestETHPrice() */\n      tag_318\n        /* \"src/KipuBankV2.sol\":3472:3489  getLatestETHPrice */\n      tag_136\n        /* \"src/KipuBankV2.sol\":3472:3491  getLatestETHPrice() */\n      jump\t// in\n    tag_318:\n        /* \"src/KipuBankV2.sol\":3457:3491  int256 price = getLatestETHPrice() */\n      swap1\n      pop\n        /* \"src/KipuBankV2.sol\":3518:3519  0 */\n      0x00\n        /* \"src/KipuBankV2.sol\":3510:3515  price */\n      dup2\n        /* \"src/KipuBankV2.sol\":3510:3519  price > 0 */\n      sgt\n        /* \"src/KipuBankV2.sol\":3502:3537  require(price > 0, \"Invalid price\") */\n      tag_319\n      jumpi\n      mload(0x40)\n      0x08c379a000000000000000000000000000000000000000000000000000000000\n      dup2\n      mstore\n      0x04\n      add\n      tag_320\n      swap1\n      tag_321\n      jump\t// in\n    tag_320:\n      mload(0x40)\n      dup1\n      swap2\n      sub\n      swap1\n      revert\n    tag_319:\n        /* \"src/KipuBankV2.sol\":3619:3623  1e18 */\n      0x0de0b6b3a7640000\n        /* \"src/KipuBankV2.sol\":3609:3614  price */\n      dup2\n        /* \"src/KipuBankV2.sol\":3589:3598  weiAmount */\n      dup5\n        /* \"src/KipuBankV2.sol\":3589:3615  weiAmount * uint256(price) */\n      tag_322\n      swap2\n      swap1\n      tag_323\n      jump\t// in\n    tag_322:\n        /* \"src/KipuBankV2.sol\":3588:3623  (weiAmount * uint256(price)) / 1e18 */\n      tag_324\n      swap2\n      swap1\n      tag_325\n      jump\t// in\n    tag_324:\n        /* \"src/KipuBankV2.sol\":3581:3623  return (weiAmount * uint256(price)) / 1e18 */\n      swap2\n      pop\n      pop\n        /* \"src/KipuBankV2.sol\":3372:3631  function convertETHtoUSD(uint256 weiAmount) public view returns (uint256) {... */\n      swap2\n      swap1\n      pop\n      jump\t// out\n        /* \"src/KipuBankV2.sol\":5258:5835  function depositERC20(address token, uint256 amount) public onlyRole(CLIENT_ROLE) {... */\n    tag_152:\n        /* \"src/KipuBankV2.sol\":901:925  keccak256(\"CLIENT_ROLE\") */\n      0xa5ff3ec7a96cdbba4d2d5172d66bbc73c6db3885f29b21be5da9fa7a7c025232\n        /* \"@openzeppelin/contracts/access/AccessControl.sol\":2473:2489  _checkRole(role) */\n      tag_327\n        /* \"@openzeppelin/contracts/access/AccessControl.sol\":2484:2488  role */\n      dup2\n        /* \"@openzeppelin/contracts/access/AccessControl.sol\":2473:2483  _checkRole */\n      tag_211\n        /* \"@openzeppelin/contracts/access/AccessControl.sol\":2473:2489  _checkRole(role) */\n      jump\t// in\n    tag_327:\n        /* \"src/KipuBankV2.sol\":5359:5367  accounts */\n      0x05\n        /* \"src/KipuBankV2.sol\":5359:5379  accounts[msg.sender] */\n      0x00\n        /* \"src/KipuBankV2.sol\":5368:5378  msg.sender */\n      caller\n        /* \"src/KipuBankV2.sol\":5359:5379  accounts[msg.sender] */\n      0xffffffffffffffffffffffffffffffffffffffff\n      and\n      0xffffffffffffffffffffffffffffffffffffffff\n      and\n      dup2\n      mstore\n      0x20\n      add\n      swap1\n      dup2\n      mstore\n      0x20\n      add\n      0x00\n      keccak256\n        /* \"src/KipuBankV2.sol\":5359:5386  accounts[msg.sender].exists */\n      0x01\n      add\n      0x00\n      swap1\n      sload\n      swap1\n      0x0100\n      exp\n      swap1\n      div\n      0xff\n      and\n        /* \"src/KipuBankV2.sol\":5351:5413  require(accounts[msg.sender].exists, \"Account does not exist\") */\n      tag_329\n      jumpi\n      mload(0x40)\n      0x08c379a000000000000000000000000000000000000000000000000000000000\n      dup2\n      mstore\n      0x04\n      add\n      tag_330\n      swap1\n      tag_276\n      jump\t// in\n    tag_330:\n      mload(0x40)\n      dup1\n      swap2\n      sub\n      swap1\n      revert\n    tag_329:\n        /* \"src/KipuBankV2.sol\":5433:5447  depositsPaused */\n      0x04\n      0x00\n      swap1\n      sload\n      swap1\n      0x0100\n      exp\n      swap1\n      div\n      0xff\n      and\n        /* \"src/KipuBankV2.sol\":5432:5447  !depositsPaused */\n      iszero\n        /* \"src/KipuBankV2.sol\":5424:5471  require(!depositsPaused, \"Deposits are paused\") */\n      tag_331\n      jumpi\n      mload(0x40)\n      0x08c379a000000000000000000000000000000000000000000000000000000000\n      dup2\n      mstore\n      0x04\n      add\n      tag_332\n      swap1\n      tag_333\n      jump\t// in\n    tag_332:\n      mload(0x40)\n      dup1\n      swap2\n      sub\n      swap1\n      revert\n    tag_331:\n        /* \"src/KipuBankV2.sol\":5490:5503  allowedTokens */\n      0x07\n        /* \"src/KipuBankV2.sol\":5490:5510  allowedTokens[token] */\n      0x00\n        /* \"src/KipuBankV2.sol\":5504:5509  token */\n      dup5\n        /* \"src/KipuBankV2.sol\":5490:5510  allowedTokens[token] */\n      0xffffffffffffffffffffffffffffffffffffffff\n      and\n      0xffffffffffffffffffffffffffffffffffffffff\n      and\n      dup2\n      mstore\n      0x20\n      add\n      swap1\n      dup2\n      mstore\n      0x20\n      add\n      0x00\n      keccak256\n      0x00\n      swap1\n      sload\n      swap1\n      0x0100\n      exp\n      swap1\n      div\n      0xff\n      and\n        /* \"src/KipuBankV2.sol\":5482:5532  require(allowedTokens[token], \"Token not allowed\") */\n      tag_334\n      jumpi\n      mload(0x40)\n      0x08c379a000000000000000000000000000000000000000000000000000000000\n      dup2\n      mstore\n      0x04\n      add\n      tag_335\n      swap1\n      tag_336\n      jump\t// in\n    tag_335:\n      mload(0x40)\n      dup1\n      swap2\n      sub\n      swap1\n      revert\n    tag_334:\n        /* \"src/KipuBankV2.sol\":5560:5561  0 */\n      0x00\n        /* \"src/KipuBankV2.sol\":5551:5557  amount */\n      dup3\n        /* \"src/KipuBankV2.sol\":5551:5561  amount > 0 */\n      gt\n        /* \"src/KipuBankV2.sol\":5543:5584  require(amount > 0, \"Amount must be > 0\") */\n      tag_337\n      jumpi\n      mload(0x40)\n      0x08c379a000000000000000000000000000000000000000000000000000000000\n      dup2\n      mstore\n      0x04\n      add\n      tag_338\n      swap1\n      tag_258\n      jump\t// in\n    tag_338:\n      mload(0x40)\n      dup1\n      swap2\n      sub\n      swap1\n      revert\n    tag_337:\n        /* \"src/KipuBankV2.sol\":5597:5604  bool ok */\n      0x00\n        /* \"src/KipuBankV2.sol\":5614:5619  token */\n      dup4\n        /* \"src/KipuBankV2.sol\":5607:5633  IERC20(token).transferFrom */\n      0xffffffffffffffffffffffffffffffffffffffff\n      and\n      0x23b872dd\n        /* \"src/KipuBankV2.sol\":5634:5644  msg.sender */\n      caller\n        /* \"src/KipuBankV2.sol\":5654:5658  this */\n      address\n        /* \"src/KipuBankV2.sol\":5661:5667  amount */\n      dup7\n        /* \"src/KipuBankV2.sol\":5607:5668  IERC20(token).transferFrom(msg.sender, address(this), amount) */\n      mload(0x40)\n      dup5\n      0xffffffff\n      and\n      0xe0\n      shl\n      dup2\n      mstore\n      0x04\n      add\n      tag_339\n      swap4\n      swap3\n      swap2\n      swap1\n      tag_340\n      jump\t// in\n    tag_339:\n      0x20\n      mload(0x40)\n      dup1\n      dup4\n      sub\n      dup2\n      0x00\n      dup8\n      gas\n      call\n      iszero\n      dup1\n      iszero\n      tag_342\n      jumpi\n      returndatacopy(0x00, 0x00, returndatasize)\n      revert(0x00, returndatasize)\n    tag_342:\n      pop\n      pop\n      pop\n      pop\n      mload(0x40)\n      returndatasize\n      not(0x1f)\n      0x1f\n      dup3\n      add\n      and\n      dup3\n      add\n      dup1\n      0x40\n      mstore\n      pop\n      dup2\n      add\n      swap1\n      tag_343\n      swap2\n      swap1\n      tag_344\n      jump\t// in\n    tag_343:\n        /* \"src/KipuBankV2.sol\":5597:5668  bool ok = IERC20(token).transferFrom(msg.sender, address(this), amount) */\n      swap1\n      pop\n        /* \"src/KipuBankV2.sol\":5687:5689  ok */\n      dup1\n        /* \"src/KipuBankV2.sol\":5679:5715  require(ok, \"Token transfer failed\") */\n      tag_345\n      jumpi\n      mload(0x40)\n      0x08c379a000000000000000000000000000000000000000000000000000000000\n      dup2\n      mstore\n      0x04\n      add\n      tag_346\n      swap1\n      tag_347\n      jump\t// in\n    tag_346:\n      mload(0x40)\n      dup1\n      swap2\n      sub\n      swap1\n      revert\n    tag_345:\n        /* \"src/KipuBankV2.sol\":5764:5770  amount */\n      dup3\n        /* \"src/KipuBankV2.sol\":5728:5741  tokenBalances */\n      0x06\n        /* \"src/KipuBankV2.sol\":5728:5753  tokenBalances[msg.sender] */\n      0x00\n        /* \"src/KipuBankV2.sol\":5742:5752  msg.sender */\n      caller\n        /* \"src/KipuBankV2.sol\":5728:5753  tokenBalances[msg.sender] */\n      0xffffffffffffffffffffffffffffffffffffffff\n      and\n      0xffffffffffffffffffffffffffffffffffffffff\n      and\n      dup2\n      mstore\n      0x20\n      add\n      swap1\n      dup2\n      mstore\n      0x20\n      add\n      0x00\n      keccak256\n        /* \"src/KipuBankV2.sol\":5728:5760  tokenBalances[msg.sender][token] */\n      0x00\n        /* \"src/KipuBankV2.sol\":5754:5759  token */\n      dup7\n        /* \"src/KipuBankV2.sol\":5728:5760  tokenBalances[msg.sender][token] */\n      0xffffffffffffffffffffffffffffffffffffffff\n      and\n      0xffffffffffffffffffffffffffffffffffffffff\n      and\n      dup2\n      mstore\n      0x20\n      add\n      swap1\n      dup2\n      mstore\n      0x20\n      add\n      0x00\n      keccak256\n      0x00\n        /* \"src/KipuBankV2.sol\":5728:5770  tokenBalances[msg.sender][token] += amount */\n      dup3\n      dup3\n      sload\n      tag_348\n      swap2\n      swap1\n      tag_265\n      jump\t// in\n    tag_348:\n      swap3\n      pop\n      pop\n      dup2\n      swap1\n      sstore\n      pop\n        /* \"src/KipuBankV2.sol\":5813:5818  token */\n      dup4\n        /* \"src/KipuBankV2.sol\":5788:5827  TokenDeposit(msg.sender, token, amount) */\n      0xffffffffffffffffffffffffffffffffffffffff\n      and\n        /* \"src/KipuBankV2.sol\":5801:5811  msg.sender */\n      caller\n        /* \"src/KipuBankV2.sol\":5788:5827  TokenDeposit(msg.sender, token, amount) */\n      0xffffffffffffffffffffffffffffffffffffffff\n      and\n      0x98c09d9949722bae4bd0d988d4050091c3ae7ec6d51d3c6bbfe4233593944e9e\n        /* \"src/KipuBankV2.sol\":5820:5826  amount */\n      dup6\n        /* \"src/KipuBankV2.sol\":5788:5827  TokenDeposit(msg.sender, token, amount) */\n      mload(0x40)\n      tag_349\n      swap2\n      swap1\n      tag_72\n      jump\t// in\n    tag_349:\n      mload(0x40)\n      dup1\n      swap2\n      sub\n      swap1\n      log3\n        /* \"src/KipuBankV2.sol\":5340:5835  {... */\n      pop\n        /* \"src/KipuBankV2.sol\":5258:5835  function depositERC20(address token, uint256 amount) public onlyRole(CLIENT_ROLE) {... */\n      pop\n      pop\n      pop\n      jump\t// out\n        /* \"src/KipuBankV2.sol\":3667:4013  function createAccount(address user) public onlyRole(ADMIN_ROLE) {... */\n    tag_156:\n        /* \"src/KipuBankV2.sol\":761:784  keccak256(\"ADMIN_ROLE\") */\n      0xa49807205ce4d355092ef5a8a18f56e8913cf4a201fbe287825b095693c21775\n        /* \"@openzeppelin/contracts/access/AccessControl.sol\":2473:2489  _checkRole(role) */\n      tag_351\n        /* \"@openzeppelin/contracts/access/AccessControl.sol\":2484:2488  role */\n      dup2\n        /* \"@openzeppelin/contracts/access/AccessControl.sol\":2473:2483  _checkRole */\n      tag_211\n        /* \"@openzeppelin/contracts/access/AccessControl.sol\":2473:2489  _checkRole(role) */\n      jump\t// in\n    tag_351:\n        /* \"src/KipuBankV2.sol\":3767:3768  0 */\n      0x00\n        /* \"src/KipuBankV2.sol\":3751:3769  user != address(0) */\n      0xffffffffffffffffffffffffffffffffffffffff\n      and\n        /* \"src/KipuBankV2.sol\":3751:3755  user */\n      dup3\n        /* \"src/KipuBankV2.sol\":3751:3769  user != address(0) */\n      0xffffffffffffffffffffffffffffffffffffffff\n      and\n      sub\n        /* \"src/KipuBankV2.sol\":3743:3794  require(user != address(0), \"Invalid user address\") */\n      tag_353\n      jumpi\n      mload(0x40)\n      0x08c379a000000000000000000000000000000000000000000000000000000000\n      dup2\n      mstore\n      0x04\n      add\n      tag_354\n      swap1\n      tag_355\n      jump\t// in\n    tag_354:\n      mload(0x40)\n      dup1\n      swap2\n      sub\n      swap1\n      revert\n    tag_353:\n        /* \"src/KipuBankV2.sol\":3814:3822  accounts */\n      0x05\n        /* \"src/KipuBankV2.sol\":3814:3828  accounts[user] */\n      0x00\n        /* \"src/KipuBankV2.sol\":3823:3827  user */\n      dup4\n        /* \"src/KipuBankV2.sol\":3814:3828  accounts[user] */\n      0xffffffffffffffffffffffffffffffffffffffff\n      and\n      0xffffffffffffffffffffffffffffffffffffffff\n      and\n      dup2\n      mstore\n      0x20\n      add\n      swap1\n      dup2\n      mstore\n      0x20\n      add\n      0x00\n      keccak256\n        /* \"src/KipuBankV2.sol\":3814:3835  accounts[user].exists */\n      0x01\n      add\n      0x00\n      swap1\n      sload\n      swap1\n      0x0100\n      exp\n      swap1\n      div\n      0xff\n      and\n        /* \"src/KipuBankV2.sol\":3813:3835  !accounts[user].exists */\n      iszero\n        /* \"src/KipuBankV2.sol\":3805:3862  require(!accounts[user].exists, \"Account already exists\") */\n      tag_356\n      jumpi\n      mload(0x40)\n      0x08c379a000000000000000000000000000000000000000000000000000000000\n      dup2\n      mstore\n      0x04\n      add\n      tag_357\n      swap1\n      tag_358\n      jump\t// in\n    tag_357:\n      mload(0x40)\n      dup1\n      swap2\n      sub\n      swap1\n      revert\n    tag_356:\n        /* \"src/KipuBankV2.sol\":3892:3927  Account({balance: 0, exists: true}) */\n      mload(0x40)\n      dup1\n      0x40\n      add\n      0x40\n      mstore\n      dup1\n        /* \"src/KipuBankV2.sol\":3910:3911  0 */\n      0x00\n        /* \"src/KipuBankV2.sol\":3892:3927  Account({balance: 0, exists: true}) */\n      dup2\n      mstore\n      0x20\n      add\n        /* \"src/KipuBankV2.sol\":3921:3925  true */\n      0x01\n        /* \"src/KipuBankV2.sol\":3892:3927  Account({balance: 0, exists: true}) */\n      iszero\n      iszero\n      dup2\n      mstore\n      pop\n        /* \"src/KipuBankV2.sol\":3875:3883  accounts */\n      0x05\n        /* \"src/KipuBankV2.sol\":3875:3889  accounts[user] */\n      0x00\n        /* \"src/KipuBankV2.sol\":3884:3888  user */\n      dup5\n        /* \"src/KipuBankV2.sol\":3875:3889  accounts[user] */\n      0xffffffffffffffffffffffffffffffffffffffff\n      and\n      0xffffffffffffffffffffffffffffffffffffffff\n      and\n      dup2\n      mstore\n      0x20\n      add\n      swap1\n      dup2\n      mstore\n      0x20\n      add\n      0x00\n      keccak256\n        /* \"src/KipuBankV2.sol\":3875:3927  accounts[user] = Account({balance: 0, exists: true}) */\n      0x00\n      dup3\n      add\n      mload\n      dup2\n      0x00\n      add\n      sstore\n      0x20\n      dup3\n      add\n      mload\n      dup2\n      0x01\n      add\n      exp(0x0100, 0x00)\n      dup2\n      sload\n      dup2\n      0xff\n      mul\n      not\n      and\n      swap1\n      dup4\n      iszero\n      iszero\n      mul\n      or\n      swap1\n      sstore\n      pop\n      swap1\n      pop\n      pop\n        /* \"src/KipuBankV2.sol\":3938:3967  _grantRole(CLIENT_ROLE, user) */\n      tag_359\n        /* \"src/KipuBankV2.sol\":901:925  keccak256(\"CLIENT_ROLE\") */\n      0xa5ff3ec7a96cdbba4d2d5172d66bbc73c6db3885f29b21be5da9fa7a7c025232\n        /* \"src/KipuBankV2.sol\":3962:3966  user */\n      dup4\n        /* \"src/KipuBankV2.sol\":3938:3948  _grantRole */\n      tag_237\n        /* \"src/KipuBankV2.sol\":3938:3967  _grantRole(CLIENT_ROLE, user) */\n      jump\t// in\n    tag_359:\n      pop\n        /* \"src/KipuBankV2.sol\":4000:4004  user */\n      dup2\n        /* \"src/KipuBankV2.sol\":3985:4005  AccountCreated(user) */\n      0xffffffffffffffffffffffffffffffffffffffff\n      and\n      0x805996f252884581e2f74cf3d2b03564d5ec26ccc90850ae12653dc1b72d1fa2\n      mload(0x40)\n      mload(0x40)\n      dup1\n      swap2\n      sub\n      swap1\n      log2\n        /* \"src/KipuBankV2.sol\":3667:4013  function createAccount(address user) public onlyRole(ADMIN_ROLE) {... */\n      pop\n      pop\n      jump\t// out\n        /* \"src/KipuBankV2.sol\":5843:6391  function withdrawERC20(address token, uint256 amount) public nonReentrant onlyRole(CLIENT_ROLE) {... */\n    tag_160:\n        /* \"@openzeppelin/contracts/utils/ReentrancyGuard.sol\":3023:3044  _nonReentrantBefore() */\n      tag_361\n        /* \"@openzeppelin/contracts/utils/ReentrancyGuard.sol\":3023:3042  _nonReentrantBefore */\n      tag_240\n        /* \"@openzeppelin/contracts/utils/ReentrancyGuard.sol\":3023:3044  _nonReentrantBefore() */\n      jump\t// in\n    tag_361:\n        /* \"src/KipuBankV2.sol\":901:925  keccak256(\"CLIENT_ROLE\") */\n      0xa5ff3ec7a96cdbba4d2d5172d66bbc73c6db3885f29b21be5da9fa7a7c025232\n        /* \"@openzeppelin/contracts/access/AccessControl.sol\":2473:2489  _checkRole(role) */\n      tag_363\n        /* \"@openzeppelin/contracts/access/AccessControl.sol\":2484:2488  role */\n      dup2\n        /* \"@openzeppelin/contracts/access/AccessControl.sol\":2473:2483  _checkRole */\n      tag_211\n        /* \"@openzeppelin/contracts/access/AccessControl.sol\":2473:2489  _checkRole(role) */\n      jump\t// in\n    tag_363:\n        /* \"src/KipuBankV2.sol\":5958:5966  accounts */\n      0x05\n        /* \"src/KipuBankV2.sol\":5958:5978  accounts[msg.sender] */\n      0x00\n        /* \"src/KipuBankV2.sol\":5967:5977  msg.sender */\n      caller\n        /* \"src/KipuBankV2.sol\":5958:5978  accounts[msg.sender] */\n      0xffffffffffffffffffffffffffffffffffffffff\n      and\n      0xffffffffffffffffffffffffffffffffffffffff\n      and\n      dup2\n      mstore\n      0x20\n      add\n      swap1\n      dup2\n      mstore\n      0x20\n      add\n      0x00\n      keccak256\n        /* \"src/KipuBankV2.sol\":5958:5985  accounts[msg.sender].exists */\n      0x01\n      add\n      0x00\n      swap1\n      sload\n      swap1\n      0x0100\n      exp\n      swap1\n      div\n      0xff\n      and\n        /* \"src/KipuBankV2.sol\":5950:6012  require(accounts[msg.sender].exists, \"Account does not exist\") */\n      tag_365\n      jumpi\n      mload(0x40)\n      0x08c379a000000000000000000000000000000000000000000000000000000000\n      dup2\n      mstore\n      0x04\n      add\n      tag_366\n      swap1\n      tag_276\n      jump\t// in\n    tag_366:\n      mload(0x40)\n      dup1\n      swap2\n      sub\n      swap1\n      revert\n    tag_365:\n        /* \"src/KipuBankV2.sol\":6040:6041  0 */\n      0x00\n        /* \"src/KipuBankV2.sol\":6031:6037  amount */\n      dup3\n        /* \"src/KipuBankV2.sol\":6031:6041  amount > 0 */\n      gt\n        /* \"src/KipuBankV2.sol\":6023:6064  require(amount > 0, \"Amount must be > 0\") */\n      tag_367\n      jumpi\n      mload(0x40)\n      0x08c379a000000000000000000000000000000000000000000000000000000000\n      dup2\n      mstore\n      0x04\n      add\n      tag_368\n      swap1\n      tag_258\n      jump\t// in\n    tag_368:\n      mload(0x40)\n      dup1\n      swap2\n      sub\n      swap1\n      revert\n    tag_367:\n        /* \"src/KipuBankV2.sol\":6119:6125  amount */\n      dup2\n        /* \"src/KipuBankV2.sol\":6083:6096  tokenBalances */\n      0x06\n        /* \"src/KipuBankV2.sol\":6083:6108  tokenBalances[msg.sender] */\n      0x00\n        /* \"src/KipuBankV2.sol\":6097:6107  msg.sender */\n      caller\n        /* \"src/KipuBankV2.sol\":6083:6108  tokenBalances[msg.sender] */\n      0xffffffffffffffffffffffffffffffffffffffff\n      and\n      0xffffffffffffffffffffffffffffffffffffffff\n      and\n      dup2\n      mstore\n      0x20\n      add\n      swap1\n      dup2\n      mstore\n      0x20\n      add\n      0x00\n      keccak256\n        /* \"src/KipuBankV2.sol\":6083:6115  tokenBalances[msg.sender][token] */\n      0x00\n        /* \"src/KipuBankV2.sol\":6109:6114  token */\n      dup6\n        /* \"src/KipuBankV2.sol\":6083:6115  tokenBalances[msg.sender][token] */\n      0xffffffffffffffffffffffffffffffffffffffff\n      and\n      0xffffffffffffffffffffffffffffffffffffffff\n      and\n      dup2\n      mstore\n      0x20\n      add\n      swap1\n      dup2\n      mstore\n      0x20\n      add\n      0x00\n      keccak256\n      sload\n        /* \"src/KipuBankV2.sol\":6083:6125  tokenBalances[msg.sender][token] >= amount */\n      lt\n      iszero\n        /* \"src/KipuBankV2.sol\":6075:6156  require(tokenBalances[msg.sender][token] >= amount, \"Insufficient token balance\") */\n      tag_369\n      jumpi\n      mload(0x40)\n      0x08c379a000000000000000000000000000000000000000000000000000000000\n      dup2\n      mstore\n      0x04\n      add\n      tag_370\n      swap1\n      tag_371\n      jump\t// in\n    tag_370:\n      mload(0x40)\n      dup1\n      swap2\n      sub\n      swap1\n      revert\n    tag_369:\n        /* \"src/KipuBankV2.sol\":6205:6211  amount */\n      dup2\n        /* \"src/KipuBankV2.sol\":6169:6182  tokenBalances */\n      0x06\n        /* \"src/KipuBankV2.sol\":6169:6194  tokenBalances[msg.sender] */\n      0x00\n        /* \"src/KipuBankV2.sol\":6183:6193  msg.sender */\n      caller\n        /* \"src/KipuBankV2.sol\":6169:6194  tokenBalances[msg.sender] */\n      0xffffffffffffffffffffffffffffffffffffffff\n      and\n      0xffffffffffffffffffffffffffffffffffffffff\n      and\n      dup2\n      mstore\n      0x20\n      add\n      swap1\n      dup2\n      mstore\n      0x20\n      add\n      0x00\n      keccak256\n        /* \"src/KipuBankV2.sol\":6169:6201  tokenBalances[msg.sender][token] */\n      0x00\n        /* \"src/KipuBankV2.sol\":6195:6200  token */\n      dup6\n        /* \"src/KipuBankV2.sol\":6169:6201  tokenBalances[msg.sender][token] */\n      0xffffffffffffffffffffffffffffffffffffffff\n      and\n      0xffffffffffffffffffffffffffffffffffffffff\n      and\n      dup2\n      mstore\n      0x20\n      add\n      swap1\n      dup2\n      mstore\n      0x20\n      add\n      0x00\n      keccak256\n      0x00\n        /* \"src/KipuBankV2.sol\":6169:6211  tokenBalances[msg.sender][token] -= amount */\n      dup3\n      dup3\n      sload\n      tag_372\n      swap2\n      swap1\n      tag_263\n      jump\t// in\n    tag_372:\n      swap3\n      pop\n      pop\n      dup2\n      swap1\n      sstore\n      pop\n        /* \"src/KipuBankV2.sol\":6224:6231  bool ok */\n      0x00\n        /* \"src/KipuBankV2.sol\":6241:6246  token */\n      dup4\n        /* \"src/KipuBankV2.sol\":6234:6256  IERC20(token).transfer */\n      0xffffffffffffffffffffffffffffffffffffffff\n      and\n      0xa9059cbb\n        /* \"src/KipuBankV2.sol\":6257:6267  msg.sender */\n      caller\n        /* \"src/KipuBankV2.sol\":6269:6275  amount */\n      dup6\n        /* \"src/KipuBankV2.sol\":6234:6276  IERC20(token).transfer(msg.sender, amount) */\n      mload(0x40)\n      dup4\n      0xffffffff\n      and\n      0xe0\n      shl\n      dup2\n      mstore\n      0x04\n      add\n      tag_373\n      swap3\n      swap2\n      swap1\n      tag_374\n      jump\t// in\n    tag_373:\n      0x20\n      mload(0x40)\n      dup1\n      dup4\n      sub\n      dup2\n      0x00\n      dup8\n      gas\n      call\n      iszero\n      dup1\n      iszero\n      tag_376\n      jumpi\n      returndatacopy(0x00, 0x00, returndatasize)\n      revert(0x00, returndatasize)\n    tag_376:\n      pop\n      pop\n      pop\n      pop\n      mload(0x40)\n      returndatasize\n      not(0x1f)\n      0x1f\n      dup3\n      add\n      and\n      dup3\n      add\n      dup1\n      0x40\n      mstore\n      pop\n      dup2\n      add\n      swap1\n      tag_377\n      swap2\n      swap1\n      tag_344\n      jump\t// in\n    tag_377:\n        /* \"src/KipuBankV2.sol\":6224:6276  bool ok = IERC20(token).transfer(msg.sender, amount) */\n      swap1\n      pop\n        /* \"src/KipuBankV2.sol\":6295:6297  ok */\n      dup1\n        /* \"src/KipuBankV2.sol\":6287:6323  require(ok, \"Token withdraw failed\") */\n      tag_378\n      jumpi\n      mload(0x40)\n      0x08c379a000000000000000000000000000000000000000000000000000000000\n      dup2\n      mstore\n      0x04\n      add\n      tag_379\n      swap1\n      tag_380\n      jump\t// in\n    tag_379:\n      mload(0x40)\n      dup1\n      swap2\n      sub\n      swap1\n      revert\n    tag_378:\n        /* \"src/KipuBankV2.sol\":6369:6374  token */\n      dup4\n        /* \"src/KipuBankV2.sol\":6341:6383  TokenWithdrawal(msg.sender, token, amount) */\n      0xffffffffffffffffffffffffffffffffffffffff\n      and\n        /* \"src/KipuBankV2.sol\":6357:6367  msg.sender */\n      caller\n        /* \"src/KipuBankV2.sol\":6341:6383  TokenWithdrawal(msg.sender, token, amount) */\n      0xffffffffffffffffffffffffffffffffffffffff\n      and\n      0x42856d0378dde02337bb59ae41747abc77ded8ebdbbc5cbdd1e53693b7554938\n        /* \"src/KipuBankV2.sol\":6376:6382  amount */\n      dup6\n        /* \"src/KipuBankV2.sol\":6341:6383  TokenWithdrawal(msg.sender, token, amount) */\n      mload(0x40)\n      tag_381\n      swap2\n      swap1\n      tag_72\n      jump\t// in\n    tag_381:\n      mload(0x40)\n      dup1\n      swap2\n      sub\n      swap1\n      log3\n        /* \"src/KipuBankV2.sol\":5939:6391  {... */\n      pop\n        /* \"@openzeppelin/contracts/utils/ReentrancyGuard.sol\":3054:3055  _ */\n      pop\n        /* \"@openzeppelin/contracts/utils/ReentrancyGuard.sol\":3065:3085  _nonReentrantAfter() */\n      tag_382\n        /* \"@openzeppelin/contracts/utils/ReentrancyGuard.sol\":3065:3083  _nonReentrantAfter */\n      tag_268\n        /* \"@openzeppelin/contracts/utils/ReentrancyGuard.sol\":3065:3085  _nonReentrantAfter() */\n      jump\t// in\n    tag_382:\n        /* \"src/KipuBankV2.sol\":5843:6391  function withdrawERC20(address token, uint256 amount) public nonReentrant onlyRole(CLIENT_ROLE) {... */\n      pop\n      pop\n      jump\t// out\n        /* \"@openzeppelin/contracts/access/AccessControl.sol\":2196:2245  bytes32 public constant DEFAULT_ADMIN_ROLE = 0x00 */\n    tag_163:\n        /* \"@openzeppelin/contracts/access/AccessControl.sol\":2241:2245  0x00 */\n      0x00\n        /* \"@openzeppelin/contracts/access/AccessControl.sol\":2196:2245  bytes32 public constant DEFAULT_ADMIN_ROLE = 0x00 */\n      0x00\n      shl\n      dup2\n      jump\t// out\n        /* \"src/KipuBankV2.sol\":7300:7467  function allowToken(address token) public onlyRole(MANAGER_ROLE) {... */\n    tag_168:\n        /* \"src/KipuBankV2.sol\":830:855  keccak256(\"MANAGER_ROLE\") */\n      0x241ecf16d79d0f8dbfb92cbc07fe17840425976cf0667f022fe9877caa831b08\n        /* \"@openzeppelin/contracts/access/AccessControl.sol\":2473:2489  _checkRole(role) */\n      tag_384\n        /* \"@openzeppelin/contracts/access/AccessControl.sol\":2484:2488  role */\n      dup2\n        /* \"@openzeppelin/contracts/access/AccessControl.sol\":2473:2483  _checkRole */\n      tag_211\n        /* \"@openzeppelin/contracts/access/AccessControl.sol\":2473:2489  _checkRole(role) */\n      jump\t// in\n    tag_384:\n        /* \"src/KipuBankV2.sol\":7401:7402  0 */\n      0x00\n        /* \"src/KipuBankV2.sol\":7384:7403  token != address(0) */\n      0xffffffffffffffffffffffffffffffffffffffff\n      and\n        /* \"src/KipuBankV2.sol\":7384:7389  token */\n      dup3\n        /* \"src/KipuBankV2.sol\":7384:7403  token != address(0) */\n      0xffffffffffffffffffffffffffffffffffffffff\n      and\n      sub\n        /* \"src/KipuBankV2.sol\":7376:7421  require(token != address(0), \"Invalid token\") */\n      tag_386\n      jumpi\n      mload(0x40)\n      0x08c379a000000000000000000000000000000000000000000000000000000000\n      dup2\n      mstore\n      0x04\n      add\n      tag_387\n      swap1\n      tag_388\n      jump\t// in\n    tag_387:\n      mload(0x40)\n      dup1\n      swap2\n      sub\n      swap1\n      revert\n    tag_386:\n        /* \"src/KipuBankV2.sol\":7455:7459  true */\n      0x01\n        /* \"src/KipuBankV2.sol\":7432:7445  allowedTokens */\n      0x07\n        /* \"src/KipuBankV2.sol\":7432:7452  allowedTokens[token] */\n      0x00\n        /* \"src/KipuBankV2.sol\":7446:7451  token */\n      dup5\n        /* \"src/KipuBankV2.sol\":7432:7452  allowedTokens[token] */\n      0xffffffffffffffffffffffffffffffffffffffff\n      and\n      0xffffffffffffffffffffffffffffffffffffffff\n      and\n      dup2\n      mstore\n      0x20\n      add\n      swap1\n      dup2\n      mstore\n      0x20\n      add\n      0x00\n      keccak256\n      0x00\n        /* \"src/KipuBankV2.sol\":7432:7459  allowedTokens[token] = true */\n      0x0100\n      exp\n      dup2\n      sload\n      dup2\n      0xff\n      mul\n      not\n      and\n      swap1\n      dup4\n      iszero\n      iszero\n      mul\n      or\n      swap1\n      sstore\n      pop\n        /* \"src/KipuBankV2.sol\":7300:7467  function allowToken(address token) public onlyRole(MANAGER_ROLE) {... */\n      pop\n      pop\n      jump\t// out\n        /* \"src/KipuBankV2.sol\":9211:9332  function revokeAnyRole(bytes32 role, address user) public onlyRole(ADMIN_ROLE) {... */\n    tag_172:\n        /* \"src/KipuBankV2.sol\":761:784  keccak256(\"ADMIN_ROLE\") */\n      0xa49807205ce4d355092ef5a8a18f56e8913cf4a201fbe287825b095693c21775\n        /* \"@openzeppelin/contracts/access/AccessControl.sol\":2473:2489  _checkRole(role) */\n      tag_390\n        /* \"@openzeppelin/contracts/access/AccessControl.sol\":2484:2488  role */\n      dup2\n        /* \"@openzeppelin/contracts/access/AccessControl.sol\":2473:2483  _checkRole */\n      tag_211\n        /* \"@openzeppelin/contracts/access/AccessControl.sol\":2473:2489  _checkRole(role) */\n      jump\t// in\n    tag_390:\n        /* \"src/KipuBankV2.sol\":9301:9324  _revokeRole(role, user) */\n      tag_392\n        /* \"src/KipuBankV2.sol\":9313:9317  role */\n      dup4\n        /* \"src/KipuBankV2.sol\":9319:9323  user */\n      dup4\n        /* \"src/KipuBankV2.sol\":9301:9312  _revokeRole */\n      tag_304\n        /* \"src/KipuBankV2.sol\":9301:9324  _revokeRole(role, user) */\n      jump\t// in\n    tag_392:\n      pop\n        /* \"src/KipuBankV2.sol\":9211:9332  function revokeAnyRole(bytes32 role, address user) public onlyRole(ADMIN_ROLE) {... */\n      pop\n      pop\n      pop\n      jump\t// out\n        /* \"src/KipuBankV2.sol\":9084:9203  function revokeManagerRole(address user) public onlyRole(ADMIN_ROLE) {... */\n    tag_176:\n        /* \"src/KipuBankV2.sol\":761:784  keccak256(\"ADMIN_ROLE\") */\n      0xa49807205ce4d355092ef5a8a18f56e8913cf4a201fbe287825b095693c21775\n        /* \"@openzeppelin/contracts/access/AccessControl.sol\":2473:2489  _checkRole(role) */\n      tag_394\n        /* \"@openzeppelin/contracts/access/AccessControl.sol\":2484:2488  role */\n      dup2\n        /* \"@openzeppelin/contracts/access/AccessControl.sol\":2473:2483  _checkRole */\n      tag_211\n        /* \"@openzeppelin/contracts/access/AccessControl.sol\":2473:2489  _checkRole(role) */\n      jump\t// in\n    tag_394:\n        /* \"src/KipuBankV2.sol\":9164:9195  _revokeRole(MANAGER_ROLE, user) */\n      tag_396\n        /* \"src/KipuBankV2.sol\":830:855  keccak256(\"MANAGER_ROLE\") */\n      0x241ecf16d79d0f8dbfb92cbc07fe17840425976cf0667f022fe9877caa831b08\n        /* \"src/KipuBankV2.sol\":9190:9194  user */\n      dup4\n        /* \"src/KipuBankV2.sol\":9164:9175  _revokeRole */\n      tag_304\n        /* \"src/KipuBankV2.sol\":9164:9195  _revokeRole(MANAGER_ROLE, user) */\n      jump\t// in\n    tag_396:\n      pop\n        /* \"src/KipuBankV2.sol\":9084:9203  function revokeManagerRole(address user) public onlyRole(ADMIN_ROLE) {... */\n      pop\n      pop\n      jump\t// out\n        /* \"src/KipuBankV2.sol\":4189:4650  function deposit() public payable onlyRole(CLIENT_ROLE) respectsBankCap(convertETHtoUSD(msg.value)) {... */\n    tag_178:\n        /* \"src/KipuBankV2.sol\":901:925  keccak256(\"CLIENT_ROLE\") */\n      0xa5ff3ec7a96cdbba4d2d5172d66bbc73c6db3885f29b21be5da9fa7a7c025232\n        /* \"@openzeppelin/contracts/access/AccessControl.sol\":2473:2489  _checkRole(role) */\n      tag_398\n        /* \"@openzeppelin/contracts/access/AccessControl.sol\":2484:2488  role */\n      dup2\n        /* \"@openzeppelin/contracts/access/AccessControl.sol\":2473:2483  _checkRole */\n      tag_211\n        /* \"@openzeppelin/contracts/access/AccessControl.sol\":2473:2489  _checkRole(role) */\n      jump\t// in\n    tag_398:\n        /* \"src/KipuBankV2.sol\":4261:4287  convertETHtoUSD(msg.value) */\n      tag_399\n        /* \"src/KipuBankV2.sol\":4277:4286  msg.value */\n      callvalue\n        /* \"src/KipuBankV2.sol\":4261:4276  convertETHtoUSD */\n      tag_147\n        /* \"src/KipuBankV2.sol\":4261:4287  convertETHtoUSD(msg.value) */\n      jump\t// in\n    tag_399:\n        /* \"src/KipuBankV2.sol\":3013:3023  bankCapUSD */\n      sload(0x02)\n        /* \"src/KipuBankV2.sol\":3001:3009  usdValue */\n      dup2\n        /* \"src/KipuBankV2.sol\":2981:2998  totalDepositedUSD */\n      sload(0x03)\n        /* \"src/KipuBankV2.sol\":2981:3009  totalDepositedUSD + usdValue */\n      tag_401\n      swap2\n      swap1\n      tag_265\n      jump\t// in\n    tag_401:\n        /* \"src/KipuBankV2.sol\":2981:3023  totalDepositedUSD + usdValue <= bankCapUSD */\n      gt\n      iszero\n        /* \"src/KipuBankV2.sol\":2973:3045  require(totalDepositedUSD + usdValue <= bankCapUSD, \"Bank cap exceeded\") */\n      tag_402\n      jumpi\n      mload(0x40)\n      0x08c379a000000000000000000000000000000000000000000000000000000000\n      dup2\n      mstore\n      0x04\n      add\n      tag_403\n      swap1\n      tag_404\n      jump\t// in\n    tag_403:\n      mload(0x40)\n      dup1\n      swap2\n      sub\n      swap1\n      revert\n    tag_402:\n        /* \"src/KipuBankV2.sol\":4308:4316  accounts */\n      0x05\n        /* \"src/KipuBankV2.sol\":4308:4328  accounts[msg.sender] */\n      0x00\n        /* \"src/KipuBankV2.sol\":4317:4327  msg.sender */\n      caller\n        /* \"src/KipuBankV2.sol\":4308:4328  accounts[msg.sender] */\n      0xffffffffffffffffffffffffffffffffffffffff\n      and\n      0xffffffffffffffffffffffffffffffffffffffff\n      and\n      dup2\n      mstore\n      0x20\n      add\n      swap1\n      dup2\n      mstore\n      0x20\n      add\n      0x00\n      keccak256\n        /* \"src/KipuBankV2.sol\":4308:4335  accounts[msg.sender].exists */\n      0x01\n      add\n      0x00\n      swap1\n      sload\n      swap1\n      0x0100\n      exp\n      swap1\n      div\n      0xff\n      and\n        /* \"src/KipuBankV2.sol\":4300:4362  require(accounts[msg.sender].exists, \"Account does not exist\") */\n      tag_406\n      jumpi\n      mload(0x40)\n      0x08c379a000000000000000000000000000000000000000000000000000000000\n      dup2\n      mstore\n      0x04\n      add\n      tag_407\n      swap1\n      tag_276\n      jump\t// in\n    tag_407:\n      mload(0x40)\n      dup1\n      swap2\n      sub\n      swap1\n      revert\n    tag_406:\n        /* \"src/KipuBankV2.sol\":4393:4394  0 */\n      0x00\n        /* \"src/KipuBankV2.sol\":4381:4390  msg.value */\n      callvalue\n        /* \"src/KipuBankV2.sol\":4381:4394  msg.value > 0 */\n      gt\n        /* \"src/KipuBankV2.sol\":4373:4418  require(msg.value > 0, \"Deposit must be > 0\") */\n      tag_408\n      jumpi\n      mload(0x40)\n      0x08c379a000000000000000000000000000000000000000000000000000000000\n      dup2\n      mstore\n      0x04\n      add\n      tag_409\n      swap1\n      tag_410\n      jump\t// in\n    tag_409:\n      mload(0x40)\n      dup1\n      swap2\n      sub\n      swap1\n      revert\n    tag_408:\n        /* \"src/KipuBankV2.sol\":4440:4454  depositsPaused */\n      0x04\n      0x00\n      swap1\n      sload\n      swap1\n      0x0100\n      exp\n      swap1\n      div\n      0xff\n      and\n        /* \"src/KipuBankV2.sol\":4439:4454  !depositsPaused */\n      iszero\n        /* \"src/KipuBankV2.sol\":4431:4478  require(!depositsPaused, \"Deposits are paused\") */\n      tag_411\n      jumpi\n      mload(0x40)\n      0x08c379a000000000000000000000000000000000000000000000000000000000\n      dup2\n      mstore\n      0x04\n      add\n      tag_412\n      swap1\n      tag_333\n      jump\t// in\n    tag_412:\n      mload(0x40)\n      dup1\n      swap2\n      sub\n      swap1\n      revert\n    tag_411:\n        /* \"src/KipuBankV2.sol\":4523:4532  msg.value */\n      callvalue\n        /* \"src/KipuBankV2.sol\":4491:4499  accounts */\n      0x05\n        /* \"src/KipuBankV2.sol\":4491:4511  accounts[msg.sender] */\n      0x00\n        /* \"src/KipuBankV2.sol\":4500:4510  msg.sender */\n      caller\n        /* \"src/KipuBankV2.sol\":4491:4511  accounts[msg.sender] */\n      0xffffffffffffffffffffffffffffffffffffffff\n      and\n      0xffffffffffffffffffffffffffffffffffffffff\n      and\n      dup2\n      mstore\n      0x20\n      add\n      swap1\n      dup2\n      mstore\n      0x20\n      add\n      0x00\n      keccak256\n        /* \"src/KipuBankV2.sol\":4491:4519  accounts[msg.sender].balance */\n      0x00\n      add\n      0x00\n        /* \"src/KipuBankV2.sol\":4491:4532  accounts[msg.sender].balance += msg.value */\n      dup3\n      dup3\n      sload\n      tag_413\n      swap2\n      swap1\n      tag_265\n      jump\t// in\n    tag_413:\n      swap3\n      pop\n      pop\n      dup2\n      swap1\n      sstore\n      pop\n        /* \"src/KipuBankV2.sol\":4564:4590  convertETHtoUSD(msg.value) */\n      tag_414\n        /* \"src/KipuBankV2.sol\":4580:4589  msg.value */\n      callvalue\n        /* \"src/KipuBankV2.sol\":4564:4579  convertETHtoUSD */\n      tag_147\n        /* \"src/KipuBankV2.sol\":4564:4590  convertETHtoUSD(msg.value) */\n      jump\t// in\n    tag_414:\n        /* \"src/KipuBankV2.sol\":4543:4560  totalDepositedUSD */\n      0x03\n      0x00\n        /* \"src/KipuBankV2.sol\":4543:4590  totalDepositedUSD += convertETHtoUSD(msg.value) */\n      dup3\n      dup3\n      sload\n      tag_415\n      swap2\n      swap1\n      tag_265\n      jump\t// in\n    tag_415:\n      swap3\n      pop\n      pop\n      dup2\n      swap1\n      sstore\n      pop\n        /* \"src/KipuBankV2.sol\":4620:4630  msg.sender */\n      caller\n        /* \"src/KipuBankV2.sol\":4608:4642  DepositMade(msg.sender, msg.value) */\n      0xffffffffffffffffffffffffffffffffffffffff\n      and\n      0xd15c9547ea5c06670c0010ce19bc32d54682a4b3801ece7f3ab0c3f17106b4bb\n        /* \"src/KipuBankV2.sol\":4632:4641  msg.value */\n      callvalue\n        /* \"src/KipuBankV2.sol\":4608:4642  DepositMade(msg.sender, msg.value) */\n      mload(0x40)\n      tag_416\n      swap2\n      swap1\n      tag_72\n      jump\t// in\n    tag_416:\n      mload(0x40)\n      dup1\n      swap2\n      sub\n      swap1\n      log2\n        /* \"@openzeppelin/contracts/access/AccessControl.sol\":2499:2500  _ */\n      pop\n        /* \"src/KipuBankV2.sol\":4189:4650  function deposit() public payable onlyRole(CLIENT_ROLE) respectsBankCap(convertETHtoUSD(msg.value)) {... */\n      pop\n      jump\t// out\n        /* \"@openzeppelin/contracts/access/AccessControl.sol\":4618:4756  function revokeRole(bytes32 role, address account) public virtual onlyRole(getRoleAdmin(role)) {... */\n    tag_182:\n        /* \"@openzeppelin/contracts/access/AccessControl.sol\":4693:4711  getRoleAdmin(role) */\n      tag_417\n        /* \"@openzeppelin/contracts/access/AccessControl.sol\":4706:4710  role */\n      dup3\n        /* \"@openzeppelin/contracts/access/AccessControl.sol\":4693:4705  getRoleAdmin */\n      tag_87\n        /* \"@openzeppelin/contracts/access/AccessControl.sol\":4693:4711  getRoleAdmin(role) */\n      jump\t// in\n    tag_417:\n        /* \"@openzeppelin/contracts/access/AccessControl.sol\":2473:2489  _checkRole(role) */\n      tag_419\n        /* \"@openzeppelin/contracts/access/AccessControl.sol\":2484:2488  role */\n      dup2\n        /* \"@openzeppelin/contracts/access/AccessControl.sol\":2473:2483  _checkRole */\n      tag_211\n        /* \"@openzeppelin/contracts/access/AccessControl.sol\":2473:2489  _checkRole(role) */\n      jump\t// in\n    tag_419:\n        /* \"@openzeppelin/contracts/access/AccessControl.sol\":4723:4749  _revokeRole(role, account) */\n      tag_421\n        /* \"@openzeppelin/contracts/access/AccessControl.sol\":4735:4739  role */\n      dup4\n        /* \"@openzeppelin/contracts/access/AccessControl.sol\":4741:4748  account */\n      dup4\n        /* \"@openzeppelin/contracts/access/AccessControl.sol\":4723:4734  _revokeRole */\n      tag_304\n        /* \"@openzeppelin/contracts/access/AccessControl.sol\":4723:4749  _revokeRole(role, account) */\n      jump\t// in\n    tag_421:\n      pop\n        /* \"@openzeppelin/contracts/access/AccessControl.sol\":4618:4756  function revokeRole(bytes32 role, address account) public virtual onlyRole(getRoleAdmin(role)) {... */\n      pop\n      pop\n      pop\n      jump\t// out\n        /* \"src/KipuBankV2.sol\":2163:2208  mapping(address => bool) public allowedTokens */\n    tag_186:\n      mstore(0x20, 0x07)\n      dup1\n      0x00\n      mstore\n      keccak256(0x00, 0x40)\n      0x00\n      swap2\n      pop\n      sload\n      swap1\n      0x0100\n      exp\n      swap1\n      div\n      0xff\n      and\n      dup2\n      jump\t// out\n        /* \"src/KipuBankV2.sol\":7583:7759  function disallowToken(address token) public onlyRole(MANAGER_ROLE) {... */\n    tag_191:\n        /* \"src/KipuBankV2.sol\":830:855  keccak256(\"MANAGER_ROLE\") */\n      0x241ecf16d79d0f8dbfb92cbc07fe17840425976cf0667f022fe9877caa831b08\n        /* \"@openzeppelin/contracts/access/AccessControl.sol\":2473:2489  _checkRole(role) */\n      tag_423\n        /* \"@openzeppelin/contracts/access/AccessControl.sol\":2484:2488  role */\n      dup2\n        /* \"@openzeppelin/contracts/access/AccessControl.sol\":2473:2483  _checkRole */\n      tag_211\n        /* \"@openzeppelin/contracts/access/AccessControl.sol\":2473:2489  _checkRole(role) */\n      jump\t// in\n    tag_423:\n        /* \"src/KipuBankV2.sol\":7670:7683  allowedTokens */\n      0x07\n        /* \"src/KipuBankV2.sol\":7670:7690  allowedTokens[token] */\n      0x00\n        /* \"src/KipuBankV2.sol\":7684:7689  token */\n      dup4\n        /* \"src/KipuBankV2.sol\":7670:7690  allowedTokens[token] */\n      0xffffffffffffffffffffffffffffffffffffffff\n      and\n      0xffffffffffffffffffffffffffffffffffffffff\n      and\n      dup2\n      mstore\n      0x20\n      add\n      swap1\n      dup2\n      mstore\n      0x20\n      add\n      0x00\n      keccak256\n      0x00\n      swap1\n      sload\n      swap1\n      0x0100\n      exp\n      swap1\n      div\n      0xff\n      and\n        /* \"src/KipuBankV2.sol\":7662:7712  require(allowedTokens[token], \"Token not allowed\") */\n      tag_425\n      jumpi\n      mload(0x40)\n      0x08c379a000000000000000000000000000000000000000000000000000000000\n      dup2\n      mstore\n      0x04\n      add\n      tag_426\n      swap1\n      tag_336\n      jump\t// in\n    tag_426:\n      mload(0x40)\n      dup1\n      swap2\n      sub\n      swap1\n      revert\n    tag_425:\n        /* \"src/KipuBankV2.sol\":7746:7751  false */\n      0x00\n        /* \"src/KipuBankV2.sol\":7723:7736  allowedTokens */\n      0x07\n        /* \"src/KipuBankV2.sol\":7723:7743  allowedTokens[token] */\n      0x00\n        /* \"src/KipuBankV2.sol\":7737:7742  token */\n      dup5\n        /* \"src/KipuBankV2.sol\":7723:7743  allowedTokens[token] */\n      0xffffffffffffffffffffffffffffffffffffffff\n      and\n      0xffffffffffffffffffffffffffffffffffffffff\n      and\n      dup2\n      mstore\n      0x20\n      add\n      swap1\n      dup2\n      mstore\n      0x20\n      add\n      0x00\n      keccak256\n      0x00\n        /* \"src/KipuBankV2.sol\":7723:7751  allowedTokens[token] = false */\n      0x0100\n      exp\n      dup2\n      sload\n      dup2\n      0xff\n      mul\n      not\n      and\n      swap1\n      dup4\n      iszero\n      iszero\n      mul\n      or\n      swap1\n      sstore\n      pop\n        /* \"src/KipuBankV2.sol\":7583:7759  function disallowToken(address token) public onlyRole(MANAGER_ROLE) {... */\n      pop\n      pop\n      jump\t// out\n        /* \"src/KipuBankV2.sol\":862:925  bytes32 public constant CLIENT_ROLE  = keccak256(\"CLIENT_ROLE\") */\n    tag_194:\n        /* \"src/KipuBankV2.sol\":901:925  keccak256(\"CLIENT_ROLE\") */\n      0xa5ff3ec7a96cdbba4d2d5172d66bbc73c6db3885f29b21be5da9fa7a7c025232\n        /* \"src/KipuBankV2.sol\":862:925  bytes32 public constant CLIENT_ROLE  = keccak256(\"CLIENT_ROLE\") */\n      dup2\n      jump\t// out\n        /* \"src/KipuBankV2.sol\":791:855  bytes32 public constant MANAGER_ROLE = keccak256(\"MANAGER_ROLE\") */\n    tag_198:\n        /* \"src/KipuBankV2.sol\":830:855  keccak256(\"MANAGER_ROLE\") */\n      0x241ecf16d79d0f8dbfb92cbc07fe17840425976cf0667f022fe9877caa831b08\n        /* \"src/KipuBankV2.sol\":791:855  bytes32 public constant MANAGER_ROLE = keccak256(\"MANAGER_ROLE\") */\n      dup2\n      jump\t// out\n        /* \"src/KipuBankV2.sol\":1233:1265  uint256 public totalDepositedUSD */\n    tag_202:\n      sload(0x03)\n      dup2\n      jump\t// out\n        /* \"src/KipuBankV2.sol\":7827:8040  function viewBalanceAsManager(address client) public view onlyRole(MANAGER_ROLE) returns (uint256) {... */\n    tag_207:\n        /* \"src/KipuBankV2.sol\":7917:7924  uint256 */\n      0x00\n        /* \"src/KipuBankV2.sol\":830:855  keccak256(\"MANAGER_ROLE\") */\n      0x241ecf16d79d0f8dbfb92cbc07fe17840425976cf0667f022fe9877caa831b08\n        /* \"@openzeppelin/contracts/access/AccessControl.sol\":2473:2489  _checkRole(role) */\n      tag_428\n        /* \"@openzeppelin/contracts/access/AccessControl.sol\":2484:2488  role */\n      dup2\n        /* \"@openzeppelin/contracts/access/AccessControl.sol\":2473:2483  _checkRole */\n      tag_211\n        /* \"@openzeppelin/contracts/access/AccessControl.sol\":2473:2489  _checkRole(role) */\n      jump\t// in\n    tag_428:\n        /* \"src/KipuBankV2.sol\":7945:7953  accounts */\n      0x05\n        /* \"src/KipuBankV2.sol\":7945:7961  accounts[client] */\n      0x00\n        /* \"src/KipuBankV2.sol\":7954:7960  client */\n      dup5\n        /* \"src/KipuBankV2.sol\":7945:7961  accounts[client] */\n      0xffffffffffffffffffffffffffffffffffffffff\n      and\n      0xffffffffffffffffffffffffffffffffffffffff\n      and\n      dup2\n      mstore\n      0x20\n      add\n      swap1\n      dup2\n      mstore\n      0x20\n      add\n      0x00\n      keccak256\n        /* \"src/KipuBankV2.sol\":7945:7968  accounts[client].exists */\n      0x01\n      add\n      0x00\n      swap1\n      sload\n      swap1\n      0x0100\n      exp\n      swap1\n      div\n      0xff\n      and\n        /* \"src/KipuBankV2.sol\":7937:7990  require(accounts[client].exists, \"Account not found\") */\n      tag_430\n      jumpi\n      mload(0x40)\n      0x08c379a000000000000000000000000000000000000000000000000000000000\n      dup2\n      mstore\n      0x04\n      add\n      tag_431\n      swap1\n      tag_231\n      jump\t// in\n    tag_431:\n      mload(0x40)\n      dup1\n      swap2\n      sub\n      swap1\n      revert\n    tag_430:\n        /* \"src/KipuBankV2.sol\":8008:8016  accounts */\n      0x05\n        /* \"src/KipuBankV2.sol\":8008:8024  accounts[client] */\n      0x00\n        /* \"src/KipuBankV2.sol\":8017:8023  client */\n      dup5\n        /* \"src/KipuBankV2.sol\":8008:8024  accounts[client] */\n      0xffffffffffffffffffffffffffffffffffffffff\n      and\n      0xffffffffffffffffffffffffffffffffffffffff\n      and\n      dup2\n      mstore\n      0x20\n      add\n      swap1\n      dup2\n      mstore\n      0x20\n      add\n      0x00\n      keccak256\n        /* \"src/KipuBankV2.sol\":8008:8032  accounts[client].balance */\n      0x00\n      add\n      sload\n        /* \"src/KipuBankV2.sol\":8001:8032  return accounts[client].balance */\n      swap2\n      pop\n        /* \"src/KipuBankV2.sol\":7827:8040  function viewBalanceAsManager(address client) public view onlyRole(MANAGER_ROLE) returns (uint256) {... */\n      pop\n      swap2\n      swap1\n      pop\n      jump\t// out\n        /* \"@openzeppelin/contracts/access/AccessControl.sol\":3175:3278  function _checkRole(bytes32 role) internal view virtual {... */\n    tag_211:\n        /* \"@openzeppelin/contracts/access/AccessControl.sol\":3241:3271  _checkRole(role, _msgSender()) */\n      tag_433\n        /* \"@openzeppelin/contracts/access/AccessControl.sol\":3252:3256  role */\n      dup2\n        /* \"@openzeppelin/contracts/access/AccessControl.sol\":3258:3270  _msgSender() */\n      tag_434\n        /* \"@openzeppelin/contracts/access/AccessControl.sol\":3258:3268  _msgSender */\n      tag_301\n        /* \"@openzeppelin/contracts/access/AccessControl.sol\":3258:3270  _msgSender() */\n      jump\t// in\n    tag_434:\n        /* \"@openzeppelin/contracts/access/AccessControl.sol\":3241:3251  _checkRole */\n      tag_435\n        /* \"@openzeppelin/contracts/access/AccessControl.sol\":3241:3271  _checkRole(role, _msgSender()) */\n      jump\t// in\n    tag_433:\n        /* \"@openzeppelin/contracts/access/AccessControl.sol\":3175:3278  function _checkRole(bytes32 role) internal view virtual {... */\n      pop\n      jump\t// out\n        /* \"@openzeppelin/contracts/utils/introspection/ERC165.sol\":730:876  function supportsInterface(bytes4 interfaceId) public view virtual returns (bool) {... */\n    tag_219:\n        /* \"@openzeppelin/contracts/utils/introspection/ERC165.sol\":806:810  bool */\n      0x00\n        /* \"@openzeppelin/contracts/utils/introspection/ERC165.sol\":844:869  type(IERC165).interfaceId */\n      0x01ffc9a700000000000000000000000000000000000000000000000000000000\n        /* \"@openzeppelin/contracts/utils/introspection/ERC165.sol\":829:869  interfaceId == type(IERC165).interfaceId */\n      not(0xffffffffffffffffffffffffffffffffffffffffffffffffffffffff)\n      and\n        /* \"@openzeppelin/contracts/utils/introspection/ERC165.sol\":829:840  interfaceId */\n      dup3\n        /* \"@openzeppelin/contracts/utils/introspection/ERC165.sol\":829:869  interfaceId == type(IERC165).interfaceId */\n      not(0xffffffffffffffffffffffffffffffffffffffffffffffffffffffff)\n      and\n      eq\n        /* \"@openzeppelin/contracts/utils/introspection/ERC165.sol\":822:869  return interfaceId == type(IERC165).interfaceId */\n      swap1\n      pop\n        /* \"@openzeppelin/contracts/utils/introspection/ERC165.sol\":730:876  function supportsInterface(bytes4 interfaceId) public view virtual returns (bool) {... */\n      swap2\n      swap1\n      pop\n      jump\t// out\n        /* \"@openzeppelin/contracts/access/AccessControl.sol\":6155:6471  function _grantRole(bytes32 role, address account) internal virtual returns (bool) {... */\n    tag_237:\n        /* \"@openzeppelin/contracts/access/AccessControl.sol\":6232:6236  bool */\n      0x00\n        /* \"@openzeppelin/contracts/access/AccessControl.sol\":6253:6275  hasRole(role, account) */\n      tag_438\n        /* \"@openzeppelin/contracts/access/AccessControl.sol\":6261:6265  role */\n      dup4\n        /* \"@openzeppelin/contracts/access/AccessControl.sol\":6267:6274  account */\n      dup4\n        /* \"@openzeppelin/contracts/access/AccessControl.sol\":6253:6260  hasRole */\n      tag_142\n        /* \"@openzeppelin/contracts/access/AccessControl.sol\":6253:6275  hasRole(role, account) */\n      jump\t// in\n    tag_438:\n        /* \"@openzeppelin/contracts/access/AccessControl.sol\":6248:6465  if (!hasRole(role, account)) {... */\n      tag_439\n      jumpi\n        /* \"@openzeppelin/contracts/access/AccessControl.sol\":6323:6327  true */\n      0x01\n        /* \"@openzeppelin/contracts/access/AccessControl.sol\":6291:6297  _roles */\n      0x00\n        /* \"@openzeppelin/contracts/access/AccessControl.sol\":6291:6303  _roles[role] */\n      0x00\n        /* \"@openzeppelin/contracts/access/AccessControl.sol\":6298:6302  role */\n      dup6\n        /* \"@openzeppelin/contracts/access/AccessControl.sol\":6291:6303  _roles[role] */\n      dup2\n      mstore\n      0x20\n      add\n      swap1\n      dup2\n      mstore\n      0x20\n      add\n      0x00\n      keccak256\n        /* \"@openzeppelin/contracts/access/AccessControl.sol\":6291:6311  _roles[role].hasRole */\n      0x00\n      add\n        /* \"@openzeppelin/contracts/access/AccessControl.sol\":6291:6320  _roles[role].hasRole[account] */\n      0x00\n        /* \"@openzeppelin/contracts/access/AccessControl.sol\":6312:6319  account */\n      dup5\n        /* \"@openzeppelin/contracts/access/AccessControl.sol\":6291:6320  _roles[role].hasRole[account] */\n      0xffffffffffffffffffffffffffffffffffffffff\n      and\n      0xffffffffffffffffffffffffffffffffffffffff\n      and\n      dup2\n      mstore\n      0x20\n      add\n      swap1\n      dup2\n      mstore\n      0x20\n      add\n      0x00\n      keccak256\n      0x00\n        /* \"@openzeppelin/contracts/access/AccessControl.sol\":6291:6327  _roles[role].hasRole[account] = true */\n      0x0100\n      exp\n      dup2\n      sload\n      dup2\n      0xff\n      mul\n      not\n      and\n      swap1\n      dup4\n      iszero\n      iszero\n      mul\n      or\n      swap1\n      sstore\n      pop\n        /* \"@openzeppelin/contracts/access/AccessControl.sol\":6373:6385  _msgSender() */\n      tag_440\n        /* \"@openzeppelin/contracts/access/AccessControl.sol\":6373:6383  _msgSender */\n      tag_301\n        /* \"@openzeppelin/contracts/access/AccessControl.sol\":6373:6385  _msgSender() */\n      jump\t// in\n    tag_440:\n        /* \"@openzeppelin/contracts/access/AccessControl.sol\":6346:6386  RoleGranted(role, account, _msgSender()) */\n      0xffffffffffffffffffffffffffffffffffffffff\n      and\n        /* \"@openzeppelin/contracts/access/AccessControl.sol\":6364:6371  account */\n      dup3\n        /* \"@openzeppelin/contracts/access/AccessControl.sol\":6346:6386  RoleGranted(role, account, _msgSender()) */\n      0xffffffffffffffffffffffffffffffffffffffff\n      and\n        /* \"@openzeppelin/contracts/access/AccessControl.sol\":6358:6362  role */\n      dup5\n        /* \"@openzeppelin/contracts/access/AccessControl.sol\":6346:6386  RoleGranted(role, account, _msgSender()) */\n      0x2f8788117e7eff1d82e926ec794901d17c78024a50270940304540a733656f0d\n      mload(0x40)\n      mload(0x40)\n      dup1\n      swap2\n      sub\n      swap1\n      log4\n        /* \"@openzeppelin/contracts/access/AccessControl.sol\":6407:6411  true */\n      0x01\n        /* \"@openzeppelin/contracts/access/AccessControl.sol\":6400:6411  return true */\n      swap1\n      pop\n      jump(tag_437)\n        /* \"@openzeppelin/contracts/access/AccessControl.sol\":6248:6465  if (!hasRole(role, account)) {... */\n    tag_439:\n        /* \"@openzeppelin/contracts/access/AccessControl.sol\":6449:6454  false */\n      0x00\n        /* \"@openzeppelin/contracts/access/AccessControl.sol\":6442:6454  return false */\n      swap1\n      pop\n        /* \"@openzeppelin/contracts/access/AccessControl.sol\":6155:6471  function _grantRole(bytes32 role, address account) internal virtual returns (bool) {... */\n    tag_437:\n      swap3\n      swap2\n      pop\n      pop\n      jump\t// out\n        /* \"@openzeppelin/contracts/utils/ReentrancyGuard.sol\":3749:4041  function _nonReentrantBefore() private {... */\n    tag_240:\n        /* \"@openzeppelin/contracts/utils/ReentrancyGuard.sol\":3872:3897  _nonReentrantBeforeView() */\n      tag_443\n        /* \"@openzeppelin/contracts/utils/ReentrancyGuard.sol\":3872:3895  _nonReentrantBeforeView */\n      tag_444\n        /* \"@openzeppelin/contracts/utils/ReentrancyGuard.sol\":3872:3897  _nonReentrantBeforeView() */\n      jump\t// in\n    tag_443:\n        /* \"@openzeppelin/contracts/utils/ReentrancyGuard.sol\":2407:2408  2 */\n      0x02\n        /* \"@openzeppelin/contracts/utils/ReentrancyGuard.sol\":3972:4018  _reentrancyGuardStorageSlot().getUint256Slot() */\n      tag_445\n        /* \"@openzeppelin/contracts/utils/ReentrancyGuard.sol\":3972:4001  _reentrancyGuardStorageSlot() */\n      tag_446\n        /* \"@openzeppelin/contracts/utils/ReentrancyGuard.sol\":3972:3999  _reentrancyGuardStorageSlot */\n      tag_447\n        /* \"@openzeppelin/contracts/utils/ReentrancyGuard.sol\":3972:4001  _reentrancyGuardStorageSlot() */\n      jump\t// in\n    tag_446:\n        /* \"@openzeppelin/contracts/utils/ReentrancyGuard.sol\":3972:4016  _reentrancyGuardStorageSlot().getUint256Slot */\n      tag_448\n        /* \"@openzeppelin/contracts/utils/ReentrancyGuard.sol\":3972:4018  _reentrancyGuardStorageSlot().getUint256Slot() */\n      jump\t// in\n    tag_445:\n        /* \"@openzeppelin/contracts/utils/ReentrancyGuard.sol\":3972:4024  _reentrancyGuardStorageSlot().getUint256Slot().value */\n      0x00\n      add\n        /* \"@openzeppelin/contracts/utils/ReentrancyGuard.sol\":3972:4034  _reentrancyGuardStorageSlot().getUint256Slot().value = ENTERED */\n      dup2\n      swap1\n      sstore\n      pop\n        /* \"@openzeppelin/contracts/utils/ReentrancyGuard.sol\":3749:4041  function _nonReentrantBefore() private {... */\n      jump\t// out\n        /* \"@openzeppelin/contracts/utils/ReentrancyGuard.sol\":4047:4300  function _nonReentrantAfter() private {... */\n    tag_268:\n        /* \"@openzeppelin/contracts/utils/ReentrancyGuard.sol\":2365:2366  1 */\n      0x01\n        /* \"@openzeppelin/contracts/utils/ReentrancyGuard.sol\":4227:4273  _reentrancyGuardStorageSlot().getUint256Slot() */\n      tag_450\n        /* \"@openzeppelin/contracts/utils/ReentrancyGuard.sol\":4227:4256  _reentrancyGuardStorageSlot() */\n      tag_451\n        /* \"@openzeppelin/contracts/utils/ReentrancyGuard.sol\":4227:4254  _reentrancyGuardStorageSlot */\n      tag_447\n        /* \"@openzeppelin/contracts/utils/ReentrancyGuard.sol\":4227:4256  _reentrancyGuardStorageSlot() */\n      jump\t// in\n    tag_451:\n        /* \"@openzeppelin/contracts/utils/ReentrancyGuard.sol\":4227:4271  _reentrancyGuardStorageSlot().getUint256Slot */\n      tag_448\n        /* \"@openzeppelin/contracts/utils/ReentrancyGuard.sol\":4227:4273  _reentrancyGuardStorageSlot().getUint256Slot() */\n      jump\t// in\n    tag_450:\n        /* \"@openzeppelin/contracts/utils/ReentrancyGuard.sol\":4227:4279  _reentrancyGuardStorageSlot().getUint256Slot().value */\n      0x00\n      add\n        /* \"@openzeppelin/contracts/utils/ReentrancyGuard.sol\":4227:4293  _reentrancyGuardStorageSlot().getUint256Slot().value = NOT_ENTERED */\n      dup2\n      swap1\n      sstore\n      pop\n        /* \"@openzeppelin/contracts/utils/ReentrancyGuard.sol\":4047:4300  function _nonReentrantAfter() private {... */\n      jump\t// out\n        /* \"@openzeppelin/contracts/utils/Context.sol\":656:752  function _msgSender() internal view virtual returns (address) {... */\n    tag_301:\n        /* \"@openzeppelin/contracts/utils/Context.sol\":709:716  address */\n      0x00\n        /* \"@openzeppelin/contracts/utils/Context.sol\":735:745  msg.sender */\n      caller\n        /* \"@openzeppelin/contracts/utils/Context.sol\":728:745  return msg.sender */\n      swap1\n      pop\n        /* \"@openzeppelin/contracts/utils/Context.sol\":656:752  function _msgSender() internal view virtual returns (address) {... */\n      swap1\n      jump\t// out\n        /* \"@openzeppelin/contracts/access/AccessControl.sol\":6708:7025  function _revokeRole(bytes32 role, address account) internal virtual returns (bool) {... */\n    tag_304:\n        /* \"@openzeppelin/contracts/access/AccessControl.sol\":6786:6790  bool */\n      0x00\n        /* \"@openzeppelin/contracts/access/AccessControl.sol\":6806:6828  hasRole(role, account) */\n      tag_454\n        /* \"@openzeppelin/contracts/access/AccessControl.sol\":6814:6818  role */\n      dup4\n        /* \"@openzeppelin/contracts/access/AccessControl.sol\":6820:6827  account */\n      dup4\n        /* \"@openzeppelin/contracts/access/AccessControl.sol\":6806:6813  hasRole */\n      tag_142\n        /* \"@openzeppelin/contracts/access/AccessControl.sol\":6806:6828  hasRole(role, account) */\n      jump\t// in\n    tag_454:\n        /* \"@openzeppelin/contracts/access/AccessControl.sol\":6802:7019  if (hasRole(role, account)) {... */\n      iszero\n      tag_455\n      jumpi\n        /* \"@openzeppelin/contracts/access/AccessControl.sol\":6876:6881  false */\n      0x00\n        /* \"@openzeppelin/contracts/access/AccessControl.sol\":6844:6850  _roles */\n      0x00\n        /* \"@openzeppelin/contracts/access/AccessControl.sol\":6844:6856  _roles[role] */\n      0x00\n        /* \"@openzeppelin/contracts/access/AccessControl.sol\":6851:6855  role */\n      dup6\n        /* \"@openzeppelin/contracts/access/AccessControl.sol\":6844:6856  _roles[role] */\n      dup2\n      mstore\n      0x20\n      add\n      swap1\n      dup2\n      mstore\n      0x20\n      add\n      0x00\n      keccak256\n        /* \"@openzeppelin/contracts/access/AccessControl.sol\":6844:6864  _roles[role].hasRole */\n      0x00\n      add\n        /* \"@openzeppelin/contracts/access/AccessControl.sol\":6844:6873  _roles[role].hasRole[account] */\n      0x00\n        /* \"@openzeppelin/contracts/access/AccessControl.sol\":6865:6872  account */\n      dup5\n        /* \"@openzeppelin/contracts/access/AccessControl.sol\":6844:6873  _roles[role].hasRole[account] */\n      0xffffffffffffffffffffffffffffffffffffffff\n      and\n      0xffffffffffffffffffffffffffffffffffffffff\n      and\n      dup2\n      mstore\n      0x20\n      add\n      swap1\n      dup2\n      mstore\n      0x20\n      add\n      0x00\n      keccak256\n      0x00\n        /* \"@openzeppelin/contracts/access/AccessControl.sol\":6844:6881  _roles[role].hasRole[account] = false */\n      0x0100\n      exp\n      dup2\n      sload\n      dup2\n      0xff\n      mul\n      not\n      and\n      swap1\n      dup4\n      iszero\n      iszero\n      mul\n      or\n      swap1\n      sstore\n      pop\n        /* \"@openzeppelin/contracts/access/AccessControl.sol\":6927:6939  _msgSender() */\n      tag_456\n        /* \"@openzeppelin/contracts/access/AccessControl.sol\":6927:6937  _msgSender */\n      tag_301\n        /* \"@openzeppelin/contracts/access/AccessControl.sol\":6927:6939  _msgSender() */\n      jump\t// in\n    tag_456:\n        /* \"@openzeppelin/contracts/access/AccessControl.sol\":6900:6940  RoleRevoked(role, account, _msgSender()) */\n      0xffffffffffffffffffffffffffffffffffffffff\n      and\n        /* \"@openzeppelin/contracts/access/AccessControl.sol\":6918:6925  account */\n      dup3\n        /* \"@openzeppelin/contracts/access/AccessControl.sol\":6900:6940  RoleRevoked(role, account, _msgSender()) */\n      0xffffffffffffffffffffffffffffffffffffffff\n      and\n        /* \"@openzeppelin/contracts/access/AccessControl.sol\":6912:6916  role */\n      dup5\n        /* \"@openzeppelin/contracts/access/AccessControl.sol\":6900:6940  RoleRevoked(role, account, _msgSender()) */\n      0xf6391f5c32d9c69d2a47ea670b442974b53935d1edc7fd64eb21e047a839171b\n      mload(0x40)\n      mload(0x40)\n      dup1\n      swap2\n      sub\n      swap1\n      log4\n        /* \"@openzeppelin/contracts/access/AccessControl.sol\":6961:6965  true */\n      0x01\n        /* \"@openzeppelin/contracts/access/AccessControl.sol\":6954:6965  return true */\n      swap1\n      pop\n      jump(tag_453)\n        /* \"@openzeppelin/contracts/access/AccessControl.sol\":6802:7019  if (hasRole(role, account)) {... */\n    tag_455:\n        /* \"@openzeppelin/contracts/access/AccessControl.sol\":7003:7008  false */\n      0x00\n        /* \"@openzeppelin/contracts/access/AccessControl.sol\":6996:7008  return false */\n      swap1\n      pop\n        /* \"@openzeppelin/contracts/access/AccessControl.sol\":6708:7025  function _revokeRole(bytes32 role, address account) internal virtual returns (bool) {... */\n    tag_453:\n      swap3\n      swap2\n      pop\n      pop\n      jump\t// out\n        /* \"@openzeppelin/contracts/access/AccessControl.sol\":3408:3605  function _checkRole(bytes32 role, address account) internal view virtual {... */\n    tag_435:\n        /* \"@openzeppelin/contracts/access/AccessControl.sol\":3496:3518  hasRole(role, account) */\n      tag_459\n        /* \"@openzeppelin/contracts/access/AccessControl.sol\":3504:3508  role */\n      dup3\n        /* \"@openzeppelin/contracts/access/AccessControl.sol\":3510:3517  account */\n      dup3\n        /* \"@openzeppelin/contracts/access/AccessControl.sol\":3496:3503  hasRole */\n      tag_142\n        /* \"@openzeppelin/contracts/access/AccessControl.sol\":3496:3518  hasRole(role, account) */\n      jump\t// in\n    tag_459:\n        /* \"@openzeppelin/contracts/access/AccessControl.sol\":3491:3599  if (!hasRole(role, account)) {... */\n      tag_460\n      jumpi\n        /* \"@openzeppelin/contracts/access/AccessControl.sol\":3574:3581  account */\n      dup1\n        /* \"@openzeppelin/contracts/access/AccessControl.sol\":3583:3587  role */\n      dup3\n        /* \"@openzeppelin/contracts/access/AccessControl.sol\":3541:3588  AccessControlUnauthorizedAccount(account, role) */\n      mload(0x40)\n      0xe2517d3f00000000000000000000000000000000000000000000000000000000\n      dup2\n      mstore\n      0x04\n      add\n      tag_461\n      swap3\n      swap2\n      swap1\n      tag_462\n      jump\t// in\n    tag_461:\n      mload(0x40)\n      dup1\n      swap2\n      sub\n      swap1\n      revert\n        /* \"@openzeppelin/contracts/access/AccessControl.sol\":3491:3599  if (!hasRole(role, account)) {... */\n    tag_460:\n        /* \"@openzeppelin/contracts/access/AccessControl.sol\":3408:3605  function _checkRole(bytes32 role, address account) internal view virtual {... */\n      pop\n      pop\n      jump\t// out\n        /* \"@openzeppelin/contracts/utils/ReentrancyGuard.sol\":3586:3743  function _nonReentrantBeforeView() private view {... */\n    tag_444:\n        /* \"@openzeppelin/contracts/utils/ReentrancyGuard.sol\":3648:3673  _reentrancyGuardEntered() */\n      tag_464\n        /* \"@openzeppelin/contracts/utils/ReentrancyGuard.sol\":3648:3671  _reentrancyGuardEntered */\n      tag_465\n        /* \"@openzeppelin/contracts/utils/ReentrancyGuard.sol\":3648:3673  _reentrancyGuardEntered() */\n      jump\t// in\n    tag_464:\n        /* \"@openzeppelin/contracts/utils/ReentrancyGuard.sol\":3644:3737  if (_reentrancyGuardEntered()) {... */\n      iszero\n      tag_466\n      jumpi\n        /* \"@openzeppelin/contracts/utils/ReentrancyGuard.sol\":3696:3726  ReentrancyGuardReentrantCall() */\n      mload(0x40)\n      0x3ee5aeb500000000000000000000000000000000000000000000000000000000\n      dup2\n      mstore\n      0x04\n      add\n      mload(0x40)\n      dup1\n      swap2\n      sub\n      swap1\n      revert\n        /* \"@openzeppelin/contracts/utils/ReentrancyGuard.sol\":3644:3737  if (_reentrancyGuardEntered()) {... */\n    tag_466:\n        /* \"@openzeppelin/contracts/utils/ReentrancyGuard.sol\":3586:3743  function _nonReentrantBeforeView() private view {... */\n      jump\t// out\n        /* \"@openzeppelin/contracts/utils/ReentrancyGuard.sol\":4636:4763  function _reentrancyGuardStorageSlot() internal pure virtual returns (bytes32) {... */\n    tag_447:\n        /* \"@openzeppelin/contracts/utils/ReentrancyGuard.sol\":4706:4713  bytes32 */\n      0x00\n        /* \"@openzeppelin/contracts/utils/ReentrancyGuard.sol\":1505:1571  0x9b779b17422d0df92223018b32b4d1fa46e071723d6817e2486d003becc55f00 */\n      0x9b779b17422d0df92223018b32b4d1fa46e071723d6817e2486d003becc55f00\n        /* \"@openzeppelin/contracts/utils/ReentrancyGuard.sol\":4732:4756  REENTRANCY_GUARD_STORAGE */\n      0x00\n      shl\n        /* \"@openzeppelin/contracts/utils/ReentrancyGuard.sol\":4725:4756  return REENTRANCY_GUARD_STORAGE */\n      swap1\n      pop\n        /* \"@openzeppelin/contracts/utils/ReentrancyGuard.sol\":4636:4763  function _reentrancyGuardStorageSlot() internal pure virtual returns (bytes32) {... */\n      swap1\n      jump\t// out\n        /* \"@openzeppelin/contracts/utils/StorageSlot.sol\":2679:2842  function getUint256Slot(bytes32 slot) internal pure returns (Uint256Slot storage r) {... */\n    tag_448:\n        /* \"@openzeppelin/contracts/utils/StorageSlot.sol\":2740:2761  Uint256Slot storage r */\n      0x00\n        /* \"@openzeppelin/contracts/utils/StorageSlot.sol\":2822:2826  slot */\n      dup2\n        /* \"@openzeppelin/contracts/utils/StorageSlot.sol\":2812:2826  r.slot := slot */\n      swap1\n      pop\n        /* \"@openzeppelin/contracts/utils/StorageSlot.sol\":2679:2842  function getUint256Slot(bytes32 slot) internal pure returns (Uint256Slot storage r) {... */\n      swap2\n      swap1\n      pop\n      jump\t// out\n        /* \"@openzeppelin/contracts/utils/ReentrancyGuard.sol\":4479:4630  function _reentrancyGuardEntered() internal view returns (bool) {... */\n    tag_465:\n        /* \"@openzeppelin/contracts/utils/ReentrancyGuard.sol\":4537:4541  bool */\n      0x00\n        /* \"@openzeppelin/contracts/utils/ReentrancyGuard.sol\":2407:2408  2 */\n      0x02\n        /* \"@openzeppelin/contracts/utils/ReentrancyGuard.sol\":4560:4606  _reentrancyGuardStorageSlot().getUint256Slot() */\n      tag_470\n        /* \"@openzeppelin/contracts/utils/ReentrancyGuard.sol\":4560:4589  _reentrancyGuardStorageSlot() */\n      tag_471\n        /* \"@openzeppelin/contracts/utils/ReentrancyGuard.sol\":4560:4587  _reentrancyGuardStorageSlot */\n      tag_447\n        /* \"@openzeppelin/contracts/utils/ReentrancyGuard.sol\":4560:4589  _reentrancyGuardStorageSlot() */\n      jump\t// in\n    tag_471:\n        /* \"@openzeppelin/contracts/utils/ReentrancyGuard.sol\":4560:4604  _reentrancyGuardStorageSlot().getUint256Slot */\n      tag_448\n        /* \"@openzeppelin/contracts/utils/ReentrancyGuard.sol\":4560:4606  _reentrancyGuardStorageSlot().getUint256Slot() */\n      jump\t// in\n    tag_470:\n        /* \"@openzeppelin/contracts/utils/ReentrancyGuard.sol\":4560:4612  _reentrancyGuardStorageSlot().getUint256Slot().value */\n      0x00\n      add\n      sload\n        /* \"@openzeppelin/contracts/utils/ReentrancyGuard.sol\":4560:4623  _reentrancyGuardStorageSlot().getUint256Slot().value == ENTERED */\n      eq\n        /* \"@openzeppelin/contracts/utils/ReentrancyGuard.sol\":4553:4623  return _reentrancyGuardStorageSlot().getUint256Slot().value == ENTERED */\n      swap1\n      pop\n        /* \"@openzeppelin/contracts/utils/ReentrancyGuard.sol\":4479:4630  function _reentrancyGuardEntered() internal view returns (bool) {... */\n      swap1\n      jump\t// out\n        /* \"#utility.yul\":7:176   */\n    tag_472:\n        /* \"#utility.yul\":91:102   */\n      0x00\n        /* \"#utility.yul\":125:131   */\n      dup3\n        /* \"#utility.yul\":120:123   */\n      dup3\n        /* \"#utility.yul\":113:132   */\n      mstore\n        /* \"#utility.yul\":165:169   */\n      0x20\n        /* \"#utility.yul\":160:163   */\n      dup3\n        /* \"#utility.yul\":156:170   */\n      add\n        /* \"#utility.yul\":141:170   */\n      swap1\n      pop\n        /* \"#utility.yul\":7:176   */\n      swap3\n      swap2\n      pop\n      pop\n      jump\t// out\n        /* \"#utility.yul\":182:408   */\n    tag_473:\n        /* \"#utility.yul\":322:356   */\n      0x446972656374206465706f736974732064697361626c65643b20757365206465\n        /* \"#utility.yul\":318:319   */\n      0x00\n        /* \"#utility.yul\":310:316   */\n      dup3\n        /* \"#utility.yul\":306:320   */\n      add\n        /* \"#utility.yul\":299:357   */\n      mstore\n        /* \"#utility.yul\":391:400   */\n      0x706f736974282900000000000000000000000000000000000000000000000000\n        /* \"#utility.yul\":386:388   */\n      0x20\n        /* \"#utility.yul\":378:384   */\n      dup3\n        /* \"#utility.yul\":374:389   */\n      add\n        /* \"#utility.yul\":367:401   */\n      mstore\n        /* \"#utility.yul\":182:408   */\n      pop\n      jump\t// out\n        /* \"#utility.yul\":414:780   */\n    tag_474:\n        /* \"#utility.yul\":556:559   */\n      0x00\n        /* \"#utility.yul\":577:644   */\n      tag_564\n        /* \"#utility.yul\":641:643   */\n      0x27\n        /* \"#utility.yul\":636:639   */\n      dup4\n        /* \"#utility.yul\":577:644   */\n      tag_472\n      jump\t// in\n    tag_564:\n        /* \"#utility.yul\":570:644   */\n      swap2\n      pop\n        /* \"#utility.yul\":653:746   */\n      tag_565\n        /* \"#utility.yul\":742:745   */\n      dup3\n        /* \"#utility.yul\":653:746   */\n      tag_473\n      jump\t// in\n    tag_565:\n        /* \"#utility.yul\":771:773   */\n      0x40\n        /* \"#utility.yul\":766:769   */\n      dup3\n        /* \"#utility.yul\":762:774   */\n      add\n        /* \"#utility.yul\":755:774   */\n      swap1\n      pop\n        /* \"#utility.yul\":414:780   */\n      swap2\n      swap1\n      pop\n      jump\t// out\n        /* \"#utility.yul\":786:1205   */\n    tag_48:\n        /* \"#utility.yul\":952:956   */\n      0x00\n        /* \"#utility.yul\":990:992   */\n      0x20\n        /* \"#utility.yul\":979:988   */\n      dup3\n        /* \"#utility.yul\":975:993   */\n      add\n        /* \"#utility.yul\":967:993   */\n      swap1\n      pop\n        /* \"#utility.yul\":1039:1048   */\n      dup2\n        /* \"#utility.yul\":1033:1037   */\n      dup2\n        /* \"#utility.yul\":1029:1049   */\n      sub\n        /* \"#utility.yul\":1025:1026   */\n      0x00\n        /* \"#utility.yul\":1014:1023   */\n      dup4\n        /* \"#utility.yul\":1010:1027   */\n      add\n        /* \"#utility.yul\":1003:1050   */\n      mstore\n        /* \"#utility.yul\":1067:1198   */\n      tag_567\n        /* \"#utility.yul\":1193:1197   */\n      dup2\n        /* \"#utility.yul\":1067:1198   */\n      tag_474\n      jump\t// in\n    tag_567:\n        /* \"#utility.yul\":1059:1198   */\n      swap1\n      pop\n        /* \"#utility.yul\":786:1205   */\n      swap2\n      swap1\n      pop\n      jump\t// out\n        /* \"#utility.yul\":1211:1384   */\n    tag_475:\n        /* \"#utility.yul\":1351:1376   */\n      0x46616c6c6261636b3a20757365206465706f7369742829000000000000000000\n        /* \"#utility.yul\":1347:1348   */\n      0x00\n        /* \"#utility.yul\":1339:1345   */\n      dup3\n        /* \"#utility.yul\":1335:1349   */\n      add\n        /* \"#utility.yul\":1328:1377   */\n      mstore\n        /* \"#utility.yul\":1211:1384   */\n      pop\n      jump\t// out\n        /* \"#utility.yul\":1390:1756   */\n    tag_476:\n        /* \"#utility.yul\":1532:1535   */\n      0x00\n        /* \"#utility.yul\":1553:1620   */\n      tag_570\n        /* \"#utility.yul\":1617:1619   */\n      0x17\n        /* \"#utility.yul\":1612:1615   */\n      dup4\n        /* \"#utility.yul\":1553:1620   */\n      tag_472\n      jump\t// in\n    tag_570:\n        /* \"#utility.yul\":1546:1620   */\n      swap2\n      pop\n        /* \"#utility.yul\":1629:1722   */\n      tag_571\n        /* \"#utility.yul\":1718:1721   */\n      dup3\n        /* \"#utility.yul\":1629:1722   */\n      tag_475\n      jump\t// in\n    tag_571:\n        /* \"#utility.yul\":1747:1749   */\n      0x20\n        /* \"#utility.yul\":1742:1745   */\n      dup3\n        /* \"#utility.yul\":1738:1750   */\n      add\n        /* \"#utility.yul\":1731:1750   */\n      swap1\n      pop\n        /* \"#utility.yul\":1390:1756   */\n      swap2\n      swap1\n      pop\n      jump\t// out\n        /* \"#utility.yul\":1762:2181   */\n    tag_52:\n        /* \"#utility.yul\":1928:1932   */\n      0x00\n        /* \"#utility.yul\":1966:1968   */\n      0x20\n        /* \"#utility.yul\":1955:1964   */\n      dup3\n        /* \"#utility.yul\":1951:1969   */\n      add\n        /* \"#utility.yul\":1943:1969   */\n      swap1\n      pop\n        /* \"#utility.yul\":2015:2024   */\n      dup2\n        /* \"#utility.yul\":2009:2013   */\n      dup2\n        /* \"#utility.yul\":2005:2025   */\n      sub\n        /* \"#utility.yul\":2001:2002   */\n      0x00\n        /* \"#utility.yul\":1990:1999   */\n      dup4\n        /* \"#utility.yul\":1986:2003   */\n      add\n        /* \"#utility.yul\":1979:2026   */\n      mstore\n        /* \"#utility.yul\":2043:2174   */\n      tag_573\n        /* \"#utility.yul\":2169:2173   */\n      dup2\n        /* \"#utility.yul\":2043:2174   */\n      tag_476\n      jump\t// in\n    tag_573:\n        /* \"#utility.yul\":2035:2174   */\n      swap1\n      pop\n        /* \"#utility.yul\":1762:2181   */\n      swap2\n      swap1\n      pop\n      jump\t// out\n        /* \"#utility.yul\":2268:2385   */\n    tag_478:\n        /* \"#utility.yul\":2377:2378   */\n      0x00\n        /* \"#utility.yul\":2374:2375   */\n      0x00\n        /* \"#utility.yul\":2367:2379   */\n      revert\n        /* \"#utility.yul\":2514:2591   */\n    tag_480:\n        /* \"#utility.yul\":2551:2558   */\n      0x00\n        /* \"#utility.yul\":2580:2585   */\n      dup2\n        /* \"#utility.yul\":2569:2585   */\n      swap1\n      pop\n        /* \"#utility.yul\":2514:2591   */\n      swap2\n      swap1\n      pop\n      jump\t// out\n        /* \"#utility.yul\":2597:2719   */\n    tag_481:\n        /* \"#utility.yul\":2670:2694   */\n      tag_579\n        /* \"#utility.yul\":2688:2693   */\n      dup2\n        /* \"#utility.yul\":2670:2694   */\n      tag_480\n      jump\t// in\n    tag_579:\n        /* \"#utility.yul\":2663:2668   */\n      dup2\n        /* \"#utility.yul\":2660:2695   */\n      eq\n        /* \"#utility.yul\":2650:2713   */\n      tag_580\n      jumpi\n        /* \"#utility.yul\":2709:2710   */\n      0x00\n        /* \"#utility.yul\":2706:2707   */\n      0x00\n        /* \"#utility.yul\":2699:2711   */\n      revert\n        /* \"#utility.yul\":2650:2713   */\n    tag_580:\n        /* \"#utility.yul\":2597:2719   */\n      pop\n      jump\t// out\n        /* \"#utility.yul\":2725:2864   */\n    tag_482:\n        /* \"#utility.yul\":2771:2776   */\n      0x00\n        /* \"#utility.yul\":2809:2815   */\n      dup2\n        /* \"#utility.yul\":2796:2816   */\n      calldataload\n        /* \"#utility.yul\":2787:2816   */\n      swap1\n      pop\n        /* \"#utility.yul\":2825:2858   */\n      tag_582\n        /* \"#utility.yul\":2852:2857   */\n      dup2\n        /* \"#utility.yul\":2825:2858   */\n      tag_481\n      jump\t// in\n    tag_582:\n        /* \"#utility.yul\":2725:2864   */\n      swap3\n      swap2\n      pop\n      pop\n      jump\t// out\n        /* \"#utility.yul\":2870:3199   */\n    tag_56:\n        /* \"#utility.yul\":2929:2935   */\n      0x00\n        /* \"#utility.yul\":2978:2980   */\n      0x20\n        /* \"#utility.yul\":2966:2975   */\n      dup3\n        /* \"#utility.yul\":2957:2964   */\n      dup5\n        /* \"#utility.yul\":2953:2976   */\n      sub\n        /* \"#utility.yul\":2949:2981   */\n      slt\n        /* \"#utility.yul\":2946:3065   */\n      iszero\n      tag_584\n      jumpi\n        /* \"#utility.yul\":2984:3063   */\n      tag_585\n      tag_478\n      jump\t// in\n    tag_585:\n        /* \"#utility.yul\":2946:3065   */\n    tag_584:\n        /* \"#utility.yul\":3104:3105   */\n      0x00\n        /* \"#utility.yul\":3129:3182   */\n      tag_586\n        /* \"#utility.yul\":3174:3181   */\n      dup5\n        /* \"#utility.yul\":3165:3171   */\n      dup3\n        /* \"#utility.yul\":3154:3163   */\n      dup6\n        /* \"#utility.yul\":3150:3172   */\n      add\n        /* \"#utility.yul\":3129:3182   */\n      tag_482\n      jump\t// in\n    tag_586:\n        /* \"#utility.yul\":3119:3182   */\n      swap2\n      pop\n        /* \"#utility.yul\":3075:3192   */\n      pop\n        /* \"#utility.yul\":2870:3199   */\n      swap3\n      swap2\n      pop\n      pop\n      jump\t// out\n        /* \"#utility.yul\":3205:3354   */\n    tag_483:\n        /* \"#utility.yul\":3241:3248   */\n      0x00\n        /* \"#utility.yul\":3281:3347   */\n      0xffffffff00000000000000000000000000000000000000000000000000000000\n        /* \"#utility.yul\":3274:3279   */\n      dup3\n        /* \"#utility.yul\":3270:3348   */\n      and\n        /* \"#utility.yul\":3259:3348   */\n      swap1\n      pop\n        /* \"#utility.yul\":3205:3354   */\n      swap2\n      swap1\n      pop\n      jump\t// out\n        /* \"#utility.yul\":3360:3480   */\n    tag_484:\n        /* \"#utility.yul\":3432:3455   */\n      tag_589\n        /* \"#utility.yul\":3449:3454   */\n      dup2\n        /* \"#utility.yul\":3432:3455   */\n      tag_483\n      jump\t// in\n    tag_589:\n        /* \"#utility.yul\":3425:3430   */\n      dup2\n        /* \"#utility.yul\":3422:3456   */\n      eq\n        /* \"#utility.yul\":3412:3474   */\n      tag_590\n      jumpi\n        /* \"#utility.yul\":3470:3471   */\n      0x00\n        /* \"#utility.yul\":3467:3468   */\n      0x00\n        /* \"#utility.yul\":3460:3472   */\n      revert\n        /* \"#utility.yul\":3412:3474   */\n    tag_590:\n        /* \"#utility.yul\":3360:3480   */\n      pop\n      jump\t// out\n        /* \"#utility.yul\":3486:3623   */\n    tag_485:\n        /* \"#utility.yul\":3531:3536   */\n      0x00\n        /* \"#utility.yul\":3569:3575   */\n      dup2\n        /* \"#utility.yul\":3556:3576   */\n      calldataload\n        /* \"#utility.yul\":3547:3576   */\n      swap1\n      pop\n        /* \"#utility.yul\":3585:3617   */\n      tag_592\n        /* \"#utility.yul\":3611:3616   */\n      dup2\n        /* \"#utility.yul\":3585:3617   */\n      tag_484\n      jump\t// in\n    tag_592:\n        /* \"#utility.yul\":3486:3623   */\n      swap3\n      swap2\n      pop\n      pop\n      jump\t// out\n        /* \"#utility.yul\":3629:3956   */\n    tag_61:\n        /* \"#utility.yul\":3687:3693   */\n      0x00\n        /* \"#utility.yul\":3736:3738   */\n      0x20\n        /* \"#utility.yul\":3724:3733   */\n      dup3\n        /* \"#utility.yul\":3715:3722   */\n      dup5\n        /* \"#utility.yul\":3711:3734   */\n      sub\n        /* \"#utility.yul\":3707:3739   */\n      slt\n        /* \"#utility.yul\":3704:3823   */\n      iszero\n      tag_594\n      jumpi\n        /* \"#utility.yul\":3742:3821   */\n      tag_595\n      tag_478\n      jump\t// in\n    tag_595:\n        /* \"#utility.yul\":3704:3823   */\n    tag_594:\n        /* \"#utility.yul\":3862:3863   */\n      0x00\n        /* \"#utility.yul\":3887:3939   */\n      tag_596\n        /* \"#utility.yul\":3931:3938   */\n      dup5\n        /* \"#utility.yul\":3922:3928   */\n      dup3\n        /* \"#utility.yul\":3911:3920   */\n      dup6\n        /* \"#utility.yul\":3907:3929   */\n      add\n        /* \"#utility.yul\":3887:3939   */\n      tag_485\n      jump\t// in\n    tag_596:\n        /* \"#utility.yul\":3877:3939   */\n      swap2\n      pop\n        /* \"#utility.yul\":3833:3949   */\n      pop\n        /* \"#utility.yul\":3629:3956   */\n      swap3\n      swap2\n      pop\n      pop\n      jump\t// out\n        /* \"#utility.yul\":3962:4052   */\n    tag_486:\n        /* \"#utility.yul\":3996:4003   */\n      0x00\n        /* \"#utility.yul\":4039:4044   */\n      dup2\n        /* \"#utility.yul\":4032:4045   */\n      iszero\n        /* \"#utility.yul\":4025:4046   */\n      iszero\n        /* \"#utility.yul\":4014:4046   */\n      swap1\n      pop\n        /* \"#utility.yul\":3962:4052   */\n      swap2\n      swap1\n      pop\n      jump\t// out\n        /* \"#utility.yul\":4058:4167   */\n    tag_487:\n        /* \"#utility.yul\":4139:4160   */\n      tag_599\n        /* \"#utility.yul\":4154:4159   */\n      dup2\n        /* \"#utility.yul\":4139:4160   */\n      tag_486\n      jump\t// in\n    tag_599:\n        /* \"#utility.yul\":4134:4137   */\n      dup3\n        /* \"#utility.yul\":4127:4161   */\n      mstore\n        /* \"#utility.yul\":4058:4167   */\n      pop\n      pop\n      jump\t// out\n        /* \"#utility.yul\":4173:4383   */\n    tag_64:\n        /* \"#utility.yul\":4260:4264   */\n      0x00\n        /* \"#utility.yul\":4298:4300   */\n      0x20\n        /* \"#utility.yul\":4287:4296   */\n      dup3\n        /* \"#utility.yul\":4283:4301   */\n      add\n        /* \"#utility.yul\":4275:4301   */\n      swap1\n      pop\n        /* \"#utility.yul\":4311:4376   */\n      tag_601\n        /* \"#utility.yul\":4373:4374   */\n      0x00\n        /* \"#utility.yul\":4362:4371   */\n      dup4\n        /* \"#utility.yul\":4358:4375   */\n      add\n        /* \"#utility.yul\":4349:4355   */\n      dup5\n        /* \"#utility.yul\":4311:4376   */\n      tag_487\n      jump\t// in\n    tag_601:\n        /* \"#utility.yul\":4173:4383   */\n      swap3\n      swap2\n      pop\n      pop\n      jump\t// out\n        /* \"#utility.yul\":4389:4507   */\n    tag_488:\n        /* \"#utility.yul\":4476:4500   */\n      tag_603\n        /* \"#utility.yul\":4494:4499   */\n      dup2\n        /* \"#utility.yul\":4476:4500   */\n      tag_480\n      jump\t// in\n    tag_603:\n        /* \"#utility.yul\":4471:4474   */\n      dup3\n        /* \"#utility.yul\":4464:4501   */\n      mstore\n        /* \"#utility.yul\":4389:4507   */\n      pop\n      pop\n      jump\t// out\n        /* \"#utility.yul\":4513:4735   */\n    tag_72:\n        /* \"#utility.yul\":4606:4610   */\n      0x00\n        /* \"#utility.yul\":4644:4646   */\n      0x20\n        /* \"#utility.yul\":4633:4642   */\n      dup3\n        /* \"#utility.yul\":4629:4647   */\n      add\n        /* \"#utility.yul\":4621:4647   */\n      swap1\n      pop\n        /* \"#utility.yul\":4657:4728   */\n      tag_605\n        /* \"#utility.yul\":4725:4726   */\n      0x00\n        /* \"#utility.yul\":4714:4723   */\n      dup4\n        /* \"#utility.yul\":4710:4727   */\n      add\n        /* \"#utility.yul\":4701:4707   */\n      dup5\n        /* \"#utility.yul\":4657:4728   */\n      tag_488\n      jump\t// in\n    tag_605:\n        /* \"#utility.yul\":4513:4735   */\n      swap3\n      swap2\n      pop\n      pop\n      jump\t// out\n        /* \"#utility.yul\":4741:4867   */\n    tag_489:\n        /* \"#utility.yul\":4778:4785   */\n      0x00\n        /* \"#utility.yul\":4818:4860   */\n      0xffffffffffffffffffffffffffffffffffffffff\n        /* \"#utility.yul\":4811:4816   */\n      dup3\n        /* \"#utility.yul\":4807:4861   */\n      and\n        /* \"#utility.yul\":4796:4861   */\n      swap1\n      pop\n        /* \"#utility.yul\":4741:4867   */\n      swap2\n      swap1\n      pop\n      jump\t// out\n        /* \"#utility.yul\":4873:4969   */\n    tag_490:\n        /* \"#utility.yul\":4910:4917   */\n      0x00\n        /* \"#utility.yul\":4939:4963   */\n      tag_608\n        /* \"#utility.yul\":4957:4962   */\n      dup3\n        /* \"#utility.yul\":4939:4963   */\n      tag_489\n      jump\t// in\n    tag_608:\n        /* \"#utility.yul\":4928:4963   */\n      swap1\n      pop\n        /* \"#utility.yul\":4873:4969   */\n      swap2\n      swap1\n      pop\n      jump\t// out\n        /* \"#utility.yul\":4975:5097   */\n    tag_491:\n        /* \"#utility.yul\":5048:5072   */\n      tag_610\n        /* \"#utility.yul\":5066:5071   */\n      dup2\n        /* \"#utility.yul\":5048:5072   */\n      tag_490\n      jump\t// in\n    tag_610:\n        /* \"#utility.yul\":5041:5046   */\n      dup2\n        /* \"#utility.yul\":5038:5073   */\n      eq\n        /* \"#utility.yul\":5028:5091   */\n      tag_611\n      jumpi\n        /* \"#utility.yul\":5087:5088   */\n      0x00\n        /* \"#utility.yul\":5084:5085   */\n      0x00\n        /* \"#utility.yul\":5077:5089   */\n      revert\n        /* \"#utility.yul\":5028:5091   */\n    tag_611:\n        /* \"#utility.yul\":4975:5097   */\n      pop\n      jump\t// out\n        /* \"#utility.yul\":5103:5242   */\n    tag_492:\n        /* \"#utility.yul\":5149:5154   */\n      0x00\n        /* \"#utility.yul\":5187:5193   */\n      dup2\n        /* \"#utility.yul\":5174:5194   */\n      calldataload\n        /* \"#utility.yul\":5165:5194   */\n      swap1\n      pop\n        /* \"#utility.yul\":5203:5236   */\n      tag_613\n        /* \"#utility.yul\":5230:5235   */\n      dup2\n        /* \"#utility.yul\":5203:5236   */\n      tag_491\n      jump\t// in\n    tag_613:\n        /* \"#utility.yul\":5103:5242   */\n      swap3\n      swap2\n      pop\n      pop\n      jump\t// out\n        /* \"#utility.yul\":5248:5722   */\n    tag_80:\n        /* \"#utility.yul\":5316:5322   */\n      0x00\n        /* \"#utility.yul\":5324:5330   */\n      0x00\n        /* \"#utility.yul\":5373:5375   */\n      0x40\n        /* \"#utility.yul\":5361:5370   */\n      dup4\n        /* \"#utility.yul\":5352:5359   */\n      dup6\n        /* \"#utility.yul\":5348:5371   */\n      sub\n        /* \"#utility.yul\":5344:5376   */\n      slt\n        /* \"#utility.yul\":5341:5460   */\n      iszero\n      tag_615\n      jumpi\n        /* \"#utility.yul\":5379:5458   */\n      tag_616\n      tag_478\n      jump\t// in\n    tag_616:\n        /* \"#utility.yul\":5341:5460   */\n    tag_615:\n        /* \"#utility.yul\":5499:5500   */\n      0x00\n        /* \"#utility.yul\":5524:5577   */\n      tag_617\n        /* \"#utility.yul\":5569:5576   */\n      dup6\n        /* \"#utility.yul\":5560:5566   */\n      dup3\n        /* \"#utility.yul\":5549:5558   */\n      dup7\n        /* \"#utility.yul\":5545:5567   */\n      add\n        /* \"#utility.yul\":5524:5577   */\n      tag_492\n      jump\t// in\n    tag_617:\n        /* \"#utility.yul\":5514:5577   */\n      swap3\n      pop\n        /* \"#utility.yul\":5470:5587   */\n      pop\n        /* \"#utility.yul\":5626:5628   */\n      0x20\n        /* \"#utility.yul\":5652:5705   */\n      tag_618\n        /* \"#utility.yul\":5697:5704   */\n      dup6\n        /* \"#utility.yul\":5688:5694   */\n      dup3\n        /* \"#utility.yul\":5677:5686   */\n      dup7\n        /* \"#utility.yul\":5673:5695   */\n      add\n        /* \"#utility.yul\":5652:5705   */\n      tag_492\n      jump\t// in\n    tag_618:\n        /* \"#utility.yul\":5642:5705   */\n      swap2\n      pop\n        /* \"#utility.yul\":5597:5715   */\n      pop\n        /* \"#utility.yul\":5248:5722   */\n      swap3\n      pop\n      swap3\n      swap1\n      pop\n      jump\t// out\n        /* \"#utility.yul\":5728:5805   */\n    tag_493:\n        /* \"#utility.yul\":5765:5772   */\n      0x00\n        /* \"#utility.yul\":5794:5799   */\n      dup2\n        /* \"#utility.yul\":5783:5799   */\n      swap1\n      pop\n        /* \"#utility.yul\":5728:5805   */\n      swap2\n      swap1\n      pop\n      jump\t// out\n        /* \"#utility.yul\":5811:5933   */\n    tag_494:\n        /* \"#utility.yul\":5884:5908   */\n      tag_621\n        /* \"#utility.yul\":5902:5907   */\n      dup2\n        /* \"#utility.yul\":5884:5908   */\n      tag_493\n      jump\t// in\n    tag_621:\n        /* \"#utility.yul\":5877:5882   */\n      dup2\n        /* \"#utility.yul\":5874:5909   */\n      eq\n        /* \"#utility.yul\":5864:5927   */\n      tag_622\n      jumpi\n        /* \"#utility.yul\":5923:5924   */\n      0x00\n        /* \"#utility.yul\":5920:5921   */\n      0x00\n        /* \"#utility.yul\":5913:5925   */\n      revert\n        /* \"#utility.yul\":5864:5927   */\n    tag_622:\n        /* \"#utility.yul\":5811:5933   */\n      pop\n      jump\t// out\n        /* \"#utility.yul\":5939:6078   */\n    tag_495:\n        /* \"#utility.yul\":5985:5990   */\n      0x00\n        /* \"#utility.yul\":6023:6029   */\n      dup2\n        /* \"#utility.yul\":6010:6030   */\n      calldataload\n        /* \"#utility.yul\":6001:6030   */\n      swap1\n      pop\n        /* \"#utility.yul\":6039:6072   */\n      tag_624\n        /* \"#utility.yul\":6066:6071   */\n      dup2\n        /* \"#utility.yul\":6039:6072   */\n      tag_494\n      jump\t// in\n    tag_624:\n        /* \"#utility.yul\":5939:6078   */\n      swap3\n      swap2\n      pop\n      pop\n      jump\t// out\n        /* \"#utility.yul\":6084:6413   */\n    tag_86:\n        /* \"#utility.yul\":6143:6149   */\n      0x00\n        /* \"#utility.yul\":6192:6194   */\n      0x20\n        /* \"#utility.yul\":6180:6189   */\n      dup3\n        /* \"#utility.yul\":6171:6178   */\n      dup5\n        /* \"#utility.yul\":6167:6190   */\n      sub\n        /* \"#utility.yul\":6163:6195   */\n      slt\n        /* \"#utility.yul\":6160:6279   */\n      iszero\n      tag_626\n      jumpi\n        /* \"#utility.yul\":6198:6277   */\n      tag_627\n      tag_478\n      jump\t// in\n    tag_627:\n        /* \"#utility.yul\":6160:6279   */\n    tag_626:\n        /* \"#utility.yul\":6318:6319   */\n      0x00\n        /* \"#utility.yul\":6343:6396   */\n      tag_628\n        /* \"#utility.yul\":6388:6395   */\n      dup5\n        /* \"#utility.yul\":6379:6385   */\n      dup3\n        /* \"#utility.yul\":6368:6377   */\n      dup6\n        /* \"#utility.yul\":6364:6386   */\n      add\n        /* \"#utility.yul\":6343:6396   */\n      tag_495\n      jump\t// in\n    tag_628:\n        /* \"#utility.yul\":6333:6396   */\n      swap2\n      pop\n        /* \"#utility.yul\":6289:6406   */\n      pop\n        /* \"#utility.yul\":6084:6413   */\n      swap3\n      swap2\n      pop\n      pop\n      jump\t// out\n        /* \"#utility.yul\":6419:6537   */\n    tag_496:\n        /* \"#utility.yul\":6506:6530   */\n      tag_630\n        /* \"#utility.yul\":6524:6529   */\n      dup2\n        /* \"#utility.yul\":6506:6530   */\n      tag_493\n      jump\t// in\n    tag_630:\n        /* \"#utility.yul\":6501:6504   */\n      dup3\n        /* \"#utility.yul\":6494:6531   */\n      mstore\n        /* \"#utility.yul\":6419:6537   */\n      pop\n      pop\n      jump\t// out\n        /* \"#utility.yul\":6543:6765   */\n    tag_89:\n        /* \"#utility.yul\":6636:6640   */\n      0x00\n        /* \"#utility.yul\":6674:6676   */\n      0x20\n        /* \"#utility.yul\":6663:6672   */\n      dup3\n        /* \"#utility.yul\":6659:6677   */\n      add\n        /* \"#utility.yul\":6651:6677   */\n      swap1\n      pop\n        /* \"#utility.yul\":6687:6758   */\n      tag_632\n        /* \"#utility.yul\":6755:6756   */\n      0x00\n        /* \"#utility.yul\":6744:6753   */\n      dup4\n        /* \"#utility.yul\":6740:6757   */\n      add\n        /* \"#utility.yul\":6731:6737   */\n      dup5\n        /* \"#utility.yul\":6687:6758   */\n      tag_496\n      jump\t// in\n    tag_632:\n        /* \"#utility.yul\":6543:6765   */\n      swap3\n      swap2\n      pop\n      pop\n      jump\t// out\n        /* \"#utility.yul\":6771:7100   */\n    tag_93:\n        /* \"#utility.yul\":6830:6836   */\n      0x00\n        /* \"#utility.yul\":6879:6881   */\n      0x20\n        /* \"#utility.yul\":6867:6876   */\n      dup3\n        /* \"#utility.yul\":6858:6865   */\n      dup5\n        /* \"#utility.yul\":6854:6877   */\n      sub\n        /* \"#utility.yul\":6850:6882   */\n      slt\n        /* \"#utility.yul\":6847:6966   */\n      iszero\n      tag_634\n      jumpi\n        /* \"#utility.yul\":6885:6964   */\n      tag_635\n      tag_478\n      jump\t// in\n    tag_635:\n        /* \"#utility.yul\":6847:6966   */\n    tag_634:\n        /* \"#utility.yul\":7005:7006   */\n      0x00\n        /* \"#utility.yul\":7030:7083   */\n      tag_636\n        /* \"#utility.yul\":7075:7082   */\n      dup5\n        /* \"#utility.yul\":7066:7072   */\n      dup3\n        /* \"#utility.yul\":7055:7064   */\n      dup6\n        /* \"#utility.yul\":7051:7073   */\n      add\n        /* \"#utility.yul\":7030:7083   */\n      tag_492\n      jump\t// in\n    tag_636:\n        /* \"#utility.yul\":7020:7083   */\n      swap2\n      pop\n        /* \"#utility.yul\":6976:7093   */\n      pop\n        /* \"#utility.yul\":6771:7100   */\n      swap3\n      swap2\n      pop\n      pop\n      jump\t// out\n        /* \"#utility.yul\":7106:7580   */\n    tag_98:\n        /* \"#utility.yul\":7174:7180   */\n      0x00\n        /* \"#utility.yul\":7182:7188   */\n      0x00\n        /* \"#utility.yul\":7231:7233   */\n      0x40\n        /* \"#utility.yul\":7219:7228   */\n      dup4\n        /* \"#utility.yul\":7210:7217   */\n      dup6\n        /* \"#utility.yul\":7206:7229   */\n      sub\n        /* \"#utility.yul\":7202:7234   */\n      slt\n        /* \"#utility.yul\":7199:7318   */\n      iszero\n      tag_638\n      jumpi\n        /* \"#utility.yul\":7237:7316   */\n      tag_639\n      tag_478\n      jump\t// in\n    tag_639:\n        /* \"#utility.yul\":7199:7318   */\n    tag_638:\n        /* \"#utility.yul\":7357:7358   */\n      0x00\n        /* \"#utility.yul\":7382:7435   */\n      tag_640\n        /* \"#utility.yul\":7427:7434   */\n      dup6\n        /* \"#utility.yul\":7418:7424   */\n      dup3\n        /* \"#utility.yul\":7407:7416   */\n      dup7\n        /* \"#utility.yul\":7403:7425   */\n      add\n        /* \"#utility.yul\":7382:7435   */\n      tag_492\n      jump\t// in\n    tag_640:\n        /* \"#utility.yul\":7372:7435   */\n      swap3\n      pop\n        /* \"#utility.yul\":7328:7445   */\n      pop\n        /* \"#utility.yul\":7484:7486   */\n      0x20\n        /* \"#utility.yul\":7510:7563   */\n      tag_641\n        /* \"#utility.yul\":7555:7562   */\n      dup6\n        /* \"#utility.yul\":7546:7552   */\n      dup3\n        /* \"#utility.yul\":7535:7544   */\n      dup7\n        /* \"#utility.yul\":7531:7553   */\n      add\n        /* \"#utility.yul\":7510:7563   */\n      tag_482\n      jump\t// in\n    tag_641:\n        /* \"#utility.yul\":7500:7563   */\n      swap2\n      pop\n        /* \"#utility.yul\":7455:7573   */\n      pop\n        /* \"#utility.yul\":7106:7580   */\n      swap3\n      pop\n      swap3\n      swap1\n      pop\n      jump\t// out\n        /* \"#utility.yul\":7586:8060   */\n    tag_107:\n        /* \"#utility.yul\":7654:7660   */\n      0x00\n        /* \"#utility.yul\":7662:7668   */\n      0x00\n        /* \"#utility.yul\":7711:7713   */\n      0x40\n        /* \"#utility.yul\":7699:7708   */\n      dup4\n        /* \"#utility.yul\":7690:7697   */\n      dup6\n        /* \"#utility.yul\":7686:7709   */\n      sub\n        /* \"#utility.yul\":7682:7714   */\n      slt\n        /* \"#utility.yul\":7679:7798   */\n      iszero\n      tag_643\n      jumpi\n        /* \"#utility.yul\":7717:7796   */\n      tag_644\n      tag_478\n      jump\t// in\n    tag_644:\n        /* \"#utility.yul\":7679:7798   */\n    tag_643:\n        /* \"#utility.yul\":7837:7838   */\n      0x00\n        /* \"#utility.yul\":7862:7915   */\n      tag_645\n        /* \"#utility.yul\":7907:7914   */\n      dup6\n        /* \"#utility.yul\":7898:7904   */\n      dup3\n        /* \"#utility.yul\":7887:7896   */\n      dup7\n        /* \"#utility.yul\":7883:7905   */\n      add\n        /* \"#utility.yul\":7862:7915   */\n      tag_495\n      jump\t// in\n    tag_645:\n        /* \"#utility.yul\":7852:7915   */\n      swap3\n      pop\n        /* \"#utility.yul\":7808:7925   */\n      pop\n        /* \"#utility.yul\":7964:7966   */\n      0x20\n        /* \"#utility.yul\":7990:8043   */\n      tag_646\n        /* \"#utility.yul\":8035:8042   */\n      dup6\n        /* \"#utility.yul\":8026:8032   */\n      dup3\n        /* \"#utility.yul\":8015:8024   */\n      dup7\n        /* \"#utility.yul\":8011:8033   */\n      add\n        /* \"#utility.yul\":7990:8043   */\n      tag_492\n      jump\t// in\n    tag_646:\n        /* \"#utility.yul\":7980:8043   */\n      swap2\n      pop\n        /* \"#utility.yul\":7935:8053   */\n      pop\n        /* \"#utility.yul\":7586:8060   */\n      swap3\n      pop\n      swap3\n      swap1\n      pop\n      jump\t// out\n        /* \"#utility.yul\":8066:8126   */\n    tag_497:\n        /* \"#utility.yul\":8094:8097   */\n      0x00\n        /* \"#utility.yul\":8115:8120   */\n      dup2\n        /* \"#utility.yul\":8108:8120   */\n      swap1\n      pop\n        /* \"#utility.yul\":8066:8126   */\n      swap2\n      swap1\n      pop\n      jump\t// out\n        /* \"#utility.yul\":8132:8274   */\n    tag_498:\n        /* \"#utility.yul\":8182:8191   */\n      0x00\n        /* \"#utility.yul\":8215:8268   */\n      tag_649\n        /* \"#utility.yul\":8233:8267   */\n      tag_650\n        /* \"#utility.yul\":8242:8266   */\n      tag_651\n        /* \"#utility.yul\":8260:8265   */\n      dup5\n        /* \"#utility.yul\":8242:8266   */\n      tag_489\n      jump\t// in\n    tag_651:\n        /* \"#utility.yul\":8233:8267   */\n      tag_497\n      jump\t// in\n    tag_650:\n        /* \"#utility.yul\":8215:8268   */\n      tag_489\n      jump\t// in\n    tag_649:\n        /* \"#utility.yul\":8202:8268   */\n      swap1\n      pop\n        /* \"#utility.yul\":8132:8274   */\n      swap2\n      swap1\n      pop\n      jump\t// out\n        /* \"#utility.yul\":8280:8406   */\n    tag_499:\n        /* \"#utility.yul\":8330:8339   */\n      0x00\n        /* \"#utility.yul\":8363:8400   */\n      tag_653\n        /* \"#utility.yul\":8394:8399   */\n      dup3\n        /* \"#utility.yul\":8363:8400   */\n      tag_498\n      jump\t// in\n    tag_653:\n        /* \"#utility.yul\":8350:8400   */\n      swap1\n      pop\n        /* \"#utility.yul\":8280:8406   */\n      swap2\n      swap1\n      pop\n      jump\t// out\n        /* \"#utility.yul\":8412:8566   */\n    tag_500:\n        /* \"#utility.yul\":8490:8499   */\n      0x00\n        /* \"#utility.yul\":8523:8560   */\n      tag_655\n        /* \"#utility.yul\":8554:8559   */\n      dup3\n        /* \"#utility.yul\":8523:8560   */\n      tag_499\n      jump\t// in\n    tag_655:\n        /* \"#utility.yul\":8510:8560   */\n      swap1\n      pop\n        /* \"#utility.yul\":8412:8566   */\n      swap2\n      swap1\n      pop\n      jump\t// out\n        /* \"#utility.yul\":8572:8759   */\n    tag_501:\n        /* \"#utility.yul\":8687:8752   */\n      tag_657\n        /* \"#utility.yul\":8746:8751   */\n      dup2\n        /* \"#utility.yul\":8687:8752   */\n      tag_500\n      jump\t// in\n    tag_657:\n        /* \"#utility.yul\":8682:8685   */\n      dup3\n        /* \"#utility.yul\":8675:8753   */\n      mstore\n        /* \"#utility.yul\":8572:8759   */\n      pop\n      pop\n      jump\t// out\n        /* \"#utility.yul\":8765:9043   */\n    tag_129:\n        /* \"#utility.yul\":8886:8890   */\n      0x00\n        /* \"#utility.yul\":8924:8926   */\n      0x20\n        /* \"#utility.yul\":8913:8922   */\n      dup3\n        /* \"#utility.yul\":8909:8927   */\n      add\n        /* \"#utility.yul\":8901:8927   */\n      swap1\n      pop\n        /* \"#utility.yul\":8937:9036   */\n      tag_659\n        /* \"#utility.yul\":9033:9034   */\n      0x00\n        /* \"#utility.yul\":9022:9031   */\n      dup4\n        /* \"#utility.yul\":9018:9035   */\n      add\n        /* \"#utility.yul\":9009:9015   */\n      dup5\n        /* \"#utility.yul\":8937:9036   */\n      tag_501\n      jump\t// in\n    tag_659:\n        /* \"#utility.yul\":8765:9043   */\n      swap3\n      swap2\n      pop\n      pop\n      jump\t// out\n        /* \"#utility.yul\":9049:9125   */\n    tag_502:\n        /* \"#utility.yul\":9085:9092   */\n      0x00\n        /* \"#utility.yul\":9114:9119   */\n      dup2\n        /* \"#utility.yul\":9103:9119   */\n      swap1\n      pop\n        /* \"#utility.yul\":9049:9125   */\n      swap2\n      swap1\n      pop\n      jump\t// out\n        /* \"#utility.yul\":9131:9246   */\n    tag_503:\n        /* \"#utility.yul\":9216:9239   */\n      tag_662\n        /* \"#utility.yul\":9233:9238   */\n      dup2\n        /* \"#utility.yul\":9216:9239   */\n      tag_502\n      jump\t// in\n    tag_662:\n        /* \"#utility.yul\":9211:9214   */\n      dup3\n        /* \"#utility.yul\":9204:9240   */\n      mstore\n        /* \"#utility.yul\":9131:9246   */\n      pop\n      pop\n      jump\t// out\n        /* \"#utility.yul\":9252:9470   */\n    tag_138:\n        /* \"#utility.yul\":9343:9347   */\n      0x00\n        /* \"#utility.yul\":9381:9383   */\n      0x20\n        /* \"#utility.yul\":9370:9379   */\n      dup3\n        /* \"#utility.yul\":9366:9384   */\n      add\n        /* \"#utility.yul\":9358:9384   */\n      swap1\n      pop\n        /* \"#utility.yul\":9394:9463   */\n      tag_664\n        /* \"#utility.yul\":9460:9461   */\n      0x00\n        /* \"#utility.yul\":9449:9458   */\n      dup4\n        /* \"#utility.yul\":9445:9462   */\n      add\n        /* \"#utility.yul\":9436:9442   */\n      dup5\n        /* \"#utility.yul\":9394:9463   */\n      tag_503\n      jump\t// in\n    tag_664:\n        /* \"#utility.yul\":9252:9470   */\n      swap3\n      swap2\n      pop\n      pop\n      jump\t// out\n        /* \"#utility.yul\":9476:9648   */\n    tag_504:\n        /* \"#utility.yul\":9616:9640   */\n      0x4e657720636170206d7573742062652068696768657200000000000000000000\n        /* \"#utility.yul\":9612:9613   */\n      0x00\n        /* \"#utility.yul\":9604:9610   */\n      dup3\n        /* \"#utility.yul\":9600:9614   */\n      add\n        /* \"#utility.yul\":9593:9641   */\n      mstore\n        /* \"#utility.yul\":9476:9648   */\n      pop\n      jump\t// out\n        /* \"#utility.yul\":9654:10020   */\n    tag_505:\n        /* \"#utility.yul\":9796:9799   */\n      0x00\n        /* \"#utility.yul\":9817:9884   */\n      tag_667\n        /* \"#utility.yul\":9881:9883   */\n      0x16\n        /* \"#utility.yul\":9876:9879   */\n      dup4\n        /* \"#utility.yul\":9817:9884   */\n      tag_472\n      jump\t// in\n    tag_667:\n        /* \"#utility.yul\":9810:9884   */\n      swap2\n      pop\n        /* \"#utility.yul\":9893:9986   */\n      tag_668\n        /* \"#utility.yul\":9982:9985   */\n      dup3\n        /* \"#utility.yul\":9893:9986   */\n      tag_504\n      jump\t// in\n    tag_668:\n        /* \"#utility.yul\":10011:10013   */\n      0x20\n        /* \"#utility.yul\":10006:10009   */\n      dup3\n        /* \"#utility.yul\":10002:10014   */\n      add\n        /* \"#utility.yul\":9995:10014   */\n      swap1\n      pop\n        /* \"#utility.yul\":9654:10020   */\n      swap2\n      swap1\n      pop\n      jump\t// out\n        /* \"#utility.yul\":10026:10445   */\n    tag_215:\n        /* \"#utility.yul\":10192:10196   */\n      0x00\n        /* \"#utility.yul\":10230:10232   */\n      0x20\n        /* \"#utility.yul\":10219:10228   */\n      dup3\n        /* \"#utility.yul\":10215:10233   */\n      add\n        /* \"#utility.yul\":10207:10233   */\n      swap1\n      pop\n        /* \"#utility.yul\":10279:10288   */\n      dup2\n        /* \"#utility.yul\":10273:10277   */\n      dup2\n        /* \"#utility.yul\":10269:10289   */\n      sub\n        /* \"#utility.yul\":10265:10266   */\n      0x00\n        /* \"#utility.yul\":10254:10263   */\n      dup4\n        /* \"#utility.yul\":10250:10267   */\n      add\n        /* \"#utility.yul\":10243:10290   */\n      mstore\n        /* \"#utility.yul\":10307:10438   */\n      tag_670\n        /* \"#utility.yul\":10433:10437   */\n      dup2\n        /* \"#utility.yul\":10307:10438   */\n      tag_505\n      jump\t// in\n    tag_670:\n        /* \"#utility.yul\":10299:10438   */\n      swap1\n      pop\n        /* \"#utility.yul\":10026:10445   */\n      swap2\n      swap1\n      pop\n      jump\t// out\n        /* \"#utility.yul\":10451:10618   */\n    tag_506:\n        /* \"#utility.yul\":10591:10610   */\n      0x4163636f756e74206e6f7420666f756e64000000000000000000000000000000\n        /* \"#utility.yul\":10587:10588   */\n      0x00\n        /* \"#utility.yul\":10579:10585   */\n      dup3\n        /* \"#utility.yul\":10575:10589   */\n      add\n        /* \"#utility.yul\":10568:10611   */\n      mstore\n        /* \"#utility.yul\":10451:10618   */\n      pop\n      jump\t// out\n        /* \"#utility.yul\":10624:10990   */\n    tag_507:\n        /* \"#utility.yul\":10766:10769   */\n      0x00\n        /* \"#utility.yul\":10787:10854   */\n      tag_673\n        /* \"#utility.yul\":10851:10853   */\n      0x11\n        /* \"#utility.yul\":10846:10849   */\n      dup4\n        /* \"#utility.yul\":10787:10854   */\n      tag_472\n      jump\t// in\n    tag_673:\n        /* \"#utility.yul\":10780:10854   */\n      swap2\n      pop\n        /* \"#utility.yul\":10863:10956   */\n      tag_674\n        /* \"#utility.yul\":10952:10955   */\n      dup3\n        /* \"#utility.yul\":10863:10956   */\n      tag_506\n      jump\t// in\n    tag_674:\n        /* \"#utility.yul\":10981:10983   */\n      0x20\n        /* \"#utility.yul\":10976:10979   */\n      dup3\n        /* \"#utility.yul\":10972:10984   */\n      add\n        /* \"#utility.yul\":10965:10984   */\n      swap1\n      pop\n        /* \"#utility.yul\":10624:10990   */\n      swap2\n      swap1\n      pop\n      jump\t// out\n        /* \"#utility.yul\":10996:11415   */\n    tag_231:\n        /* \"#utility.yul\":11162:11166   */\n      0x00\n        /* \"#utility.yul\":11200:11202   */\n      0x20\n        /* \"#utility.yul\":11189:11198   */\n      dup3\n        /* \"#utility.yul\":11185:11203   */\n      add\n        /* \"#utility.yul\":11177:11203   */\n      swap1\n      pop\n        /* \"#utility.yul\":11249:11258   */\n      dup2\n        /* \"#utility.yul\":11243:11247   */\n      dup2\n        /* \"#utility.yul\":11239:11259   */\n      sub\n        /* \"#utility.yul\":11235:11236   */\n      0x00\n        /* \"#utility.yul\":11224:11233   */\n      dup4\n        /* \"#utility.yul\":11220:11237   */\n      add\n        /* \"#utility.yul\":11213:11260   */\n      mstore\n        /* \"#utility.yul\":11277:11408   */\n      tag_676\n        /* \"#utility.yul\":11403:11407   */\n      dup2\n        /* \"#utility.yul\":11277:11408   */\n      tag_507\n      jump\t// in\n    tag_676:\n        /* \"#utility.yul\":11269:11408   */\n      swap1\n      pop\n        /* \"#utility.yul\":10996:11415   */\n      swap2\n      swap1\n      pop\n      jump\t// out\n        /* \"#utility.yul\":11421:11588   */\n    tag_508:\n        /* \"#utility.yul\":11561:11580   */\n      0x496e76616c696420726563697069656e74000000000000000000000000000000\n        /* \"#utility.yul\":11557:11558   */\n      0x00\n        /* \"#utility.yul\":11549:11555   */\n      dup3\n        /* \"#utility.yul\":11545:11559   */\n      add\n        /* \"#utility.yul\":11538:11581   */\n      mstore\n        /* \"#utility.yul\":11421:11588   */\n      pop\n      jump\t// out\n        /* \"#utility.yul\":11594:11960   */\n    tag_509:\n        /* \"#utility.yul\":11736:11739   */\n      0x00\n        /* \"#utility.yul\":11757:11824   */\n      tag_679\n        /* \"#utility.yul\":11821:11823   */\n      0x11\n        /* \"#utility.yul\":11816:11819   */\n      dup4\n        /* \"#utility.yul\":11757:11824   */\n      tag_472\n      jump\t// in\n    tag_679:\n        /* \"#utility.yul\":11750:11824   */\n      swap2\n      pop\n        /* \"#utility.yul\":11833:11926   */\n      tag_680\n        /* \"#utility.yul\":11922:11925   */\n      dup3\n        /* \"#utility.yul\":11833:11926   */\n      tag_508\n      jump\t// in\n    tag_680:\n        /* \"#utility.yul\":11951:11953   */\n      0x20\n        /* \"#utility.yul\":11946:11949   */\n      dup3\n        /* \"#utility.yul\":11942:11954   */\n      add\n        /* \"#utility.yul\":11935:11954   */\n      swap1\n      pop\n        /* \"#utility.yul\":11594:11960   */\n      swap2\n      swap1\n      pop\n      jump\t// out\n        /* \"#utility.yul\":11966:12385   */\n    tag_246:\n        /* \"#utility.yul\":12132:12136   */\n      0x00\n        /* \"#utility.yul\":12170:12172   */\n      0x20\n        /* \"#utility.yul\":12159:12168   */\n      dup3\n        /* \"#utility.yul\":12155:12173   */\n      add\n        /* \"#utility.yul\":12147:12173   */\n      swap1\n      pop\n        /* \"#utility.yul\":12219:12228   */\n      dup2\n        /* \"#utility.yul\":12213:12217   */\n      dup2\n        /* \"#utility.yul\":12209:12229   */\n      sub\n        /* \"#utility.yul\":12205:12206   */\n      0x00\n        /* \"#utility.yul\":12194:12203   */\n      dup4\n        /* \"#utility.yul\":12190:12207   */\n      add\n        /* \"#utility.yul\":12183:12230   */\n      mstore\n        /* \"#utility.yul\":12247:12378   */\n      tag_682\n        /* \"#utility.yul\":12373:12377   */\n      dup2\n        /* \"#utility.yul\":12247:12378   */\n      tag_509\n      jump\t// in\n    tag_682:\n        /* \"#utility.yul\":12239:12378   */\n      swap1\n      pop\n        /* \"#utility.yul\":11966:12385   */\n      swap2\n      swap1\n      pop\n      jump\t// out\n        /* \"#utility.yul\":12391:12568   */\n    tag_510:\n        /* \"#utility.yul\":12531:12560   */\n      0x43616e6e6f74207472616e7366657220746f20796f757273656c660000000000\n        /* \"#utility.yul\":12527:12528   */\n      0x00\n        /* \"#utility.yul\":12519:12525   */\n      dup3\n        /* \"#utility.yul\":12515:12529   */\n      add\n        /* \"#utility.yul\":12508:12561   */\n      mstore\n        /* \"#utility.yul\":12391:12568   */\n      pop\n      jump\t// out\n        /* \"#utility.yul\":12574:12940   */\n    tag_511:\n        /* \"#utility.yul\":12716:12719   */\n      0x00\n        /* \"#utility.yul\":12737:12804   */\n      tag_685\n        /* \"#utility.yul\":12801:12803   */\n      0x1b\n        /* \"#utility.yul\":12796:12799   */\n      dup4\n        /* \"#utility.yul\":12737:12804   */\n      tag_472\n      jump\t// in\n    tag_685:\n        /* \"#utility.yul\":12730:12804   */\n      swap2\n      pop\n        /* \"#utility.yul\":12813:12906   */\n      tag_686\n        /* \"#utility.yul\":12902:12905   */\n      dup3\n        /* \"#utility.yul\":12813:12906   */\n      tag_510\n      jump\t// in\n    tag_686:\n        /* \"#utility.yul\":12931:12933   */\n      0x20\n        /* \"#utility.yul\":12926:12929   */\n      dup3\n        /* \"#utility.yul\":12922:12934   */\n      add\n        /* \"#utility.yul\":12915:12934   */\n      swap1\n      pop\n        /* \"#utility.yul\":12574:12940   */\n      swap2\n      swap1\n      pop\n      jump\t// out\n        /* \"#utility.yul\":12946:13365   */\n    tag_249:\n        /* \"#utility.yul\":13112:13116   */\n      0x00\n        /* \"#utility.yul\":13150:13152   */\n      0x20\n        /* \"#utility.yul\":13139:13148   */\n      dup3\n        /* \"#utility.yul\":13135:13153   */\n      add\n        /* \"#utility.yul\":13127:13153   */\n      swap1\n      pop\n        /* \"#utility.yul\":13199:13208   */\n      dup2\n        /* \"#utility.yul\":13193:13197   */\n      dup2\n        /* \"#utility.yul\":13189:13209   */\n      sub\n        /* \"#utility.yul\":13185:13186   */\n      0x00\n        /* \"#utility.yul\":13174:13183   */\n      dup4\n        /* \"#utility.yul\":13170:13187   */\n      add\n        /* \"#utility.yul\":13163:13210   */\n      mstore\n        /* \"#utility.yul\":13227:13358   */\n      tag_688\n        /* \"#utility.yul\":13353:13357   */\n      dup2\n        /* \"#utility.yul\":13227:13358   */\n      tag_511\n      jump\t// in\n    tag_688:\n        /* \"#utility.yul\":13219:13358   */\n      swap1\n      pop\n        /* \"#utility.yul\":12946:13365   */\n      swap2\n      swap1\n      pop\n      jump\t// out\n        /* \"#utility.yul\":13371:13542   */\n    tag_512:\n        /* \"#utility.yul\":13511:13534   */\n      0x53656e64657220686173206e6f206163636f756e740000000000000000000000\n        /* \"#utility.yul\":13507:13508   */\n      0x00\n        /* \"#utility.yul\":13499:13505   */\n      dup3\n        /* \"#utility.yul\":13495:13509   */\n      add\n        /* \"#utility.yul\":13488:13535   */\n      mstore\n        /* \"#utility.yul\":13371:13542   */\n      pop\n      jump\t// out\n        /* \"#utility.yul\":13548:13914   */\n    tag_513:\n        /* \"#utility.yul\":13690:13693   */\n      0x00\n        /* \"#utility.yul\":13711:13778   */\n      tag_691\n        /* \"#utility.yul\":13775:13777   */\n      0x15\n        /* \"#utility.yul\":13770:13773   */\n      dup4\n        /* \"#utility.yul\":13711:13778   */\n      tag_472\n      jump\t// in\n    tag_691:\n        /* \"#utility.yul\":13704:13778   */\n      swap2\n      pop\n        /* \"#utility.yul\":13787:13880   */\n      tag_692\n        /* \"#utility.yul\":13876:13879   */\n      dup3\n        /* \"#utility.yul\":13787:13880   */\n      tag_512\n      jump\t// in\n    tag_692:\n        /* \"#utility.yul\":13905:13907   */\n      0x20\n        /* \"#utility.yul\":13900:13903   */\n      dup3\n        /* \"#utility.yul\":13896:13908   */\n      add\n        /* \"#utility.yul\":13889:13908   */\n      swap1\n      pop\n        /* \"#utility.yul\":13548:13914   */\n      swap2\n      swap1\n      pop\n      jump\t// out\n        /* \"#utility.yul\":13920:14339   */\n    tag_252:\n        /* \"#utility.yul\":14086:14090   */\n      0x00\n        /* \"#utility.yul\":14124:14126   */\n      0x20\n        /* \"#utility.yul\":14113:14122   */\n      dup3\n        /* \"#utility.yul\":14109:14127   */\n      add\n        /* \"#utility.yul\":14101:14127   */\n      swap1\n      pop\n        /* \"#utility.yul\":14173:14182   */\n      dup2\n        /* \"#utility.yul\":14167:14171   */\n      dup2\n        /* \"#utility.yul\":14163:14183   */\n      sub\n        /* \"#utility.yul\":14159:14160   */\n      0x00\n        /* \"#utility.yul\":14148:14157   */\n      dup4\n        /* \"#utility.yul\":14144:14161   */\n      add\n        /* \"#utility.yul\":14137:14184   */\n      mstore\n        /* \"#utility.yul\":14201:14332   */\n      tag_694\n        /* \"#utility.yul\":14327:14331   */\n      dup2\n        /* \"#utility.yul\":14201:14332   */\n      tag_513\n      jump\t// in\n    tag_694:\n        /* \"#utility.yul\":14193:14332   */\n      swap1\n      pop\n        /* \"#utility.yul\":13920:14339   */\n      swap2\n      swap1\n      pop\n      jump\t// out\n        /* \"#utility.yul\":14345:14519   */\n    tag_514:\n        /* \"#utility.yul\":14485:14511   */\n      0x526563697069656e7420686173206e6f206163636f756e740000000000000000\n        /* \"#utility.yul\":14481:14482   */\n      0x00\n        /* \"#utility.yul\":14473:14479   */\n      dup3\n        /* \"#utility.yul\":14469:14483   */\n      add\n        /* \"#utility.yul\":14462:14512   */\n      mstore\n        /* \"#utility.yul\":14345:14519   */\n      pop\n      jump\t// out\n        /* \"#utility.yul\":14525:14891   */\n    tag_515:\n        /* \"#utility.yul\":14667:14670   */\n      0x00\n        /* \"#utility.yul\":14688:14755   */\n      tag_697\n        /* \"#utility.yul\":14752:14754   */\n      0x18\n        /* \"#utility.yul\":14747:14750   */\n      dup4\n        /* \"#utility.yul\":14688:14755   */\n      tag_472\n      jump\t// in\n    tag_697:\n        /* \"#utility.yul\":14681:14755   */\n      swap2\n      pop\n        /* \"#utility.yul\":14764:14857   */\n      tag_698\n        /* \"#utility.yul\":14853:14856   */\n      dup3\n        /* \"#utility.yul\":14764:14857   */\n      tag_514\n      jump\t// in\n    tag_698:\n        /* \"#utility.yul\":14882:14884   */\n      0x20\n        /* \"#utility.yul\":14877:14880   */\n      dup3\n        /* \"#utility.yul\":14873:14885   */\n      add\n        /* \"#utility.yul\":14866:14885   */\n      swap1\n      pop\n        /* \"#utility.yul\":14525:14891   */\n      swap2\n      swap1\n      pop\n      jump\t// out\n        /* \"#utility.yul\":14897:15316   */\n    tag_255:\n        /* \"#utility.yul\":15063:15067   */\n      0x00\n        /* \"#utility.yul\":15101:15103   */\n      0x20\n        /* \"#utility.yul\":15090:15099   */\n      dup3\n        /* \"#utility.yul\":15086:15104   */\n      add\n        /* \"#utility.yul\":15078:15104   */\n      swap1\n      pop\n        /* \"#utility.yul\":15150:15159   */\n      dup2\n        /* \"#utility.yul\":15144:15148   */\n      dup2\n        /* \"#utility.yul\":15140:15160   */\n      sub\n        /* \"#utility.yul\":15136:15137   */\n      0x00\n        /* \"#utility.yul\":15125:15134   */\n      dup4\n        /* \"#utility.yul\":15121:15138   */\n      add\n        /* \"#utility.yul\":15114:15161   */\n      mstore\n        /* \"#utility.yul\":15178:15309   */\n      tag_700\n        /* \"#utility.yul\":15304:15308   */\n      dup2\n        /* \"#utility.yul\":15178:15309   */\n      tag_515\n      jump\t// in\n    tag_700:\n        /* \"#utility.yul\":15170:15309   */\n      swap1\n      pop\n        /* \"#utility.yul\":14897:15316   */\n      swap2\n      swap1\n      pop\n      jump\t// out\n        /* \"#utility.yul\":15322:15490   */\n    tag_516:\n        /* \"#utility.yul\":15462:15482   */\n      0x416d6f756e74206d757374206265203e20300000000000000000000000000000\n        /* \"#utility.yul\":15458:15459   */\n      0x00\n        /* \"#utility.yul\":15450:15456   */\n      dup3\n        /* \"#utility.yul\":15446:15460   */\n      add\n        /* \"#utility.yul\":15439:15483   */\n      mstore\n        /* \"#utility.yul\":15322:15490   */\n      pop\n      jump\t// out\n        /* \"#utility.yul\":15496:15862   */\n    tag_517:\n        /* \"#utility.yul\":15638:15641   */\n      0x00\n        /* \"#utility.yul\":15659:15726   */\n      tag_703\n        /* \"#utility.yul\":15723:15725   */\n      0x12\n        /* \"#utility.yul\":15718:15721   */\n      dup4\n        /* \"#utility.yul\":15659:15726   */\n      tag_472\n      jump\t// in\n    tag_703:\n        /* \"#utility.yul\":15652:15726   */\n      swap2\n      pop\n        /* \"#utility.yul\":15735:15828   */\n      tag_704\n        /* \"#utility.yul\":15824:15827   */\n      dup3\n        /* \"#utility.yul\":15735:15828   */\n      tag_516\n      jump\t// in\n    tag_704:\n        /* \"#utility.yul\":15853:15855   */\n      0x20\n        /* \"#utility.yul\":15848:15851   */\n      dup3\n        /* \"#utility.yul\":15844:15856   */\n      add\n        /* \"#utility.yul\":15837:15856   */\n      swap1\n      pop\n        /* \"#utility.yul\":15496:15862   */\n      swap2\n      swap1\n      pop\n      jump\t// out\n        /* \"#utility.yul\":15868:16287   */\n    tag_258:\n        /* \"#utility.yul\":16034:16038   */\n      0x00\n        /* \"#utility.yul\":16072:16074   */\n      0x20\n        /* \"#utility.yul\":16061:16070   */\n      dup3\n        /* \"#utility.yul\":16057:16075   */\n      add\n        /* \"#utility.yul\":16049:16075   */\n      swap1\n      pop\n        /* \"#utility.yul\":16121:16130   */\n      dup2\n        /* \"#utility.yul\":16115:16119   */\n      dup2\n        /* \"#utility.yul\":16111:16131   */\n      sub\n        /* \"#utility.yul\":16107:16108   */\n      0x00\n        /* \"#utility.yul\":16096:16105   */\n      dup4\n        /* \"#utility.yul\":16092:16109   */\n      add\n        /* \"#utility.yul\":16085:16132   */\n      mstore\n        /* \"#utility.yul\":16149:16280   */\n      tag_706\n        /* \"#utility.yul\":16275:16279   */\n      dup2\n        /* \"#utility.yul\":16149:16280   */\n      tag_517\n      jump\t// in\n    tag_706:\n        /* \"#utility.yul\":16141:16280   */\n      swap1\n      pop\n        /* \"#utility.yul\":15868:16287   */\n      swap2\n      swap1\n      pop\n      jump\t// out\n        /* \"#utility.yul\":16293:16461   */\n    tag_518:\n        /* \"#utility.yul\":16433:16453   */\n      0x496e73756666696369656e742066756e64730000000000000000000000000000\n        /* \"#utility.yul\":16429:16430   */\n      0x00\n        /* \"#utility.yul\":16421:16427   */\n      dup3\n        /* \"#utility.yul\":16417:16431   */\n      add\n        /* \"#utility.yul\":16410:16454   */\n      mstore\n        /* \"#utility.yul\":16293:16461   */\n      pop\n      jump\t// out\n        /* \"#utility.yul\":16467:16833   */\n    tag_519:\n        /* \"#utility.yul\":16609:16612   */\n      0x00\n        /* \"#utility.yul\":16630:16697   */\n      tag_709\n        /* \"#utility.yul\":16694:16696   */\n      0x12\n        /* \"#utility.yul\":16689:16692   */\n      dup4\n        /* \"#utility.yul\":16630:16697   */\n      tag_472\n      jump\t// in\n    tag_709:\n        /* \"#utility.yul\":16623:16697   */\n      swap2\n      pop\n        /* \"#utility.yul\":16706:16799   */\n      tag_710\n        /* \"#utility.yul\":16795:16798   */\n      dup3\n        /* \"#utility.yul\":16706:16799   */\n      tag_518\n      jump\t// in\n    tag_710:\n        /* \"#utility.yul\":16824:16826   */\n      0x20\n        /* \"#utility.yul\":16819:16822   */\n      dup3\n        /* \"#utility.yul\":16815:16827   */\n      add\n        /* \"#utility.yul\":16808:16827   */\n      swap1\n      pop\n        /* \"#utility.yul\":16467:16833   */\n      swap2\n      swap1\n      pop\n      jump\t// out\n        /* \"#utility.yul\":16839:17258   */\n    tag_261:\n        /* \"#utility.yul\":17005:17009   */\n      0x00\n        /* \"#utility.yul\":17043:17045   */\n      0x20\n        /* \"#utility.yul\":17032:17041   */\n      dup3\n        /* \"#utility.yul\":17028:17046   */\n      add\n        /* \"#utility.yul\":17020:17046   */\n      swap1\n      pop\n        /* \"#utility.yul\":17092:17101   */\n      dup2\n        /* \"#utility.yul\":17086:17090   */\n      dup2\n        /* \"#utility.yul\":17082:17102   */\n      sub\n        /* \"#utility.yul\":17078:17079   */\n      0x00\n        /* \"#utility.yul\":17067:17076   */\n      dup4\n        /* \"#utility.yul\":17063:17080   */\n      add\n        /* \"#utility.yul\":17056:17103   */\n      mstore\n        /* \"#utility.yul\":17120:17251   */\n      tag_712\n        /* \"#utility.yul\":17246:17250   */\n      dup2\n        /* \"#utility.yul\":17120:17251   */\n      tag_519\n      jump\t// in\n    tag_712:\n        /* \"#utility.yul\":17112:17251   */\n      swap1\n      pop\n        /* \"#utility.yul\":16839:17258   */\n      swap2\n      swap1\n      pop\n      jump\t// out\n        /* \"#utility.yul\":17264:17444   */\n    tag_520:\n        /* \"#utility.yul\":17312:17389   */\n      0x4e487b7100000000000000000000000000000000000000000000000000000000\n        /* \"#utility.yul\":17309:17310   */\n      0x00\n        /* \"#utility.yul\":17302:17390   */\n      mstore\n        /* \"#utility.yul\":17409:17413   */\n      0x11\n        /* \"#utility.yul\":17406:17407   */\n      0x04\n        /* \"#utility.yul\":17399:17414   */\n      mstore\n        /* \"#utility.yul\":17433:17437   */\n      0x24\n        /* \"#utility.yul\":17430:17431   */\n      0x00\n        /* \"#utility.yul\":17423:17438   */\n      revert\n        /* \"#utility.yul\":17450:17644   */\n    tag_263:\n        /* \"#utility.yul\":17490:17494   */\n      0x00\n        /* \"#utility.yul\":17510:17530   */\n      tag_715\n        /* \"#utility.yul\":17528:17529   */\n      dup3\n        /* \"#utility.yul\":17510:17530   */\n      tag_480\n      jump\t// in\n    tag_715:\n        /* \"#utility.yul\":17505:17530   */\n      swap2\n      pop\n        /* \"#utility.yul\":17544:17564   */\n      tag_716\n        /* \"#utility.yul\":17562:17563   */\n      dup4\n        /* \"#utility.yul\":17544:17564   */\n      tag_480\n      jump\t// in\n    tag_716:\n        /* \"#utility.yul\":17539:17564   */\n      swap3\n      pop\n        /* \"#utility.yul\":17588:17589   */\n      dup3\n        /* \"#utility.yul\":17585:17586   */\n      dup3\n        /* \"#utility.yul\":17581:17590   */\n      sub\n        /* \"#utility.yul\":17573:17590   */\n      swap1\n      pop\n        /* \"#utility.yul\":17612:17613   */\n      dup2\n        /* \"#utility.yul\":17606:17610   */\n      dup2\n        /* \"#utility.yul\":17603:17614   */\n      gt\n        /* \"#utility.yul\":17600:17637   */\n      iszero\n      tag_717\n      jumpi\n        /* \"#utility.yul\":17617:17635   */\n      tag_718\n      tag_520\n      jump\t// in\n    tag_718:\n        /* \"#utility.yul\":17600:17637   */\n    tag_717:\n        /* \"#utility.yul\":17450:17644   */\n      swap3\n      swap2\n      pop\n      pop\n      jump\t// out\n        /* \"#utility.yul\":17650:17841   */\n    tag_265:\n        /* \"#utility.yul\":17690:17693   */\n      0x00\n        /* \"#utility.yul\":17709:17729   */\n      tag_720\n        /* \"#utility.yul\":17727:17728   */\n      dup3\n        /* \"#utility.yul\":17709:17729   */\n      tag_480\n      jump\t// in\n    tag_720:\n        /* \"#utility.yul\":17704:17729   */\n      swap2\n      pop\n        /* \"#utility.yul\":17743:17763   */\n      tag_721\n        /* \"#utility.yul\":17761:17762   */\n      dup4\n        /* \"#utility.yul\":17743:17763   */\n      tag_480\n      jump\t// in\n    tag_721:\n        /* \"#utility.yul\":17738:17763   */\n      swap3\n      pop\n        /* \"#utility.yul\":17786:17787   */\n      dup3\n        /* \"#utility.yul\":17783:17784   */\n      dup3\n        /* \"#utility.yul\":17779:17788   */\n      add\n        /* \"#utility.yul\":17772:17788   */\n      swap1\n      pop\n        /* \"#utility.yul\":17807:17810   */\n      dup1\n        /* \"#utility.yul\":17804:17805   */\n      dup3\n        /* \"#utility.yul\":17801:17811   */\n      gt\n        /* \"#utility.yul\":17798:17834   */\n      iszero\n      tag_722\n      jumpi\n        /* \"#utility.yul\":17814:17832   */\n      tag_723\n      tag_520\n      jump\t// in\n    tag_723:\n        /* \"#utility.yul\":17798:17834   */\n    tag_722:\n        /* \"#utility.yul\":17650:17841   */\n      swap3\n      swap2\n      pop\n      pop\n      jump\t// out\n        /* \"#utility.yul\":17847:18019   */\n    tag_521:\n        /* \"#utility.yul\":17987:18011   */\n      0x4163636f756e7420646f6573206e6f7420657869737400000000000000000000\n        /* \"#utility.yul\":17983:17984   */\n      0x00\n        /* \"#utility.yul\":17975:17981   */\n      dup3\n        /* \"#utility.yul\":17971:17985   */\n      add\n        /* \"#utility.yul\":17964:18012   */\n      mstore\n        /* \"#utility.yul\":17847:18019   */\n      pop\n      jump\t// out\n        /* \"#utility.yul\":18025:18391   */\n    tag_522:\n        /* \"#utility.yul\":18167:18170   */\n      0x00\n        /* \"#utility.yul\":18188:18255   */\n      tag_726\n        /* \"#utility.yul\":18252:18254   */\n      0x16\n        /* \"#utility.yul\":18247:18250   */\n      dup4\n        /* \"#utility.yul\":18188:18255   */\n      tag_472\n      jump\t// in\n    tag_726:\n        /* \"#utility.yul\":18181:18255   */\n      swap2\n      pop\n        /* \"#utility.yul\":18264:18357   */\n      tag_727\n        /* \"#utility.yul\":18353:18356   */\n      dup3\n        /* \"#utility.yul\":18264:18357   */\n      tag_521\n      jump\t// in\n    tag_727:\n        /* \"#utility.yul\":18382:18384   */\n      0x20\n        /* \"#utility.yul\":18377:18380   */\n      dup3\n        /* \"#utility.yul\":18373:18385   */\n      add\n        /* \"#utility.yul\":18366:18385   */\n      swap1\n      pop\n        /* \"#utility.yul\":18025:18391   */\n      swap2\n      swap1\n      pop\n      jump\t// out\n        /* \"#utility.yul\":18397:18816   */\n    tag_276:\n        /* \"#utility.yul\":18563:18567   */\n      0x00\n        /* \"#utility.yul\":18601:18603   */\n      0x20\n        /* \"#utility.yul\":18590:18599   */\n      dup3\n        /* \"#utility.yul\":18586:18604   */\n      add\n        /* \"#utility.yul\":18578:18604   */\n      swap1\n      pop\n        /* \"#utility.yul\":18650:18659   */\n      dup2\n        /* \"#utility.yul\":18644:18648   */\n      dup2\n        /* \"#utility.yul\":18640:18660   */\n      sub\n        /* \"#utility.yul\":18636:18637   */\n      0x00\n        /* \"#utility.yul\":18625:18634   */\n      dup4\n        /* \"#utility.yul\":18621:18638   */\n      add\n        /* \"#utility.yul\":18614:18661   */\n      mstore\n        /* \"#utility.yul\":18678:18809   */\n      tag_729\n        /* \"#utility.yul\":18804:18808   */\n      dup2\n        /* \"#utility.yul\":18678:18809   */\n      tag_522\n      jump\t// in\n    tag_729:\n        /* \"#utility.yul\":18670:18809   */\n      swap1\n      pop\n        /* \"#utility.yul\":18397:18816   */\n      swap2\n      swap1\n      pop\n      jump\t// out\n        /* \"#utility.yul\":18822:18969   */\n    tag_523:\n        /* \"#utility.yul\":18923:18934   */\n      0x00\n        /* \"#utility.yul\":18960:18963   */\n      dup2\n        /* \"#utility.yul\":18945:18963   */\n      swap1\n      pop\n        /* \"#utility.yul\":18822:18969   */\n      swap3\n      swap2\n      pop\n      pop\n      jump\t// out\n        /* \"#utility.yul\":18975:19089   */\n    tag_524:\n      pop\n      jump\t// out\n        /* \"#utility.yul\":19095:19493   */\n    tag_525:\n        /* \"#utility.yul\":19254:19257   */\n      0x00\n        /* \"#utility.yul\":19275:19358   */\n      tag_733\n        /* \"#utility.yul\":19356:19357   */\n      0x00\n        /* \"#utility.yul\":19351:19354   */\n      dup4\n        /* \"#utility.yul\":19275:19358   */\n      tag_523\n      jump\t// in\n    tag_733:\n        /* \"#utility.yul\":19268:19358   */\n      swap2\n      pop\n        /* \"#utility.yul\":19367:19460   */\n      tag_734\n        /* \"#utility.yul\":19456:19459   */\n      dup3\n        /* \"#utility.yul\":19367:19460   */\n      tag_524\n      jump\t// in\n    tag_734:\n        /* \"#utility.yul\":19485:19486   */\n      0x00\n        /* \"#utility.yul\":19480:19483   */\n      dup3\n        /* \"#utility.yul\":19476:19487   */\n      add\n        /* \"#utility.yul\":19469:19487   */\n      swap1\n      pop\n        /* \"#utility.yul\":19095:19493   */\n      swap2\n      swap1\n      pop\n      jump\t// out\n        /* \"#utility.yul\":19499:19878   */\n    tag_285:\n        /* \"#utility.yul\":19683:19686   */\n      0x00\n        /* \"#utility.yul\":19705:19852   */\n      tag_736\n        /* \"#utility.yul\":19848:19851   */\n      dup3\n        /* \"#utility.yul\":19705:19852   */\n      tag_525\n      jump\t// in\n    tag_736:\n        /* \"#utility.yul\":19698:19852   */\n      swap2\n      pop\n        /* \"#utility.yul\":19869:19872   */\n      dup2\n        /* \"#utility.yul\":19862:19872   */\n      swap1\n      pop\n        /* \"#utility.yul\":19499:19878   */\n      swap2\n      swap1\n      pop\n      jump\t// out\n        /* \"#utility.yul\":19884:20055   */\n    tag_526:\n        /* \"#utility.yul\":20024:20047   */\n      0x455448207769746864726177616c206661696c65640000000000000000000000\n        /* \"#utility.yul\":20020:20021   */\n      0x00\n        /* \"#utility.yul\":20012:20018   */\n      dup3\n        /* \"#utility.yul\":20008:20022   */\n      add\n        /* \"#utility.yul\":20001:20048   */\n      mstore\n        /* \"#utility.yul\":19884:20055   */\n      pop\n      jump\t// out\n        /* \"#utility.yul\":20061:20427   */\n    tag_527:\n        /* \"#utility.yul\":20203:20206   */\n      0x00\n        /* \"#utility.yul\":20224:20291   */\n      tag_739\n        /* \"#utility.yul\":20288:20290   */\n      0x15\n        /* \"#utility.yul\":20283:20286   */\n      dup4\n        /* \"#utility.yul\":20224:20291   */\n      tag_472\n      jump\t// in\n    tag_739:\n        /* \"#utility.yul\":20217:20291   */\n      swap2\n      pop\n        /* \"#utility.yul\":20300:20393   */\n      tag_740\n        /* \"#utility.yul\":20389:20392   */\n      dup3\n        /* \"#utility.yul\":20300:20393   */\n      tag_526\n      jump\t// in\n    tag_740:\n        /* \"#utility.yul\":20418:20420   */\n      0x20\n        /* \"#utility.yul\":20413:20416   */\n      dup3\n        /* \"#utility.yul\":20409:20421   */\n      add\n        /* \"#utility.yul\":20402:20421   */\n      swap1\n      pop\n        /* \"#utility.yul\":20061:20427   */\n      swap2\n      swap1\n      pop\n      jump\t// out\n        /* \"#utility.yul\":20433:20852   */\n    tag_291:\n        /* \"#utility.yul\":20599:20603   */\n      0x00\n        /* \"#utility.yul\":20637:20639   */\n      0x20\n        /* \"#utility.yul\":20626:20635   */\n      dup3\n        /* \"#utility.yul\":20622:20640   */\n      add\n        /* \"#utility.yul\":20614:20640   */\n      swap1\n      pop\n        /* \"#utility.yul\":20686:20695   */\n      dup2\n        /* \"#utility.yul\":20680:20684   */\n      dup2\n        /* \"#utility.yul\":20676:20696   */\n      sub\n        /* \"#utility.yul\":20672:20673   */\n      0x00\n        /* \"#utility.yul\":20661:20670   */\n      dup4\n        /* \"#utility.yul\":20657:20674   */\n      add\n        /* \"#utility.yul\":20650:20697   */\n      mstore\n        /* \"#utility.yul\":20714:20845   */\n      tag_742\n        /* \"#utility.yul\":20840:20844   */\n      dup2\n        /* \"#utility.yul\":20714:20845   */\n      tag_527\n      jump\t// in\n    tag_742:\n        /* \"#utility.yul\":20706:20845   */\n      swap1\n      pop\n        /* \"#utility.yul\":20433:20852   */\n      swap2\n      swap1\n      pop\n      jump\t// out\n        /* \"#utility.yul\":20858:20963   */\n    tag_528:\n        /* \"#utility.yul\":20894:20901   */\n      0x00\n        /* \"#utility.yul\":20934:20956   */\n      0xffffffffffffffffffff\n        /* \"#utility.yul\":20927:20932   */\n      dup3\n        /* \"#utility.yul\":20923:20957   */\n      and\n        /* \"#utility.yul\":20912:20957   */\n      swap1\n      pop\n        /* \"#utility.yul\":20858:20963   */\n      swap2\n      swap1\n      pop\n      jump\t// out\n        /* \"#utility.yul\":20969:21089   */\n    tag_529:\n        /* \"#utility.yul\":21041:21064   */\n      tag_745\n        /* \"#utility.yul\":21058:21063   */\n      dup2\n        /* \"#utility.yul\":21041:21064   */\n      tag_528\n      jump\t// in\n    tag_745:\n        /* \"#utility.yul\":21034:21039   */\n      dup2\n        /* \"#utility.yul\":21031:21065   */\n      eq\n        /* \"#utility.yul\":21021:21083   */\n      tag_746\n      jumpi\n        /* \"#utility.yul\":21079:21080   */\n      0x00\n        /* \"#utility.yul\":21076:21077   */\n      0x00\n        /* \"#utility.yul\":21069:21081   */\n      revert\n        /* \"#utility.yul\":21021:21083   */\n    tag_746:\n        /* \"#utility.yul\":20969:21089   */\n      pop\n      jump\t// out\n        /* \"#utility.yul\":21095:21236   */\n    tag_530:\n        /* \"#utility.yul\":21151:21156   */\n      0x00\n        /* \"#utility.yul\":21182:21188   */\n      dup2\n        /* \"#utility.yul\":21176:21189   */\n      mload\n        /* \"#utility.yul\":21167:21189   */\n      swap1\n      pop\n        /* \"#utility.yul\":21198:21230   */\n      tag_748\n        /* \"#utility.yul\":21224:21229   */\n      dup2\n        /* \"#utility.yul\":21198:21230   */\n      tag_529\n      jump\t// in\n    tag_748:\n        /* \"#utility.yul\":21095:21236   */\n      swap3\n      swap2\n      pop\n      pop\n      jump\t// out\n        /* \"#utility.yul\":21242:21362   */\n    tag_531:\n        /* \"#utility.yul\":21314:21337   */\n      tag_750\n        /* \"#utility.yul\":21331:21336   */\n      dup2\n        /* \"#utility.yul\":21314:21337   */\n      tag_502\n      jump\t// in\n    tag_750:\n        /* \"#utility.yul\":21307:21312   */\n      dup2\n        /* \"#utility.yul\":21304:21338   */\n      eq\n        /* \"#utility.yul\":21294:21356   */\n      tag_751\n      jumpi\n        /* \"#utility.yul\":21352:21353   */\n      0x00\n        /* \"#utility.yul\":21349:21350   */\n      0x00\n        /* \"#utility.yul\":21342:21354   */\n      revert\n        /* \"#utility.yul\":21294:21356   */\n    tag_751:\n        /* \"#utility.yul\":21242:21362   */\n      pop\n      jump\t// out\n        /* \"#utility.yul\":21368:21509   */\n    tag_532:\n        /* \"#utility.yul\":21424:21429   */\n      0x00\n        /* \"#utility.yul\":21455:21461   */\n      dup2\n        /* \"#utility.yul\":21449:21462   */\n      mload\n        /* \"#utility.yul\":21440:21462   */\n      swap1\n      pop\n        /* \"#utility.yul\":21471:21503   */\n      tag_753\n        /* \"#utility.yul\":21497:21502   */\n      dup2\n        /* \"#utility.yul\":21471:21503   */\n      tag_531\n      jump\t// in\n    tag_753:\n        /* \"#utility.yul\":21368:21509   */\n      swap3\n      swap2\n      pop\n      pop\n      jump\t// out\n        /* \"#utility.yul\":21515:21658   */\n    tag_533:\n        /* \"#utility.yul\":21572:21577   */\n      0x00\n        /* \"#utility.yul\":21603:21609   */\n      dup2\n        /* \"#utility.yul\":21597:21610   */\n      mload\n        /* \"#utility.yul\":21588:21610   */\n      swap1\n      pop\n        /* \"#utility.yul\":21619:21652   */\n      tag_755\n        /* \"#utility.yul\":21646:21651   */\n      dup2\n        /* \"#utility.yul\":21619:21652   */\n      tag_481\n      jump\t// in\n    tag_755:\n        /* \"#utility.yul\":21515:21658   */\n      swap3\n      swap2\n      pop\n      pop\n      jump\t// out\n        /* \"#utility.yul\":21664:22635   */\n    tag_315:\n        /* \"#utility.yul\":21767:21773   */\n      0x00\n        /* \"#utility.yul\":21775:21781   */\n      0x00\n        /* \"#utility.yul\":21783:21789   */\n      0x00\n        /* \"#utility.yul\":21791:21797   */\n      0x00\n        /* \"#utility.yul\":21799:21805   */\n      0x00\n        /* \"#utility.yul\":21848:21851   */\n      0xa0\n        /* \"#utility.yul\":21836:21845   */\n      dup7\n        /* \"#utility.yul\":21827:21834   */\n      dup9\n        /* \"#utility.yul\":21823:21846   */\n      sub\n        /* \"#utility.yul\":21819:21852   */\n      slt\n        /* \"#utility.yul\":21816:21936   */\n      iszero\n      tag_757\n      jumpi\n        /* \"#utility.yul\":21855:21934   */\n      tag_758\n      tag_478\n      jump\t// in\n    tag_758:\n        /* \"#utility.yul\":21816:21936   */\n    tag_757:\n        /* \"#utility.yul\":21975:21976   */\n      0x00\n        /* \"#utility.yul\":22000:22063   */\n      tag_759\n        /* \"#utility.yul\":22055:22062   */\n      dup9\n        /* \"#utility.yul\":22046:22052   */\n      dup3\n        /* \"#utility.yul\":22035:22044   */\n      dup10\n        /* \"#utility.yul\":22031:22053   */\n      add\n        /* \"#utility.yul\":22000:22063   */\n      tag_530\n      jump\t// in\n    tag_759:\n        /* \"#utility.yul\":21990:22063   */\n      swap6\n      pop\n        /* \"#utility.yul\":21946:22073   */\n      pop\n        /* \"#utility.yul\":22112:22114   */\n      0x20\n        /* \"#utility.yul\":22138:22201   */\n      tag_760\n        /* \"#utility.yul\":22193:22200   */\n      dup9\n        /* \"#utility.yul\":22184:22190   */\n      dup3\n        /* \"#utility.yul\":22173:22182   */\n      dup10\n        /* \"#utility.yul\":22169:22191   */\n      add\n        /* \"#utility.yul\":22138:22201   */\n      tag_532\n      jump\t// in\n    tag_760:\n        /* \"#utility.yul\":22128:22201   */\n      swap5\n      pop\n        /* \"#utility.yul\":22083:22211   */\n      pop\n        /* \"#utility.yul\":22250:22252   */\n      0x40\n        /* \"#utility.yul\":22276:22340   */\n      tag_761\n        /* \"#utility.yul\":22332:22339   */\n      dup9\n        /* \"#utility.yul\":22323:22329   */\n      dup3\n        /* \"#utility.yul\":22312:22321   */\n      dup10\n        /* \"#utility.yul\":22308:22330   */\n      add\n        /* \"#utility.yul\":22276:22340   */\n      tag_533\n      jump\t// in\n    tag_761:\n        /* \"#utility.yul\":22266:22340   */\n      swap4\n      pop\n        /* \"#utility.yul\":22221:22350   */\n      pop\n        /* \"#utility.yul\":22389:22391   */\n      0x60\n        /* \"#utility.yul\":22415:22479   */\n      tag_762\n        /* \"#utility.yul\":22471:22478   */\n      dup9\n        /* \"#utility.yul\":22462:22468   */\n      dup3\n        /* \"#utility.yul\":22451:22460   */\n      dup10\n        /* \"#utility.yul\":22447:22469   */\n      add\n        /* \"#utility.yul\":22415:22479   */\n      tag_533\n      jump\t// in\n    tag_762:\n        /* \"#utility.yul\":22405:22479   */\n      swap3\n      pop\n        /* \"#utility.yul\":22360:22489   */\n      pop\n        /* \"#utility.yul\":22528:22531   */\n      0x80\n        /* \"#utility.yul\":22555:22618   */\n      tag_763\n        /* \"#utility.yul\":22610:22617   */\n      dup9\n        /* \"#utility.yul\":22601:22607   */\n      dup3\n        /* \"#utility.yul\":22590:22599   */\n      dup10\n        /* \"#utility.yul\":22586:22608   */\n      add\n        /* \"#utility.yul\":22555:22618   */\n      tag_530\n      jump\t// in\n    tag_763:\n        /* \"#utility.yul\":22545:22618   */\n      swap2\n      pop\n        /* \"#utility.yul\":22499:22628   */\n      pop\n        /* \"#utility.yul\":21664:22635   */\n      swap3\n      swap6\n      pop\n      swap3\n      swap6\n      swap1\n      swap4\n      pop\n      jump\t// out\n        /* \"#utility.yul\":22641:22804   */\n    tag_534:\n        /* \"#utility.yul\":22781:22796   */\n      0x496e76616c696420707269636500000000000000000000000000000000000000\n        /* \"#utility.yul\":22777:22778   */\n      0x00\n        /* \"#utility.yul\":22769:22775   */\n      dup3\n        /* \"#utility.yul\":22765:22779   */\n      add\n        /* \"#utility.yul\":22758:22797   */\n      mstore\n        /* \"#utility.yul\":22641:22804   */\n      pop\n      jump\t// out\n        /* \"#utility.yul\":22810:23176   */\n    tag_535:\n        /* \"#utility.yul\":22952:22955   */\n      0x00\n        /* \"#utility.yul\":22973:23040   */\n      tag_766\n        /* \"#utility.yul\":23037:23039   */\n      0x0d\n        /* \"#utility.yul\":23032:23035   */\n      dup4\n        /* \"#utility.yul\":22973:23040   */\n      tag_472\n      jump\t// in\n    tag_766:\n        /* \"#utility.yul\":22966:23040   */\n      swap2\n      pop\n        /* \"#utility.yul\":23049:23142   */\n      tag_767\n        /* \"#utility.yul\":23138:23141   */\n      dup3\n        /* \"#utility.yul\":23049:23142   */\n      tag_534\n      jump\t// in\n    tag_767:\n        /* \"#utility.yul\":23167:23169   */\n      0x20\n        /* \"#utility.yul\":23162:23165   */\n      dup3\n        /* \"#utility.yul\":23158:23170   */\n      add\n        /* \"#utility.yul\":23151:23170   */\n      swap1\n      pop\n        /* \"#utility.yul\":22810:23176   */\n      swap2\n      swap1\n      pop\n      jump\t// out\n        /* \"#utility.yul\":23182:23601   */\n    tag_321:\n        /* \"#utility.yul\":23348:23352   */\n      0x00\n        /* \"#utility.yul\":23386:23388   */\n      0x20\n        /* \"#utility.yul\":23375:23384   */\n      dup3\n        /* \"#utility.yul\":23371:23389   */\n      add\n        /* \"#utility.yul\":23363:23389   */\n      swap1\n      pop\n        /* \"#utility.yul\":23435:23444   */\n      dup2\n        /* \"#utility.yul\":23429:23433   */\n      dup2\n        /* \"#utility.yul\":23425:23445   */\n      sub\n        /* \"#utility.yul\":23421:23422   */\n      0x00\n        /* \"#utility.yul\":23410:23419   */\n      dup4\n        /* \"#utility.yul\":23406:23423   */\n      add\n        /* \"#utility.yul\":23399:23446   */\n      mstore\n        /* \"#utility.yul\":23463:23594   */\n      tag_769\n        /* \"#utility.yul\":23589:23593   */\n      dup2\n        /* \"#utility.yul\":23463:23594   */\n      tag_535\n      jump\t// in\n    tag_769:\n        /* \"#utility.yul\":23455:23594   */\n      swap1\n      pop\n        /* \"#utility.yul\":23182:23601   */\n      swap2\n      swap1\n      pop\n      jump\t// out\n        /* \"#utility.yul\":23607:24017   */\n    tag_323:\n        /* \"#utility.yul\":23647:23654   */\n      0x00\n        /* \"#utility.yul\":23670:23690   */\n      tag_771\n        /* \"#utility.yul\":23688:23689   */\n      dup3\n        /* \"#utility.yul\":23670:23690   */\n      tag_480\n      jump\t// in\n    tag_771:\n        /* \"#utility.yul\":23665:23690   */\n      swap2\n      pop\n        /* \"#utility.yul\":23704:23724   */\n      tag_772\n        /* \"#utility.yul\":23722:23723   */\n      dup4\n        /* \"#utility.yul\":23704:23724   */\n      tag_480\n      jump\t// in\n    tag_772:\n        /* \"#utility.yul\":23699:23724   */\n      swap3\n      pop\n        /* \"#utility.yul\":23759:23760   */\n      dup3\n        /* \"#utility.yul\":23756:23757   */\n      dup3\n        /* \"#utility.yul\":23752:23761   */\n      mul\n        /* \"#utility.yul\":23781:23811   */\n      tag_773\n        /* \"#utility.yul\":23799:23810   */\n      dup2\n        /* \"#utility.yul\":23781:23811   */\n      tag_480\n      jump\t// in\n    tag_773:\n        /* \"#utility.yul\":23770:23811   */\n      swap2\n      pop\n        /* \"#utility.yul\":23960:23961   */\n      dup3\n        /* \"#utility.yul\":23951:23958   */\n      dup3\n        /* \"#utility.yul\":23947:23962   */\n      div\n        /* \"#utility.yul\":23944:23945   */\n      dup5\n        /* \"#utility.yul\":23941:23963   */\n      eq\n        /* \"#utility.yul\":23921:23922   */\n      dup4\n        /* \"#utility.yul\":23914:23923   */\n      iszero\n        /* \"#utility.yul\":23894:23977   */\n      or\n        /* \"#utility.yul\":23871:24010   */\n      tag_774\n      jumpi\n        /* \"#utility.yul\":23990:24008   */\n      tag_775\n      tag_520\n      jump\t// in\n    tag_775:\n        /* \"#utility.yul\":23871:24010   */\n    tag_774:\n        /* \"#utility.yul\":23655:24017   */\n      pop\n        /* \"#utility.yul\":23607:24017   */\n      swap3\n      swap2\n      pop\n      pop\n      jump\t// out\n        /* \"#utility.yul\":24023:24203   */\n    tag_536:\n        /* \"#utility.yul\":24071:24148   */\n      0x4e487b7100000000000000000000000000000000000000000000000000000000\n        /* \"#utility.yul\":24068:24069   */\n      0x00\n        /* \"#utility.yul\":24061:24149   */\n      mstore\n        /* \"#utility.yul\":24168:24172   */\n      0x12\n        /* \"#utility.yul\":24165:24166   */\n      0x04\n        /* \"#utility.yul\":24158:24173   */\n      mstore\n        /* \"#utility.yul\":24192:24196   */\n      0x24\n        /* \"#utility.yul\":24189:24190   */\n      0x00\n        /* \"#utility.yul\":24182:24197   */\n      revert\n        /* \"#utility.yul\":24209:24394   */\n    tag_325:\n        /* \"#utility.yul\":24249:24250   */\n      0x00\n        /* \"#utility.yul\":24266:24286   */\n      tag_778\n        /* \"#utility.yul\":24284:24285   */\n      dup3\n        /* \"#utility.yul\":24266:24286   */\n      tag_480\n      jump\t// in\n    tag_778:\n        /* \"#utility.yul\":24261:24286   */\n      swap2\n      pop\n        /* \"#utility.yul\":24300:24320   */\n      tag_779\n        /* \"#utility.yul\":24318:24319   */\n      dup4\n        /* \"#utility.yul\":24300:24320   */\n      tag_480\n      jump\t// in\n    tag_779:\n        /* \"#utility.yul\":24295:24320   */\n      swap3\n      pop\n        /* \"#utility.yul\":24339:24340   */\n      dup3\n        /* \"#utility.yul\":24329:24364   */\n      tag_780\n      jumpi\n        /* \"#utility.yul\":24344:24362   */\n      tag_781\n      tag_536\n      jump\t// in\n    tag_781:\n        /* \"#utility.yul\":24329:24364   */\n    tag_780:\n        /* \"#utility.yul\":24386:24387   */\n      dup3\n        /* \"#utility.yul\":24383:24384   */\n      dup3\n        /* \"#utility.yul\":24379:24388   */\n      div\n        /* \"#utility.yul\":24374:24388   */\n      swap1\n      pop\n        /* \"#utility.yul\":24209:24394   */\n      swap3\n      swap2\n      pop\n      pop\n      jump\t// out\n        /* \"#utility.yul\":24400:24569   */\n    tag_537:\n        /* \"#utility.yul\":24540:24561   */\n      0x4465706f73697473206172652070617573656400000000000000000000000000\n        /* \"#utility.yul\":24536:24537   */\n      0x00\n        /* \"#utility.yul\":24528:24534   */\n      dup3\n        /* \"#utility.yul\":24524:24538   */\n      add\n        /* \"#utility.yul\":24517:24562   */\n      mstore\n        /* \"#utility.yul\":24400:24569   */\n      pop\n      jump\t// out\n        /* \"#utility.yul\":24575:24941   */\n    tag_538:\n        /* \"#utility.yul\":24717:24720   */\n      0x00\n        /* \"#utility.yul\":24738:24805   */\n      tag_784\n        /* \"#utility.yul\":24802:24804   */\n      0x13\n        /* \"#utility.yul\":24797:24800   */\n      dup4\n        /* \"#utility.yul\":24738:24805   */\n      tag_472\n      jump\t// in\n    tag_784:\n        /* \"#utility.yul\":24731:24805   */\n      swap2\n      pop\n        /* \"#utility.yul\":24814:24907   */\n      tag_785\n        /* \"#utility.yul\":24903:24906   */\n      dup3\n        /* \"#utility.yul\":24814:24907   */\n      tag_537\n      jump\t// in\n    tag_785:\n        /* \"#utility.yul\":24932:24934   */\n      0x20\n        /* \"#utility.yul\":24927:24930   */\n      dup3\n        /* \"#utility.yul\":24923:24935   */\n      add\n        /* \"#utility.yul\":24916:24935   */\n      swap1\n      pop\n        /* \"#utility.yul\":24575:24941   */\n      swap2\n      swap1\n      pop\n      jump\t// out\n        /* \"#utility.yul\":24947:25366   */\n    tag_333:\n        /* \"#utility.yul\":25113:25117   */\n      0x00\n        /* \"#utility.yul\":25151:25153   */\n      0x20\n        /* \"#utility.yul\":25140:25149   */\n      dup3\n        /* \"#utility.yul\":25136:25154   */\n      add\n        /* \"#utility.yul\":25128:25154   */\n      swap1\n      pop\n        /* \"#utility.yul\":25200:25209   */\n      dup2\n        /* \"#utility.yul\":25194:25198   */\n      dup2\n        /* \"#utility.yul\":25190:25210   */\n      sub\n        /* \"#utility.yul\":25186:25187   */\n      0x00\n        /* \"#utility.yul\":25175:25184   */\n      dup4\n        /* \"#utility.yul\":25171:25188   */\n      add\n        /* \"#utility.yul\":25164:25211   */\n      mstore\n        /* \"#utility.yul\":25228:25359   */\n      tag_787\n        /* \"#utility.yul\":25354:25358   */\n      dup2\n        /* \"#utility.yul\":25228:25359   */\n      tag_538\n      jump\t// in\n    tag_787:\n        /* \"#utility.yul\":25220:25359   */\n      swap1\n      pop\n        /* \"#utility.yul\":24947:25366   */\n      swap2\n      swap1\n      pop\n      jump\t// out\n        /* \"#utility.yul\":25372:25539   */\n    tag_539:\n        /* \"#utility.yul\":25512:25531   */\n      0x546f6b656e206e6f7420616c6c6f776564000000000000000000000000000000\n        /* \"#utility.yul\":25508:25509   */\n      0x00\n        /* \"#utility.yul\":25500:25506   */\n      dup3\n        /* \"#utility.yul\":25496:25510   */\n      add\n        /* \"#utility.yul\":25489:25532   */\n      mstore\n        /* \"#utility.yul\":25372:25539   */\n      pop\n      jump\t// out\n        /* \"#utility.yul\":25545:25911   */\n    tag_540:\n        /* \"#utility.yul\":25687:25690   */\n      0x00\n        /* \"#utility.yul\":25708:25775   */\n      tag_790\n        /* \"#utility.yul\":25772:25774   */\n      0x11\n        /* \"#utility.yul\":25767:25770   */\n      dup4\n        /* \"#utility.yul\":25708:25775   */\n      tag_472\n      jump\t// in\n    tag_790:\n        /* \"#utility.yul\":25701:25775   */\n      swap2\n      pop\n        /* \"#utility.yul\":25784:25877   */\n      tag_791\n        /* \"#utility.yul\":25873:25876   */\n      dup3\n        /* \"#utility.yul\":25784:25877   */\n      tag_539\n      jump\t// in\n    tag_791:\n        /* \"#utility.yul\":25902:25904   */\n      0x20\n        /* \"#utility.yul\":25897:25900   */\n      dup3\n        /* \"#utility.yul\":25893:25905   */\n      add\n        /* \"#utility.yul\":25886:25905   */\n      swap1\n      pop\n        /* \"#utility.yul\":25545:25911   */\n      swap2\n      swap1\n      pop\n      jump\t// out\n        /* \"#utility.yul\":25917:26336   */\n    tag_336:\n        /* \"#utility.yul\":26083:26087   */\n      0x00\n        /* \"#utility.yul\":26121:26123   */\n      0x20\n        /* \"#utility.yul\":26110:26119   */\n      dup3\n        /* \"#utility.yul\":26106:26124   */\n      add\n        /* \"#utility.yul\":26098:26124   */\n      swap1\n      pop\n        /* \"#utility.yul\":26170:26179   */\n      dup2\n        /* \"#utility.yul\":26164:26168   */\n      dup2\n        /* \"#utility.yul\":26160:26180   */\n      sub\n        /* \"#utility.yul\":26156:26157   */\n      0x00\n        /* \"#utility.yul\":26145:26154   */\n      dup4\n        /* \"#utility.yul\":26141:26158   */\n      add\n        /* \"#utility.yul\":26134:26181   */\n      mstore\n        /* \"#utility.yul\":26198:26329   */\n      tag_793\n        /* \"#utility.yul\":26324:26328   */\n      dup2\n        /* \"#utility.yul\":26198:26329   */\n      tag_540\n      jump\t// in\n    tag_793:\n        /* \"#utility.yul\":26190:26329   */\n      swap1\n      pop\n        /* \"#utility.yul\":25917:26336   */\n      swap2\n      swap1\n      pop\n      jump\t// out\n        /* \"#utility.yul\":26342:26460   */\n    tag_541:\n        /* \"#utility.yul\":26429:26453   */\n      tag_795\n        /* \"#utility.yul\":26447:26452   */\n      dup2\n        /* \"#utility.yul\":26429:26453   */\n      tag_490\n      jump\t// in\n    tag_795:\n        /* \"#utility.yul\":26424:26427   */\n      dup3\n        /* \"#utility.yul\":26417:26454   */\n      mstore\n        /* \"#utility.yul\":26342:26460   */\n      pop\n      pop\n      jump\t// out\n        /* \"#utility.yul\":26466:26908   */\n    tag_340:\n        /* \"#utility.yul\":26615:26619   */\n      0x00\n        /* \"#utility.yul\":26653:26655   */\n      0x60\n        /* \"#utility.yul\":26642:26651   */\n      dup3\n        /* \"#utility.yul\":26638:26656   */\n      add\n        /* \"#utility.yul\":26630:26656   */\n      swap1\n      pop\n        /* \"#utility.yul\":26666:26737   */\n      tag_797\n        /* \"#utility.yul\":26734:26735   */\n      0x00\n        /* \"#utility.yul\":26723:26732   */\n      dup4\n        /* \"#utility.yul\":26719:26736   */\n      add\n        /* \"#utility.yul\":26710:26716   */\n      dup7\n        /* \"#utility.yul\":26666:26737   */\n      tag_541\n      jump\t// in\n    tag_797:\n        /* \"#utility.yul\":26747:26819   */\n      tag_798\n        /* \"#utility.yul\":26815:26817   */\n      0x20\n        /* \"#utility.yul\":26804:26813   */\n      dup4\n        /* \"#utility.yul\":26800:26818   */\n      add\n        /* \"#utility.yul\":26791:26797   */\n      dup6\n        /* \"#utility.yul\":26747:26819   */\n      tag_541\n      jump\t// in\n    tag_798:\n        /* \"#utility.yul\":26829:26901   */\n      tag_799\n        /* \"#utility.yul\":26897:26899   */\n      0x40\n        /* \"#utility.yul\":26886:26895   */\n      dup4\n        /* \"#utility.yul\":26882:26900   */\n      add\n        /* \"#utility.yul\":26873:26879   */\n      dup5\n        /* \"#utility.yul\":26829:26901   */\n      tag_488\n      jump\t// in\n    tag_799:\n        /* \"#utility.yul\":26466:26908   */\n      swap5\n      swap4\n      pop\n      pop\n      pop\n      pop\n      jump\t// out\n        /* \"#utility.yul\":26914:27030   */\n    tag_542:\n        /* \"#utility.yul\":26984:27005   */\n      tag_801\n        /* \"#utility.yul\":26999:27004   */\n      dup2\n        /* \"#utility.yul\":26984:27005   */\n      tag_486\n      jump\t// in\n    tag_801:\n        /* \"#utility.yul\":26977:26982   */\n      dup2\n        /* \"#utility.yul\":26974:27006   */\n      eq\n        /* \"#utility.yul\":26964:27024   */\n      tag_802\n      jumpi\n        /* \"#utility.yul\":27020:27021   */\n      0x00\n        /* \"#utility.yul\":27017:27018   */\n      0x00\n        /* \"#utility.yul\":27010:27022   */\n      revert\n        /* \"#utility.yul\":26964:27024   */\n    tag_802:\n        /* \"#utility.yul\":26914:27030   */\n      pop\n      jump\t// out\n        /* \"#utility.yul\":27036:27173   */\n    tag_543:\n        /* \"#utility.yul\":27090:27095   */\n      0x00\n        /* \"#utility.yul\":27121:27127   */\n      dup2\n        /* \"#utility.yul\":27115:27128   */\n      mload\n        /* \"#utility.yul\":27106:27128   */\n      swap1\n      pop\n        /* \"#utility.yul\":27137:27167   */\n      tag_804\n        /* \"#utility.yul\":27161:27166   */\n      dup2\n        /* \"#utility.yul\":27137:27167   */\n      tag_542\n      jump\t// in\n    tag_804:\n        /* \"#utility.yul\":27036:27173   */\n      swap3\n      swap2\n      pop\n      pop\n      jump\t// out\n        /* \"#utility.yul\":27179:27524   */\n    tag_344:\n        /* \"#utility.yul\":27246:27252   */\n      0x00\n        /* \"#utility.yul\":27295:27297   */\n      0x20\n        /* \"#utility.yul\":27283:27292   */\n      dup3\n        /* \"#utility.yul\":27274:27281   */\n      dup5\n        /* \"#utility.yul\":27270:27293   */\n      sub\n        /* \"#utility.yul\":27266:27298   */\n      slt\n        /* \"#utility.yul\":27263:27382   */\n      iszero\n      tag_806\n      jumpi\n        /* \"#utility.yul\":27301:27380   */\n      tag_807\n      tag_478\n      jump\t// in\n    tag_807:\n        /* \"#utility.yul\":27263:27382   */\n    tag_806:\n        /* \"#utility.yul\":27421:27422   */\n      0x00\n        /* \"#utility.yul\":27446:27507   */\n      tag_808\n        /* \"#utility.yul\":27499:27506   */\n      dup5\n        /* \"#utility.yul\":27490:27496   */\n      dup3\n        /* \"#utility.yul\":27479:27488   */\n      dup6\n        /* \"#utility.yul\":27475:27497   */\n      add\n        /* \"#utility.yul\":27446:27507   */\n      tag_543\n      jump\t// in\n    tag_808:\n        /* \"#utility.yul\":27436:27507   */\n      swap2\n      pop\n        /* \"#utility.yul\":27392:27517   */\n      pop\n        /* \"#utility.yul\":27179:27524   */\n      swap3\n      swap2\n      pop\n      pop\n      jump\t// out\n        /* \"#utility.yul\":27530:27701   */\n    tag_544:\n        /* \"#utility.yul\":27670:27693   */\n      0x546f6b656e207472616e73666572206661696c65640000000000000000000000\n        /* \"#utility.yul\":27666:27667   */\n      0x00\n        /* \"#utility.yul\":27658:27664   */\n      dup3\n        /* \"#utility.yul\":27654:27668   */\n      add\n        /* \"#utility.yul\":27647:27694   */\n      mstore\n        /* \"#utility.yul\":27530:27701   */\n      pop\n      jump\t// out\n        /* \"#utility.yul\":27707:28073   */\n    tag_545:\n        /* \"#utility.yul\":27849:27852   */\n      0x00\n        /* \"#utility.yul\":27870:27937   */\n      tag_811\n        /* \"#utility.yul\":27934:27936   */\n      0x15\n        /* \"#utility.yul\":27929:27932   */\n      dup4\n        /* \"#utility.yul\":27870:27937   */\n      tag_472\n      jump\t// in\n    tag_811:\n        /* \"#utility.yul\":27863:27937   */\n      swap2\n      pop\n        /* \"#utility.yul\":27946:28039   */\n      tag_812\n        /* \"#utility.yul\":28035:28038   */\n      dup3\n        /* \"#utility.yul\":27946:28039   */\n      tag_544\n      jump\t// in\n    tag_812:\n        /* \"#utility.yul\":28064:28066   */\n      0x20\n        /* \"#utility.yul\":28059:28062   */\n      dup3\n        /* \"#utility.yul\":28055:28067   */\n      add\n        /* \"#utility.yul\":28048:28067   */\n      swap1\n      pop\n        /* \"#utility.yul\":27707:28073   */\n      swap2\n      swap1\n      pop\n      jump\t// out\n        /* \"#utility.yul\":28079:28498   */\n    tag_347:\n        /* \"#utility.yul\":28245:28249   */\n      0x00\n        /* \"#utility.yul\":28283:28285   */\n      0x20\n        /* \"#utility.yul\":28272:28281   */\n      dup3\n        /* \"#utility.yul\":28268:28286   */\n      add\n        /* \"#utility.yul\":28260:28286   */\n      swap1\n      pop\n        /* \"#utility.yul\":28332:28341   */\n      dup2\n        /* \"#utility.yul\":28326:28330   */\n      dup2\n        /* \"#utility.yul\":28322:28342   */\n      sub\n        /* \"#utility.yul\":28318:28319   */\n      0x00\n        /* \"#utility.yul\":28307:28316   */\n      dup4\n        /* \"#utility.yul\":28303:28320   */\n      add\n        /* \"#utility.yul\":28296:28343   */\n      mstore\n        /* \"#utility.yul\":28360:28491   */\n      tag_814\n        /* \"#utility.yul\":28486:28490   */\n      dup2\n        /* \"#utility.yul\":28360:28491   */\n      tag_545\n      jump\t// in\n    tag_814:\n        /* \"#utility.yul\":28352:28491   */\n      swap1\n      pop\n        /* \"#utility.yul\":28079:28498   */\n      swap2\n      swap1\n      pop\n      jump\t// out\n        /* \"#utility.yul\":28504:28674   */\n    tag_546:\n        /* \"#utility.yul\":28644:28666   */\n      0x496e76616c696420757365722061646472657373000000000000000000000000\n        /* \"#utility.yul\":28640:28641   */\n      0x00\n        /* \"#utility.yul\":28632:28638   */\n      dup3\n        /* \"#utility.yul\":28628:28642   */\n      add\n        /* \"#utility.yul\":28621:28667   */\n      mstore\n        /* \"#utility.yul\":28504:28674   */\n      pop\n      jump\t// out\n        /* \"#utility.yul\":28680:29046   */\n    tag_547:\n        /* \"#utility.yul\":28822:28825   */\n      0x00\n        /* \"#utility.yul\":28843:28910   */\n      tag_817\n        /* \"#utility.yul\":28907:28909   */\n      0x14\n        /* \"#utility.yul\":28902:28905   */\n      dup4\n        /* \"#utility.yul\":28843:28910   */\n      tag_472\n      jump\t// in\n    tag_817:\n        /* \"#utility.yul\":28836:28910   */\n      swap2\n      pop\n        /* \"#utility.yul\":28919:29012   */\n      tag_818\n        /* \"#utility.yul\":29008:29011   */\n      dup3\n        /* \"#utility.yul\":28919:29012   */\n      tag_546\n      jump\t// in\n    tag_818:\n        /* \"#utility.yul\":29037:29039   */\n      0x20\n        /* \"#utility.yul\":29032:29035   */\n      dup3\n        /* \"#utility.yul\":29028:29040   */\n      add\n        /* \"#utility.yul\":29021:29040   */\n      swap1\n      pop\n        /* \"#utility.yul\":28680:29046   */\n      swap2\n      swap1\n      pop\n      jump\t// out\n        /* \"#utility.yul\":29052:29471   */\n    tag_355:\n        /* \"#utility.yul\":29218:29222   */\n      0x00\n        /* \"#utility.yul\":29256:29258   */\n      0x20\n        /* \"#utility.yul\":29245:29254   */\n      dup3\n        /* \"#utility.yul\":29241:29259   */\n      add\n        /* \"#utility.yul\":29233:29259   */\n      swap1\n      pop\n        /* \"#utility.yul\":29305:29314   */\n      dup2\n        /* \"#utility.yul\":29299:29303   */\n      dup2\n        /* \"#utility.yul\":29295:29315   */\n      sub\n        /* \"#utility.yul\":29291:29292   */\n      0x00\n        /* \"#utility.yul\":29280:29289   */\n      dup4\n        /* \"#utility.yul\":29276:29293   */\n      add\n        /* \"#utility.yul\":29269:29316   */\n      mstore\n        /* \"#utility.yul\":29333:29464   */\n      tag_820\n        /* \"#utility.yul\":29459:29463   */\n      dup2\n        /* \"#utility.yul\":29333:29464   */\n      tag_547\n      jump\t// in\n    tag_820:\n        /* \"#utility.yul\":29325:29464   */\n      swap1\n      pop\n        /* \"#utility.yul\":29052:29471   */\n      swap2\n      swap1\n      pop\n      jump\t// out\n        /* \"#utility.yul\":29477:29649   */\n    tag_548:\n        /* \"#utility.yul\":29617:29641   */\n      0x4163636f756e7420616c72656164792065786973747300000000000000000000\n        /* \"#utility.yul\":29613:29614   */\n      0x00\n        /* \"#utility.yul\":29605:29611   */\n      dup3\n        /* \"#utility.yul\":29601:29615   */\n      add\n        /* \"#utility.yul\":29594:29642   */\n      mstore\n        /* \"#utility.yul\":29477:29649   */\n      pop\n      jump\t// out\n        /* \"#utility.yul\":29655:30021   */\n    tag_549:\n        /* \"#utility.yul\":29797:29800   */\n      0x00\n        /* \"#utility.yul\":29818:29885   */\n      tag_823\n        /* \"#utility.yul\":29882:29884   */\n      0x16\n        /* \"#utility.yul\":29877:29880   */\n      dup4\n        /* \"#utility.yul\":29818:29885   */\n      tag_472\n      jump\t// in\n    tag_823:\n        /* \"#utility.yul\":29811:29885   */\n      swap2\n      pop\n        /* \"#utility.yul\":29894:29987   */\n      tag_824\n        /* \"#utility.yul\":29983:29986   */\n      dup3\n        /* \"#utility.yul\":29894:29987   */\n      tag_548\n      jump\t// in\n    tag_824:\n        /* \"#utility.yul\":30012:30014   */\n      0x20\n        /* \"#utility.yul\":30007:30010   */\n      dup3\n        /* \"#utility.yul\":30003:30015   */\n      add\n        /* \"#utility.yul\":29996:30015   */\n      swap1\n      pop\n        /* \"#utility.yul\":29655:30021   */\n      swap2\n      swap1\n      pop\n      jump\t// out\n        /* \"#utility.yul\":30027:30446   */\n    tag_358:\n        /* \"#utility.yul\":30193:30197   */\n      0x00\n        /* \"#utility.yul\":30231:30233   */\n      0x20\n        /* \"#utility.yul\":30220:30229   */\n      dup3\n        /* \"#utility.yul\":30216:30234   */\n      add\n        /* \"#utility.yul\":30208:30234   */\n      swap1\n      pop\n        /* \"#utility.yul\":30280:30289   */\n      dup2\n        /* \"#utility.yul\":30274:30278   */\n      dup2\n        /* \"#utility.yul\":30270:30290   */\n      sub\n        /* \"#utility.yul\":30266:30267   */\n      0x00\n        /* \"#utility.yul\":30255:30264   */\n      dup4\n        /* \"#utility.yul\":30251:30268   */\n      add\n        /* \"#utility.yul\":30244:30291   */\n      mstore\n        /* \"#utility.yul\":30308:30439   */\n      tag_826\n        /* \"#utility.yul\":30434:30438   */\n      dup2\n        /* \"#utility.yul\":30308:30439   */\n      tag_549\n      jump\t// in\n    tag_826:\n        /* \"#utility.yul\":30300:30439   */\n      swap1\n      pop\n        /* \"#utility.yul\":30027:30446   */\n      swap2\n      swap1\n      pop\n      jump\t// out\n        /* \"#utility.yul\":30452:30628   */\n    tag_550:\n        /* \"#utility.yul\":30592:30620   */\n      0x496e73756666696369656e7420746f6b656e2062616c616e6365000000000000\n        /* \"#utility.yul\":30588:30589   */\n      0x00\n        /* \"#utility.yul\":30580:30586   */\n      dup3\n        /* \"#utility.yul\":30576:30590   */\n      add\n        /* \"#utility.yul\":30569:30621   */\n      mstore\n        /* \"#utility.yul\":30452:30628   */\n      pop\n      jump\t// out\n        /* \"#utility.yul\":30634:31000   */\n    tag_551:\n        /* \"#utility.yul\":30776:30779   */\n      0x00\n        /* \"#utility.yul\":30797:30864   */\n      tag_829\n        /* \"#utility.yul\":30861:30863   */\n      0x1a\n        /* \"#utility.yul\":30856:30859   */\n      dup4\n        /* \"#utility.yul\":30797:30864   */\n      tag_472\n      jump\t// in\n    tag_829:\n        /* \"#utility.yul\":30790:30864   */\n      swap2\n      pop\n        /* \"#utility.yul\":30873:30966   */\n      tag_830\n        /* \"#utility.yul\":30962:30965   */\n      dup3\n        /* \"#utility.yul\":30873:30966   */\n      tag_550\n      jump\t// in\n    tag_830:\n        /* \"#utility.yul\":30991:30993   */\n      0x20\n        /* \"#utility.yul\":30986:30989   */\n      dup3\n        /* \"#utility.yul\":30982:30994   */\n      add\n        /* \"#utility.yul\":30975:30994   */\n      swap1\n      pop\n        /* \"#utility.yul\":30634:31000   */\n      swap2\n      swap1\n      pop\n      jump\t// out\n        /* \"#utility.yul\":31006:31425   */\n    tag_371:\n        /* \"#utility.yul\":31172:31176   */\n      0x00\n        /* \"#utility.yul\":31210:31212   */\n      0x20\n        /* \"#utility.yul\":31199:31208   */\n      dup3\n        /* \"#utility.yul\":31195:31213   */\n      add\n        /* \"#utility.yul\":31187:31213   */\n      swap1\n      pop\n        /* \"#utility.yul\":31259:31268   */\n      dup2\n        /* \"#utility.yul\":31253:31257   */\n      dup2\n        /* \"#utility.yul\":31249:31269   */\n      sub\n        /* \"#utility.yul\":31245:31246   */\n      0x00\n        /* \"#utility.yul\":31234:31243   */\n      dup4\n        /* \"#utility.yul\":31230:31247   */\n      add\n        /* \"#utility.yul\":31223:31270   */\n      mstore\n        /* \"#utility.yul\":31287:31418   */\n      tag_832\n        /* \"#utility.yul\":31413:31417   */\n      dup2\n        /* \"#utility.yul\":31287:31418   */\n      tag_551\n      jump\t// in\n    tag_832:\n        /* \"#utility.yul\":31279:31418   */\n      swap1\n      pop\n        /* \"#utility.yul\":31006:31425   */\n      swap2\n      swap1\n      pop\n      jump\t// out\n        /* \"#utility.yul\":31431:31763   */\n    tag_374:\n        /* \"#utility.yul\":31552:31556   */\n      0x00\n        /* \"#utility.yul\":31590:31592   */\n      0x40\n        /* \"#utility.yul\":31579:31588   */\n      dup3\n        /* \"#utility.yul\":31575:31593   */\n      add\n        /* \"#utility.yul\":31567:31593   */\n      swap1\n      pop\n        /* \"#utility.yul\":31603:31674   */\n      tag_834\n        /* \"#utility.yul\":31671:31672   */\n      0x00\n        /* \"#utility.yul\":31660:31669   */\n      dup4\n        /* \"#utility.yul\":31656:31673   */\n      add\n        /* \"#utility.yul\":31647:31653   */\n      dup6\n        /* \"#utility.yul\":31603:31674   */\n      tag_541\n      jump\t// in\n    tag_834:\n        /* \"#utility.yul\":31684:31756   */\n      tag_835\n        /* \"#utility.yul\":31752:31754   */\n      0x20\n        /* \"#utility.yul\":31741:31750   */\n      dup4\n        /* \"#utility.yul\":31737:31755   */\n      add\n        /* \"#utility.yul\":31728:31734   */\n      dup5\n        /* \"#utility.yul\":31684:31756   */\n      tag_488\n      jump\t// in\n    tag_835:\n        /* \"#utility.yul\":31431:31763   */\n      swap4\n      swap3\n      pop\n      pop\n      pop\n      jump\t// out\n        /* \"#utility.yul\":31769:31940   */\n    tag_552:\n        /* \"#utility.yul\":31909:31932   */\n      0x546f6b656e207769746864726177206661696c65640000000000000000000000\n        /* \"#utility.yul\":31905:31906   */\n      0x00\n        /* \"#utility.yul\":31897:31903   */\n      dup3\n        /* \"#utility.yul\":31893:31907   */\n      add\n        /* \"#utility.yul\":31886:31933   */\n      mstore\n        /* \"#utility.yul\":31769:31940   */\n      pop\n      jump\t// out\n        /* \"#utility.yul\":31946:32312   */\n    tag_553:\n        /* \"#utility.yul\":32088:32091   */\n      0x00\n        /* \"#utility.yul\":32109:32176   */\n      tag_838\n        /* \"#utility.yul\":32173:32175   */\n      0x15\n        /* \"#utility.yul\":32168:32171   */\n      dup4\n        /* \"#utility.yul\":32109:32176   */\n      tag_472\n      jump\t// in\n    tag_838:\n        /* \"#utility.yul\":32102:32176   */\n      swap2\n      pop\n        /* \"#utility.yul\":32185:32278   */\n      tag_839\n        /* \"#utility.yul\":32274:32277   */\n      dup3\n        /* \"#utility.yul\":32185:32278   */\n      tag_552\n      jump\t// in\n    tag_839:\n        /* \"#utility.yul\":32303:32305   */\n      0x20\n        /* \"#utility.yul\":32298:32301   */\n      dup3\n        /* \"#utility.yul\":32294:32306   */\n      add\n        /* \"#utility.yul\":32287:32306   */\n      swap1\n      pop\n        /* \"#utility.yul\":31946:32312   */\n      swap2\n      swap1\n      pop\n      jump\t// out\n        /* \"#utility.yul\":32318:32737   */\n    tag_380:\n        /* \"#utility.yul\":32484:32488   */\n      0x00\n        /* \"#utility.yul\":32522:32524   */\n      0x20\n        /* \"#utility.yul\":32511:32520   */\n      dup3\n        /* \"#utility.yul\":32507:32525   */\n      add\n        /* \"#utility.yul\":32499:32525   */\n      swap1\n      pop\n        /* \"#utility.yul\":32571:32580   */\n      dup2\n        /* \"#utility.yul\":32565:32569   */\n      dup2\n        /* \"#utility.yul\":32561:32581   */\n      sub\n        /* \"#utility.yul\":32557:32558   */\n      0x00\n        /* \"#utility.yul\":32546:32555   */\n      dup4\n        /* \"#utility.yul\":32542:32559   */\n      add\n        /* \"#utility.yul\":32535:32582   */\n      mstore\n        /* \"#utility.yul\":32599:32730   */\n      tag_841\n        /* \"#utility.yul\":32725:32729   */\n      dup2\n        /* \"#utility.yul\":32599:32730   */\n      tag_553\n      jump\t// in\n    tag_841:\n        /* \"#utility.yul\":32591:32730   */\n      swap1\n      pop\n        /* \"#utility.yul\":32318:32737   */\n      swap2\n      swap1\n      pop\n      jump\t// out\n        /* \"#utility.yul\":32743:32906   */\n    tag_554:\n        /* \"#utility.yul\":32883:32898   */\n      0x496e76616c696420746f6b656e00000000000000000000000000000000000000\n        /* \"#utility.yul\":32879:32880   */\n      0x00\n        /* \"#utility.yul\":32871:32877   */\n      dup3\n        /* \"#utility.yul\":32867:32881   */\n      add\n        /* \"#utility.yul\":32860:32899   */\n      mstore\n        /* \"#utility.yul\":32743:32906   */\n      pop\n      jump\t// out\n        /* \"#utility.yul\":32912:33278   */\n    tag_555:\n        /* \"#utility.yul\":33054:33057   */\n      0x00\n        /* \"#utility.yul\":33075:33142   */\n      tag_844\n        /* \"#utility.yul\":33139:33141   */\n      0x0d\n        /* \"#utility.yul\":33134:33137   */\n      dup4\n        /* \"#utility.yul\":33075:33142   */\n      tag_472\n      jump\t// in\n    tag_844:\n        /* \"#utility.yul\":33068:33142   */\n      swap2\n      pop\n        /* \"#utility.yul\":33151:33244   */\n      tag_845\n        /* \"#utility.yul\":33240:33243   */\n      dup3\n        /* \"#utility.yul\":33151:33244   */\n      tag_554\n      jump\t// in\n    tag_845:\n        /* \"#utility.yul\":33269:33271   */\n      0x20\n        /* \"#utility.yul\":33264:33267   */\n      dup3\n        /* \"#utility.yul\":33260:33272   */\n      add\n        /* \"#utility.yul\":33253:33272   */\n      swap1\n      pop\n        /* \"#utility.yul\":32912:33278   */\n      swap2\n      swap1\n      pop\n      jump\t// out\n        /* \"#utility.yul\":33284:33703   */\n    tag_388:\n        /* \"#utility.yul\":33450:33454   */\n      0x00\n        /* \"#utility.yul\":33488:33490   */\n      0x20\n        /* \"#utility.yul\":33477:33486   */\n      dup3\n        /* \"#utility.yul\":33473:33491   */\n      add\n        /* \"#utility.yul\":33465:33491   */\n      swap1\n      pop\n        /* \"#utility.yul\":33537:33546   */\n      dup2\n        /* \"#utility.yul\":33531:33535   */\n      dup2\n        /* \"#utility.yul\":33527:33547   */\n      sub\n        /* \"#utility.yul\":33523:33524   */\n      0x00\n        /* \"#utility.yul\":33512:33521   */\n      dup4\n        /* \"#utility.yul\":33508:33525   */\n      add\n        /* \"#utility.yul\":33501:33548   */\n      mstore\n        /* \"#utility.yul\":33565:33696   */\n      tag_847\n        /* \"#utility.yul\":33691:33695   */\n      dup2\n        /* \"#utility.yul\":33565:33696   */\n      tag_555\n      jump\t// in\n    tag_847:\n        /* \"#utility.yul\":33557:33696   */\n      swap1\n      pop\n        /* \"#utility.yul\":33284:33703   */\n      swap2\n      swap1\n      pop\n      jump\t// out\n        /* \"#utility.yul\":33709:33876   */\n    tag_556:\n        /* \"#utility.yul\":33849:33868   */\n      0x42616e6b20636170206578636565646564000000000000000000000000000000\n        /* \"#utility.yul\":33845:33846   */\n      0x00\n        /* \"#utility.yul\":33837:33843   */\n      dup3\n        /* \"#utility.yul\":33833:33847   */\n      add\n        /* \"#utility.yul\":33826:33869   */\n      mstore\n        /* \"#utility.yul\":33709:33876   */\n      pop\n      jump\t// out\n        /* \"#utility.yul\":33882:34248   */\n    tag_557:\n        /* \"#utility.yul\":34024:34027   */\n      0x00\n        /* \"#utility.yul\":34045:34112   */\n      tag_850\n        /* \"#utility.yul\":34109:34111   */\n      0x11\n        /* \"#utility.yul\":34104:34107   */\n      dup4\n        /* \"#utility.yul\":34045:34112   */\n      tag_472\n      jump\t// in\n    tag_850:\n        /* \"#utility.yul\":34038:34112   */\n      swap2\n      pop\n        /* \"#utility.yul\":34121:34214   */\n      tag_851\n        /* \"#utility.yul\":34210:34213   */\n      dup3\n        /* \"#utility.yul\":34121:34214   */\n      tag_556\n      jump\t// in\n    tag_851:\n        /* \"#utility.yul\":34239:34241   */\n      0x20\n        /* \"#utility.yul\":34234:34237   */\n      dup3\n        /* \"#utility.yul\":34230:34242   */\n      add\n        /* \"#utility.yul\":34223:34242   */\n      swap1\n      pop\n        /* \"#utility.yul\":33882:34248   */\n      swap2\n      swap1\n      pop\n      jump\t// out\n        /* \"#utility.yul\":34254:34673   */\n    tag_404:\n        /* \"#utility.yul\":34420:34424   */\n      0x00\n        /* \"#utility.yul\":34458:34460   */\n      0x20\n        /* \"#utility.yul\":34447:34456   */\n      dup3\n        /* \"#utility.yul\":34443:34461   */\n      add\n        /* \"#utility.yul\":34435:34461   */\n      swap1\n      pop\n        /* \"#utility.yul\":34507:34516   */\n      dup2\n        /* \"#utility.yul\":34501:34505   */\n      dup2\n        /* \"#utility.yul\":34497:34517   */\n      sub\n        /* \"#utility.yul\":34493:34494   */\n      0x00\n        /* \"#utility.yul\":34482:34491   */\n      dup4\n        /* \"#utility.yul\":34478:34495   */\n      add\n        /* \"#utility.yul\":34471:34518   */\n      mstore\n        /* \"#utility.yul\":34535:34666   */\n      tag_853\n        /* \"#utility.yul\":34661:34665   */\n      dup2\n        /* \"#utility.yul\":34535:34666   */\n      tag_557\n      jump\t// in\n    tag_853:\n        /* \"#utility.yul\":34527:34666   */\n      swap1\n      pop\n        /* \"#utility.yul\":34254:34673   */\n      swap2\n      swap1\n      pop\n      jump\t// out\n        /* \"#utility.yul\":34679:34848   */\n    tag_558:\n        /* \"#utility.yul\":34819:34840   */\n      0x4465706f736974206d757374206265203e203000000000000000000000000000\n        /* \"#utility.yul\":34815:34816   */\n      0x00\n        /* \"#utility.yul\":34807:34813   */\n      dup3\n        /* \"#utility.yul\":34803:34817   */\n      add\n        /* \"#utility.yul\":34796:34841   */\n      mstore\n        /* \"#utility.yul\":34679:34848   */\n      pop\n      jump\t// out\n        /* \"#utility.yul\":34854:35220   */\n    tag_559:\n        /* \"#utility.yul\":34996:34999   */\n      0x00\n        /* \"#utility.yul\":35017:35084   */\n      tag_856\n        /* \"#utility.yul\":35081:35083   */\n      0x13\n        /* \"#utility.yul\":35076:35079   */\n      dup4\n        /* \"#utility.yul\":35017:35084   */\n      tag_472\n      jump\t// in\n    tag_856:\n        /* \"#utility.yul\":35010:35084   */\n      swap2\n      pop\n        /* \"#utility.yul\":35093:35186   */\n      tag_857\n        /* \"#utility.yul\":35182:35185   */\n      dup3\n        /* \"#utility.yul\":35093:35186   */\n      tag_558\n      jump\t// in\n    tag_857:\n        /* \"#utility.yul\":35211:35213   */\n      0x20\n        /* \"#utility.yul\":35206:35209   */\n      dup3\n        /* \"#utility.yul\":35202:35214   */\n      add\n        /* \"#utility.yul\":35195:35214   */\n      swap1\n      pop\n        /* \"#utility.yul\":34854:35220   */\n      swap2\n      swap1\n      pop\n      jump\t// out\n        /* \"#utility.yul\":35226:35645   */\n    tag_410:\n        /* \"#utility.yul\":35392:35396   */\n      0x00\n        /* \"#utility.yul\":35430:35432   */\n      0x20\n        /* \"#utility.yul\":35419:35428   */\n      dup3\n        /* \"#utility.yul\":35415:35433   */\n      add\n        /* \"#utility.yul\":35407:35433   */\n      swap1\n      pop\n        /* \"#utility.yul\":35479:35488   */\n      dup2\n        /* \"#utility.yul\":35473:35477   */\n      dup2\n        /* \"#utility.yul\":35469:35489   */\n      sub\n        /* \"#utility.yul\":35465:35466   */\n      0x00\n        /* \"#utility.yul\":35454:35463   */\n      dup4\n        /* \"#utility.yul\":35450:35467   */\n      add\n        /* \"#utility.yul\":35443:35490   */\n      mstore\n        /* \"#utility.yul\":35507:35638   */\n      tag_859\n        /* \"#utility.yul\":35633:35637   */\n      dup2\n        /* \"#utility.yul\":35507:35638   */\n      tag_559\n      jump\t// in\n    tag_859:\n        /* \"#utility.yul\":35499:35638   */\n      swap1\n      pop\n        /* \"#utility.yul\":35226:35645   */\n      swap2\n      swap1\n      pop\n      jump\t// out\n        /* \"#utility.yul\":35651:35983   */\n    tag_462:\n        /* \"#utility.yul\":35772:35776   */\n      0x00\n        /* \"#utility.yul\":35810:35812   */\n      0x40\n        /* \"#utility.yul\":35799:35808   */\n      dup3\n        /* \"#utility.yul\":35795:35813   */\n      add\n        /* \"#utility.yul\":35787:35813   */\n      swap1\n      pop\n        /* \"#utility.yul\":35823:35894   */\n      tag_861\n        /* \"#utility.yul\":35891:35892   */\n      0x00\n        /* \"#utility.yul\":35880:35889   */\n      dup4\n        /* \"#utility.yul\":35876:35893   */\n      add\n        /* \"#utility.yul\":35867:35873   */\n      dup6\n        /* \"#utility.yul\":35823:35894   */\n      tag_541\n      jump\t// in\n    tag_861:\n        /* \"#utility.yul\":35904:35976   */\n      tag_862\n        /* \"#utility.yul\":35972:35974   */\n      0x20\n        /* \"#utility.yul\":35961:35970   */\n      dup4\n        /* \"#utility.yul\":35957:35975   */\n      add\n        /* \"#utility.yul\":35948:35954   */\n      dup5\n        /* \"#utility.yul\":35904:35976   */\n      tag_496\n      jump\t// in\n    tag_862:\n        /* \"#utility.yul\":35651:35983   */\n      swap4\n      swap3\n      pop\n      pop\n      pop\n      jump\t// out\n\n    auxdata: 0xa264697066735822122071b7f176304f354b0ef9786022aa876a19d3f253a6db080ea2bb0eff421ca7a064736f6c634300081e0033\n}\n",
				"bytecode": {
					"linkReferences": {},
					"object": "60806040525f60045f6101000a81548160ff021916908315150217905550348015610028575f5ffd5b50604051613ef2380380613ef2833981810160405281019061004a91906103d2565b600161006861005d6101b060201b60201c565b6101d960201b60201c565b5f01819055505f73ffffffffffffffffffffffffffffffffffffffff168273ffffffffffffffffffffffffffffffffffffffff16036100dc576040517f08c379a00000000000000000000000000000000000000000000000000000000081526004016100d39061046a565b60405180910390fd5b5f811161011e576040517f08c379a0000000000000000000000000000000000000000000000000000000008152600401610115906104d2565b60405180910390fd5b6101305f5f1b336101e260201b60201c565b506101617fa49807205ce4d355092ef5a8a18f56e8913cf4a201fbe287825b095693c21775336101e260201b60201c565b508160015f6101000a81548173ffffffffffffffffffffffffffffffffffffffff021916908373ffffffffffffffffffffffffffffffffffffffff1602179055508060028190555050506104f0565b5f7f9b779b17422d0df92223018b32b4d1fa46e071723d6817e2486d003becc55f005f1b905090565b5f819050919050565b5f6101f383836102d760201b60201c565b6102cd5760015f5f8581526020019081526020015f205f015f8473ffffffffffffffffffffffffffffffffffffffff1673ffffffffffffffffffffffffffffffffffffffff1681526020019081526020015f205f6101000a81548160ff02191690831515021790555061026a61033a60201b60201c565b73ffffffffffffffffffffffffffffffffffffffff168273ffffffffffffffffffffffffffffffffffffffff16847f2f8788117e7eff1d82e926ec794901d17c78024a50270940304540a733656f0d60405160405180910390a4600190506102d1565b5f90505b92915050565b5f5f5f8481526020019081526020015f205f015f8373ffffffffffffffffffffffffffffffffffffffff1673ffffffffffffffffffffffffffffffffffffffff1681526020019081526020015f205f9054906101000a900460ff16905092915050565b5f33905090565b5f5ffd5b5f73ffffffffffffffffffffffffffffffffffffffff82169050919050565b5f61036e82610345565b9050919050565b61037e81610364565b8114610388575f5ffd5b50565b5f8151905061039981610375565b92915050565b5f819050919050565b6103b18161039f565b81146103bb575f5ffd5b50565b5f815190506103cc816103a8565b92915050565b5f5f604083850312156103e8576103e7610341565b5b5f6103f58582860161038b565b9250506020610406858286016103be565b9150509250929050565b5f82825260208201905092915050565b7f496e76616c6964207072696365206665656420616464726573730000000000005f82015250565b5f610454601a83610410565b915061045f82610420565b602082019050919050565b5f6020820190508181035f83015261048181610448565b9050919050565b7f42616e6b20636170206d757374206265203e20300000000000000000000000005f82015250565b5f6104bc601483610410565b91506104c782610488565b602082019050919050565b5f6020820190508181035f8301526104e9816104b0565b9050919050565b6139f5806104fd5f395ff3fe608060405260043610610206575f3560e01c8063777e0d8611610117578063be4dc94f1161009f578063e79767af1161006e578063e79767af14610789578063eae6f652146107b1578063ec87621c146107db578063eea88c5114610805578063f01cab3c1461082f57610246565b8063be4dc94f146106f3578063d0e30db01461071b578063d547741f14610725578063e744092e1461074d57610246565b80639859387b116100e65780639859387b14610629578063a1db978214610651578063a217fddf14610679578063b53472ef146106a3578063b71129c3146106cb57610246565b8063777e0d861461055f57806391d1485414610589578063951bc75a146105c557806397feb9261461060157610246565b80632ccb1b301161019a5780633aecd0e3116101695780633aecd0e31461048f57806360da3e83146104cb57806363d8882a146104f5578063741bef1a1461050b57806375b238fc1461053557610246565b80632ccb1b30146103ef5780632e1a7d4d146104175780632f2ff15d1461043f57806336568abe1461046757610246565b806318c8cfbe116101d657806318c8cfbe1461032557806320aa9a261461034f578063248a9ca31461038b57806326e885e3146103c757610246565b806269ea281461028157806301ffc9a7146102a957806302191980146102e557806312065fe0146102fb57610246565b36610246576040517f08c379a000000000000000000000000000000000000000000000000000000000815260040161023d906129bd565b60405180910390fd5b6040517f08c379a000000000000000000000000000000000000000000000000000000000815260040161027890612a25565b60405180910390fd5b34801561028c575f5ffd5b506102a760048036038101906102a29190612a7a565b61086b565b005b3480156102b4575f5ffd5b506102cf60048036038101906102ca9190612afa565b6108e4565b6040516102dc9190612b3f565b60405180910390f35b3480156102f0575f5ffd5b506102f961095d565b005b348015610306575f5ffd5b5061030f6109a4565b60405161031c9190612b67565b60405180910390f35b348015610330575f5ffd5b50610339610a15565b6040516103469190612b67565b60405180910390f35b34801561035a575f5ffd5b5061037560048036038101906103709190612bda565b610a1b565b6040516103829190612b67565b60405180910390f35b348015610396575f5ffd5b506103b160048036038101906103ac9190612c4b565b610b54565b6040516103be9190612c85565b60405180910390f35b3480156103d2575f5ffd5b506103ed60048036038101906103e89190612c9e565b610b70565b005b3480156103fa575f5ffd5b5061041560048036038101906104109190612cc9565b610bc9565b005b348015610422575f5ffd5b5061043d60048036038101906104389190612a7a565b610fcf565b005b34801561044a575f5ffd5b5061046560048036038101906104609190612d07565b6112c9565b005b348015610472575f5ffd5b5061048d60048036038101906104889190612d07565b6112eb565b005b34801561049a575f5ffd5b506104b560048036038101906104b09190612c9e565b611366565b6040516104c29190612b67565b60405180910390f35b3480156104d6575f5ffd5b506104df611412565b6040516104ec9190612b3f565b60405180910390f35b348015610500575f5ffd5b50610509611424565b005b348015610516575f5ffd5b5061051f61146a565b60405161052c9190612da0565b60405180910390f35b348015610540575f5ffd5b5061054961148f565b6040516105569190612c85565b60405180910390f35b34801561056a575f5ffd5b506105736114b3565b6040516105809190612dd1565b60405180910390f35b348015610594575f5ffd5b506105af60048036038101906105aa9190612d07565b611550565b6040516105bc9190612b3f565b60405180910390f35b3480156105d0575f5ffd5b506105eb60048036038101906105e69190612a7a565b6115b3565b6040516105f89190612b67565b60405180910390f35b34801561060c575f5ffd5b5061062760048036038101906106229190612cc9565b611628565b005b348015610634575f5ffd5b5061064f600480360381019061064a9190612c9e565b6119b1565b005b34801561065c575f5ffd5b5061067760048036038101906106729190612cc9565b611bc7565b005b348015610684575f5ffd5b5061068d611f41565b60405161069a9190612c85565b60405180910390f35b3480156106ae575f5ffd5b506106c960048036038101906106c49190612c9e565b611f47565b005b3480156106d6575f5ffd5b506106f160048036038101906106ec9190612d07565b612038565b005b3480156106fe575f5ffd5b5061071960048036038101906107149190612c9e565b612072565b005b6107236120cb565b005b348015610730575f5ffd5b5061074b60048036038101906107469190612d07565b612334565b005b348015610758575f5ffd5b50610773600480360381019061076e9190612c9e565b612356565b6040516107809190612b3f565b60405180910390f35b348015610794575f5ffd5b506107af60048036038101906107aa9190612c9e565b612373565b005b3480156107bc575f5ffd5b506107c561247e565b6040516107d29190612c85565b60405180910390f35b3480156107e6575f5ffd5b506107ef6124a2565b6040516107fc9190612c85565b60405180910390f35b348015610810575f5ffd5b506108196124c6565b6040516108269190612b67565b60405180910390f35b34801561083a575f5ffd5b5061085560048036038101906108509190612c9e565b6124cc565b6040516108629190612b67565b60405180910390f35b7f241ecf16d79d0f8dbfb92cbc07fe17840425976cf0667f022fe9877caa831b08610895816125cb565b60025482116108d9576040517f08c379a00000000000000000000000000000000000000000000000000000000081526004016108d090612e34565b60405180910390fd5b816002819055505050565b5f7f7965db0b000000000000000000000000000000000000000000000000000000007bffffffffffffffffffffffffffffffffffffffffffffffffffffffff1916827bffffffffffffffffffffffffffffffffffffffffffffffffffffffff191614806109565750610955826125df565b5b9050919050565b7f241ecf16d79d0f8dbfb92cbc07fe17840425976cf0667f022fe9877caa831b08610987816125cb565b600160045f6101000a81548160ff02191690831515021790555050565b5f7fa5ff3ec7a96cdbba4d2d5172d66bbc73c6db3885f29b21be5da9fa7a7c0252326109cf816125cb565b60055f3373ffffffffffffffffffffffffffffffffffffffff1673ffffffffffffffffffffffffffffffffffffffff1681526020019081526020015f205f015491505090565b60025481565b5f7f241ecf16d79d0f8dbfb92cbc07fe17840425976cf0667f022fe9877caa831b08610a46816125cb565b60055f8573ffffffffffffffffffffffffffffffffffffffff1673ffffffffffffffffffffffffffffffffffffffff1681526020019081526020015f206001015f9054906101000a900460ff16610ad2576040517f08c379a0000000000000000000000000000000000000000000000000000000008152600401610ac990612e9c565b60405180910390fd5b60065f8573ffffffffffffffffffffffffffffffffffffffff1673ffffffffffffffffffffffffffffffffffffffff1681526020019081526020015f205f8473ffffffffffffffffffffffffffffffffffffffff1673ffffffffffffffffffffffffffffffffffffffff1681526020019081526020015f205491505092915050565b5f5f5f8381526020019081526020015f20600101549050919050565b7fa49807205ce4d355092ef5a8a18f56e8913cf4a201fbe287825b095693c21775610b9a816125cb565b610bc47f241ecf16d79d0f8dbfb92cbc07fe17840425976cf0667f022fe9877caa831b0883612648565b505050565b610bd1612731565b7fa5ff3ec7a96cdbba4d2d5172d66bbc73c6db3885f29b21be5da9fa7a7c025232610bfb816125cb565b5f73ffffffffffffffffffffffffffffffffffffffff168373ffffffffffffffffffffffffffffffffffffffff1603610c69576040517f08c379a0000000000000000000000000000000000000000000000000000000008152600401610c6090612f04565b60405180910390fd5b3373ffffffffffffffffffffffffffffffffffffffff168373ffffffffffffffffffffffffffffffffffffffff1603610cd7576040517f08c379a0000000000000000000000000000000000000000000000000000000008152600401610cce90612f6c565b60405180910390fd5b60055f3373ffffffffffffffffffffffffffffffffffffffff1673ffffffffffffffffffffffffffffffffffffffff1681526020019081526020015f206001015f9054906101000a900460ff16610d63576040517f08c379a0000000000000000000000000000000000000000000000000000000008152600401610d5a90612fd4565b60405180910390fd5b60055f8473ffffffffffffffffffffffffffffffffffffffff1673ffffffffffffffffffffffffffffffffffffffff1681526020019081526020015f206001015f9054906101000a900460ff16610def576040517f08c379a0000000000000000000000000000000000000000000000000000000008152600401610de69061303c565b60405180910390fd5b5f8211610e31576040517f08c379a0000000000000000000000000000000000000000000000000000000008152600401610e28906130a4565b60405180910390fd5b8160055f3373ffffffffffffffffffffffffffffffffffffffff1673ffffffffffffffffffffffffffffffffffffffff1681526020019081526020015f205f01541015610eb3576040517f08c379a0000000000000000000000000000000000000000000000000000000008152600401610eaa9061310c565b60405180910390fd5b8160055f3373ffffffffffffffffffffffffffffffffffffffff1673ffffffffffffffffffffffffffffffffffffffff1681526020019081526020015f205f015f828254610f019190613157565b925050819055508160055f8573ffffffffffffffffffffffffffffffffffffffff1673ffffffffffffffffffffffffffffffffffffffff1681526020019081526020015f205f015f828254610f56919061318a565b925050819055508273ffffffffffffffffffffffffffffffffffffffff163373ffffffffffffffffffffffffffffffffffffffff167f422971e1d1a7c8b68372f65fe1426aef054f0c6290124a929c843c5c019521d684604051610fba9190612b67565b60405180910390a350610fcb612753565b5050565b610fd7612731565b7fa5ff3ec7a96cdbba4d2d5172d66bbc73c6db3885f29b21be5da9fa7a7c025232611001816125cb565b60055f3373ffffffffffffffffffffffffffffffffffffffff1673ffffffffffffffffffffffffffffffffffffffff1681526020019081526020015f206001015f9054906101000a900460ff1661108d576040517f08c379a000000000000000000000000000000000000000000000000000000000815260040161108490613207565b60405180910390fd5b5f82116110cf576040517f08c379a00000000000000000000000000000000000000000000000000000000081526004016110c6906130a4565b60405180910390fd5b8160055f3373ffffffffffffffffffffffffffffffffffffffff1673ffffffffffffffffffffffffffffffffffffffff1681526020019081526020015f205f01541015611151576040517f08c379a00000000000000000000000000000000000000000000000000000000081526004016111489061310c565b60405180910390fd5b8160055f3373ffffffffffffffffffffffffffffffffffffffff1673ffffffffffffffffffffffffffffffffffffffff1681526020019081526020015f205f015f82825461119f9190613157565b925050819055506111af826115b3565b60035f8282546111bf9190613157565b925050819055505f3373ffffffffffffffffffffffffffffffffffffffff16836040516111eb90613252565b5f6040518083038185875af1925050503d805f8114611225576040519150601f19603f3d011682016040523d82523d5f602084013e61122a565b606091505b505090508061126e576040517f08c379a0000000000000000000000000000000000000000000000000000000008152600401611265906132b0565b60405180910390fd5b3373ffffffffffffffffffffffffffffffffffffffff167fbc158bb64f05d6383aea69bbb0b20c1bbf4b7a18f63359c5649b7c39e29d3884846040516112b49190612b67565b60405180910390a250506112c6612753565b50565b6112d282610b54565b6112db816125cb565b6112e58383612648565b50505050565b6112f361276d565b73ffffffffffffffffffffffffffffffffffffffff168173ffffffffffffffffffffffffffffffffffffffff1614611357576040517f6697b23200000000000000000000000000000000000000000000000000000000815260040160405180910390fd5b6113618282612774565b505050565b5f7fa5ff3ec7a96cdbba4d2d5172d66bbc73c6db3885f29b21be5da9fa7a7c025232611391816125cb565b60065f3373ffffffffffffffffffffffffffffffffffffffff1673ffffffffffffffffffffffffffffffffffffffff1681526020019081526020015f205f8473ffffffffffffffffffffffffffffffffffffffff1673ffffffffffffffffffffffffffffffffffffffff1681526020019081526020015f2054915050919050565b60045f9054906101000a900460ff1681565b7f241ecf16d79d0f8dbfb92cbc07fe17840425976cf0667f022fe9877caa831b0861144e816125cb565b5f60045f6101000a81548160ff02191690831515021790555050565b60015f9054906101000a900473ffffffffffffffffffffffffffffffffffffffff1681565b7fa49807205ce4d355092ef5a8a18f56e8913cf4a201fbe287825b095693c2177581565b5f5f60015f9054906101000a900473ffffffffffffffffffffffffffffffffffffffff1673ffffffffffffffffffffffffffffffffffffffff1663feaf968c6040518163ffffffff1660e01b815260040160a060405180830381865afa15801561151f573d5f5f3e3d5ffd5b505050506040513d601f19601f82011682018060405250810190611543919061334b565b5050509150508091505090565b5f5f5f8481526020019081526020015f205f015f8373ffffffffffffffffffffffffffffffffffffffff1673ffffffffffffffffffffffffffffffffffffffff1681526020019081526020015f205f9054906101000a900460ff16905092915050565b5f5f6115bd6114b3565b90505f8113611601576040517f08c379a00000000000000000000000000000000000000000000000000000000081526004016115f89061340c565b60405180910390fd5b670de0b6b3a76400008184611616919061342a565b6116209190613498565b915050919050565b7fa5ff3ec7a96cdbba4d2d5172d66bbc73c6db3885f29b21be5da9fa7a7c025232611652816125cb565b60055f3373ffffffffffffffffffffffffffffffffffffffff1673ffffffffffffffffffffffffffffffffffffffff1681526020019081526020015f206001015f9054906101000a900460ff166116de576040517f08c379a00000000000000000000000000000000000000000000000000000000081526004016116d590613207565b60405180910390fd5b60045f9054906101000a900460ff161561172d576040517f08c379a000000000000000000000000000000000000000000000000000000000815260040161172490613512565b60405180910390fd5b60075f8473ffffffffffffffffffffffffffffffffffffffff1673ffffffffffffffffffffffffffffffffffffffff1681526020019081526020015f205f9054906101000a900460ff166117b6576040517f08c379a00000000000000000000000000000000000000000000000000000000081526004016117ad9061357a565b60405180910390fd5b5f82116117f8576040517f08c379a00000000000000000000000000000000000000000000000000000000081526004016117ef906130a4565b60405180910390fd5b5f8373ffffffffffffffffffffffffffffffffffffffff166323b872dd3330866040518463ffffffff1660e01b8152600401611836939291906135a7565b6020604051808303815f875af1158015611852573d5f5f3e3d5ffd5b505050506040513d601f19601f820116820180604052508101906118769190613606565b9050806118b8576040517f08c379a00000000000000000000000000000000000000000000000000000000081526004016118af9061367b565b60405180910390fd5b8260065f3373ffffffffffffffffffffffffffffffffffffffff1673ffffffffffffffffffffffffffffffffffffffff1681526020019081526020015f205f8673ffffffffffffffffffffffffffffffffffffffff1673ffffffffffffffffffffffffffffffffffffffff1681526020019081526020015f205f82825461193f919061318a565b925050819055508373ffffffffffffffffffffffffffffffffffffffff163373ffffffffffffffffffffffffffffffffffffffff167f98c09d9949722bae4bd0d988d4050091c3ae7ec6d51d3c6bbfe4233593944e9e856040516119a39190612b67565b60405180910390a350505050565b7fa49807205ce4d355092ef5a8a18f56e8913cf4a201fbe287825b095693c217756119db816125cb565b5f73ffffffffffffffffffffffffffffffffffffffff168273ffffffffffffffffffffffffffffffffffffffff1603611a49576040517f08c379a0000000000000000000000000000000000000000000000000000000008152600401611a40906136e3565b60405180910390fd5b60055f8373ffffffffffffffffffffffffffffffffffffffff1673ffffffffffffffffffffffffffffffffffffffff1681526020019081526020015f206001015f9054906101000a900460ff1615611ad6576040517f08c379a0000000000000000000000000000000000000000000000000000000008152600401611acd9061374b565b60405180910390fd5b60405180604001604052805f81526020016001151581525060055f8473ffffffffffffffffffffffffffffffffffffffff1673ffffffffffffffffffffffffffffffffffffffff1681526020019081526020015f205f820151815f01556020820151816001015f6101000a81548160ff021916908315150217905550905050611b7f7fa5ff3ec7a96cdbba4d2d5172d66bbc73c6db3885f29b21be5da9fa7a7c02523283612648565b508173ffffffffffffffffffffffffffffffffffffffff167f805996f252884581e2f74cf3d2b03564d5ec26ccc90850ae12653dc1b72d1fa260405160405180910390a25050565b611bcf612731565b7fa5ff3ec7a96cdbba4d2d5172d66bbc73c6db3885f29b21be5da9fa7a7c025232611bf9816125cb565b60055f3373ffffffffffffffffffffffffffffffffffffffff1673ffffffffffffffffffffffffffffffffffffffff1681526020019081526020015f206001015f9054906101000a900460ff16611c85576040517f08c379a0000000000000000000000000000000000000000000000000000000008152600401611c7c90613207565b60405180910390fd5b5f8211611cc7576040517f08c379a0000000000000000000000000000000000000000000000000000000008152600401611cbe906130a4565b60405180910390fd5b8160065f3373ffffffffffffffffffffffffffffffffffffffff1673ffffffffffffffffffffffffffffffffffffffff1681526020019081526020015f205f8573ffffffffffffffffffffffffffffffffffffffff1673ffffffffffffffffffffffffffffffffffffffff1681526020019081526020015f20541015611d82576040517f08c379a0000000000000000000000000000000000000000000000000000000008152600401611d79906137b3565b60405180910390fd5b8160065f3373ffffffffffffffffffffffffffffffffffffffff1673ffffffffffffffffffffffffffffffffffffffff1681526020019081526020015f205f8573ffffffffffffffffffffffffffffffffffffffff1673ffffffffffffffffffffffffffffffffffffffff1681526020019081526020015f205f828254611e099190613157565b925050819055505f8373ffffffffffffffffffffffffffffffffffffffff1663a9059cbb33856040518363ffffffff1660e01b8152600401611e4c9291906137d1565b6020604051808303815f875af1158015611e68573d5f5f3e3d5ffd5b505050506040513d601f19601f82011682018060405250810190611e8c9190613606565b905080611ece576040517f08c379a0000000000000000000000000000000000000000000000000000000008152600401611ec590613842565b60405180910390fd5b8373ffffffffffffffffffffffffffffffffffffffff163373ffffffffffffffffffffffffffffffffffffffff167f42856d0378dde02337bb59ae41747abc77ded8ebdbbc5cbdd1e53693b755493885604051611f2b9190612b67565b60405180910390a35050611f3d612753565b5050565b5f5f1b81565b7f241ecf16d79d0f8dbfb92cbc07fe17840425976cf0667f022fe9877caa831b08611f71816125cb565b5f73ffffffffffffffffffffffffffffffffffffffff168273ffffffffffffffffffffffffffffffffffffffff1603611fdf576040517f08c379a0000000000000000000000000000000000000000000000000000000008152600401611fd6906138aa565b60405180910390fd5b600160075f8473ffffffffffffffffffffffffffffffffffffffff1673ffffffffffffffffffffffffffffffffffffffff1681526020019081526020015f205f6101000a81548160ff0219169083151502179055505050565b7fa49807205ce4d355092ef5a8a18f56e8913cf4a201fbe287825b095693c21775612062816125cb565b61206c8383612774565b50505050565b7fa49807205ce4d355092ef5a8a18f56e8913cf4a201fbe287825b095693c2177561209c816125cb565b6120c67f241ecf16d79d0f8dbfb92cbc07fe17840425976cf0667f022fe9877caa831b0883612774565b505050565b7fa5ff3ec7a96cdbba4d2d5172d66bbc73c6db3885f29b21be5da9fa7a7c0252326120f5816125cb565b6120fe346115b3565b6002548160035461210f919061318a565b1115612150576040517f08c379a000000000000000000000000000000000000000000000000000000000815260040161214790613912565b60405180910390fd5b60055f3373ffffffffffffffffffffffffffffffffffffffff1673ffffffffffffffffffffffffffffffffffffffff1681526020019081526020015f206001015f9054906101000a900460ff166121dc576040517f08c379a00000000000000000000000000000000000000000000000000000000081526004016121d390613207565b60405180910390fd5b5f341161221e576040517f08c379a00000000000000000000000000000000000000000000000000000000081526004016122159061397a565b60405180910390fd5b60045f9054906101000a900460ff161561226d576040517f08c379a000000000000000000000000000000000000000000000000000000000815260040161226490613512565b60405180910390fd5b3460055f3373ffffffffffffffffffffffffffffffffffffffff1673ffffffffffffffffffffffffffffffffffffffff1681526020019081526020015f205f015f8282546122bb919061318a565b925050819055506122cb346115b3565b60035f8282546122db919061318a565b925050819055503373ffffffffffffffffffffffffffffffffffffffff167fd15c9547ea5c06670c0010ce19bc32d54682a4b3801ece7f3ab0c3f17106b4bb346040516123289190612b67565b60405180910390a25050565b61233d82610b54565b612346816125cb565b6123508383612774565b50505050565b6007602052805f5260405f205f915054906101000a900460ff1681565b7f241ecf16d79d0f8dbfb92cbc07fe17840425976cf0667f022fe9877caa831b0861239d816125cb565b60075f8373ffffffffffffffffffffffffffffffffffffffff1673ffffffffffffffffffffffffffffffffffffffff1681526020019081526020015f205f9054906101000a900460ff16612426576040517f08c379a000000000000000000000000000000000000000000000000000000000815260040161241d9061357a565b60405180910390fd5b5f60075f8473ffffffffffffffffffffffffffffffffffffffff1673ffffffffffffffffffffffffffffffffffffffff1681526020019081526020015f205f6101000a81548160ff0219169083151502179055505050565b7fa5ff3ec7a96cdbba4d2d5172d66bbc73c6db3885f29b21be5da9fa7a7c02523281565b7f241ecf16d79d0f8dbfb92cbc07fe17840425976cf0667f022fe9877caa831b0881565b60035481565b5f7f241ecf16d79d0f8dbfb92cbc07fe17840425976cf0667f022fe9877caa831b086124f7816125cb565b60055f8473ffffffffffffffffffffffffffffffffffffffff1673ffffffffffffffffffffffffffffffffffffffff1681526020019081526020015f206001015f9054906101000a900460ff16612583576040517f08c379a000000000000000000000000000000000000000000000000000000000815260040161257a90612e9c565b60405180910390fd5b60055f8473ffffffffffffffffffffffffffffffffffffffff1673ffffffffffffffffffffffffffffffffffffffff1681526020019081526020015f205f0154915050919050565b6125dc816125d761276d565b61285d565b50565b5f7f01ffc9a7000000000000000000000000000000000000000000000000000000007bffffffffffffffffffffffffffffffffffffffffffffffffffffffff1916827bffffffffffffffffffffffffffffffffffffffffffffffffffffffff1916149050919050565b5f6126538383611550565b6127275760015f5f8581526020019081526020015f205f015f8473ffffffffffffffffffffffffffffffffffffffff1673ffffffffffffffffffffffffffffffffffffffff1681526020019081526020015f205f6101000a81548160ff0219169083151502179055506126c461276d565b73ffffffffffffffffffffffffffffffffffffffff168273ffffffffffffffffffffffffffffffffffffffff16847f2f8788117e7eff1d82e926ec794901d17c78024a50270940304540a733656f0d60405160405180910390a46001905061272b565b5f90505b92915050565b6127396128ae565b600261274b6127466128ef565b612918565b5f0181905550565b60016127656127606128ef565b612918565b5f0181905550565b5f33905090565b5f61277f8383611550565b15612853575f5f5f8581526020019081526020015f205f015f8473ffffffffffffffffffffffffffffffffffffffff1673ffffffffffffffffffffffffffffffffffffffff1681526020019081526020015f205f6101000a81548160ff0219169083151502179055506127f061276d565b73ffffffffffffffffffffffffffffffffffffffff168273ffffffffffffffffffffffffffffffffffffffff16847ff6391f5c32d9c69d2a47ea670b442974b53935d1edc7fd64eb21e047a839171b60405160405180910390a460019050612857565b5f90505b92915050565b6128678282611550565b6128aa5780826040517fe2517d3f0000000000000000000000000000000000000000000000000000000081526004016128a1929190613998565b60405180910390fd5b5050565b6128b6612921565b156128ed576040517f3ee5aeb500000000000000000000000000000000000000000000000000000000815260040160405180910390fd5b565b5f7f9b779b17422d0df92223018b32b4d1fa46e071723d6817e2486d003becc55f005f1b905090565b5f819050919050565b5f600261293461292f6128ef565b612918565b5f015414905090565b5f82825260208201905092915050565b7f446972656374206465706f736974732064697361626c65643b207573652064655f8201527f706f736974282900000000000000000000000000000000000000000000000000602082015250565b5f6129a760278361293d565b91506129b28261294d565b604082019050919050565b5f6020820190508181035f8301526129d48161299b565b9050919050565b7f46616c6c6261636b3a20757365206465706f73697428290000000000000000005f82015250565b5f612a0f60178361293d565b9150612a1a826129db565b602082019050919050565b5f6020820190508181035f830152612a3c81612a03565b9050919050565b5f5ffd5b5f819050919050565b612a5981612a47565b8114612a63575f5ffd5b50565b5f81359050612a7481612a50565b92915050565b5f60208284031215612a8f57612a8e612a43565b5b5f612a9c84828501612a66565b91505092915050565b5f7fffffffff0000000000000000000000000000000000000000000000000000000082169050919050565b612ad981612aa5565b8114612ae3575f5ffd5b50565b5f81359050612af481612ad0565b92915050565b5f60208284031215612b0f57612b0e612a43565b5b5f612b1c84828501612ae6565b91505092915050565b5f8115159050919050565b612b3981612b25565b82525050565b5f602082019050612b525f830184612b30565b92915050565b612b6181612a47565b82525050565b5f602082019050612b7a5f830184612b58565b92915050565b5f73ffffffffffffffffffffffffffffffffffffffff82169050919050565b5f612ba982612b80565b9050919050565b612bb981612b9f565b8114612bc3575f5ffd5b50565b5f81359050612bd481612bb0565b92915050565b5f5f60408385031215612bf057612bef612a43565b5b5f612bfd85828601612bc6565b9250506020612c0e85828601612bc6565b9150509250929050565b5f819050919050565b612c2a81612c18565b8114612c34575f5ffd5b50565b5f81359050612c4581612c21565b92915050565b5f60208284031215612c6057612c5f612a43565b5b5f612c6d84828501612c37565b91505092915050565b612c7f81612c18565b82525050565b5f602082019050612c985f830184612c76565b92915050565b5f60208284031215612cb357612cb2612a43565b5b5f612cc084828501612bc6565b91505092915050565b5f5f60408385031215612cdf57612cde612a43565b5b5f612cec85828601612bc6565b9250506020612cfd85828601612a66565b9150509250929050565b5f5f60408385031215612d1d57612d1c612a43565b5b5f612d2a85828601612c37565b9250506020612d3b85828601612bc6565b9150509250929050565b5f819050919050565b5f612d68612d63612d5e84612b80565b612d45565b612b80565b9050919050565b5f612d7982612d4e565b9050919050565b5f612d8a82612d6f565b9050919050565b612d9a81612d80565b82525050565b5f602082019050612db35f830184612d91565b92915050565b5f819050919050565b612dcb81612db9565b82525050565b5f602082019050612de45f830184612dc2565b92915050565b7f4e657720636170206d75737420626520686967686572000000000000000000005f82015250565b5f612e1e60168361293d565b9150612e2982612dea565b602082019050919050565b5f6020820190508181035f830152612e4b81612e12565b9050919050565b7f4163636f756e74206e6f7420666f756e640000000000000000000000000000005f82015250565b5f612e8660118361293d565b9150612e9182612e52565b602082019050919050565b5f6020820190508181035f830152612eb381612e7a565b9050919050565b7f496e76616c696420726563697069656e740000000000000000000000000000005f82015250565b5f612eee60118361293d565b9150612ef982612eba565b602082019050919050565b5f6020820190508181035f830152612f1b81612ee2565b9050919050565b7f43616e6e6f74207472616e7366657220746f20796f757273656c6600000000005f82015250565b5f612f56601b8361293d565b9150612f6182612f22565b602082019050919050565b5f6020820190508181035f830152612f8381612f4a565b9050919050565b7f53656e64657220686173206e6f206163636f756e7400000000000000000000005f82015250565b5f612fbe60158361293d565b9150612fc982612f8a565b602082019050919050565b5f6020820190508181035f830152612feb81612fb2565b9050919050565b7f526563697069656e7420686173206e6f206163636f756e7400000000000000005f82015250565b5f61302660188361293d565b915061303182612ff2565b602082019050919050565b5f6020820190508181035f8301526130538161301a565b9050919050565b7f416d6f756e74206d757374206265203e203000000000000000000000000000005f82015250565b5f61308e60128361293d565b91506130998261305a565b602082019050919050565b5f6020820190508181035f8301526130bb81613082565b9050919050565b7f496e73756666696369656e742066756e647300000000000000000000000000005f82015250565b5f6130f660128361293d565b9150613101826130c2565b602082019050919050565b5f6020820190508181035f830152613123816130ea565b9050919050565b7f4e487b71000000000000000000000000000000000000000000000000000000005f52601160045260245ffd5b5f61316182612a47565b915061316c83612a47565b92508282039050818111156131845761318361312a565b5b92915050565b5f61319482612a47565b915061319f83612a47565b92508282019050808211156131b7576131b661312a565b5b92915050565b7f4163636f756e7420646f6573206e6f74206578697374000000000000000000005f82015250565b5f6131f160168361293d565b91506131fc826131bd565b602082019050919050565b5f6020820190508181035f83015261321e816131e5565b9050919050565b5f81905092915050565b50565b5f61323d5f83613225565b91506132488261322f565b5f82019050919050565b5f61325c82613232565b9150819050919050565b7f455448207769746864726177616c206661696c656400000000000000000000005f82015250565b5f61329a60158361293d565b91506132a582613266565b602082019050919050565b5f6020820190508181035f8301526132c78161328e565b9050919050565b5f69ffffffffffffffffffff82169050919050565b6132ec816132ce565b81146132f6575f5ffd5b50565b5f81519050613307816132e3565b92915050565b61331681612db9565b8114613320575f5ffd5b50565b5f815190506133318161330d565b92915050565b5f8151905061334581612a50565b92915050565b5f5f5f5f5f60a0868803121561336457613363612a43565b5b5f613371888289016132f9565b955050602061338288828901613323565b945050604061339388828901613337565b93505060606133a488828901613337565b92505060806133b5888289016132f9565b9150509295509295909350565b7f496e76616c6964207072696365000000000000000000000000000000000000005f82015250565b5f6133f6600d8361293d565b9150613401826133c2565b602082019050919050565b5f6020820190508181035f830152613423816133ea565b9050919050565b5f61343482612a47565b915061343f83612a47565b925082820261344d81612a47565b915082820484148315176134645761346361312a565b5b5092915050565b7f4e487b71000000000000000000000000000000000000000000000000000000005f52601260045260245ffd5b5f6134a282612a47565b91506134ad83612a47565b9250826134bd576134bc61346b565b5b828204905092915050565b7f4465706f736974732061726520706175736564000000000000000000000000005f82015250565b5f6134fc60138361293d565b9150613507826134c8565b602082019050919050565b5f6020820190508181035f830152613529816134f0565b9050919050565b7f546f6b656e206e6f7420616c6c6f7765640000000000000000000000000000005f82015250565b5f61356460118361293d565b915061356f82613530565b602082019050919050565b5f6020820190508181035f83015261359181613558565b9050919050565b6135a181612b9f565b82525050565b5f6060820190506135ba5f830186613598565b6135c76020830185613598565b6135d46040830184612b58565b949350505050565b6135e581612b25565b81146135ef575f5ffd5b50565b5f81519050613600816135dc565b92915050565b5f6020828403121561361b5761361a612a43565b5b5f613628848285016135f2565b91505092915050565b7f546f6b656e207472616e73666572206661696c656400000000000000000000005f82015250565b5f61366560158361293d565b915061367082613631565b602082019050919050565b5f6020820190508181035f83015261369281613659565b9050919050565b7f496e76616c6964207573657220616464726573730000000000000000000000005f82015250565b5f6136cd60148361293d565b91506136d882613699565b602082019050919050565b5f6020820190508181035f8301526136fa816136c1565b9050919050565b7f4163636f756e7420616c726561647920657869737473000000000000000000005f82015250565b5f61373560168361293d565b915061374082613701565b602082019050919050565b5f6020820190508181035f83015261376281613729565b9050919050565b7f496e73756666696369656e7420746f6b656e2062616c616e63650000000000005f82015250565b5f61379d601a8361293d565b91506137a882613769565b602082019050919050565b5f6020820190508181035f8301526137ca81613791565b9050919050565b5f6040820190506137e45f830185613598565b6137f16020830184612b58565b9392505050565b7f546f6b656e207769746864726177206661696c656400000000000000000000005f82015250565b5f61382c60158361293d565b9150613837826137f8565b602082019050919050565b5f6020820190508181035f83015261385981613820565b9050919050565b7f496e76616c696420746f6b656e000000000000000000000000000000000000005f82015250565b5f613894600d8361293d565b915061389f82613860565b602082019050919050565b5f6020820190508181035f8301526138c181613888565b9050919050565b7f42616e6b206361702065786365656465640000000000000000000000000000005f82015250565b5f6138fc60118361293d565b9150613907826138c8565b602082019050919050565b5f6020820190508181035f830152613929816138f0565b9050919050565b7f4465706f736974206d757374206265203e2030000000000000000000000000005f82015250565b5f61396460138361293d565b915061396f82613930565b602082019050919050565b5f6020820190508181035f83015261399181613958565b9050919050565b5f6040820190506139ab5f830185613598565b6139b86020830184612c76565b939250505056fea264697066735822122071b7f176304f354b0ef9786022aa876a19d3f253a6db080ea2bb0eff421ca7a064736f6c634300081e0033",
					"opcodes": "PUSH1 0x80 PUSH1 0x40 MSTORE PUSH0 PUSH1 0x4 PUSH0 PUSH2 0x100 EXP DUP2 SLOAD DUP2 PUSH1 0xFF MUL NOT AND SWAP1 DUP4 ISZERO ISZERO MUL OR SWAP1 SSTORE POP CALLVALUE DUP1 ISZERO PUSH2 0x28 JUMPI PUSH0 PUSH0 REVERT JUMPDEST POP PUSH1 0x40 MLOAD PUSH2 0x3EF2 CODESIZE SUB DUP1 PUSH2 0x3EF2 DUP4 CODECOPY DUP2 DUP2 ADD PUSH1 0x40 MSTORE DUP2 ADD SWAP1 PUSH2 0x4A SWAP2 SWAP1 PUSH2 0x3D2 JUMP JUMPDEST PUSH1 0x1 PUSH2 0x68 PUSH2 0x5D PUSH2 0x1B0 PUSH1 0x20 SHL PUSH1 0x20 SHR JUMP JUMPDEST PUSH2 0x1D9 PUSH1 0x20 SHL PUSH1 0x20 SHR JUMP JUMPDEST PUSH0 ADD DUP2 SWAP1 SSTORE POP PUSH0 PUSH20 0xFFFFFFFFFFFFFFFFFFFFFFFFFFFFFFFFFFFFFFFF AND DUP3 PUSH20 0xFFFFFFFFFFFFFFFFFFFFFFFFFFFFFFFFFFFFFFFF AND SUB PUSH2 0xDC JUMPI PUSH1 0x40 MLOAD PUSH32 0x8C379A000000000000000000000000000000000000000000000000000000000 DUP2 MSTORE PUSH1 0x4 ADD PUSH2 0xD3 SWAP1 PUSH2 0x46A JUMP JUMPDEST PUSH1 0x40 MLOAD DUP1 SWAP2 SUB SWAP1 REVERT JUMPDEST PUSH0 DUP2 GT PUSH2 0x11E JUMPI PUSH1 0x40 MLOAD PUSH32 0x8C379A000000000000000000000000000000000000000000000000000000000 DUP2 MSTORE PUSH1 0x4 ADD PUSH2 0x115 SWAP1 PUSH2 0x4D2 JUMP JUMPDEST PUSH1 0x40 MLOAD DUP1 SWAP2 SUB SWAP1 REVERT JUMPDEST PUSH2 0x130 PUSH0 PUSH0 SHL CALLER PUSH2 0x1E2 PUSH1 0x20 SHL PUSH1 0x20 SHR JUMP JUMPDEST POP PUSH2 0x161 PUSH32 0xA49807205CE4D355092EF5A8A18F56E8913CF4A201FBE287825B095693C21775 CALLER PUSH2 0x1E2 PUSH1 0x20 SHL PUSH1 0x20 SHR JUMP JUMPDEST POP DUP2 PUSH1 0x1 PUSH0 PUSH2 0x100 EXP DUP2 SLOAD DUP2 PUSH20 0xFFFFFFFFFFFFFFFFFFFFFFFFFFFFFFFFFFFFFFFF MUL NOT AND SWAP1 DUP4 PUSH20 0xFFFFFFFFFFFFFFFFFFFFFFFFFFFFFFFFFFFFFFFF AND MUL OR SWAP1 SSTORE POP DUP1 PUSH1 0x2 DUP2 SWAP1 SSTORE POP POP POP PUSH2 0x4F0 JUMP JUMPDEST PUSH0 PUSH32 0x9B779B17422D0DF92223018B32B4D1FA46E071723D6817E2486D003BECC55F00 PUSH0 SHL SWAP1 POP SWAP1 JUMP JUMPDEST PUSH0 DUP2 SWAP1 POP SWAP2 SWAP1 POP JUMP JUMPDEST PUSH0 PUSH2 0x1F3 DUP4 DUP4 PUSH2 0x2D7 PUSH1 0x20 SHL PUSH1 0x20 SHR JUMP JUMPDEST PUSH2 0x2CD JUMPI PUSH1 0x1 PUSH0 PUSH0 DUP6 DUP2 MSTORE PUSH1 0x20 ADD SWAP1 DUP2 MSTORE PUSH1 0x20 ADD PUSH0 KECCAK256 PUSH0 ADD PUSH0 DUP5 PUSH20 0xFFFFFFFFFFFFFFFFFFFFFFFFFFFFFFFFFFFFFFFF AND PUSH20 0xFFFFFFFFFFFFFFFFFFFFFFFFFFFFFFFFFFFFFFFF AND DUP2 MSTORE PUSH1 0x20 ADD SWAP1 DUP2 MSTORE PUSH1 0x20 ADD PUSH0 KECCAK256 PUSH0 PUSH2 0x100 EXP DUP2 SLOAD DUP2 PUSH1 0xFF MUL NOT AND SWAP1 DUP4 ISZERO ISZERO MUL OR SWAP1 SSTORE POP PUSH2 0x26A PUSH2 0x33A PUSH1 0x20 SHL PUSH1 0x20 SHR JUMP JUMPDEST PUSH20 0xFFFFFFFFFFFFFFFFFFFFFFFFFFFFFFFFFFFFFFFF AND DUP3 PUSH20 0xFFFFFFFFFFFFFFFFFFFFFFFFFFFFFFFFFFFFFFFF AND DUP5 PUSH32 0x2F8788117E7EFF1D82E926EC794901D17C78024A50270940304540A733656F0D PUSH1 0x40 MLOAD PUSH1 0x40 MLOAD DUP1 SWAP2 SUB SWAP1 LOG4 PUSH1 0x1 SWAP1 POP PUSH2 0x2D1 JUMP JUMPDEST PUSH0 SWAP1 POP JUMPDEST SWAP3 SWAP2 POP POP JUMP JUMPDEST PUSH0 PUSH0 PUSH0 DUP5 DUP2 MSTORE PUSH1 0x20 ADD SWAP1 DUP2 MSTORE PUSH1 0x20 ADD PUSH0 KECCAK256 PUSH0 ADD PUSH0 DUP4 PUSH20 0xFFFFFFFFFFFFFFFFFFFFFFFFFFFFFFFFFFFFFFFF AND PUSH20 0xFFFFFFFFFFFFFFFFFFFFFFFFFFFFFFFFFFFFFFFF AND DUP2 MSTORE PUSH1 0x20 ADD SWAP1 DUP2 MSTORE PUSH1 0x20 ADD PUSH0 KECCAK256 PUSH0 SWAP1 SLOAD SWAP1 PUSH2 0x100 EXP SWAP1 DIV PUSH1 0xFF AND SWAP1 POP SWAP3 SWAP2 POP POP JUMP JUMPDEST PUSH0 CALLER SWAP1 POP SWAP1 JUMP JUMPDEST PUSH0 PUSH0 REVERT JUMPDEST PUSH0 PUSH20 0xFFFFFFFFFFFFFFFFFFFFFFFFFFFFFFFFFFFFFFFF DUP3 AND SWAP1 POP SWAP2 SWAP1 POP JUMP JUMPDEST PUSH0 PUSH2 0x36E DUP3 PUSH2 0x345 JUMP JUMPDEST SWAP1 POP SWAP2 SWAP1 POP JUMP JUMPDEST PUSH2 0x37E DUP2 PUSH2 0x364 JUMP JUMPDEST DUP2 EQ PUSH2 0x388 JUMPI PUSH0 PUSH0 REVERT JUMPDEST POP JUMP JUMPDEST PUSH0 DUP2 MLOAD SWAP1 POP PUSH2 0x399 DUP2 PUSH2 0x375 JUMP JUMPDEST SWAP3 SWAP2 POP POP JUMP JUMPDEST PUSH0 DUP2 SWAP1 POP SWAP2 SWAP1 POP JUMP JUMPDEST PUSH2 0x3B1 DUP2 PUSH2 0x39F JUMP JUMPDEST DUP2 EQ PUSH2 0x3BB JUMPI PUSH0 PUSH0 REVERT JUMPDEST POP JUMP JUMPDEST PUSH0 DUP2 MLOAD SWAP1 POP PUSH2 0x3CC DUP2 PUSH2 0x3A8 JUMP JUMPDEST SWAP3 SWAP2 POP POP JUMP JUMPDEST PUSH0 PUSH0 PUSH1 0x40 DUP4 DUP6 SUB SLT ISZERO PUSH2 0x3E8 JUMPI PUSH2 0x3E7 PUSH2 0x341 JUMP JUMPDEST JUMPDEST PUSH0 PUSH2 0x3F5 DUP6 DUP3 DUP7 ADD PUSH2 0x38B JUMP JUMPDEST SWAP3 POP POP PUSH1 0x20 PUSH2 0x406 DUP6 DUP3 DUP7 ADD PUSH2 0x3BE JUMP JUMPDEST SWAP2 POP POP SWAP3 POP SWAP3 SWAP1 POP JUMP JUMPDEST PUSH0 DUP3 DUP3 MSTORE PUSH1 0x20 DUP3 ADD SWAP1 POP SWAP3 SWAP2 POP POP JUMP JUMPDEST PUSH32 0x496E76616C696420707269636520666565642061646472657373000000000000 PUSH0 DUP3 ADD MSTORE POP JUMP JUMPDEST PUSH0 PUSH2 0x454 PUSH1 0x1A DUP4 PUSH2 0x410 JUMP JUMPDEST SWAP2 POP PUSH2 0x45F DUP3 PUSH2 0x420 JUMP JUMPDEST PUSH1 0x20 DUP3 ADD SWAP1 POP SWAP2 SWAP1 POP JUMP JUMPDEST PUSH0 PUSH1 0x20 DUP3 ADD SWAP1 POP DUP2 DUP2 SUB PUSH0 DUP4 ADD MSTORE PUSH2 0x481 DUP2 PUSH2 0x448 JUMP JUMPDEST SWAP1 POP SWAP2 SWAP1 POP JUMP JUMPDEST PUSH32 0x42616E6B20636170206D757374206265203E2030000000000000000000000000 PUSH0 DUP3 ADD MSTORE POP JUMP JUMPDEST PUSH0 PUSH2 0x4BC PUSH1 0x14 DUP4 PUSH2 0x410 JUMP JUMPDEST SWAP2 POP PUSH2 0x4C7 DUP3 PUSH2 0x488 JUMP JUMPDEST PUSH1 0x20 DUP3 ADD SWAP1 POP SWAP2 SWAP1 POP JUMP JUMPDEST PUSH0 PUSH1 0x20 DUP3 ADD SWAP1 POP DUP2 DUP2 SUB PUSH0 DUP4 ADD MSTORE PUSH2 0x4E9 DUP2 PUSH2 0x4B0 JUMP JUMPDEST SWAP1 POP SWAP2 SWAP1 POP JUMP JUMPDEST PUSH2 0x39F5 DUP1 PUSH2 0x4FD PUSH0 CODECOPY PUSH0 RETURN INVALID PUSH1 0x80 PUSH1 0x40 MSTORE PUSH1 0x4 CALLDATASIZE LT PUSH2 0x206 JUMPI PUSH0 CALLDATALOAD PUSH1 0xE0 SHR DUP1 PUSH4 0x777E0D86 GT PUSH2 0x117 JUMPI DUP1 PUSH4 0xBE4DC94F GT PUSH2 0x9F JUMPI DUP1 PUSH4 0xE79767AF GT PUSH2 0x6E JUMPI DUP1 PUSH4 0xE79767AF EQ PUSH2 0x789 JUMPI DUP1 PUSH4 0xEAE6F652 EQ PUSH2 0x7B1 JUMPI DUP1 PUSH4 0xEC87621C EQ PUSH2 0x7DB JUMPI DUP1 PUSH4 0xEEA88C51 EQ PUSH2 0x805 JUMPI DUP1 PUSH4 0xF01CAB3C EQ PUSH2 0x82F JUMPI PUSH2 0x246 JUMP JUMPDEST DUP1 PUSH4 0xBE4DC94F EQ PUSH2 0x6F3 JUMPI DUP1 PUSH4 0xD0E30DB0 EQ PUSH2 0x71B JUMPI DUP1 PUSH4 0xD547741F EQ PUSH2 0x725 JUMPI DUP1 PUSH4 0xE744092E EQ PUSH2 0x74D JUMPI PUSH2 0x246 JUMP JUMPDEST DUP1 PUSH4 0x9859387B GT PUSH2 0xE6 JUMPI DUP1 PUSH4 0x9859387B EQ PUSH2 0x629 JUMPI DUP1 PUSH4 0xA1DB9782 EQ PUSH2 0x651 JUMPI DUP1 PUSH4 0xA217FDDF EQ PUSH2 0x679 JUMPI DUP1 PUSH4 0xB53472EF EQ PUSH2 0x6A3 JUMPI DUP1 PUSH4 0xB71129C3 EQ PUSH2 0x6CB JUMPI PUSH2 0x246 JUMP JUMPDEST DUP1 PUSH4 0x777E0D86 EQ PUSH2 0x55F JUMPI DUP1 PUSH4 0x91D14854 EQ PUSH2 0x589 JUMPI DUP1 PUSH4 0x951BC75A EQ PUSH2 0x5C5 JUMPI DUP1 PUSH4 0x97FEB926 EQ PUSH2 0x601 JUMPI PUSH2 0x246 JUMP JUMPDEST DUP1 PUSH4 0x2CCB1B30 GT PUSH2 0x19A JUMPI DUP1 PUSH4 0x3AECD0E3 GT PUSH2 0x169 JUMPI DUP1 PUSH4 0x3AECD0E3 EQ PUSH2 0x48F JUMPI DUP1 PUSH4 0x60DA3E83 EQ PUSH2 0x4CB JUMPI DUP1 PUSH4 0x63D8882A EQ PUSH2 0x4F5 JUMPI DUP1 PUSH4 0x741BEF1A EQ PUSH2 0x50B JUMPI DUP1 PUSH4 0x75B238FC EQ PUSH2 0x535 JUMPI PUSH2 0x246 JUMP JUMPDEST DUP1 PUSH4 0x2CCB1B30 EQ PUSH2 0x3EF JUMPI DUP1 PUSH4 0x2E1A7D4D EQ PUSH2 0x417 JUMPI DUP1 PUSH4 0x2F2FF15D EQ PUSH2 0x43F JUMPI DUP1 PUSH4 0x36568ABE EQ PUSH2 0x467 JUMPI PUSH2 0x246 JUMP JUMPDEST DUP1 PUSH4 0x18C8CFBE GT PUSH2 0x1D6 JUMPI DUP1 PUSH4 0x18C8CFBE EQ PUSH2 0x325 JUMPI DUP1 PUSH4 0x20AA9A26 EQ PUSH2 0x34F JUMPI DUP1 PUSH4 0x248A9CA3 EQ PUSH2 0x38B JUMPI DUP1 PUSH4 0x26E885E3 EQ PUSH2 0x3C7 JUMPI PUSH2 0x246 JUMP JUMPDEST DUP1 PUSH3 0x69EA28 EQ PUSH2 0x281 JUMPI DUP1 PUSH4 0x1FFC9A7 EQ PUSH2 0x2A9 JUMPI DUP1 PUSH4 0x2191980 EQ PUSH2 0x2E5 JUMPI DUP1 PUSH4 0x12065FE0 EQ PUSH2 0x2FB JUMPI PUSH2 0x246 JUMP JUMPDEST CALLDATASIZE PUSH2 0x246 JUMPI PUSH1 0x40 MLOAD PUSH32 0x8C379A000000000000000000000000000000000000000000000000000000000 DUP2 MSTORE PUSH1 0x4 ADD PUSH2 0x23D SWAP1 PUSH2 0x29BD JUMP JUMPDEST PUSH1 0x40 MLOAD DUP1 SWAP2 SUB SWAP1 REVERT JUMPDEST PUSH1 0x40 MLOAD PUSH32 0x8C379A000000000000000000000000000000000000000000000000000000000 DUP2 MSTORE PUSH1 0x4 ADD PUSH2 0x278 SWAP1 PUSH2 0x2A25 JUMP JUMPDEST PUSH1 0x40 MLOAD DUP1 SWAP2 SUB SWAP1 REVERT JUMPDEST CALLVALUE DUP1 ISZERO PUSH2 0x28C JUMPI PUSH0 PUSH0 REVERT JUMPDEST POP PUSH2 0x2A7 PUSH1 0x4 DUP1 CALLDATASIZE SUB DUP2 ADD SWAP1 PUSH2 0x2A2 SWAP2 SWAP1 PUSH2 0x2A7A JUMP JUMPDEST PUSH2 0x86B JUMP JUMPDEST STOP JUMPDEST CALLVALUE DUP1 ISZERO PUSH2 0x2B4 JUMPI PUSH0 PUSH0 REVERT JUMPDEST POP PUSH2 0x2CF PUSH1 0x4 DUP1 CALLDATASIZE SUB DUP2 ADD SWAP1 PUSH2 0x2CA SWAP2 SWAP1 PUSH2 0x2AFA JUMP JUMPDEST PUSH2 0x8E4 JUMP JUMPDEST PUSH1 0x40 MLOAD PUSH2 0x2DC SWAP2 SWAP1 PUSH2 0x2B3F JUMP JUMPDEST PUSH1 0x40 MLOAD DUP1 SWAP2 SUB SWAP1 RETURN JUMPDEST CALLVALUE DUP1 ISZERO PUSH2 0x2F0 JUMPI PUSH0 PUSH0 REVERT JUMPDEST POP PUSH2 0x2F9 PUSH2 0x95D JUMP JUMPDEST STOP JUMPDEST CALLVALUE DUP1 ISZERO PUSH2 0x306 JUMPI PUSH0 PUSH0 REVERT JUMPDEST POP PUSH2 0x30F PUSH2 0x9A4 JUMP JUMPDEST PUSH1 0x40 MLOAD PUSH2 0x31C SWAP2 SWAP1 PUSH2 0x2B67 JUMP JUMPDEST PUSH1 0x40 MLOAD DUP1 SWAP2 SUB SWAP1 RETURN JUMPDEST CALLVALUE DUP1 ISZERO PUSH2 0x330 JUMPI PUSH0 PUSH0 REVERT JUMPDEST POP PUSH2 0x339 PUSH2 0xA15 JUMP JUMPDEST PUSH1 0x40 MLOAD PUSH2 0x346 SWAP2 SWAP1 PUSH2 0x2B67 JUMP JUMPDEST PUSH1 0x40 MLOAD DUP1 SWAP2 SUB SWAP1 RETURN JUMPDEST CALLVALUE DUP1 ISZERO PUSH2 0x35A JUMPI PUSH0 PUSH0 REVERT JUMPDEST POP PUSH2 0x375 PUSH1 0x4 DUP1 CALLDATASIZE SUB DUP2 ADD SWAP1 PUSH2 0x370 SWAP2 SWAP1 PUSH2 0x2BDA JUMP JUMPDEST PUSH2 0xA1B JUMP JUMPDEST PUSH1 0x40 MLOAD PUSH2 0x382 SWAP2 SWAP1 PUSH2 0x2B67 JUMP JUMPDEST PUSH1 0x40 MLOAD DUP1 SWAP2 SUB SWAP1 RETURN JUMPDEST CALLVALUE DUP1 ISZERO PUSH2 0x396 JUMPI PUSH0 PUSH0 REVERT JUMPDEST POP PUSH2 0x3B1 PUSH1 0x4 DUP1 CALLDATASIZE SUB DUP2 ADD SWAP1 PUSH2 0x3AC SWAP2 SWAP1 PUSH2 0x2C4B JUMP JUMPDEST PUSH2 0xB54 JUMP JUMPDEST PUSH1 0x40 MLOAD PUSH2 0x3BE SWAP2 SWAP1 PUSH2 0x2C85 JUMP JUMPDEST PUSH1 0x40 MLOAD DUP1 SWAP2 SUB SWAP1 RETURN JUMPDEST CALLVALUE DUP1 ISZERO PUSH2 0x3D2 JUMPI PUSH0 PUSH0 REVERT JUMPDEST POP PUSH2 0x3ED PUSH1 0x4 DUP1 CALLDATASIZE SUB DUP2 ADD SWAP1 PUSH2 0x3E8 SWAP2 SWAP1 PUSH2 0x2C9E JUMP JUMPDEST PUSH2 0xB70 JUMP JUMPDEST STOP JUMPDEST CALLVALUE DUP1 ISZERO PUSH2 0x3FA JUMPI PUSH0 PUSH0 REVERT JUMPDEST POP PUSH2 0x415 PUSH1 0x4 DUP1 CALLDATASIZE SUB DUP2 ADD SWAP1 PUSH2 0x410 SWAP2 SWAP1 PUSH2 0x2CC9 JUMP JUMPDEST PUSH2 0xBC9 JUMP JUMPDEST STOP JUMPDEST CALLVALUE DUP1 ISZERO PUSH2 0x422 JUMPI PUSH0 PUSH0 REVERT JUMPDEST POP PUSH2 0x43D PUSH1 0x4 DUP1 CALLDATASIZE SUB DUP2 ADD SWAP1 PUSH2 0x438 SWAP2 SWAP1 PUSH2 0x2A7A JUMP JUMPDEST PUSH2 0xFCF JUMP JUMPDEST STOP JUMPDEST CALLVALUE DUP1 ISZERO PUSH2 0x44A JUMPI PUSH0 PUSH0 REVERT JUMPDEST POP PUSH2 0x465 PUSH1 0x4 DUP1 CALLDATASIZE SUB DUP2 ADD SWAP1 PUSH2 0x460 SWAP2 SWAP1 PUSH2 0x2D07 JUMP JUMPDEST PUSH2 0x12C9 JUMP JUMPDEST STOP JUMPDEST CALLVALUE DUP1 ISZERO PUSH2 0x472 JUMPI PUSH0 PUSH0 REVERT JUMPDEST POP PUSH2 0x48D PUSH1 0x4 DUP1 CALLDATASIZE SUB DUP2 ADD SWAP1 PUSH2 0x488 SWAP2 SWAP1 PUSH2 0x2D07 JUMP JUMPDEST PUSH2 0x12EB JUMP JUMPDEST STOP JUMPDEST CALLVALUE DUP1 ISZERO PUSH2 0x49A JUMPI PUSH0 PUSH0 REVERT JUMPDEST POP PUSH2 0x4B5 PUSH1 0x4 DUP1 CALLDATASIZE SUB DUP2 ADD SWAP1 PUSH2 0x4B0 SWAP2 SWAP1 PUSH2 0x2C9E JUMP JUMPDEST PUSH2 0x1366 JUMP JUMPDEST PUSH1 0x40 MLOAD PUSH2 0x4C2 SWAP2 SWAP1 PUSH2 0x2B67 JUMP JUMPDEST PUSH1 0x40 MLOAD DUP1 SWAP2 SUB SWAP1 RETURN JUMPDEST CALLVALUE DUP1 ISZERO PUSH2 0x4D6 JUMPI PUSH0 PUSH0 REVERT JUMPDEST POP PUSH2 0x4DF PUSH2 0x1412 JUMP JUMPDEST PUSH1 0x40 MLOAD PUSH2 0x4EC SWAP2 SWAP1 PUSH2 0x2B3F JUMP JUMPDEST PUSH1 0x40 MLOAD DUP1 SWAP2 SUB SWAP1 RETURN JUMPDEST CALLVALUE DUP1 ISZERO PUSH2 0x500 JUMPI PUSH0 PUSH0 REVERT JUMPDEST POP PUSH2 0x509 PUSH2 0x1424 JUMP JUMPDEST STOP JUMPDEST CALLVALUE DUP1 ISZERO PUSH2 0x516 JUMPI PUSH0 PUSH0 REVERT JUMPDEST POP PUSH2 0x51F PUSH2 0x146A JUMP JUMPDEST PUSH1 0x40 MLOAD PUSH2 0x52C SWAP2 SWAP1 PUSH2 0x2DA0 JUMP JUMPDEST PUSH1 0x40 MLOAD DUP1 SWAP2 SUB SWAP1 RETURN JUMPDEST CALLVALUE DUP1 ISZERO PUSH2 0x540 JUMPI PUSH0 PUSH0 REVERT JUMPDEST POP PUSH2 0x549 PUSH2 0x148F JUMP JUMPDEST PUSH1 0x40 MLOAD PUSH2 0x556 SWAP2 SWAP1 PUSH2 0x2C85 JUMP JUMPDEST PUSH1 0x40 MLOAD DUP1 SWAP2 SUB SWAP1 RETURN JUMPDEST CALLVALUE DUP1 ISZERO PUSH2 0x56A JUMPI PUSH0 PUSH0 REVERT JUMPDEST POP PUSH2 0x573 PUSH2 0x14B3 JUMP JUMPDEST PUSH1 0x40 MLOAD PUSH2 0x580 SWAP2 SWAP1 PUSH2 0x2DD1 JUMP JUMPDEST PUSH1 0x40 MLOAD DUP1 SWAP2 SUB SWAP1 RETURN JUMPDEST CALLVALUE DUP1 ISZERO PUSH2 0x594 JUMPI PUSH0 PUSH0 REVERT JUMPDEST POP PUSH2 0x5AF PUSH1 0x4 DUP1 CALLDATASIZE SUB DUP2 ADD SWAP1 PUSH2 0x5AA SWAP2 SWAP1 PUSH2 0x2D07 JUMP JUMPDEST PUSH2 0x1550 JUMP JUMPDEST PUSH1 0x40 MLOAD PUSH2 0x5BC SWAP2 SWAP1 PUSH2 0x2B3F JUMP JUMPDEST PUSH1 0x40 MLOAD DUP1 SWAP2 SUB SWAP1 RETURN JUMPDEST CALLVALUE DUP1 ISZERO PUSH2 0x5D0 JUMPI PUSH0 PUSH0 REVERT JUMPDEST POP PUSH2 0x5EB PUSH1 0x4 DUP1 CALLDATASIZE SUB DUP2 ADD SWAP1 PUSH2 0x5E6 SWAP2 SWAP1 PUSH2 0x2A7A JUMP JUMPDEST PUSH2 0x15B3 JUMP JUMPDEST PUSH1 0x40 MLOAD PUSH2 0x5F8 SWAP2 SWAP1 PUSH2 0x2B67 JUMP JUMPDEST PUSH1 0x40 MLOAD DUP1 SWAP2 SUB SWAP1 RETURN JUMPDEST CALLVALUE DUP1 ISZERO PUSH2 0x60C JUMPI PUSH0 PUSH0 REVERT JUMPDEST POP PUSH2 0x627 PUSH1 0x4 DUP1 CALLDATASIZE SUB DUP2 ADD SWAP1 PUSH2 0x622 SWAP2 SWAP1 PUSH2 0x2CC9 JUMP JUMPDEST PUSH2 0x1628 JUMP JUMPDEST STOP JUMPDEST CALLVALUE DUP1 ISZERO PUSH2 0x634 JUMPI PUSH0 PUSH0 REVERT JUMPDEST POP PUSH2 0x64F PUSH1 0x4 DUP1 CALLDATASIZE SUB DUP2 ADD SWAP1 PUSH2 0x64A SWAP2 SWAP1 PUSH2 0x2C9E JUMP JUMPDEST PUSH2 0x19B1 JUMP JUMPDEST STOP JUMPDEST CALLVALUE DUP1 ISZERO PUSH2 0x65C JUMPI PUSH0 PUSH0 REVERT JUMPDEST POP PUSH2 0x677 PUSH1 0x4 DUP1 CALLDATASIZE SUB DUP2 ADD SWAP1 PUSH2 0x672 SWAP2 SWAP1 PUSH2 0x2CC9 JUMP JUMPDEST PUSH2 0x1BC7 JUMP JUMPDEST STOP JUMPDEST CALLVALUE DUP1 ISZERO PUSH2 0x684 JUMPI PUSH0 PUSH0 REVERT JUMPDEST POP PUSH2 0x68D PUSH2 0x1F41 JUMP JUMPDEST PUSH1 0x40 MLOAD PUSH2 0x69A SWAP2 SWAP1 PUSH2 0x2C85 JUMP JUMPDEST PUSH1 0x40 MLOAD DUP1 SWAP2 SUB SWAP1 RETURN JUMPDEST CALLVALUE DUP1 ISZERO PUSH2 0x6AE JUMPI PUSH0 PUSH0 REVERT JUMPDEST POP PUSH2 0x6C9 PUSH1 0x4 DUP1 CALLDATASIZE SUB DUP2 ADD SWAP1 PUSH2 0x6C4 SWAP2 SWAP1 PUSH2 0x2C9E JUMP JUMPDEST PUSH2 0x1F47 JUMP JUMPDEST STOP JUMPDEST CALLVALUE DUP1 ISZERO PUSH2 0x6D6 JUMPI PUSH0 PUSH0 REVERT JUMPDEST POP PUSH2 0x6F1 PUSH1 0x4 DUP1 CALLDATASIZE SUB DUP2 ADD SWAP1 PUSH2 0x6EC SWAP2 SWAP1 PUSH2 0x2D07 JUMP JUMPDEST PUSH2 0x2038 JUMP JUMPDEST STOP JUMPDEST CALLVALUE DUP1 ISZERO PUSH2 0x6FE JUMPI PUSH0 PUSH0 REVERT JUMPDEST POP PUSH2 0x719 PUSH1 0x4 DUP1 CALLDATASIZE SUB DUP2 ADD SWAP1 PUSH2 0x714 SWAP2 SWAP1 PUSH2 0x2C9E JUMP JUMPDEST PUSH2 0x2072 JUMP JUMPDEST STOP JUMPDEST PUSH2 0x723 PUSH2 0x20CB JUMP JUMPDEST STOP JUMPDEST CALLVALUE DUP1 ISZERO PUSH2 0x730 JUMPI PUSH0 PUSH0 REVERT JUMPDEST POP PUSH2 0x74B PUSH1 0x4 DUP1 CALLDATASIZE SUB DUP2 ADD SWAP1 PUSH2 0x746 SWAP2 SWAP1 PUSH2 0x2D07 JUMP JUMPDEST PUSH2 0x2334 JUMP JUMPDEST STOP JUMPDEST CALLVALUE DUP1 ISZERO PUSH2 0x758 JUMPI PUSH0 PUSH0 REVERT JUMPDEST POP PUSH2 0x773 PUSH1 0x4 DUP1 CALLDATASIZE SUB DUP2 ADD SWAP1 PUSH2 0x76E SWAP2 SWAP1 PUSH2 0x2C9E JUMP JUMPDEST PUSH2 0x2356 JUMP JUMPDEST PUSH1 0x40 MLOAD PUSH2 0x780 SWAP2 SWAP1 PUSH2 0x2B3F JUMP JUMPDEST PUSH1 0x40 MLOAD DUP1 SWAP2 SUB SWAP1 RETURN JUMPDEST CALLVALUE DUP1 ISZERO PUSH2 0x794 JUMPI PUSH0 PUSH0 REVERT JUMPDEST POP PUSH2 0x7AF PUSH1 0x4 DUP1 CALLDATASIZE SUB DUP2 ADD SWAP1 PUSH2 0x7AA SWAP2 SWAP1 PUSH2 0x2C9E JUMP JUMPDEST PUSH2 0x2373 JUMP JUMPDEST STOP JUMPDEST CALLVALUE DUP1 ISZERO PUSH2 0x7BC JUMPI PUSH0 PUSH0 REVERT JUMPDEST POP PUSH2 0x7C5 PUSH2 0x247E JUMP JUMPDEST PUSH1 0x40 MLOAD PUSH2 0x7D2 SWAP2 SWAP1 PUSH2 0x2C85 JUMP JUMPDEST PUSH1 0x40 MLOAD DUP1 SWAP2 SUB SWAP1 RETURN JUMPDEST CALLVALUE DUP1 ISZERO PUSH2 0x7E6 JUMPI PUSH0 PUSH0 REVERT JUMPDEST POP PUSH2 0x7EF PUSH2 0x24A2 JUMP JUMPDEST PUSH1 0x40 MLOAD PUSH2 0x7FC SWAP2 SWAP1 PUSH2 0x2C85 JUMP JUMPDEST PUSH1 0x40 MLOAD DUP1 SWAP2 SUB SWAP1 RETURN JUMPDEST CALLVALUE DUP1 ISZERO PUSH2 0x810 JUMPI PUSH0 PUSH0 REVERT JUMPDEST POP PUSH2 0x819 PUSH2 0x24C6 JUMP JUMPDEST PUSH1 0x40 MLOAD PUSH2 0x826 SWAP2 SWAP1 PUSH2 0x2B67 JUMP JUMPDEST PUSH1 0x40 MLOAD DUP1 SWAP2 SUB SWAP1 RETURN JUMPDEST CALLVALUE DUP1 ISZERO PUSH2 0x83A JUMPI PUSH0 PUSH0 REVERT JUMPDEST POP PUSH2 0x855 PUSH1 0x4 DUP1 CALLDATASIZE SUB DUP2 ADD SWAP1 PUSH2 0x850 SWAP2 SWAP1 PUSH2 0x2C9E JUMP JUMPDEST PUSH2 0x24CC JUMP JUMPDEST PUSH1 0x40 MLOAD PUSH2 0x862 SWAP2 SWAP1 PUSH2 0x2B67 JUMP JUMPDEST PUSH1 0x40 MLOAD DUP1 SWAP2 SUB SWAP1 RETURN JUMPDEST PUSH32 0x241ECF16D79D0F8DBFB92CBC07FE17840425976CF0667F022FE9877CAA831B08 PUSH2 0x895 DUP2 PUSH2 0x25CB JUMP JUMPDEST PUSH1 0x2 SLOAD DUP3 GT PUSH2 0x8D9 JUMPI PUSH1 0x40 MLOAD PUSH32 0x8C379A000000000000000000000000000000000000000000000000000000000 DUP2 MSTORE PUSH1 0x4 ADD PUSH2 0x8D0 SWAP1 PUSH2 0x2E34 JUMP JUMPDEST PUSH1 0x40 MLOAD DUP1 SWAP2 SUB SWAP1 REVERT JUMPDEST DUP2 PUSH1 0x2 DUP2 SWAP1 SSTORE POP POP POP JUMP JUMPDEST PUSH0 PUSH32 0x7965DB0B00000000000000000000000000000000000000000000000000000000 PUSH28 0xFFFFFFFFFFFFFFFFFFFFFFFFFFFFFFFFFFFFFFFFFFFFFFFFFFFFFFFF NOT AND DUP3 PUSH28 0xFFFFFFFFFFFFFFFFFFFFFFFFFFFFFFFFFFFFFFFFFFFFFFFFFFFFFFFF NOT AND EQ DUP1 PUSH2 0x956 JUMPI POP PUSH2 0x955 DUP3 PUSH2 0x25DF JUMP JUMPDEST JUMPDEST SWAP1 POP SWAP2 SWAP1 POP JUMP JUMPDEST PUSH32 0x241ECF16D79D0F8DBFB92CBC07FE17840425976CF0667F022FE9877CAA831B08 PUSH2 0x987 DUP2 PUSH2 0x25CB JUMP JUMPDEST PUSH1 0x1 PUSH1 0x4 PUSH0 PUSH2 0x100 EXP DUP2 SLOAD DUP2 PUSH1 0xFF MUL NOT AND SWAP1 DUP4 ISZERO ISZERO MUL OR SWAP1 SSTORE POP POP JUMP JUMPDEST PUSH0 PUSH32 0xA5FF3EC7A96CDBBA4D2D5172D66BBC73C6DB3885F29B21BE5DA9FA7A7C025232 PUSH2 0x9CF DUP2 PUSH2 0x25CB JUMP JUMPDEST PUSH1 0x5 PUSH0 CALLER PUSH20 0xFFFFFFFFFFFFFFFFFFFFFFFFFFFFFFFFFFFFFFFF AND PUSH20 0xFFFFFFFFFFFFFFFFFFFFFFFFFFFFFFFFFFFFFFFF AND DUP2 MSTORE PUSH1 0x20 ADD SWAP1 DUP2 MSTORE PUSH1 0x20 ADD PUSH0 KECCAK256 PUSH0 ADD SLOAD SWAP2 POP POP SWAP1 JUMP JUMPDEST PUSH1 0x2 SLOAD DUP2 JUMP JUMPDEST PUSH0 PUSH32 0x241ECF16D79D0F8DBFB92CBC07FE17840425976CF0667F022FE9877CAA831B08 PUSH2 0xA46 DUP2 PUSH2 0x25CB JUMP JUMPDEST PUSH1 0x5 PUSH0 DUP6 PUSH20 0xFFFFFFFFFFFFFFFFFFFFFFFFFFFFFFFFFFFFFFFF AND PUSH20 0xFFFFFFFFFFFFFFFFFFFFFFFFFFFFFFFFFFFFFFFF AND DUP2 MSTORE PUSH1 0x20 ADD SWAP1 DUP2 MSTORE PUSH1 0x20 ADD PUSH0 KECCAK256 PUSH1 0x1 ADD PUSH0 SWAP1 SLOAD SWAP1 PUSH2 0x100 EXP SWAP1 DIV PUSH1 0xFF AND PUSH2 0xAD2 JUMPI PUSH1 0x40 MLOAD PUSH32 0x8C379A000000000000000000000000000000000000000000000000000000000 DUP2 MSTORE PUSH1 0x4 ADD PUSH2 0xAC9 SWAP1 PUSH2 0x2E9C JUMP JUMPDEST PUSH1 0x40 MLOAD DUP1 SWAP2 SUB SWAP1 REVERT JUMPDEST PUSH1 0x6 PUSH0 DUP6 PUSH20 0xFFFFFFFFFFFFFFFFFFFFFFFFFFFFFFFFFFFFFFFF AND PUSH20 0xFFFFFFFFFFFFFFFFFFFFFFFFFFFFFFFFFFFFFFFF AND DUP2 MSTORE PUSH1 0x20 ADD SWAP1 DUP2 MSTORE PUSH1 0x20 ADD PUSH0 KECCAK256 PUSH0 DUP5 PUSH20 0xFFFFFFFFFFFFFFFFFFFFFFFFFFFFFFFFFFFFFFFF AND PUSH20 0xFFFFFFFFFFFFFFFFFFFFFFFFFFFFFFFFFFFFFFFF AND DUP2 MSTORE PUSH1 0x20 ADD SWAP1 DUP2 MSTORE PUSH1 0x20 ADD PUSH0 KECCAK256 SLOAD SWAP2 POP POP SWAP3 SWAP2 POP POP JUMP JUMPDEST PUSH0 PUSH0 PUSH0 DUP4 DUP2 MSTORE PUSH1 0x20 ADD SWAP1 DUP2 MSTORE PUSH1 0x20 ADD PUSH0 KECCAK256 PUSH1 0x1 ADD SLOAD SWAP1 POP SWAP2 SWAP1 POP JUMP JUMPDEST PUSH32 0xA49807205CE4D355092EF5A8A18F56E8913CF4A201FBE287825B095693C21775 PUSH2 0xB9A DUP2 PUSH2 0x25CB JUMP JUMPDEST PUSH2 0xBC4 PUSH32 0x241ECF16D79D0F8DBFB92CBC07FE17840425976CF0667F022FE9877CAA831B08 DUP4 PUSH2 0x2648 JUMP JUMPDEST POP POP POP JUMP JUMPDEST PUSH2 0xBD1 PUSH2 0x2731 JUMP JUMPDEST PUSH32 0xA5FF3EC7A96CDBBA4D2D5172D66BBC73C6DB3885F29B21BE5DA9FA7A7C025232 PUSH2 0xBFB DUP2 PUSH2 0x25CB JUMP JUMPDEST PUSH0 PUSH20 0xFFFFFFFFFFFFFFFFFFFFFFFFFFFFFFFFFFFFFFFF AND DUP4 PUSH20 0xFFFFFFFFFFFFFFFFFFFFFFFFFFFFFFFFFFFFFFFF AND SUB PUSH2 0xC69 JUMPI PUSH1 0x40 MLOAD PUSH32 0x8C379A000000000000000000000000000000000000000000000000000000000 DUP2 MSTORE PUSH1 0x4 ADD PUSH2 0xC60 SWAP1 PUSH2 0x2F04 JUMP JUMPDEST PUSH1 0x40 MLOAD DUP1 SWAP2 SUB SWAP1 REVERT JUMPDEST CALLER PUSH20 0xFFFFFFFFFFFFFFFFFFFFFFFFFFFFFFFFFFFFFFFF AND DUP4 PUSH20 0xFFFFFFFFFFFFFFFFFFFFFFFFFFFFFFFFFFFFFFFF AND SUB PUSH2 0xCD7 JUMPI PUSH1 0x40 MLOAD PUSH32 0x8C379A000000000000000000000000000000000000000000000000000000000 DUP2 MSTORE PUSH1 0x4 ADD PUSH2 0xCCE SWAP1 PUSH2 0x2F6C JUMP JUMPDEST PUSH1 0x40 MLOAD DUP1 SWAP2 SUB SWAP1 REVERT JUMPDEST PUSH1 0x5 PUSH0 CALLER PUSH20 0xFFFFFFFFFFFFFFFFFFFFFFFFFFFFFFFFFFFFFFFF AND PUSH20 0xFFFFFFFFFFFFFFFFFFFFFFFFFFFFFFFFFFFFFFFF AND DUP2 MSTORE PUSH1 0x20 ADD SWAP1 DUP2 MSTORE PUSH1 0x20 ADD PUSH0 KECCAK256 PUSH1 0x1 ADD PUSH0 SWAP1 SLOAD SWAP1 PUSH2 0x100 EXP SWAP1 DIV PUSH1 0xFF AND PUSH2 0xD63 JUMPI PUSH1 0x40 MLOAD PUSH32 0x8C379A000000000000000000000000000000000000000000000000000000000 DUP2 MSTORE PUSH1 0x4 ADD PUSH2 0xD5A SWAP1 PUSH2 0x2FD4 JUMP JUMPDEST PUSH1 0x40 MLOAD DUP1 SWAP2 SUB SWAP1 REVERT JUMPDEST PUSH1 0x5 PUSH0 DUP5 PUSH20 0xFFFFFFFFFFFFFFFFFFFFFFFFFFFFFFFFFFFFFFFF AND PUSH20 0xFFFFFFFFFFFFFFFFFFFFFFFFFFFFFFFFFFFFFFFF AND DUP2 MSTORE PUSH1 0x20 ADD SWAP1 DUP2 MSTORE PUSH1 0x20 ADD PUSH0 KECCAK256 PUSH1 0x1 ADD PUSH0 SWAP1 SLOAD SWAP1 PUSH2 0x100 EXP SWAP1 DIV PUSH1 0xFF AND PUSH2 0xDEF JUMPI PUSH1 0x40 MLOAD PUSH32 0x8C379A000000000000000000000000000000000000000000000000000000000 DUP2 MSTORE PUSH1 0x4 ADD PUSH2 0xDE6 SWAP1 PUSH2 0x303C JUMP JUMPDEST PUSH1 0x40 MLOAD DUP1 SWAP2 SUB SWAP1 REVERT JUMPDEST PUSH0 DUP3 GT PUSH2 0xE31 JUMPI PUSH1 0x40 MLOAD PUSH32 0x8C379A000000000000000000000000000000000000000000000000000000000 DUP2 MSTORE PUSH1 0x4 ADD PUSH2 0xE28 SWAP1 PUSH2 0x30A4 JUMP JUMPDEST PUSH1 0x40 MLOAD DUP1 SWAP2 SUB SWAP1 REVERT JUMPDEST DUP2 PUSH1 0x5 PUSH0 CALLER PUSH20 0xFFFFFFFFFFFFFFFFFFFFFFFFFFFFFFFFFFFFFFFF AND PUSH20 0xFFFFFFFFFFFFFFFFFFFFFFFFFFFFFFFFFFFFFFFF AND DUP2 MSTORE PUSH1 0x20 ADD SWAP1 DUP2 MSTORE PUSH1 0x20 ADD PUSH0 KECCAK256 PUSH0 ADD SLOAD LT ISZERO PUSH2 0xEB3 JUMPI PUSH1 0x40 MLOAD PUSH32 0x8C379A000000000000000000000000000000000000000000000000000000000 DUP2 MSTORE PUSH1 0x4 ADD PUSH2 0xEAA SWAP1 PUSH2 0x310C JUMP JUMPDEST PUSH1 0x40 MLOAD DUP1 SWAP2 SUB SWAP1 REVERT JUMPDEST DUP2 PUSH1 0x5 PUSH0 CALLER PUSH20 0xFFFFFFFFFFFFFFFFFFFFFFFFFFFFFFFFFFFFFFFF AND PUSH20 0xFFFFFFFFFFFFFFFFFFFFFFFFFFFFFFFFFFFFFFFF AND DUP2 MSTORE PUSH1 0x20 ADD SWAP1 DUP2 MSTORE PUSH1 0x20 ADD PUSH0 KECCAK256 PUSH0 ADD PUSH0 DUP3 DUP3 SLOAD PUSH2 0xF01 SWAP2 SWAP1 PUSH2 0x3157 JUMP JUMPDEST SWAP3 POP POP DUP2 SWAP1 SSTORE POP DUP2 PUSH1 0x5 PUSH0 DUP6 PUSH20 0xFFFFFFFFFFFFFFFFFFFFFFFFFFFFFFFFFFFFFFFF AND PUSH20 0xFFFFFFFFFFFFFFFFFFFFFFFFFFFFFFFFFFFFFFFF AND DUP2 MSTORE PUSH1 0x20 ADD SWAP1 DUP2 MSTORE PUSH1 0x20 ADD PUSH0 KECCAK256 PUSH0 ADD PUSH0 DUP3 DUP3 SLOAD PUSH2 0xF56 SWAP2 SWAP1 PUSH2 0x318A JUMP JUMPDEST SWAP3 POP POP DUP2 SWAP1 SSTORE POP DUP3 PUSH20 0xFFFFFFFFFFFFFFFFFFFFFFFFFFFFFFFFFFFFFFFF AND CALLER PUSH20 0xFFFFFFFFFFFFFFFFFFFFFFFFFFFFFFFFFFFFFFFF AND PUSH32 0x422971E1D1A7C8B68372F65FE1426AEF054F0C6290124A929C843C5C019521D6 DUP5 PUSH1 0x40 MLOAD PUSH2 0xFBA SWAP2 SWAP1 PUSH2 0x2B67 JUMP JUMPDEST PUSH1 0x40 MLOAD DUP1 SWAP2 SUB SWAP1 LOG3 POP PUSH2 0xFCB PUSH2 0x2753 JUMP JUMPDEST POP POP JUMP JUMPDEST PUSH2 0xFD7 PUSH2 0x2731 JUMP JUMPDEST PUSH32 0xA5FF3EC7A96CDBBA4D2D5172D66BBC73C6DB3885F29B21BE5DA9FA7A7C025232 PUSH2 0x1001 DUP2 PUSH2 0x25CB JUMP JUMPDEST PUSH1 0x5 PUSH0 CALLER PUSH20 0xFFFFFFFFFFFFFFFFFFFFFFFFFFFFFFFFFFFFFFFF AND PUSH20 0xFFFFFFFFFFFFFFFFFFFFFFFFFFFFFFFFFFFFFFFF AND DUP2 MSTORE PUSH1 0x20 ADD SWAP1 DUP2 MSTORE PUSH1 0x20 ADD PUSH0 KECCAK256 PUSH1 0x1 ADD PUSH0 SWAP1 SLOAD SWAP1 PUSH2 0x100 EXP SWAP1 DIV PUSH1 0xFF AND PUSH2 0x108D JUMPI PUSH1 0x40 MLOAD PUSH32 0x8C379A000000000000000000000000000000000000000000000000000000000 DUP2 MSTORE PUSH1 0x4 ADD PUSH2 0x1084 SWAP1 PUSH2 0x3207 JUMP JUMPDEST PUSH1 0x40 MLOAD DUP1 SWAP2 SUB SWAP1 REVERT JUMPDEST PUSH0 DUP3 GT PUSH2 0x10CF JUMPI PUSH1 0x40 MLOAD PUSH32 0x8C379A000000000000000000000000000000000000000000000000000000000 DUP2 MSTORE PUSH1 0x4 ADD PUSH2 0x10C6 SWAP1 PUSH2 0x30A4 JUMP JUMPDEST PUSH1 0x40 MLOAD DUP1 SWAP2 SUB SWAP1 REVERT JUMPDEST DUP2 PUSH1 0x5 PUSH0 CALLER PUSH20 0xFFFFFFFFFFFFFFFFFFFFFFFFFFFFFFFFFFFFFFFF AND PUSH20 0xFFFFFFFFFFFFFFFFFFFFFFFFFFFFFFFFFFFFFFFF AND DUP2 MSTORE PUSH1 0x20 ADD SWAP1 DUP2 MSTORE PUSH1 0x20 ADD PUSH0 KECCAK256 PUSH0 ADD SLOAD LT ISZERO PUSH2 0x1151 JUMPI PUSH1 0x40 MLOAD PUSH32 0x8C379A000000000000000000000000000000000000000000000000000000000 DUP2 MSTORE PUSH1 0x4 ADD PUSH2 0x1148 SWAP1 PUSH2 0x310C JUMP JUMPDEST PUSH1 0x40 MLOAD DUP1 SWAP2 SUB SWAP1 REVERT JUMPDEST DUP2 PUSH1 0x5 PUSH0 CALLER PUSH20 0xFFFFFFFFFFFFFFFFFFFFFFFFFFFFFFFFFFFFFFFF AND PUSH20 0xFFFFFFFFFFFFFFFFFFFFFFFFFFFFFFFFFFFFFFFF AND DUP2 MSTORE PUSH1 0x20 ADD SWAP1 DUP2 MSTORE PUSH1 0x20 ADD PUSH0 KECCAK256 PUSH0 ADD PUSH0 DUP3 DUP3 SLOAD PUSH2 0x119F SWAP2 SWAP1 PUSH2 0x3157 JUMP JUMPDEST SWAP3 POP POP DUP2 SWAP1 SSTORE POP PUSH2 0x11AF DUP3 PUSH2 0x15B3 JUMP JUMPDEST PUSH1 0x3 PUSH0 DUP3 DUP3 SLOAD PUSH2 0x11BF SWAP2 SWAP1 PUSH2 0x3157 JUMP JUMPDEST SWAP3 POP POP DUP2 SWAP1 SSTORE POP PUSH0 CALLER PUSH20 0xFFFFFFFFFFFFFFFFFFFFFFFFFFFFFFFFFFFFFFFF AND DUP4 PUSH1 0x40 MLOAD PUSH2 0x11EB SWAP1 PUSH2 0x3252 JUMP JUMPDEST PUSH0 PUSH1 0x40 MLOAD DUP1 DUP4 SUB DUP2 DUP6 DUP8 GAS CALL SWAP3 POP POP POP RETURNDATASIZE DUP1 PUSH0 DUP2 EQ PUSH2 0x1225 JUMPI PUSH1 0x40 MLOAD SWAP2 POP PUSH1 0x1F NOT PUSH1 0x3F RETURNDATASIZE ADD AND DUP3 ADD PUSH1 0x40 MSTORE RETURNDATASIZE DUP3 MSTORE RETURNDATASIZE PUSH0 PUSH1 0x20 DUP5 ADD RETURNDATACOPY PUSH2 0x122A JUMP JUMPDEST PUSH1 0x60 SWAP2 POP JUMPDEST POP POP SWAP1 POP DUP1 PUSH2 0x126E JUMPI PUSH1 0x40 MLOAD PUSH32 0x8C379A000000000000000000000000000000000000000000000000000000000 DUP2 MSTORE PUSH1 0x4 ADD PUSH2 0x1265 SWAP1 PUSH2 0x32B0 JUMP JUMPDEST PUSH1 0x40 MLOAD DUP1 SWAP2 SUB SWAP1 REVERT JUMPDEST CALLER PUSH20 0xFFFFFFFFFFFFFFFFFFFFFFFFFFFFFFFFFFFFFFFF AND PUSH32 0xBC158BB64F05D6383AEA69BBB0B20C1BBF4B7A18F63359C5649B7C39E29D3884 DUP5 PUSH1 0x40 MLOAD PUSH2 0x12B4 SWAP2 SWAP1 PUSH2 0x2B67 JUMP JUMPDEST PUSH1 0x40 MLOAD DUP1 SWAP2 SUB SWAP1 LOG2 POP POP PUSH2 0x12C6 PUSH2 0x2753 JUMP JUMPDEST POP JUMP JUMPDEST PUSH2 0x12D2 DUP3 PUSH2 0xB54 JUMP JUMPDEST PUSH2 0x12DB DUP2 PUSH2 0x25CB JUMP JUMPDEST PUSH2 0x12E5 DUP4 DUP4 PUSH2 0x2648 JUMP JUMPDEST POP POP POP POP JUMP JUMPDEST PUSH2 0x12F3 PUSH2 0x276D JUMP JUMPDEST PUSH20 0xFFFFFFFFFFFFFFFFFFFFFFFFFFFFFFFFFFFFFFFF AND DUP2 PUSH20 0xFFFFFFFFFFFFFFFFFFFFFFFFFFFFFFFFFFFFFFFF AND EQ PUSH2 0x1357 JUMPI PUSH1 0x40 MLOAD PUSH32 0x6697B23200000000000000000000000000000000000000000000000000000000 DUP2 MSTORE PUSH1 0x4 ADD PUSH1 0x40 MLOAD DUP1 SWAP2 SUB SWAP1 REVERT JUMPDEST PUSH2 0x1361 DUP3 DUP3 PUSH2 0x2774 JUMP JUMPDEST POP POP POP JUMP JUMPDEST PUSH0 PUSH32 0xA5FF3EC7A96CDBBA4D2D5172D66BBC73C6DB3885F29B21BE5DA9FA7A7C025232 PUSH2 0x1391 DUP2 PUSH2 0x25CB JUMP JUMPDEST PUSH1 0x6 PUSH0 CALLER PUSH20 0xFFFFFFFFFFFFFFFFFFFFFFFFFFFFFFFFFFFFFFFF AND PUSH20 0xFFFFFFFFFFFFFFFFFFFFFFFFFFFFFFFFFFFFFFFF AND DUP2 MSTORE PUSH1 0x20 ADD SWAP1 DUP2 MSTORE PUSH1 0x20 ADD PUSH0 KECCAK256 PUSH0 DUP5 PUSH20 0xFFFFFFFFFFFFFFFFFFFFFFFFFFFFFFFFFFFFFFFF AND PUSH20 0xFFFFFFFFFFFFFFFFFFFFFFFFFFFFFFFFFFFFFFFF AND DUP2 MSTORE PUSH1 0x20 ADD SWAP1 DUP2 MSTORE PUSH1 0x20 ADD PUSH0 KECCAK256 SLOAD SWAP2 POP POP SWAP2 SWAP1 POP JUMP JUMPDEST PUSH1 0x4 PUSH0 SWAP1 SLOAD SWAP1 PUSH2 0x100 EXP SWAP1 DIV PUSH1 0xFF AND DUP2 JUMP JUMPDEST PUSH32 0x241ECF16D79D0F8DBFB92CBC07FE17840425976CF0667F022FE9877CAA831B08 PUSH2 0x144E DUP2 PUSH2 0x25CB JUMP JUMPDEST PUSH0 PUSH1 0x4 PUSH0 PUSH2 0x100 EXP DUP2 SLOAD DUP2 PUSH1 0xFF MUL NOT AND SWAP1 DUP4 ISZERO ISZERO MUL OR SWAP1 SSTORE POP POP JUMP JUMPDEST PUSH1 0x1 PUSH0 SWAP1 SLOAD SWAP1 PUSH2 0x100 EXP SWAP1 DIV PUSH20 0xFFFFFFFFFFFFFFFFFFFFFFFFFFFFFFFFFFFFFFFF AND DUP2 JUMP JUMPDEST PUSH32 0xA49807205CE4D355092EF5A8A18F56E8913CF4A201FBE287825B095693C21775 DUP2 JUMP JUMPDEST PUSH0 PUSH0 PUSH1 0x1 PUSH0 SWAP1 SLOAD SWAP1 PUSH2 0x100 EXP SWAP1 DIV PUSH20 0xFFFFFFFFFFFFFFFFFFFFFFFFFFFFFFFFFFFFFFFF AND PUSH20 0xFFFFFFFFFFFFFFFFFFFFFFFFFFFFFFFFFFFFFFFF AND PUSH4 0xFEAF968C PUSH1 0x40 MLOAD DUP2 PUSH4 0xFFFFFFFF AND PUSH1 0xE0 SHL DUP2 MSTORE PUSH1 0x4 ADD PUSH1 0xA0 PUSH1 0x40 MLOAD DUP1 DUP4 SUB DUP2 DUP7 GAS STATICCALL ISZERO DUP1 ISZERO PUSH2 0x151F JUMPI RETURNDATASIZE PUSH0 PUSH0 RETURNDATACOPY RETURNDATASIZE PUSH0 REVERT JUMPDEST POP POP POP POP PUSH1 0x40 MLOAD RETURNDATASIZE PUSH1 0x1F NOT PUSH1 0x1F DUP3 ADD AND DUP3 ADD DUP1 PUSH1 0x40 MSTORE POP DUP2 ADD SWAP1 PUSH2 0x1543 SWAP2 SWAP1 PUSH2 0x334B JUMP JUMPDEST POP POP POP SWAP2 POP POP DUP1 SWAP2 POP POP SWAP1 JUMP JUMPDEST PUSH0 PUSH0 PUSH0 DUP5 DUP2 MSTORE PUSH1 0x20 ADD SWAP1 DUP2 MSTORE PUSH1 0x20 ADD PUSH0 KECCAK256 PUSH0 ADD PUSH0 DUP4 PUSH20 0xFFFFFFFFFFFFFFFFFFFFFFFFFFFFFFFFFFFFFFFF AND PUSH20 0xFFFFFFFFFFFFFFFFFFFFFFFFFFFFFFFFFFFFFFFF AND DUP2 MSTORE PUSH1 0x20 ADD SWAP1 DUP2 MSTORE PUSH1 0x20 ADD PUSH0 KECCAK256 PUSH0 SWAP1 SLOAD SWAP1 PUSH2 0x100 EXP SWAP1 DIV PUSH1 0xFF AND SWAP1 POP SWAP3 SWAP2 POP POP JUMP JUMPDEST PUSH0 PUSH0 PUSH2 0x15BD PUSH2 0x14B3 JUMP JUMPDEST SWAP1 POP PUSH0 DUP2 SGT PUSH2 0x1601 JUMPI PUSH1 0x40 MLOAD PUSH32 0x8C379A000000000000000000000000000000000000000000000000000000000 DUP2 MSTORE PUSH1 0x4 ADD PUSH2 0x15F8 SWAP1 PUSH2 0x340C JUMP JUMPDEST PUSH1 0x40 MLOAD DUP1 SWAP2 SUB SWAP1 REVERT JUMPDEST PUSH8 0xDE0B6B3A7640000 DUP2 DUP5 PUSH2 0x1616 SWAP2 SWAP1 PUSH2 0x342A JUMP JUMPDEST PUSH2 0x1620 SWAP2 SWAP1 PUSH2 0x3498 JUMP JUMPDEST SWAP2 POP POP SWAP2 SWAP1 POP JUMP JUMPDEST PUSH32 0xA5FF3EC7A96CDBBA4D2D5172D66BBC73C6DB3885F29B21BE5DA9FA7A7C025232 PUSH2 0x1652 DUP2 PUSH2 0x25CB JUMP JUMPDEST PUSH1 0x5 PUSH0 CALLER PUSH20 0xFFFFFFFFFFFFFFFFFFFFFFFFFFFFFFFFFFFFFFFF AND PUSH20 0xFFFFFFFFFFFFFFFFFFFFFFFFFFFFFFFFFFFFFFFF AND DUP2 MSTORE PUSH1 0x20 ADD SWAP1 DUP2 MSTORE PUSH1 0x20 ADD PUSH0 KECCAK256 PUSH1 0x1 ADD PUSH0 SWAP1 SLOAD SWAP1 PUSH2 0x100 EXP SWAP1 DIV PUSH1 0xFF AND PUSH2 0x16DE JUMPI PUSH1 0x40 MLOAD PUSH32 0x8C379A000000000000000000000000000000000000000000000000000000000 DUP2 MSTORE PUSH1 0x4 ADD PUSH2 0x16D5 SWAP1 PUSH2 0x3207 JUMP JUMPDEST PUSH1 0x40 MLOAD DUP1 SWAP2 SUB SWAP1 REVERT JUMPDEST PUSH1 0x4 PUSH0 SWAP1 SLOAD SWAP1 PUSH2 0x100 EXP SWAP1 DIV PUSH1 0xFF AND ISZERO PUSH2 0x172D JUMPI PUSH1 0x40 MLOAD PUSH32 0x8C379A000000000000000000000000000000000000000000000000000000000 DUP2 MSTORE PUSH1 0x4 ADD PUSH2 0x1724 SWAP1 PUSH2 0x3512 JUMP JUMPDEST PUSH1 0x40 MLOAD DUP1 SWAP2 SUB SWAP1 REVERT JUMPDEST PUSH1 0x7 PUSH0 DUP5 PUSH20 0xFFFFFFFFFFFFFFFFFFFFFFFFFFFFFFFFFFFFFFFF AND PUSH20 0xFFFFFFFFFFFFFFFFFFFFFFFFFFFFFFFFFFFFFFFF AND DUP2 MSTORE PUSH1 0x20 ADD SWAP1 DUP2 MSTORE PUSH1 0x20 ADD PUSH0 KECCAK256 PUSH0 SWAP1 SLOAD SWAP1 PUSH2 0x100 EXP SWAP1 DIV PUSH1 0xFF AND PUSH2 0x17B6 JUMPI PUSH1 0x40 MLOAD PUSH32 0x8C379A000000000000000000000000000000000000000000000000000000000 DUP2 MSTORE PUSH1 0x4 ADD PUSH2 0x17AD SWAP1 PUSH2 0x357A JUMP JUMPDEST PUSH1 0x40 MLOAD DUP1 SWAP2 SUB SWAP1 REVERT JUMPDEST PUSH0 DUP3 GT PUSH2 0x17F8 JUMPI PUSH1 0x40 MLOAD PUSH32 0x8C379A000000000000000000000000000000000000000000000000000000000 DUP2 MSTORE PUSH1 0x4 ADD PUSH2 0x17EF SWAP1 PUSH2 0x30A4 JUMP JUMPDEST PUSH1 0x40 MLOAD DUP1 SWAP2 SUB SWAP1 REVERT JUMPDEST PUSH0 DUP4 PUSH20 0xFFFFFFFFFFFFFFFFFFFFFFFFFFFFFFFFFFFFFFFF AND PUSH4 0x23B872DD CALLER ADDRESS DUP7 PUSH1 0x40 MLOAD DUP5 PUSH4 0xFFFFFFFF AND PUSH1 0xE0 SHL DUP2 MSTORE PUSH1 0x4 ADD PUSH2 0x1836 SWAP4 SWAP3 SWAP2 SWAP1 PUSH2 0x35A7 JUMP JUMPDEST PUSH1 0x20 PUSH1 0x40 MLOAD DUP1 DUP4 SUB DUP2 PUSH0 DUP8 GAS CALL ISZERO DUP1 ISZERO PUSH2 0x1852 JUMPI RETURNDATASIZE PUSH0 PUSH0 RETURNDATACOPY RETURNDATASIZE PUSH0 REVERT JUMPDEST POP POP POP POP PUSH1 0x40 MLOAD RETURNDATASIZE PUSH1 0x1F NOT PUSH1 0x1F DUP3 ADD AND DUP3 ADD DUP1 PUSH1 0x40 MSTORE POP DUP2 ADD SWAP1 PUSH2 0x1876 SWAP2 SWAP1 PUSH2 0x3606 JUMP JUMPDEST SWAP1 POP DUP1 PUSH2 0x18B8 JUMPI PUSH1 0x40 MLOAD PUSH32 0x8C379A000000000000000000000000000000000000000000000000000000000 DUP2 MSTORE PUSH1 0x4 ADD PUSH2 0x18AF SWAP1 PUSH2 0x367B JUMP JUMPDEST PUSH1 0x40 MLOAD DUP1 SWAP2 SUB SWAP1 REVERT JUMPDEST DUP3 PUSH1 0x6 PUSH0 CALLER PUSH20 0xFFFFFFFFFFFFFFFFFFFFFFFFFFFFFFFFFFFFFFFF AND PUSH20 0xFFFFFFFFFFFFFFFFFFFFFFFFFFFFFFFFFFFFFFFF AND DUP2 MSTORE PUSH1 0x20 ADD SWAP1 DUP2 MSTORE PUSH1 0x20 ADD PUSH0 KECCAK256 PUSH0 DUP7 PUSH20 0xFFFFFFFFFFFFFFFFFFFFFFFFFFFFFFFFFFFFFFFF AND PUSH20 0xFFFFFFFFFFFFFFFFFFFFFFFFFFFFFFFFFFFFFFFF AND DUP2 MSTORE PUSH1 0x20 ADD SWAP1 DUP2 MSTORE PUSH1 0x20 ADD PUSH0 KECCAK256 PUSH0 DUP3 DUP3 SLOAD PUSH2 0x193F SWAP2 SWAP1 PUSH2 0x318A JUMP JUMPDEST SWAP3 POP POP DUP2 SWAP1 SSTORE POP DUP4 PUSH20 0xFFFFFFFFFFFFFFFFFFFFFFFFFFFFFFFFFFFFFFFF AND CALLER PUSH20 0xFFFFFFFFFFFFFFFFFFFFFFFFFFFFFFFFFFFFFFFF AND PUSH32 0x98C09D9949722BAE4BD0D988D4050091C3AE7EC6D51D3C6BBFE4233593944E9E DUP6 PUSH1 0x40 MLOAD PUSH2 0x19A3 SWAP2 SWAP1 PUSH2 0x2B67 JUMP JUMPDEST PUSH1 0x40 MLOAD DUP1 SWAP2 SUB SWAP1 LOG3 POP POP POP POP JUMP JUMPDEST PUSH32 0xA49807205CE4D355092EF5A8A18F56E8913CF4A201FBE287825B095693C21775 PUSH2 0x19DB DUP2 PUSH2 0x25CB JUMP JUMPDEST PUSH0 PUSH20 0xFFFFFFFFFFFFFFFFFFFFFFFFFFFFFFFFFFFFFFFF AND DUP3 PUSH20 0xFFFFFFFFFFFFFFFFFFFFFFFFFFFFFFFFFFFFFFFF AND SUB PUSH2 0x1A49 JUMPI PUSH1 0x40 MLOAD PUSH32 0x8C379A000000000000000000000000000000000000000000000000000000000 DUP2 MSTORE PUSH1 0x4 ADD PUSH2 0x1A40 SWAP1 PUSH2 0x36E3 JUMP JUMPDEST PUSH1 0x40 MLOAD DUP1 SWAP2 SUB SWAP1 REVERT JUMPDEST PUSH1 0x5 PUSH0 DUP4 PUSH20 0xFFFFFFFFFFFFFFFFFFFFFFFFFFFFFFFFFFFFFFFF AND PUSH20 0xFFFFFFFFFFFFFFFFFFFFFFFFFFFFFFFFFFFFFFFF AND DUP2 MSTORE PUSH1 0x20 ADD SWAP1 DUP2 MSTORE PUSH1 0x20 ADD PUSH0 KECCAK256 PUSH1 0x1 ADD PUSH0 SWAP1 SLOAD SWAP1 PUSH2 0x100 EXP SWAP1 DIV PUSH1 0xFF AND ISZERO PUSH2 0x1AD6 JUMPI PUSH1 0x40 MLOAD PUSH32 0x8C379A000000000000000000000000000000000000000000000000000000000 DUP2 MSTORE PUSH1 0x4 ADD PUSH2 0x1ACD SWAP1 PUSH2 0x374B JUMP JUMPDEST PUSH1 0x40 MLOAD DUP1 SWAP2 SUB SWAP1 REVERT JUMPDEST PUSH1 0x40 MLOAD DUP1 PUSH1 0x40 ADD PUSH1 0x40 MSTORE DUP1 PUSH0 DUP2 MSTORE PUSH1 0x20 ADD PUSH1 0x1 ISZERO ISZERO DUP2 MSTORE POP PUSH1 0x5 PUSH0 DUP5 PUSH20 0xFFFFFFFFFFFFFFFFFFFFFFFFFFFFFFFFFFFFFFFF AND PUSH20 0xFFFFFFFFFFFFFFFFFFFFFFFFFFFFFFFFFFFFFFFF AND DUP2 MSTORE PUSH1 0x20 ADD SWAP1 DUP2 MSTORE PUSH1 0x20 ADD PUSH0 KECCAK256 PUSH0 DUP3 ADD MLOAD DUP2 PUSH0 ADD SSTORE PUSH1 0x20 DUP3 ADD MLOAD DUP2 PUSH1 0x1 ADD PUSH0 PUSH2 0x100 EXP DUP2 SLOAD DUP2 PUSH1 0xFF MUL NOT AND SWAP1 DUP4 ISZERO ISZERO MUL OR SWAP1 SSTORE POP SWAP1 POP POP PUSH2 0x1B7F PUSH32 0xA5FF3EC7A96CDBBA4D2D5172D66BBC73C6DB3885F29B21BE5DA9FA7A7C025232 DUP4 PUSH2 0x2648 JUMP JUMPDEST POP DUP2 PUSH20 0xFFFFFFFFFFFFFFFFFFFFFFFFFFFFFFFFFFFFFFFF AND PUSH32 0x805996F252884581E2F74CF3D2B03564D5EC26CCC90850AE12653DC1B72D1FA2 PUSH1 0x40 MLOAD PUSH1 0x40 MLOAD DUP1 SWAP2 SUB SWAP1 LOG2 POP POP JUMP JUMPDEST PUSH2 0x1BCF PUSH2 0x2731 JUMP JUMPDEST PUSH32 0xA5FF3EC7A96CDBBA4D2D5172D66BBC73C6DB3885F29B21BE5DA9FA7A7C025232 PUSH2 0x1BF9 DUP2 PUSH2 0x25CB JUMP JUMPDEST PUSH1 0x5 PUSH0 CALLER PUSH20 0xFFFFFFFFFFFFFFFFFFFFFFFFFFFFFFFFFFFFFFFF AND PUSH20 0xFFFFFFFFFFFFFFFFFFFFFFFFFFFFFFFFFFFFFFFF AND DUP2 MSTORE PUSH1 0x20 ADD SWAP1 DUP2 MSTORE PUSH1 0x20 ADD PUSH0 KECCAK256 PUSH1 0x1 ADD PUSH0 SWAP1 SLOAD SWAP1 PUSH2 0x100 EXP SWAP1 DIV PUSH1 0xFF AND PUSH2 0x1C85 JUMPI PUSH1 0x40 MLOAD PUSH32 0x8C379A000000000000000000000000000000000000000000000000000000000 DUP2 MSTORE PUSH1 0x4 ADD PUSH2 0x1C7C SWAP1 PUSH2 0x3207 JUMP JUMPDEST PUSH1 0x40 MLOAD DUP1 SWAP2 SUB SWAP1 REVERT JUMPDEST PUSH0 DUP3 GT PUSH2 0x1CC7 JUMPI PUSH1 0x40 MLOAD PUSH32 0x8C379A000000000000000000000000000000000000000000000000000000000 DUP2 MSTORE PUSH1 0x4 ADD PUSH2 0x1CBE SWAP1 PUSH2 0x30A4 JUMP JUMPDEST PUSH1 0x40 MLOAD DUP1 SWAP2 SUB SWAP1 REVERT JUMPDEST DUP2 PUSH1 0x6 PUSH0 CALLER PUSH20 0xFFFFFFFFFFFFFFFFFFFFFFFFFFFFFFFFFFFFFFFF AND PUSH20 0xFFFFFFFFFFFFFFFFFFFFFFFFFFFFFFFFFFFFFFFF AND DUP2 MSTORE PUSH1 0x20 ADD SWAP1 DUP2 MSTORE PUSH1 0x20 ADD PUSH0 KECCAK256 PUSH0 DUP6 PUSH20 0xFFFFFFFFFFFFFFFFFFFFFFFFFFFFFFFFFFFFFFFF AND PUSH20 0xFFFFFFFFFFFFFFFFFFFFFFFFFFFFFFFFFFFFFFFF AND DUP2 MSTORE PUSH1 0x20 ADD SWAP1 DUP2 MSTORE PUSH1 0x20 ADD PUSH0 KECCAK256 SLOAD LT ISZERO PUSH2 0x1D82 JUMPI PUSH1 0x40 MLOAD PUSH32 0x8C379A000000000000000000000000000000000000000000000000000000000 DUP2 MSTORE PUSH1 0x4 ADD PUSH2 0x1D79 SWAP1 PUSH2 0x37B3 JUMP JUMPDEST PUSH1 0x40 MLOAD DUP1 SWAP2 SUB SWAP1 REVERT JUMPDEST DUP2 PUSH1 0x6 PUSH0 CALLER PUSH20 0xFFFFFFFFFFFFFFFFFFFFFFFFFFFFFFFFFFFFFFFF AND PUSH20 0xFFFFFFFFFFFFFFFFFFFFFFFFFFFFFFFFFFFFFFFF AND DUP2 MSTORE PUSH1 0x20 ADD SWAP1 DUP2 MSTORE PUSH1 0x20 ADD PUSH0 KECCAK256 PUSH0 DUP6 PUSH20 0xFFFFFFFFFFFFFFFFFFFFFFFFFFFFFFFFFFFFFFFF AND PUSH20 0xFFFFFFFFFFFFFFFFFFFFFFFFFFFFFFFFFFFFFFFF AND DUP2 MSTORE PUSH1 0x20 ADD SWAP1 DUP2 MSTORE PUSH1 0x20 ADD PUSH0 KECCAK256 PUSH0 DUP3 DUP3 SLOAD PUSH2 0x1E09 SWAP2 SWAP1 PUSH2 0x3157 JUMP JUMPDEST SWAP3 POP POP DUP2 SWAP1 SSTORE POP PUSH0 DUP4 PUSH20 0xFFFFFFFFFFFFFFFFFFFFFFFFFFFFFFFFFFFFFFFF AND PUSH4 0xA9059CBB CALLER DUP6 PUSH1 0x40 MLOAD DUP4 PUSH4 0xFFFFFFFF AND PUSH1 0xE0 SHL DUP2 MSTORE PUSH1 0x4 ADD PUSH2 0x1E4C SWAP3 SWAP2 SWAP1 PUSH2 0x37D1 JUMP JUMPDEST PUSH1 0x20 PUSH1 0x40 MLOAD DUP1 DUP4 SUB DUP2 PUSH0 DUP8 GAS CALL ISZERO DUP1 ISZERO PUSH2 0x1E68 JUMPI RETURNDATASIZE PUSH0 PUSH0 RETURNDATACOPY RETURNDATASIZE PUSH0 REVERT JUMPDEST POP POP POP POP PUSH1 0x40 MLOAD RETURNDATASIZE PUSH1 0x1F NOT PUSH1 0x1F DUP3 ADD AND DUP3 ADD DUP1 PUSH1 0x40 MSTORE POP DUP2 ADD SWAP1 PUSH2 0x1E8C SWAP2 SWAP1 PUSH2 0x3606 JUMP JUMPDEST SWAP1 POP DUP1 PUSH2 0x1ECE JUMPI PUSH1 0x40 MLOAD PUSH32 0x8C379A000000000000000000000000000000000000000000000000000000000 DUP2 MSTORE PUSH1 0x4 ADD PUSH2 0x1EC5 SWAP1 PUSH2 0x3842 JUMP JUMPDEST PUSH1 0x40 MLOAD DUP1 SWAP2 SUB SWAP1 REVERT JUMPDEST DUP4 PUSH20 0xFFFFFFFFFFFFFFFFFFFFFFFFFFFFFFFFFFFFFFFF AND CALLER PUSH20 0xFFFFFFFFFFFFFFFFFFFFFFFFFFFFFFFFFFFFFFFF AND PUSH32 0x42856D0378DDE02337BB59AE41747ABC77DED8EBDBBC5CBDD1E53693B7554938 DUP6 PUSH1 0x40 MLOAD PUSH2 0x1F2B SWAP2 SWAP1 PUSH2 0x2B67 JUMP JUMPDEST PUSH1 0x40 MLOAD DUP1 SWAP2 SUB SWAP1 LOG3 POP POP PUSH2 0x1F3D PUSH2 0x2753 JUMP JUMPDEST POP POP JUMP JUMPDEST PUSH0 PUSH0 SHL DUP2 JUMP JUMPDEST PUSH32 0x241ECF16D79D0F8DBFB92CBC07FE17840425976CF0667F022FE9877CAA831B08 PUSH2 0x1F71 DUP2 PUSH2 0x25CB JUMP JUMPDEST PUSH0 PUSH20 0xFFFFFFFFFFFFFFFFFFFFFFFFFFFFFFFFFFFFFFFF AND DUP3 PUSH20 0xFFFFFFFFFFFFFFFFFFFFFFFFFFFFFFFFFFFFFFFF AND SUB PUSH2 0x1FDF JUMPI PUSH1 0x40 MLOAD PUSH32 0x8C379A000000000000000000000000000000000000000000000000000000000 DUP2 MSTORE PUSH1 0x4 ADD PUSH2 0x1FD6 SWAP1 PUSH2 0x38AA JUMP JUMPDEST PUSH1 0x40 MLOAD DUP1 SWAP2 SUB SWAP1 REVERT JUMPDEST PUSH1 0x1 PUSH1 0x7 PUSH0 DUP5 PUSH20 0xFFFFFFFFFFFFFFFFFFFFFFFFFFFFFFFFFFFFFFFF AND PUSH20 0xFFFFFFFFFFFFFFFFFFFFFFFFFFFFFFFFFFFFFFFF AND DUP2 MSTORE PUSH1 0x20 ADD SWAP1 DUP2 MSTORE PUSH1 0x20 ADD PUSH0 KECCAK256 PUSH0 PUSH2 0x100 EXP DUP2 SLOAD DUP2 PUSH1 0xFF MUL NOT AND SWAP1 DUP4 ISZERO ISZERO MUL OR SWAP1 SSTORE POP POP POP JUMP JUMPDEST PUSH32 0xA49807205CE4D355092EF5A8A18F56E8913CF4A201FBE287825B095693C21775 PUSH2 0x2062 DUP2 PUSH2 0x25CB JUMP JUMPDEST PUSH2 0x206C DUP4 DUP4 PUSH2 0x2774 JUMP JUMPDEST POP POP POP POP JUMP JUMPDEST PUSH32 0xA49807205CE4D355092EF5A8A18F56E8913CF4A201FBE287825B095693C21775 PUSH2 0x209C DUP2 PUSH2 0x25CB JUMP JUMPDEST PUSH2 0x20C6 PUSH32 0x241ECF16D79D0F8DBFB92CBC07FE17840425976CF0667F022FE9877CAA831B08 DUP4 PUSH2 0x2774 JUMP JUMPDEST POP POP POP JUMP JUMPDEST PUSH32 0xA5FF3EC7A96CDBBA4D2D5172D66BBC73C6DB3885F29B21BE5DA9FA7A7C025232 PUSH2 0x20F5 DUP2 PUSH2 0x25CB JUMP JUMPDEST PUSH2 0x20FE CALLVALUE PUSH2 0x15B3 JUMP JUMPDEST PUSH1 0x2 SLOAD DUP2 PUSH1 0x3 SLOAD PUSH2 0x210F SWAP2 SWAP1 PUSH2 0x318A JUMP JUMPDEST GT ISZERO PUSH2 0x2150 JUMPI PUSH1 0x40 MLOAD PUSH32 0x8C379A000000000000000000000000000000000000000000000000000000000 DUP2 MSTORE PUSH1 0x4 ADD PUSH2 0x2147 SWAP1 PUSH2 0x3912 JUMP JUMPDEST PUSH1 0x40 MLOAD DUP1 SWAP2 SUB SWAP1 REVERT JUMPDEST PUSH1 0x5 PUSH0 CALLER PUSH20 0xFFFFFFFFFFFFFFFFFFFFFFFFFFFFFFFFFFFFFFFF AND PUSH20 0xFFFFFFFFFFFFFFFFFFFFFFFFFFFFFFFFFFFFFFFF AND DUP2 MSTORE PUSH1 0x20 ADD SWAP1 DUP2 MSTORE PUSH1 0x20 ADD PUSH0 KECCAK256 PUSH1 0x1 ADD PUSH0 SWAP1 SLOAD SWAP1 PUSH2 0x100 EXP SWAP1 DIV PUSH1 0xFF AND PUSH2 0x21DC JUMPI PUSH1 0x40 MLOAD PUSH32 0x8C379A000000000000000000000000000000000000000000000000000000000 DUP2 MSTORE PUSH1 0x4 ADD PUSH2 0x21D3 SWAP1 PUSH2 0x3207 JUMP JUMPDEST PUSH1 0x40 MLOAD DUP1 SWAP2 SUB SWAP1 REVERT JUMPDEST PUSH0 CALLVALUE GT PUSH2 0x221E JUMPI PUSH1 0x40 MLOAD PUSH32 0x8C379A000000000000000000000000000000000000000000000000000000000 DUP2 MSTORE PUSH1 0x4 ADD PUSH2 0x2215 SWAP1 PUSH2 0x397A JUMP JUMPDEST PUSH1 0x40 MLOAD DUP1 SWAP2 SUB SWAP1 REVERT JUMPDEST PUSH1 0x4 PUSH0 SWAP1 SLOAD SWAP1 PUSH2 0x100 EXP SWAP1 DIV PUSH1 0xFF AND ISZERO PUSH2 0x226D JUMPI PUSH1 0x40 MLOAD PUSH32 0x8C379A000000000000000000000000000000000000000000000000000000000 DUP2 MSTORE PUSH1 0x4 ADD PUSH2 0x2264 SWAP1 PUSH2 0x3512 JUMP JUMPDEST PUSH1 0x40 MLOAD DUP1 SWAP2 SUB SWAP1 REVERT JUMPDEST CALLVALUE PUSH1 0x5 PUSH0 CALLER PUSH20 0xFFFFFFFFFFFFFFFFFFFFFFFFFFFFFFFFFFFFFFFF AND PUSH20 0xFFFFFFFFFFFFFFFFFFFFFFFFFFFFFFFFFFFFFFFF AND DUP2 MSTORE PUSH1 0x20 ADD SWAP1 DUP2 MSTORE PUSH1 0x20 ADD PUSH0 KECCAK256 PUSH0 ADD PUSH0 DUP3 DUP3 SLOAD PUSH2 0x22BB SWAP2 SWAP1 PUSH2 0x318A JUMP JUMPDEST SWAP3 POP POP DUP2 SWAP1 SSTORE POP PUSH2 0x22CB CALLVALUE PUSH2 0x15B3 JUMP JUMPDEST PUSH1 0x3 PUSH0 DUP3 DUP3 SLOAD PUSH2 0x22DB SWAP2 SWAP1 PUSH2 0x318A JUMP JUMPDEST SWAP3 POP POP DUP2 SWAP1 SSTORE POP CALLER PUSH20 0xFFFFFFFFFFFFFFFFFFFFFFFFFFFFFFFFFFFFFFFF AND PUSH32 0xD15C9547EA5C06670C0010CE19BC32D54682A4B3801ECE7F3AB0C3F17106B4BB CALLVALUE PUSH1 0x40 MLOAD PUSH2 0x2328 SWAP2 SWAP1 PUSH2 0x2B67 JUMP JUMPDEST PUSH1 0x40 MLOAD DUP1 SWAP2 SUB SWAP1 LOG2 POP POP JUMP JUMPDEST PUSH2 0x233D DUP3 PUSH2 0xB54 JUMP JUMPDEST PUSH2 0x2346 DUP2 PUSH2 0x25CB JUMP JUMPDEST PUSH2 0x2350 DUP4 DUP4 PUSH2 0x2774 JUMP JUMPDEST POP POP POP POP JUMP JUMPDEST PUSH1 0x7 PUSH1 0x20 MSTORE DUP1 PUSH0 MSTORE PUSH1 0x40 PUSH0 KECCAK256 PUSH0 SWAP2 POP SLOAD SWAP1 PUSH2 0x100 EXP SWAP1 DIV PUSH1 0xFF AND DUP2 JUMP JUMPDEST PUSH32 0x241ECF16D79D0F8DBFB92CBC07FE17840425976CF0667F022FE9877CAA831B08 PUSH2 0x239D DUP2 PUSH2 0x25CB JUMP JUMPDEST PUSH1 0x7 PUSH0 DUP4 PUSH20 0xFFFFFFFFFFFFFFFFFFFFFFFFFFFFFFFFFFFFFFFF AND PUSH20 0xFFFFFFFFFFFFFFFFFFFFFFFFFFFFFFFFFFFFFFFF AND DUP2 MSTORE PUSH1 0x20 ADD SWAP1 DUP2 MSTORE PUSH1 0x20 ADD PUSH0 KECCAK256 PUSH0 SWAP1 SLOAD SWAP1 PUSH2 0x100 EXP SWAP1 DIV PUSH1 0xFF AND PUSH2 0x2426 JUMPI PUSH1 0x40 MLOAD PUSH32 0x8C379A000000000000000000000000000000000000000000000000000000000 DUP2 MSTORE PUSH1 0x4 ADD PUSH2 0x241D SWAP1 PUSH2 0x357A JUMP JUMPDEST PUSH1 0x40 MLOAD DUP1 SWAP2 SUB SWAP1 REVERT JUMPDEST PUSH0 PUSH1 0x7 PUSH0 DUP5 PUSH20 0xFFFFFFFFFFFFFFFFFFFFFFFFFFFFFFFFFFFFFFFF AND PUSH20 0xFFFFFFFFFFFFFFFFFFFFFFFFFFFFFFFFFFFFFFFF AND DUP2 MSTORE PUSH1 0x20 ADD SWAP1 DUP2 MSTORE PUSH1 0x20 ADD PUSH0 KECCAK256 PUSH0 PUSH2 0x100 EXP DUP2 SLOAD DUP2 PUSH1 0xFF MUL NOT AND SWAP1 DUP4 ISZERO ISZERO MUL OR SWAP1 SSTORE POP POP POP JUMP JUMPDEST PUSH32 0xA5FF3EC7A96CDBBA4D2D5172D66BBC73C6DB3885F29B21BE5DA9FA7A7C025232 DUP2 JUMP JUMPDEST PUSH32 0x241ECF16D79D0F8DBFB92CBC07FE17840425976CF0667F022FE9877CAA831B08 DUP2 JUMP JUMPDEST PUSH1 0x3 SLOAD DUP2 JUMP JUMPDEST PUSH0 PUSH32 0x241ECF16D79D0F8DBFB92CBC07FE17840425976CF0667F022FE9877CAA831B08 PUSH2 0x24F7 DUP2 PUSH2 0x25CB JUMP JUMPDEST PUSH1 0x5 PUSH0 DUP5 PUSH20 0xFFFFFFFFFFFFFFFFFFFFFFFFFFFFFFFFFFFFFFFF AND PUSH20 0xFFFFFFFFFFFFFFFFFFFFFFFFFFFFFFFFFFFFFFFF AND DUP2 MSTORE PUSH1 0x20 ADD SWAP1 DUP2 MSTORE PUSH1 0x20 ADD PUSH0 KECCAK256 PUSH1 0x1 ADD PUSH0 SWAP1 SLOAD SWAP1 PUSH2 0x100 EXP SWAP1 DIV PUSH1 0xFF AND PUSH2 0x2583 JUMPI PUSH1 0x40 MLOAD PUSH32 0x8C379A000000000000000000000000000000000000000000000000000000000 DUP2 MSTORE PUSH1 0x4 ADD PUSH2 0x257A SWAP1 PUSH2 0x2E9C JUMP JUMPDEST PUSH1 0x40 MLOAD DUP1 SWAP2 SUB SWAP1 REVERT JUMPDEST PUSH1 0x5 PUSH0 DUP5 PUSH20 0xFFFFFFFFFFFFFFFFFFFFFFFFFFFFFFFFFFFFFFFF AND PUSH20 0xFFFFFFFFFFFFFFFFFFFFFFFFFFFFFFFFFFFFFFFF AND DUP2 MSTORE PUSH1 0x20 ADD SWAP1 DUP2 MSTORE PUSH1 0x20 ADD PUSH0 KECCAK256 PUSH0 ADD SLOAD SWAP2 POP POP SWAP2 SWAP1 POP JUMP JUMPDEST PUSH2 0x25DC DUP2 PUSH2 0x25D7 PUSH2 0x276D JUMP JUMPDEST PUSH2 0x285D JUMP JUMPDEST POP JUMP JUMPDEST PUSH0 PUSH32 0x1FFC9A700000000000000000000000000000000000000000000000000000000 PUSH28 0xFFFFFFFFFFFFFFFFFFFFFFFFFFFFFFFFFFFFFFFFFFFFFFFFFFFFFFFF NOT AND DUP3 PUSH28 0xFFFFFFFFFFFFFFFFFFFFFFFFFFFFFFFFFFFFFFFFFFFFFFFFFFFFFFFF NOT AND EQ SWAP1 POP SWAP2 SWAP1 POP JUMP JUMPDEST PUSH0 PUSH2 0x2653 DUP4 DUP4 PUSH2 0x1550 JUMP JUMPDEST PUSH2 0x2727 JUMPI PUSH1 0x1 PUSH0 PUSH0 DUP6 DUP2 MSTORE PUSH1 0x20 ADD SWAP1 DUP2 MSTORE PUSH1 0x20 ADD PUSH0 KECCAK256 PUSH0 ADD PUSH0 DUP5 PUSH20 0xFFFFFFFFFFFFFFFFFFFFFFFFFFFFFFFFFFFFFFFF AND PUSH20 0xFFFFFFFFFFFFFFFFFFFFFFFFFFFFFFFFFFFFFFFF AND DUP2 MSTORE PUSH1 0x20 ADD SWAP1 DUP2 MSTORE PUSH1 0x20 ADD PUSH0 KECCAK256 PUSH0 PUSH2 0x100 EXP DUP2 SLOAD DUP2 PUSH1 0xFF MUL NOT AND SWAP1 DUP4 ISZERO ISZERO MUL OR SWAP1 SSTORE POP PUSH2 0x26C4 PUSH2 0x276D JUMP JUMPDEST PUSH20 0xFFFFFFFFFFFFFFFFFFFFFFFFFFFFFFFFFFFFFFFF AND DUP3 PUSH20 0xFFFFFFFFFFFFFFFFFFFFFFFFFFFFFFFFFFFFFFFF AND DUP5 PUSH32 0x2F8788117E7EFF1D82E926EC794901D17C78024A50270940304540A733656F0D PUSH1 0x40 MLOAD PUSH1 0x40 MLOAD DUP1 SWAP2 SUB SWAP1 LOG4 PUSH1 0x1 SWAP1 POP PUSH2 0x272B JUMP JUMPDEST PUSH0 SWAP1 POP JUMPDEST SWAP3 SWAP2 POP POP JUMP JUMPDEST PUSH2 0x2739 PUSH2 0x28AE JUMP JUMPDEST PUSH1 0x2 PUSH2 0x274B PUSH2 0x2746 PUSH2 0x28EF JUMP JUMPDEST PUSH2 0x2918 JUMP JUMPDEST PUSH0 ADD DUP2 SWAP1 SSTORE POP JUMP JUMPDEST PUSH1 0x1 PUSH2 0x2765 PUSH2 0x2760 PUSH2 0x28EF JUMP JUMPDEST PUSH2 0x2918 JUMP JUMPDEST PUSH0 ADD DUP2 SWAP1 SSTORE POP JUMP JUMPDEST PUSH0 CALLER SWAP1 POP SWAP1 JUMP JUMPDEST PUSH0 PUSH2 0x277F DUP4 DUP4 PUSH2 0x1550 JUMP JUMPDEST ISZERO PUSH2 0x2853 JUMPI PUSH0 PUSH0 PUSH0 DUP6 DUP2 MSTORE PUSH1 0x20 ADD SWAP1 DUP2 MSTORE PUSH1 0x20 ADD PUSH0 KECCAK256 PUSH0 ADD PUSH0 DUP5 PUSH20 0xFFFFFFFFFFFFFFFFFFFFFFFFFFFFFFFFFFFFFFFF AND PUSH20 0xFFFFFFFFFFFFFFFFFFFFFFFFFFFFFFFFFFFFFFFF AND DUP2 MSTORE PUSH1 0x20 ADD SWAP1 DUP2 MSTORE PUSH1 0x20 ADD PUSH0 KECCAK256 PUSH0 PUSH2 0x100 EXP DUP2 SLOAD DUP2 PUSH1 0xFF MUL NOT AND SWAP1 DUP4 ISZERO ISZERO MUL OR SWAP1 SSTORE POP PUSH2 0x27F0 PUSH2 0x276D JUMP JUMPDEST PUSH20 0xFFFFFFFFFFFFFFFFFFFFFFFFFFFFFFFFFFFFFFFF AND DUP3 PUSH20 0xFFFFFFFFFFFFFFFFFFFFFFFFFFFFFFFFFFFFFFFF AND DUP5 PUSH32 0xF6391F5C32D9C69D2A47EA670B442974B53935D1EDC7FD64EB21E047A839171B PUSH1 0x40 MLOAD PUSH1 0x40 MLOAD DUP1 SWAP2 SUB SWAP1 LOG4 PUSH1 0x1 SWAP1 POP PUSH2 0x2857 JUMP JUMPDEST PUSH0 SWAP1 POP JUMPDEST SWAP3 SWAP2 POP POP JUMP JUMPDEST PUSH2 0x2867 DUP3 DUP3 PUSH2 0x1550 JUMP JUMPDEST PUSH2 0x28AA JUMPI DUP1 DUP3 PUSH1 0x40 MLOAD PUSH32 0xE2517D3F00000000000000000000000000000000000000000000000000000000 DUP2 MSTORE PUSH1 0x4 ADD PUSH2 0x28A1 SWAP3 SWAP2 SWAP1 PUSH2 0x3998 JUMP JUMPDEST PUSH1 0x40 MLOAD DUP1 SWAP2 SUB SWAP1 REVERT JUMPDEST POP POP JUMP JUMPDEST PUSH2 0x28B6 PUSH2 0x2921 JUMP JUMPDEST ISZERO PUSH2 0x28ED JUMPI PUSH1 0x40 MLOAD PUSH32 0x3EE5AEB500000000000000000000000000000000000000000000000000000000 DUP2 MSTORE PUSH1 0x4 ADD PUSH1 0x40 MLOAD DUP1 SWAP2 SUB SWAP1 REVERT JUMPDEST JUMP JUMPDEST PUSH0 PUSH32 0x9B779B17422D0DF92223018B32B4D1FA46E071723D6817E2486D003BECC55F00 PUSH0 SHL SWAP1 POP SWAP1 JUMP JUMPDEST PUSH0 DUP2 SWAP1 POP SWAP2 SWAP1 POP JUMP JUMPDEST PUSH0 PUSH1 0x2 PUSH2 0x2934 PUSH2 0x292F PUSH2 0x28EF JUMP JUMPDEST PUSH2 0x2918 JUMP JUMPDEST PUSH0 ADD SLOAD EQ SWAP1 POP SWAP1 JUMP JUMPDEST PUSH0 DUP3 DUP3 MSTORE PUSH1 0x20 DUP3 ADD SWAP1 POP SWAP3 SWAP2 POP POP JUMP JUMPDEST PUSH32 0x446972656374206465706F736974732064697361626C65643B20757365206465 PUSH0 DUP3 ADD MSTORE PUSH32 0x706F736974282900000000000000000000000000000000000000000000000000 PUSH1 0x20 DUP3 ADD MSTORE POP JUMP JUMPDEST PUSH0 PUSH2 0x29A7 PUSH1 0x27 DUP4 PUSH2 0x293D JUMP JUMPDEST SWAP2 POP PUSH2 0x29B2 DUP3 PUSH2 0x294D JUMP JUMPDEST PUSH1 0x40 DUP3 ADD SWAP1 POP SWAP2 SWAP1 POP JUMP JUMPDEST PUSH0 PUSH1 0x20 DUP3 ADD SWAP1 POP DUP2 DUP2 SUB PUSH0 DUP4 ADD MSTORE PUSH2 0x29D4 DUP2 PUSH2 0x299B JUMP JUMPDEST SWAP1 POP SWAP2 SWAP1 POP JUMP JUMPDEST PUSH32 0x46616C6C6261636B3A20757365206465706F7369742829000000000000000000 PUSH0 DUP3 ADD MSTORE POP JUMP JUMPDEST PUSH0 PUSH2 0x2A0F PUSH1 0x17 DUP4 PUSH2 0x293D JUMP JUMPDEST SWAP2 POP PUSH2 0x2A1A DUP3 PUSH2 0x29DB JUMP JUMPDEST PUSH1 0x20 DUP3 ADD SWAP1 POP SWAP2 SWAP1 POP JUMP JUMPDEST PUSH0 PUSH1 0x20 DUP3 ADD SWAP1 POP DUP2 DUP2 SUB PUSH0 DUP4 ADD MSTORE PUSH2 0x2A3C DUP2 PUSH2 0x2A03 JUMP JUMPDEST SWAP1 POP SWAP2 SWAP1 POP JUMP JUMPDEST PUSH0 PUSH0 REVERT JUMPDEST PUSH0 DUP2 SWAP1 POP SWAP2 SWAP1 POP JUMP JUMPDEST PUSH2 0x2A59 DUP2 PUSH2 0x2A47 JUMP JUMPDEST DUP2 EQ PUSH2 0x2A63 JUMPI PUSH0 PUSH0 REVERT JUMPDEST POP JUMP JUMPDEST PUSH0 DUP2 CALLDATALOAD SWAP1 POP PUSH2 0x2A74 DUP2 PUSH2 0x2A50 JUMP JUMPDEST SWAP3 SWAP2 POP POP JUMP JUMPDEST PUSH0 PUSH1 0x20 DUP3 DUP5 SUB SLT ISZERO PUSH2 0x2A8F JUMPI PUSH2 0x2A8E PUSH2 0x2A43 JUMP JUMPDEST JUMPDEST PUSH0 PUSH2 0x2A9C DUP5 DUP3 DUP6 ADD PUSH2 0x2A66 JUMP JUMPDEST SWAP2 POP POP SWAP3 SWAP2 POP POP JUMP JUMPDEST PUSH0 PUSH32 0xFFFFFFFF00000000000000000000000000000000000000000000000000000000 DUP3 AND SWAP1 POP SWAP2 SWAP1 POP JUMP JUMPDEST PUSH2 0x2AD9 DUP2 PUSH2 0x2AA5 JUMP JUMPDEST DUP2 EQ PUSH2 0x2AE3 JUMPI PUSH0 PUSH0 REVERT JUMPDEST POP JUMP JUMPDEST PUSH0 DUP2 CALLDATALOAD SWAP1 POP PUSH2 0x2AF4 DUP2 PUSH2 0x2AD0 JUMP JUMPDEST SWAP3 SWAP2 POP POP JUMP JUMPDEST PUSH0 PUSH1 0x20 DUP3 DUP5 SUB SLT ISZERO PUSH2 0x2B0F JUMPI PUSH2 0x2B0E PUSH2 0x2A43 JUMP JUMPDEST JUMPDEST PUSH0 PUSH2 0x2B1C DUP5 DUP3 DUP6 ADD PUSH2 0x2AE6 JUMP JUMPDEST SWAP2 POP POP SWAP3 SWAP2 POP POP JUMP JUMPDEST PUSH0 DUP2 ISZERO ISZERO SWAP1 POP SWAP2 SWAP1 POP JUMP JUMPDEST PUSH2 0x2B39 DUP2 PUSH2 0x2B25 JUMP JUMPDEST DUP3 MSTORE POP POP JUMP JUMPDEST PUSH0 PUSH1 0x20 DUP3 ADD SWAP1 POP PUSH2 0x2B52 PUSH0 DUP4 ADD DUP5 PUSH2 0x2B30 JUMP JUMPDEST SWAP3 SWAP2 POP POP JUMP JUMPDEST PUSH2 0x2B61 DUP2 PUSH2 0x2A47 JUMP JUMPDEST DUP3 MSTORE POP POP JUMP JUMPDEST PUSH0 PUSH1 0x20 DUP3 ADD SWAP1 POP PUSH2 0x2B7A PUSH0 DUP4 ADD DUP5 PUSH2 0x2B58 JUMP JUMPDEST SWAP3 SWAP2 POP POP JUMP JUMPDEST PUSH0 PUSH20 0xFFFFFFFFFFFFFFFFFFFFFFFFFFFFFFFFFFFFFFFF DUP3 AND SWAP1 POP SWAP2 SWAP1 POP JUMP JUMPDEST PUSH0 PUSH2 0x2BA9 DUP3 PUSH2 0x2B80 JUMP JUMPDEST SWAP1 POP SWAP2 SWAP1 POP JUMP JUMPDEST PUSH2 0x2BB9 DUP2 PUSH2 0x2B9F JUMP JUMPDEST DUP2 EQ PUSH2 0x2BC3 JUMPI PUSH0 PUSH0 REVERT JUMPDEST POP JUMP JUMPDEST PUSH0 DUP2 CALLDATALOAD SWAP1 POP PUSH2 0x2BD4 DUP2 PUSH2 0x2BB0 JUMP JUMPDEST SWAP3 SWAP2 POP POP JUMP JUMPDEST PUSH0 PUSH0 PUSH1 0x40 DUP4 DUP6 SUB SLT ISZERO PUSH2 0x2BF0 JUMPI PUSH2 0x2BEF PUSH2 0x2A43 JUMP JUMPDEST JUMPDEST PUSH0 PUSH2 0x2BFD DUP6 DUP3 DUP7 ADD PUSH2 0x2BC6 JUMP JUMPDEST SWAP3 POP POP PUSH1 0x20 PUSH2 0x2C0E DUP6 DUP3 DUP7 ADD PUSH2 0x2BC6 JUMP JUMPDEST SWAP2 POP POP SWAP3 POP SWAP3 SWAP1 POP JUMP JUMPDEST PUSH0 DUP2 SWAP1 POP SWAP2 SWAP1 POP JUMP JUMPDEST PUSH2 0x2C2A DUP2 PUSH2 0x2C18 JUMP JUMPDEST DUP2 EQ PUSH2 0x2C34 JUMPI PUSH0 PUSH0 REVERT JUMPDEST POP JUMP JUMPDEST PUSH0 DUP2 CALLDATALOAD SWAP1 POP PUSH2 0x2C45 DUP2 PUSH2 0x2C21 JUMP JUMPDEST SWAP3 SWAP2 POP POP JUMP JUMPDEST PUSH0 PUSH1 0x20 DUP3 DUP5 SUB SLT ISZERO PUSH2 0x2C60 JUMPI PUSH2 0x2C5F PUSH2 0x2A43 JUMP JUMPDEST JUMPDEST PUSH0 PUSH2 0x2C6D DUP5 DUP3 DUP6 ADD PUSH2 0x2C37 JUMP JUMPDEST SWAP2 POP POP SWAP3 SWAP2 POP POP JUMP JUMPDEST PUSH2 0x2C7F DUP2 PUSH2 0x2C18 JUMP JUMPDEST DUP3 MSTORE POP POP JUMP JUMPDEST PUSH0 PUSH1 0x20 DUP3 ADD SWAP1 POP PUSH2 0x2C98 PUSH0 DUP4 ADD DUP5 PUSH2 0x2C76 JUMP JUMPDEST SWAP3 SWAP2 POP POP JUMP JUMPDEST PUSH0 PUSH1 0x20 DUP3 DUP5 SUB SLT ISZERO PUSH2 0x2CB3 JUMPI PUSH2 0x2CB2 PUSH2 0x2A43 JUMP JUMPDEST JUMPDEST PUSH0 PUSH2 0x2CC0 DUP5 DUP3 DUP6 ADD PUSH2 0x2BC6 JUMP JUMPDEST SWAP2 POP POP SWAP3 SWAP2 POP POP JUMP JUMPDEST PUSH0 PUSH0 PUSH1 0x40 DUP4 DUP6 SUB SLT ISZERO PUSH2 0x2CDF JUMPI PUSH2 0x2CDE PUSH2 0x2A43 JUMP JUMPDEST JUMPDEST PUSH0 PUSH2 0x2CEC DUP6 DUP3 DUP7 ADD PUSH2 0x2BC6 JUMP JUMPDEST SWAP3 POP POP PUSH1 0x20 PUSH2 0x2CFD DUP6 DUP3 DUP7 ADD PUSH2 0x2A66 JUMP JUMPDEST SWAP2 POP POP SWAP3 POP SWAP3 SWAP1 POP JUMP JUMPDEST PUSH0 PUSH0 PUSH1 0x40 DUP4 DUP6 SUB SLT ISZERO PUSH2 0x2D1D JUMPI PUSH2 0x2D1C PUSH2 0x2A43 JUMP JUMPDEST JUMPDEST PUSH0 PUSH2 0x2D2A DUP6 DUP3 DUP7 ADD PUSH2 0x2C37 JUMP JUMPDEST SWAP3 POP POP PUSH1 0x20 PUSH2 0x2D3B DUP6 DUP3 DUP7 ADD PUSH2 0x2BC6 JUMP JUMPDEST SWAP2 POP POP SWAP3 POP SWAP3 SWAP1 POP JUMP JUMPDEST PUSH0 DUP2 SWAP1 POP SWAP2 SWAP1 POP JUMP JUMPDEST PUSH0 PUSH2 0x2D68 PUSH2 0x2D63 PUSH2 0x2D5E DUP5 PUSH2 0x2B80 JUMP JUMPDEST PUSH2 0x2D45 JUMP JUMPDEST PUSH2 0x2B80 JUMP JUMPDEST SWAP1 POP SWAP2 SWAP1 POP JUMP JUMPDEST PUSH0 PUSH2 0x2D79 DUP3 PUSH2 0x2D4E JUMP JUMPDEST SWAP1 POP SWAP2 SWAP1 POP JUMP JUMPDEST PUSH0 PUSH2 0x2D8A DUP3 PUSH2 0x2D6F JUMP JUMPDEST SWAP1 POP SWAP2 SWAP1 POP JUMP JUMPDEST PUSH2 0x2D9A DUP2 PUSH2 0x2D80 JUMP JUMPDEST DUP3 MSTORE POP POP JUMP JUMPDEST PUSH0 PUSH1 0x20 DUP3 ADD SWAP1 POP PUSH2 0x2DB3 PUSH0 DUP4 ADD DUP5 PUSH2 0x2D91 JUMP JUMPDEST SWAP3 SWAP2 POP POP JUMP JUMPDEST PUSH0 DUP2 SWAP1 POP SWAP2 SWAP1 POP JUMP JUMPDEST PUSH2 0x2DCB DUP2 PUSH2 0x2DB9 JUMP JUMPDEST DUP3 MSTORE POP POP JUMP JUMPDEST PUSH0 PUSH1 0x20 DUP3 ADD SWAP1 POP PUSH2 0x2DE4 PUSH0 DUP4 ADD DUP5 PUSH2 0x2DC2 JUMP JUMPDEST SWAP3 SWAP2 POP POP JUMP JUMPDEST PUSH32 0x4E657720636170206D7573742062652068696768657200000000000000000000 PUSH0 DUP3 ADD MSTORE POP JUMP JUMPDEST PUSH0 PUSH2 0x2E1E PUSH1 0x16 DUP4 PUSH2 0x293D JUMP JUMPDEST SWAP2 POP PUSH2 0x2E29 DUP3 PUSH2 0x2DEA JUMP JUMPDEST PUSH1 0x20 DUP3 ADD SWAP1 POP SWAP2 SWAP1 POP JUMP JUMPDEST PUSH0 PUSH1 0x20 DUP3 ADD SWAP1 POP DUP2 DUP2 SUB PUSH0 DUP4 ADD MSTORE PUSH2 0x2E4B DUP2 PUSH2 0x2E12 JUMP JUMPDEST SWAP1 POP SWAP2 SWAP1 POP JUMP JUMPDEST PUSH32 0x4163636F756E74206E6F7420666F756E64000000000000000000000000000000 PUSH0 DUP3 ADD MSTORE POP JUMP JUMPDEST PUSH0 PUSH2 0x2E86 PUSH1 0x11 DUP4 PUSH2 0x293D JUMP JUMPDEST SWAP2 POP PUSH2 0x2E91 DUP3 PUSH2 0x2E52 JUMP JUMPDEST PUSH1 0x20 DUP3 ADD SWAP1 POP SWAP2 SWAP1 POP JUMP JUMPDEST PUSH0 PUSH1 0x20 DUP3 ADD SWAP1 POP DUP2 DUP2 SUB PUSH0 DUP4 ADD MSTORE PUSH2 0x2EB3 DUP2 PUSH2 0x2E7A JUMP JUMPDEST SWAP1 POP SWAP2 SWAP1 POP JUMP JUMPDEST PUSH32 0x496E76616C696420726563697069656E74000000000000000000000000000000 PUSH0 DUP3 ADD MSTORE POP JUMP JUMPDEST PUSH0 PUSH2 0x2EEE PUSH1 0x11 DUP4 PUSH2 0x293D JUMP JUMPDEST SWAP2 POP PUSH2 0x2EF9 DUP3 PUSH2 0x2EBA JUMP JUMPDEST PUSH1 0x20 DUP3 ADD SWAP1 POP SWAP2 SWAP1 POP JUMP JUMPDEST PUSH0 PUSH1 0x20 DUP3 ADD SWAP1 POP DUP2 DUP2 SUB PUSH0 DUP4 ADD MSTORE PUSH2 0x2F1B DUP2 PUSH2 0x2EE2 JUMP JUMPDEST SWAP1 POP SWAP2 SWAP1 POP JUMP JUMPDEST PUSH32 0x43616E6E6F74207472616E7366657220746F20796F757273656C660000000000 PUSH0 DUP3 ADD MSTORE POP JUMP JUMPDEST PUSH0 PUSH2 0x2F56 PUSH1 0x1B DUP4 PUSH2 0x293D JUMP JUMPDEST SWAP2 POP PUSH2 0x2F61 DUP3 PUSH2 0x2F22 JUMP JUMPDEST PUSH1 0x20 DUP3 ADD SWAP1 POP SWAP2 SWAP1 POP JUMP JUMPDEST PUSH0 PUSH1 0x20 DUP3 ADD SWAP1 POP DUP2 DUP2 SUB PUSH0 DUP4 ADD MSTORE PUSH2 0x2F83 DUP2 PUSH2 0x2F4A JUMP JUMPDEST SWAP1 POP SWAP2 SWAP1 POP JUMP JUMPDEST PUSH32 0x53656E64657220686173206E6F206163636F756E740000000000000000000000 PUSH0 DUP3 ADD MSTORE POP JUMP JUMPDEST PUSH0 PUSH2 0x2FBE PUSH1 0x15 DUP4 PUSH2 0x293D JUMP JUMPDEST SWAP2 POP PUSH2 0x2FC9 DUP3 PUSH2 0x2F8A JUMP JUMPDEST PUSH1 0x20 DUP3 ADD SWAP1 POP SWAP2 SWAP1 POP JUMP JUMPDEST PUSH0 PUSH1 0x20 DUP3 ADD SWAP1 POP DUP2 DUP2 SUB PUSH0 DUP4 ADD MSTORE PUSH2 0x2FEB DUP2 PUSH2 0x2FB2 JUMP JUMPDEST SWAP1 POP SWAP2 SWAP1 POP JUMP JUMPDEST PUSH32 0x526563697069656E7420686173206E6F206163636F756E740000000000000000 PUSH0 DUP3 ADD MSTORE POP JUMP JUMPDEST PUSH0 PUSH2 0x3026 PUSH1 0x18 DUP4 PUSH2 0x293D JUMP JUMPDEST SWAP2 POP PUSH2 0x3031 DUP3 PUSH2 0x2FF2 JUMP JUMPDEST PUSH1 0x20 DUP3 ADD SWAP1 POP SWAP2 SWAP1 POP JUMP JUMPDEST PUSH0 PUSH1 0x20 DUP3 ADD SWAP1 POP DUP2 DUP2 SUB PUSH0 DUP4 ADD MSTORE PUSH2 0x3053 DUP2 PUSH2 0x301A JUMP JUMPDEST SWAP1 POP SWAP2 SWAP1 POP JUMP JUMPDEST PUSH32 0x416D6F756E74206D757374206265203E20300000000000000000000000000000 PUSH0 DUP3 ADD MSTORE POP JUMP JUMPDEST PUSH0 PUSH2 0x308E PUSH1 0x12 DUP4 PUSH2 0x293D JUMP JUMPDEST SWAP2 POP PUSH2 0x3099 DUP3 PUSH2 0x305A JUMP JUMPDEST PUSH1 0x20 DUP3 ADD SWAP1 POP SWAP2 SWAP1 POP JUMP JUMPDEST PUSH0 PUSH1 0x20 DUP3 ADD SWAP1 POP DUP2 DUP2 SUB PUSH0 DUP4 ADD MSTORE PUSH2 0x30BB DUP2 PUSH2 0x3082 JUMP JUMPDEST SWAP1 POP SWAP2 SWAP1 POP JUMP JUMPDEST PUSH32 0x496E73756666696369656E742066756E64730000000000000000000000000000 PUSH0 DUP3 ADD MSTORE POP JUMP JUMPDEST PUSH0 PUSH2 0x30F6 PUSH1 0x12 DUP4 PUSH2 0x293D JUMP JUMPDEST SWAP2 POP PUSH2 0x3101 DUP3 PUSH2 0x30C2 JUMP JUMPDEST PUSH1 0x20 DUP3 ADD SWAP1 POP SWAP2 SWAP1 POP JUMP JUMPDEST PUSH0 PUSH1 0x20 DUP3 ADD SWAP1 POP DUP2 DUP2 SUB PUSH0 DUP4 ADD MSTORE PUSH2 0x3123 DUP2 PUSH2 0x30EA JUMP JUMPDEST SWAP1 POP SWAP2 SWAP1 POP JUMP JUMPDEST PUSH32 0x4E487B7100000000000000000000000000000000000000000000000000000000 PUSH0 MSTORE PUSH1 0x11 PUSH1 0x4 MSTORE PUSH1 0x24 PUSH0 REVERT JUMPDEST PUSH0 PUSH2 0x3161 DUP3 PUSH2 0x2A47 JUMP JUMPDEST SWAP2 POP PUSH2 0x316C DUP4 PUSH2 0x2A47 JUMP JUMPDEST SWAP3 POP DUP3 DUP3 SUB SWAP1 POP DUP2 DUP2 GT ISZERO PUSH2 0x3184 JUMPI PUSH2 0x3183 PUSH2 0x312A JUMP JUMPDEST JUMPDEST SWAP3 SWAP2 POP POP JUMP JUMPDEST PUSH0 PUSH2 0x3194 DUP3 PUSH2 0x2A47 JUMP JUMPDEST SWAP2 POP PUSH2 0x319F DUP4 PUSH2 0x2A47 JUMP JUMPDEST SWAP3 POP DUP3 DUP3 ADD SWAP1 POP DUP1 DUP3 GT ISZERO PUSH2 0x31B7 JUMPI PUSH2 0x31B6 PUSH2 0x312A JUMP JUMPDEST JUMPDEST SWAP3 SWAP2 POP POP JUMP JUMPDEST PUSH32 0x4163636F756E7420646F6573206E6F7420657869737400000000000000000000 PUSH0 DUP3 ADD MSTORE POP JUMP JUMPDEST PUSH0 PUSH2 0x31F1 PUSH1 0x16 DUP4 PUSH2 0x293D JUMP JUMPDEST SWAP2 POP PUSH2 0x31FC DUP3 PUSH2 0x31BD JUMP JUMPDEST PUSH1 0x20 DUP3 ADD SWAP1 POP SWAP2 SWAP1 POP JUMP JUMPDEST PUSH0 PUSH1 0x20 DUP3 ADD SWAP1 POP DUP2 DUP2 SUB PUSH0 DUP4 ADD MSTORE PUSH2 0x321E DUP2 PUSH2 0x31E5 JUMP JUMPDEST SWAP1 POP SWAP2 SWAP1 POP JUMP JUMPDEST PUSH0 DUP2 SWAP1 POP SWAP3 SWAP2 POP POP JUMP JUMPDEST POP JUMP JUMPDEST PUSH0 PUSH2 0x323D PUSH0 DUP4 PUSH2 0x3225 JUMP JUMPDEST SWAP2 POP PUSH2 0x3248 DUP3 PUSH2 0x322F JUMP JUMPDEST PUSH0 DUP3 ADD SWAP1 POP SWAP2 SWAP1 POP JUMP JUMPDEST PUSH0 PUSH2 0x325C DUP3 PUSH2 0x3232 JUMP JUMPDEST SWAP2 POP DUP2 SWAP1 POP SWAP2 SWAP1 POP JUMP JUMPDEST PUSH32 0x455448207769746864726177616C206661696C65640000000000000000000000 PUSH0 DUP3 ADD MSTORE POP JUMP JUMPDEST PUSH0 PUSH2 0x329A PUSH1 0x15 DUP4 PUSH2 0x293D JUMP JUMPDEST SWAP2 POP PUSH2 0x32A5 DUP3 PUSH2 0x3266 JUMP JUMPDEST PUSH1 0x20 DUP3 ADD SWAP1 POP SWAP2 SWAP1 POP JUMP JUMPDEST PUSH0 PUSH1 0x20 DUP3 ADD SWAP1 POP DUP2 DUP2 SUB PUSH0 DUP4 ADD MSTORE PUSH2 0x32C7 DUP2 PUSH2 0x328E JUMP JUMPDEST SWAP1 POP SWAP2 SWAP1 POP JUMP JUMPDEST PUSH0 PUSH10 0xFFFFFFFFFFFFFFFFFFFF DUP3 AND SWAP1 POP SWAP2 SWAP1 POP JUMP JUMPDEST PUSH2 0x32EC DUP2 PUSH2 0x32CE JUMP JUMPDEST DUP2 EQ PUSH2 0x32F6 JUMPI PUSH0 PUSH0 REVERT JUMPDEST POP JUMP JUMPDEST PUSH0 DUP2 MLOAD SWAP1 POP PUSH2 0x3307 DUP2 PUSH2 0x32E3 JUMP JUMPDEST SWAP3 SWAP2 POP POP JUMP JUMPDEST PUSH2 0x3316 DUP2 PUSH2 0x2DB9 JUMP JUMPDEST DUP2 EQ PUSH2 0x3320 JUMPI PUSH0 PUSH0 REVERT JUMPDEST POP JUMP JUMPDEST PUSH0 DUP2 MLOAD SWAP1 POP PUSH2 0x3331 DUP2 PUSH2 0x330D JUMP JUMPDEST SWAP3 SWAP2 POP POP JUMP JUMPDEST PUSH0 DUP2 MLOAD SWAP1 POP PUSH2 0x3345 DUP2 PUSH2 0x2A50 JUMP JUMPDEST SWAP3 SWAP2 POP POP JUMP JUMPDEST PUSH0 PUSH0 PUSH0 PUSH0 PUSH0 PUSH1 0xA0 DUP7 DUP9 SUB SLT ISZERO PUSH2 0x3364 JUMPI PUSH2 0x3363 PUSH2 0x2A43 JUMP JUMPDEST JUMPDEST PUSH0 PUSH2 0x3371 DUP9 DUP3 DUP10 ADD PUSH2 0x32F9 JUMP JUMPDEST SWAP6 POP POP PUSH1 0x20 PUSH2 0x3382 DUP9 DUP3 DUP10 ADD PUSH2 0x3323 JUMP JUMPDEST SWAP5 POP POP PUSH1 0x40 PUSH2 0x3393 DUP9 DUP3 DUP10 ADD PUSH2 0x3337 JUMP JUMPDEST SWAP4 POP POP PUSH1 0x60 PUSH2 0x33A4 DUP9 DUP3 DUP10 ADD PUSH2 0x3337 JUMP JUMPDEST SWAP3 POP POP PUSH1 0x80 PUSH2 0x33B5 DUP9 DUP3 DUP10 ADD PUSH2 0x32F9 JUMP JUMPDEST SWAP2 POP POP SWAP3 SWAP6 POP SWAP3 SWAP6 SWAP1 SWAP4 POP JUMP JUMPDEST PUSH32 0x496E76616C696420707269636500000000000000000000000000000000000000 PUSH0 DUP3 ADD MSTORE POP JUMP JUMPDEST PUSH0 PUSH2 0x33F6 PUSH1 0xD DUP4 PUSH2 0x293D JUMP JUMPDEST SWAP2 POP PUSH2 0x3401 DUP3 PUSH2 0x33C2 JUMP JUMPDEST PUSH1 0x20 DUP3 ADD SWAP1 POP SWAP2 SWAP1 POP JUMP JUMPDEST PUSH0 PUSH1 0x20 DUP3 ADD SWAP1 POP DUP2 DUP2 SUB PUSH0 DUP4 ADD MSTORE PUSH2 0x3423 DUP2 PUSH2 0x33EA JUMP JUMPDEST SWAP1 POP SWAP2 SWAP1 POP JUMP JUMPDEST PUSH0 PUSH2 0x3434 DUP3 PUSH2 0x2A47 JUMP JUMPDEST SWAP2 POP PUSH2 0x343F DUP4 PUSH2 0x2A47 JUMP JUMPDEST SWAP3 POP DUP3 DUP3 MUL PUSH2 0x344D DUP2 PUSH2 0x2A47 JUMP JUMPDEST SWAP2 POP DUP3 DUP3 DIV DUP5 EQ DUP4 ISZERO OR PUSH2 0x3464 JUMPI PUSH2 0x3463 PUSH2 0x312A JUMP JUMPDEST JUMPDEST POP SWAP3 SWAP2 POP POP JUMP JUMPDEST PUSH32 0x4E487B7100000000000000000000000000000000000000000000000000000000 PUSH0 MSTORE PUSH1 0x12 PUSH1 0x4 MSTORE PUSH1 0x24 PUSH0 REVERT JUMPDEST PUSH0 PUSH2 0x34A2 DUP3 PUSH2 0x2A47 JUMP JUMPDEST SWAP2 POP PUSH2 0x34AD DUP4 PUSH2 0x2A47 JUMP JUMPDEST SWAP3 POP DUP3 PUSH2 0x34BD JUMPI PUSH2 0x34BC PUSH2 0x346B JUMP JUMPDEST JUMPDEST DUP3 DUP3 DIV SWAP1 POP SWAP3 SWAP2 POP POP JUMP JUMPDEST PUSH32 0x4465706F73697473206172652070617573656400000000000000000000000000 PUSH0 DUP3 ADD MSTORE POP JUMP JUMPDEST PUSH0 PUSH2 0x34FC PUSH1 0x13 DUP4 PUSH2 0x293D JUMP JUMPDEST SWAP2 POP PUSH2 0x3507 DUP3 PUSH2 0x34C8 JUMP JUMPDEST PUSH1 0x20 DUP3 ADD SWAP1 POP SWAP2 SWAP1 POP JUMP JUMPDEST PUSH0 PUSH1 0x20 DUP3 ADD SWAP1 POP DUP2 DUP2 SUB PUSH0 DUP4 ADD MSTORE PUSH2 0x3529 DUP2 PUSH2 0x34F0 JUMP JUMPDEST SWAP1 POP SWAP2 SWAP1 POP JUMP JUMPDEST PUSH32 0x546F6B656E206E6F7420616C6C6F776564000000000000000000000000000000 PUSH0 DUP3 ADD MSTORE POP JUMP JUMPDEST PUSH0 PUSH2 0x3564 PUSH1 0x11 DUP4 PUSH2 0x293D JUMP JUMPDEST SWAP2 POP PUSH2 0x356F DUP3 PUSH2 0x3530 JUMP JUMPDEST PUSH1 0x20 DUP3 ADD SWAP1 POP SWAP2 SWAP1 POP JUMP JUMPDEST PUSH0 PUSH1 0x20 DUP3 ADD SWAP1 POP DUP2 DUP2 SUB PUSH0 DUP4 ADD MSTORE PUSH2 0x3591 DUP2 PUSH2 0x3558 JUMP JUMPDEST SWAP1 POP SWAP2 SWAP1 POP JUMP JUMPDEST PUSH2 0x35A1 DUP2 PUSH2 0x2B9F JUMP JUMPDEST DUP3 MSTORE POP POP JUMP JUMPDEST PUSH0 PUSH1 0x60 DUP3 ADD SWAP1 POP PUSH2 0x35BA PUSH0 DUP4 ADD DUP7 PUSH2 0x3598 JUMP JUMPDEST PUSH2 0x35C7 PUSH1 0x20 DUP4 ADD DUP6 PUSH2 0x3598 JUMP JUMPDEST PUSH2 0x35D4 PUSH1 0x40 DUP4 ADD DUP5 PUSH2 0x2B58 JUMP JUMPDEST SWAP5 SWAP4 POP POP POP POP JUMP JUMPDEST PUSH2 0x35E5 DUP2 PUSH2 0x2B25 JUMP JUMPDEST DUP2 EQ PUSH2 0x35EF JUMPI PUSH0 PUSH0 REVERT JUMPDEST POP JUMP JUMPDEST PUSH0 DUP2 MLOAD SWAP1 POP PUSH2 0x3600 DUP2 PUSH2 0x35DC JUMP JUMPDEST SWAP3 SWAP2 POP POP JUMP JUMPDEST PUSH0 PUSH1 0x20 DUP3 DUP5 SUB SLT ISZERO PUSH2 0x361B JUMPI PUSH2 0x361A PUSH2 0x2A43 JUMP JUMPDEST JUMPDEST PUSH0 PUSH2 0x3628 DUP5 DUP3 DUP6 ADD PUSH2 0x35F2 JUMP JUMPDEST SWAP2 POP POP SWAP3 SWAP2 POP POP JUMP JUMPDEST PUSH32 0x546F6B656E207472616E73666572206661696C65640000000000000000000000 PUSH0 DUP3 ADD MSTORE POP JUMP JUMPDEST PUSH0 PUSH2 0x3665 PUSH1 0x15 DUP4 PUSH2 0x293D JUMP JUMPDEST SWAP2 POP PUSH2 0x3670 DUP3 PUSH2 0x3631 JUMP JUMPDEST PUSH1 0x20 DUP3 ADD SWAP1 POP SWAP2 SWAP1 POP JUMP JUMPDEST PUSH0 PUSH1 0x20 DUP3 ADD SWAP1 POP DUP2 DUP2 SUB PUSH0 DUP4 ADD MSTORE PUSH2 0x3692 DUP2 PUSH2 0x3659 JUMP JUMPDEST SWAP1 POP SWAP2 SWAP1 POP JUMP JUMPDEST PUSH32 0x496E76616C696420757365722061646472657373000000000000000000000000 PUSH0 DUP3 ADD MSTORE POP JUMP JUMPDEST PUSH0 PUSH2 0x36CD PUSH1 0x14 DUP4 PUSH2 0x293D JUMP JUMPDEST SWAP2 POP PUSH2 0x36D8 DUP3 PUSH2 0x3699 JUMP JUMPDEST PUSH1 0x20 DUP3 ADD SWAP1 POP SWAP2 SWAP1 POP JUMP JUMPDEST PUSH0 PUSH1 0x20 DUP3 ADD SWAP1 POP DUP2 DUP2 SUB PUSH0 DUP4 ADD MSTORE PUSH2 0x36FA DUP2 PUSH2 0x36C1 JUMP JUMPDEST SWAP1 POP SWAP2 SWAP1 POP JUMP JUMPDEST PUSH32 0x4163636F756E7420616C72656164792065786973747300000000000000000000 PUSH0 DUP3 ADD MSTORE POP JUMP JUMPDEST PUSH0 PUSH2 0x3735 PUSH1 0x16 DUP4 PUSH2 0x293D JUMP JUMPDEST SWAP2 POP PUSH2 0x3740 DUP3 PUSH2 0x3701 JUMP JUMPDEST PUSH1 0x20 DUP3 ADD SWAP1 POP SWAP2 SWAP1 POP JUMP JUMPDEST PUSH0 PUSH1 0x20 DUP3 ADD SWAP1 POP DUP2 DUP2 SUB PUSH0 DUP4 ADD MSTORE PUSH2 0x3762 DUP2 PUSH2 0x3729 JUMP JUMPDEST SWAP1 POP SWAP2 SWAP1 POP JUMP JUMPDEST PUSH32 0x496E73756666696369656E7420746F6B656E2062616C616E6365000000000000 PUSH0 DUP3 ADD MSTORE POP JUMP JUMPDEST PUSH0 PUSH2 0x379D PUSH1 0x1A DUP4 PUSH2 0x293D JUMP JUMPDEST SWAP2 POP PUSH2 0x37A8 DUP3 PUSH2 0x3769 JUMP JUMPDEST PUSH1 0x20 DUP3 ADD SWAP1 POP SWAP2 SWAP1 POP JUMP JUMPDEST PUSH0 PUSH1 0x20 DUP3 ADD SWAP1 POP DUP2 DUP2 SUB PUSH0 DUP4 ADD MSTORE PUSH2 0x37CA DUP2 PUSH2 0x3791 JUMP JUMPDEST SWAP1 POP SWAP2 SWAP1 POP JUMP JUMPDEST PUSH0 PUSH1 0x40 DUP3 ADD SWAP1 POP PUSH2 0x37E4 PUSH0 DUP4 ADD DUP6 PUSH2 0x3598 JUMP JUMPDEST PUSH2 0x37F1 PUSH1 0x20 DUP4 ADD DUP5 PUSH2 0x2B58 JUMP JUMPDEST SWAP4 SWAP3 POP POP POP JUMP JUMPDEST PUSH32 0x546F6B656E207769746864726177206661696C65640000000000000000000000 PUSH0 DUP3 ADD MSTORE POP JUMP JUMPDEST PUSH0 PUSH2 0x382C PUSH1 0x15 DUP4 PUSH2 0x293D JUMP JUMPDEST SWAP2 POP PUSH2 0x3837 DUP3 PUSH2 0x37F8 JUMP JUMPDEST PUSH1 0x20 DUP3 ADD SWAP1 POP SWAP2 SWAP1 POP JUMP JUMPDEST PUSH0 PUSH1 0x20 DUP3 ADD SWAP1 POP DUP2 DUP2 SUB PUSH0 DUP4 ADD MSTORE PUSH2 0x3859 DUP2 PUSH2 0x3820 JUMP JUMPDEST SWAP1 POP SWAP2 SWAP1 POP JUMP JUMPDEST PUSH32 0x496E76616C696420746F6B656E00000000000000000000000000000000000000 PUSH0 DUP3 ADD MSTORE POP JUMP JUMPDEST PUSH0 PUSH2 0x3894 PUSH1 0xD DUP4 PUSH2 0x293D JUMP JUMPDEST SWAP2 POP PUSH2 0x389F DUP3 PUSH2 0x3860 JUMP JUMPDEST PUSH1 0x20 DUP3 ADD SWAP1 POP SWAP2 SWAP1 POP JUMP JUMPDEST PUSH0 PUSH1 0x20 DUP3 ADD SWAP1 POP DUP2 DUP2 SUB PUSH0 DUP4 ADD MSTORE PUSH2 0x38C1 DUP2 PUSH2 0x3888 JUMP JUMPDEST SWAP1 POP SWAP2 SWAP1 POP JUMP JUMPDEST PUSH32 0x42616E6B20636170206578636565646564000000000000000000000000000000 PUSH0 DUP3 ADD MSTORE POP JUMP JUMPDEST PUSH0 PUSH2 0x38FC PUSH1 0x11 DUP4 PUSH2 0x293D JUMP JUMPDEST SWAP2 POP PUSH2 0x3907 DUP3 PUSH2 0x38C8 JUMP JUMPDEST PUSH1 0x20 DUP3 ADD SWAP1 POP SWAP2 SWAP1 POP JUMP JUMPDEST PUSH0 PUSH1 0x20 DUP3 ADD SWAP1 POP DUP2 DUP2 SUB PUSH0 DUP4 ADD MSTORE PUSH2 0x3929 DUP2 PUSH2 0x38F0 JUMP JUMPDEST SWAP1 POP SWAP2 SWAP1 POP JUMP JUMPDEST PUSH32 0x4465706F736974206D757374206265203E203000000000000000000000000000 PUSH0 DUP3 ADD MSTORE POP JUMP JUMPDEST PUSH0 PUSH2 0x3964 PUSH1 0x13 DUP4 PUSH2 0x293D JUMP JUMPDEST SWAP2 POP PUSH2 0x396F DUP3 PUSH2 0x3930 JUMP JUMPDEST PUSH1 0x20 DUP3 ADD SWAP1 POP SWAP2 SWAP1 POP JUMP JUMPDEST PUSH0 PUSH1 0x20 DUP3 ADD SWAP1 POP DUP2 DUP2 SUB PUSH0 DUP4 ADD MSTORE PUSH2 0x3991 DUP2 PUSH2 0x3958 JUMP JUMPDEST SWAP1 POP SWAP2 SWAP1 POP JUMP JUMPDEST PUSH0 PUSH1 0x40 DUP3 ADD SWAP1 POP PUSH2 0x39AB PUSH0 DUP4 ADD DUP6 PUSH2 0x3598 JUMP JUMPDEST PUSH2 0x39B8 PUSH1 0x20 DUP4 ADD DUP5 PUSH2 0x2C76 JUMP JUMPDEST SWAP4 SWAP3 POP POP POP JUMP INVALID LOG2 PUSH5 0x6970667358 0x22 SLT KECCAK256 PUSH18 0xB7F176304F354B0EF9786022AA876A19D3F2 MSTORE8 0xA6 0xDB ADDMOD 0xE LOG2 0xBB 0xE SELFDESTRUCT TIMESTAMP SHR 0xA7 LOG0 PUSH5 0x736F6C6343 STOP ADDMOD 0x1E STOP CALLER "
				},
				"gasEstimates": {
					"creation": {
						"codeDepositCost": "2967400",
						"executionCost": "infinite",
						"totalCost": "infinite"
					},
					"external": {
						"": "513",
						"ADMIN_ROLE()": "458",
						"CLIENT_ROLE()": "391",
						"DEFAULT_ADMIN_ROLE()": "418",
						"MANAGER_ROLE()": "413",
						"allowToken(address)": "infinite",
						"allowedTokens(address)": "2944",
						"bankCapUSD()": "2471",
						"convertETHtoUSD(uint256)": "infinite",
						"createAccount(address)": "infinite",
						"deposit()": "infinite",
						"depositERC20(address,uint256)": "infinite",
						"depositsPaused()": "2533",
						"disallowToken(address)": "infinite",
						"getBalance()": "5105",
						"getLatestETHPrice()": "infinite",
						"getRoleAdmin(bytes32)": "infinite",
						"getTokenBalance(address)": "infinite",
						"grantManagerRole(address)": "infinite",
						"grantRole(bytes32,address)": "infinite",
						"hasRole(bytes32,address)": "3188",
						"increaseBankCap(uint256)": "27153",
						"pauseDeposits()": "26968",
						"priceFeed()": "infinite",
						"renounceRole(bytes32,address)": "infinite",
						"revokeAnyRole(bytes32,address)": "infinite",
						"revokeManagerRole(address)": "infinite",
						"revokeRole(bytes32,address)": "infinite",
						"supportsInterface(bytes4)": "786",
						"totalDepositedUSD()": "2535",
						"transferTo(address,uint256)": "infinite",
						"unpauseDeposits()": "26965",
						"viewBalanceAsManager(address)": "infinite",
						"viewTokenBalanceAsManager(address,address)": "infinite",
						"withdraw(uint256)": "infinite",
						"withdrawERC20(address,uint256)": "infinite"
					}
				},
				"methodIdentifiers": {
					"ADMIN_ROLE()": "75b238fc",
					"CLIENT_ROLE()": "eae6f652",
					"DEFAULT_ADMIN_ROLE()": "a217fddf",
					"MANAGER_ROLE()": "ec87621c",
					"allowToken(address)": "b53472ef",
					"allowedTokens(address)": "e744092e",
					"bankCapUSD()": "18c8cfbe",
					"convertETHtoUSD(uint256)": "951bc75a",
					"createAccount(address)": "9859387b",
					"deposit()": "d0e30db0",
					"depositERC20(address,uint256)": "97feb926",
					"depositsPaused()": "60da3e83",
					"disallowToken(address)": "e79767af",
					"getBalance()": "12065fe0",
					"getLatestETHPrice()": "777e0d86",
					"getRoleAdmin(bytes32)": "248a9ca3",
					"getTokenBalance(address)": "3aecd0e3",
					"grantManagerRole(address)": "26e885e3",
					"grantRole(bytes32,address)": "2f2ff15d",
					"hasRole(bytes32,address)": "91d14854",
					"increaseBankCap(uint256)": "0069ea28",
					"pauseDeposits()": "02191980",
					"priceFeed()": "741bef1a",
					"renounceRole(bytes32,address)": "36568abe",
					"revokeAnyRole(bytes32,address)": "b71129c3",
					"revokeManagerRole(address)": "be4dc94f",
					"revokeRole(bytes32,address)": "d547741f",
					"supportsInterface(bytes4)": "01ffc9a7",
					"totalDepositedUSD()": "eea88c51",
					"transferTo(address,uint256)": "2ccb1b30",
					"unpauseDeposits()": "63d8882a",
					"viewBalanceAsManager(address)": "f01cab3c",
					"viewTokenBalanceAsManager(address,address)": "20aa9a26",
					"withdraw(uint256)": "2e1a7d4d",
					"withdrawERC20(address,uint256)": "a1db9782"
				}
			},
			"storageLayout": {
				"storage": [
					{
						"astId": 73,
						"contract": "src/KipuBankV2.sol:KipuBankV2",
						"label": "_roles",
						"offset": 0,
						"slot": "0",
						"type": "t_mapping(t_bytes32,t_struct(RoleData)68_storage)"
					},
					{
						"astId": 836,
						"contract": "src/KipuBankV2.sol:KipuBankV2",
						"label": "priceFeed",
						"offset": 0,
						"slot": "1",
						"type": "t_contract(AggregatorV3Interface)45"
					},
					{
						"astId": 839,
						"contract": "src/KipuBankV2.sol:KipuBankV2",
						"label": "bankCapUSD",
						"offset": 0,
						"slot": "2",
						"type": "t_uint256"
					},
					{
						"astId": 842,
						"contract": "src/KipuBankV2.sol:KipuBankV2",
						"label": "totalDepositedUSD",
						"offset": 0,
						"slot": "3",
						"type": "t_uint256"
					},
					{
						"astId": 845,
						"contract": "src/KipuBankV2.sol:KipuBankV2",
						"label": "depositsPaused",
						"offset": 0,
						"slot": "4",
						"type": "t_bool"
					},
					{
						"astId": 896,
						"contract": "src/KipuBankV2.sol:KipuBankV2",
						"label": "accounts",
						"offset": 0,
						"slot": "5",
						"type": "t_mapping(t_address,t_struct(Account)890_storage)"
					},
					{
						"astId": 903,
						"contract": "src/KipuBankV2.sol:KipuBankV2",
						"label": "tokenBalances",
						"offset": 0,
						"slot": "6",
						"type": "t_mapping(t_address,t_mapping(t_address,t_uint256))"
					},
					{
						"astId": 907,
						"contract": "src/KipuBankV2.sol:KipuBankV2",
						"label": "allowedTokens",
						"offset": 0,
						"slot": "7",
						"type": "t_mapping(t_address,t_bool)"
					}
				],
				"types": {
					"t_address": {
						"encoding": "inplace",
						"label": "address",
						"numberOfBytes": "20"
					},
					"t_bool": {
						"encoding": "inplace",
						"label": "bool",
						"numberOfBytes": "1"
					},
					"t_bytes32": {
						"encoding": "inplace",
						"label": "bytes32",
						"numberOfBytes": "32"
					},
					"t_contract(AggregatorV3Interface)45": {
						"encoding": "inplace",
						"label": "contract AggregatorV3Interface",
						"numberOfBytes": "20"
					},
					"t_mapping(t_address,t_bool)": {
						"encoding": "mapping",
						"key": "t_address",
						"label": "mapping(address => bool)",
						"numberOfBytes": "32",
						"value": "t_bool"
					},
					"t_mapping(t_address,t_mapping(t_address,t_uint256))": {
						"encoding": "mapping",
						"key": "t_address",
						"label": "mapping(address => mapping(address => uint256))",
						"numberOfBytes": "32",
						"value": "t_mapping(t_address,t_uint256)"
					},
					"t_mapping(t_address,t_struct(Account)890_storage)": {
						"encoding": "mapping",
						"key": "t_address",
						"label": "mapping(address => struct KipuBankV2.Account)",
						"numberOfBytes": "32",
						"value": "t_struct(Account)890_storage"
					},
					"t_mapping(t_address,t_uint256)": {
						"encoding": "mapping",
						"key": "t_address",
						"label": "mapping(address => uint256)",
						"numberOfBytes": "32",
						"value": "t_uint256"
					},
					"t_mapping(t_bytes32,t_struct(RoleData)68_storage)": {
						"encoding": "mapping",
						"key": "t_bytes32",
						"label": "mapping(bytes32 => struct AccessControl.RoleData)",
						"numberOfBytes": "32",
						"value": "t_struct(RoleData)68_storage"
					},
					"t_struct(Account)890_storage": {
						"encoding": "inplace",
						"label": "struct KipuBankV2.Account",
						"members": [
							{
								"astId": 887,
								"contract": "src/KipuBankV2.sol:KipuBankV2",
								"label": "balance",
								"offset": 0,
								"slot": "0",
								"type": "t_uint256"
							},
							{
								"astId": 889,
								"contract": "src/KipuBankV2.sol:KipuBankV2",
								"label": "exists",
								"offset": 0,
								"slot": "1",
								"type": "t_bool"
							}
						],
						"numberOfBytes": "64"
					},
					"t_struct(RoleData)68_storage": {
						"encoding": "inplace",
						"label": "struct AccessControl.RoleData",
						"members": [
							{
								"astId": 65,
								"contract": "src/KipuBankV2.sol:KipuBankV2",
								"label": "hasRole",
								"offset": 0,
								"slot": "0",
								"type": "t_mapping(t_address,t_bool)"
							},
							{
								"astId": 67,
								"contract": "src/KipuBankV2.sol:KipuBankV2",
								"label": "adminRole",
								"offset": 0,
								"slot": "1",
								"type": "t_bytes32"
							}
						],
						"numberOfBytes": "64"
					},
					"t_uint256": {
						"encoding": "inplace",
						"label": "uint256",
						"numberOfBytes": "32"
					}
				}
			},
			"userdoc": {
				"kind": "user",
				"methods": {
					"allowToken(address)": {
						"notice": "Manager can enable a token for deposits"
					},
					"bankCapUSD()": {
						"notice": "Maximum USD value allowed for total deposits (1e8 decimals)"
					},
					"convertETHtoUSD(uint256)": {
						"notice": "Converts wei → USD with 8 decimals"
					},
					"disallowToken(address)": {
						"notice": "Manager can disable a token (prevents new deposits; existing balances remain withdrawable)"
					},
					"getLatestETHPrice()": {
						"notice": "Returns latest ETH/USD price (8 decimals)"
					},
					"increaseBankCap(uint256)": {
						"notice": "Manager can increase the USD cap (never decrease)"
					},
					"pauseDeposits()": {
						"notice": "Manager can pause all ETH and ERC20 deposits"
					},
					"priceFeed()": {
						"notice": "Chainlink price feed (ETH/USD)"
					},
					"totalDepositedUSD()": {
						"notice": "Total deposited value converted to USD (1e8 decimals)"
					},
					"unpauseDeposits()": {
						"notice": "Manager can unpause deposits"
					},
					"viewBalanceAsManager(address)": {
						"notice": "Manager can view ETH balance of any client"
					},
					"viewTokenBalanceAsManager(address,address)": {
						"notice": "Manager can view ERC20 balance of any client"
					}
				},
				"notice": "Multi-asset vault with ETH, ERC20, access-control, Chainlink price feed and USD-based deposit cap.",
				"version": 1
			}
		}
	}
}